{
  "abi": [
    {
      "inputs": [
        {
          "internalType": "address",
          "name": "_admin",
          "type": "address"
        },
        {
          "internalType": "string",
          "name": "_baseUri",
          "type": "string"
        },
        {
          "internalType": "address",
          "name": "_stableCoin",
          "type": "address"
        },
        {
          "internalType": "address",
          "name": "_proxyAddress",
          "type": "address"
        }
      ],
      "stateMutability": "nonpayable",
      "type": "constructor"
    },
    {
      "anonymous": false,
      "inputs": [
        {
          "indexed": true,
          "internalType": "address",
          "name": "admin",
          "type": "address"
        }
      ],
      "name": "AdminChanged",
      "type": "event"
    },
    {
      "anonymous": false,
      "inputs": [
        {
          "indexed": true,
          "internalType": "address",
          "name": "account",
          "type": "address"
        },
        {
          "indexed": true,
          "internalType": "address",
          "name": "operator",
          "type": "address"
        },
        {
          "indexed": false,
          "internalType": "bool",
          "name": "approved",
          "type": "bool"
        }
      ],
      "name": "ApprovalForAll",
      "type": "event"
    },
    {
      "anonymous": false,
      "inputs": [
        {
          "indexed": true,
          "internalType": "address",
          "name": "who",
          "type": "address"
        },
        {
          "indexed": true,
          "internalType": "uint256",
          "name": "amount",
          "type": "uint256"
        }
      ],
      "name": "BalanceDeposit",
      "type": "event"
    },
    {
      "anonymous": false,
      "inputs": [
        {
          "indexed": true,
          "internalType": "address",
          "name": "who",
          "type": "address"
        },
        {
          "indexed": true,
          "internalType": "uint256",
          "name": "amount",
          "type": "uint256"
        }
      ],
      "name": "BalanceWithdraw",
      "type": "event"
    },
    {
      "anonymous": false,
      "inputs": [
        {
          "indexed": true,
          "internalType": "uint32",
          "name": "projectId",
          "type": "uint32"
        },
        {
          "indexed": true,
          "internalType": "uint128",
          "name": "qty",
          "type": "uint128"
        },
        {
          "indexed": true,
          "internalType": "address",
          "name": "burner",
          "type": "address"
        }
      ],
      "name": "Burn",
      "type": "event"
    },
    {
      "anonymous": false,
      "inputs": [
        {
          "indexed": true,
          "internalType": "address",
          "name": "staker",
          "type": "address"
        },
        {
          "indexed": true,
          "internalType": "uint32",
          "name": "projectId",
          "type": "uint32"
        },
        {
          "indexed": false,
          "internalType": "uint256",
          "name": "amount",
          "type": "uint256"
        }
      ],
      "name": "CollectRewards",
      "type": "event"
    },
    {
      "anonymous": false,
      "inputs": [
        {
          "indexed": false,
          "internalType": "address",
          "name": "userAddress",
          "type": "address"
        },
        {
          "indexed": false,
          "internalType": "address payable",
          "name": "relayerAddress",
          "type": "address"
        },
        {
          "indexed": false,
          "internalType": "bytes",
          "name": "functionSignature",
          "type": "bytes"
        }
      ],
      "name": "MetaTransactionExecuted",
      "type": "event"
    },
    {
      "anonymous": false,
      "inputs": [
        {
          "indexed": true,
          "internalType": "uint32",
          "name": "projectId",
          "type": "uint32"
        },
        {
          "indexed": true,
          "internalType": "uint128",
          "name": "qty",
          "type": "uint128"
        },
        {
          "indexed": false,
          "internalType": "address",
          "name": "minter",
          "type": "address"
        },
        {
          "indexed": true,
          "internalType": "address",
          "name": "to",
          "type": "address"
        }
      ],
      "name": "Mint",
      "type": "event"
    },
    {
      "anonymous": false,
      "inputs": [
        {
          "indexed": true,
          "internalType": "address",
          "name": "previousOwner",
          "type": "address"
        },
        {
          "indexed": true,
          "internalType": "address",
          "name": "newOwner",
          "type": "address"
        }
      ],
      "name": "OwnershipTransferred",
      "type": "event"
    },
    {
      "anonymous": false,
      "inputs": [
        {
          "indexed": true,
          "internalType": "uint32",
          "name": "id",
          "type": "uint32"
        }
      ],
      "name": "ProjectCreated",
      "type": "event"
    },
    {
      "anonymous": false,
      "inputs": [
        {
          "indexed": true,
          "internalType": "uint32",
          "name": "projectId",
          "type": "uint32"
        },
        {
          "indexed": true,
          "internalType": "bytes1",
          "name": "status",
          "type": "bytes1"
        }
      ],
      "name": "ProjectStatusChanged",
      "type": "event"
    },
    {
      "anonymous": false,
      "inputs": [
        {
          "indexed": true,
          "internalType": "address",
          "name": "staker",
          "type": "address"
        },
        {
          "indexed": false,
          "internalType": "uint256",
          "name": "amount",
          "type": "uint256"
        }
      ],
      "name": "StakeEvent",
      "type": "event"
    },
    {
      "anonymous": false,
      "inputs": [
        {
          "indexed": true,
          "internalType": "address",
          "name": "operator",
          "type": "address"
        },
        {
          "indexed": true,
          "internalType": "address",
          "name": "from",
          "type": "address"
        },
        {
          "indexed": true,
          "internalType": "address",
          "name": "to",
          "type": "address"
        },
        {
          "indexed": false,
          "internalType": "uint256[]",
          "name": "ids",
          "type": "uint256[]"
        },
        {
          "indexed": false,
          "internalType": "uint256[]",
          "name": "values",
          "type": "uint256[]"
        }
      ],
      "name": "TransferBatch",
      "type": "event"
    },
    {
      "anonymous": false,
      "inputs": [
        {
          "indexed": true,
          "internalType": "address",
          "name": "operator",
          "type": "address"
        },
        {
          "indexed": true,
          "internalType": "address",
          "name": "from",
          "type": "address"
        },
        {
          "indexed": true,
          "internalType": "address",
          "name": "to",
          "type": "address"
        },
        {
          "indexed": false,
          "internalType": "uint256",
          "name": "id",
          "type": "uint256"
        },
        {
          "indexed": false,
          "internalType": "uint256",
          "name": "value",
          "type": "uint256"
        }
      ],
      "name": "TransferSingle",
      "type": "event"
    },
    {
      "anonymous": false,
      "inputs": [
        {
          "indexed": false,
          "internalType": "string",
          "name": "value",
          "type": "string"
        },
        {
          "indexed": true,
          "internalType": "uint256",
          "name": "id",
          "type": "uint256"
        }
      ],
      "name": "URI",
      "type": "event"
    },
    {
      "inputs": [],
      "name": "ERC712_VERSION",
      "outputs": [
        {
          "internalType": "string",
          "name": "",
          "type": "string"
        }
      ],
      "stateMutability": "view",
      "type": "function"
    },
    {
      "inputs": [],
      "name": "admin",
      "outputs": [
        {
          "internalType": "address",
          "name": "",
          "type": "address"
        }
      ],
      "stateMutability": "view",
      "type": "function"
    },
    {
      "inputs": [
        {
          "internalType": "uint32",
          "name": "projectId",
          "type": "uint32"
        },
        {
          "internalType": "uint32",
          "name": "qty",
          "type": "uint32"
        },
        {
          "internalType": "address",
          "name": "to",
          "type": "address"
        }
      ],
      "name": "adminBurn",
      "outputs": [
        {
          "internalType": "bool",
          "name": "",
          "type": "bool"
        }
      ],
      "stateMutability": "payable",
      "type": "function"
    },
    {
      "inputs": [
        {
          "internalType": "uint32",
          "name": "projectId",
          "type": "uint32"
        },
        {
          "internalType": "uint32",
          "name": "qty",
          "type": "uint32"
        },
        {
          "internalType": "address",
          "name": "to",
          "type": "address"
        },
        {
          "internalType": "uint64",
          "name": "nonce",
          "type": "uint64"
        },
        {
          "components": [
            {
              "internalType": "bytes32",
              "name": "r",
              "type": "bytes32"
            },
            {
              "internalType": "bytes32",
              "name": "s",
              "type": "bytes32"
            },
            {
              "internalType": "uint8",
              "name": "v",
              "type": "uint8"
            }
          ],
          "internalType": "struct Sig",
          "name": "sig",
          "type": "tuple"
        }
      ],
      "name": "authorizedMint",
      "outputs": [
        {
          "internalType": "bool",
          "name": "",
          "type": "bool"
        }
      ],
      "stateMutability": "payable",
      "type": "function"
    },
    {
      "inputs": [
        {
          "internalType": "address",
          "name": "account",
          "type": "address"
        },
        {
          "internalType": "uint256",
          "name": "id",
          "type": "uint256"
        }
      ],
      "name": "balanceOf",
      "outputs": [
        {
          "internalType": "uint256",
          "name": "",
          "type": "uint256"
        }
      ],
      "stateMutability": "view",
      "type": "function"
    },
    {
      "inputs": [
        {
          "internalType": "address[]",
          "name": "accounts",
          "type": "address[]"
        },
        {
          "internalType": "uint256[]",
          "name": "ids",
          "type": "uint256[]"
        }
      ],
      "name": "balanceOfBatch",
      "outputs": [
        {
          "internalType": "uint256[]",
          "name": "",
          "type": "uint256[]"
        }
      ],
      "stateMutability": "view",
      "type": "function"
    },
    {
      "inputs": [
        {
          "internalType": "uint32",
          "name": "projectId",
          "type": "uint32"
        },
        {
          "internalType": "uint32",
          "name": "qty",
          "type": "uint32"
        }
      ],
      "name": "burn",
      "outputs": [
        {
          "internalType": "bool",
          "name": "",
          "type": "bool"
        }
      ],
      "stateMutability": "nonpayable",
      "type": "function"
    },
    {
      "inputs": [
        {
          "internalType": "uint256",
          "name": "_amount",
          "type": "uint256"
        },
        {
          "internalType": "uint64",
          "name": "_startTime",
          "type": "uint64"
        },
        {
          "internalType": "uint64",
          "name": "_endTime",
          "type": "uint64"
        },
        {
          "internalType": "uint256",
          "name": "apy",
          "type": "uint256"
        }
      ],
      "name": "calculateRewards",
      "outputs": [
        {
          "internalType": "uint256",
          "name": "rewards",
          "type": "uint256"
        }
      ],
      "stateMutability": "pure",
      "type": "function"
    },
    {
      "inputs": [
        {
          "internalType": "address",
          "name": "newAdmin_",
          "type": "address"
        }
      ],
      "name": "changeAdmin",
      "outputs": [],
      "stateMutability": "nonpayable",
      "type": "function"
    },
    {
      "inputs": [
        {
          "internalType": "uint32",
          "name": "projectId",
          "type": "uint32"
        }
      ],
      "name": "collectRewards",
      "outputs": [
        {
          "internalType": "bool",
          "name": "",
          "type": "bool"
        }
      ],
      "stateMutability": "nonpayable",
      "type": "function"
    },
    {
      "inputs": [
        {
          "internalType": "uint32",
          "name": "projectId",
          "type": "uint32"
        },
        {
          "internalType": "uint256",
          "name": "amount",
          "type": "uint256"
        },
        {
          "internalType": "uint64",
          "name": "nonce",
          "type": "uint64"
        },
        {
          "components": [
            {
              "internalType": "bytes32",
              "name": "r",
              "type": "bytes32"
            },
            {
              "internalType": "bytes32",
              "name": "s",
              "type": "bytes32"
            },
            {
              "internalType": "uint8",
              "name": "v",
              "type": "uint8"
            }
          ],
          "internalType": "struct Sig",
          "name": "sig",
          "type": "tuple"
        }
      ],
      "name": "collectRewardsBy",
      "outputs": [
        {
          "internalType": "bool",
          "name": "",
          "type": "bool"
        }
      ],
      "stateMutability": "nonpayable",
      "type": "function"
    },
    {
      "inputs": [
        {
          "internalType": "uint16",
          "name": "typeId",
          "type": "uint16"
        },
        {
          "internalType": "string",
          "name": "title",
          "type": "string"
        },
        {
          "internalType": "uint256",
          "name": "price",
          "type": "uint256"
        },
        {
          "internalType": "bool",
          "name": "authorizedOnly",
          "type": "bool"
        },
        {
          "internalType": "uint128",
          "name": "supplyLimit",
          "type": "uint128"
        },
        {
          "internalType": "uint16",
          "name": "term",
          "type": "uint16"
        },
        {
          "internalType": "uint256",
          "name": "apy",
          "type": "uint256"
        },
        {
          "internalType": "uint256",
          "name": "stakedApy",
          "type": "uint256"
        }
      ],
      "name": "createProject",
      "outputs": [],
      "stateMutability": "nonpayable",
      "type": "function"
    },
    {
      "inputs": [
        {
          "internalType": "address",
          "name": "userAddress",
          "type": "address"
        },
        {
          "internalType": "bytes",
          "name": "functionSignature",
          "type": "bytes"
        },
        {
          "internalType": "bytes32",
          "name": "sigR",
          "type": "bytes32"
        },
        {
          "internalType": "bytes32",
          "name": "sigS",
          "type": "bytes32"
        },
        {
          "internalType": "uint8",
          "name": "sigV",
          "type": "uint8"
        }
      ],
      "name": "executeMetaTransaction",
      "outputs": [
        {
          "internalType": "bytes",
          "name": "",
          "type": "bytes"
        }
      ],
      "stateMutability": "payable",
      "type": "function"
    },
    {
      "inputs": [],
      "name": "getChainId",
      "outputs": [
        {
          "internalType": "uint256",
          "name": "",
          "type": "uint256"
        }
      ],
      "stateMutability": "view",
      "type": "function"
    },
    {
      "inputs": [],
      "name": "getDomainSeperator",
      "outputs": [
        {
          "internalType": "bytes32",
          "name": "",
          "type": "bytes32"
        }
      ],
      "stateMutability": "view",
      "type": "function"
    },
    {
      "inputs": [
        {
          "internalType": "address",
          "name": "user",
          "type": "address"
        },
        {
          "internalType": "uint32",
          "name": "projectId",
          "type": "uint32"
        }
      ],
      "name": "getHoldingInfo",
      "outputs": [
        {
          "components": [
            {
              "internalType": "uint256",
              "name": "qty",
              "type": "uint256"
            },
            {
              "internalType": "uint64",
              "name": "startTime",
              "type": "uint64"
            },
            {
              "internalType": "uint256",
              "name": "accumRewards",
              "type": "uint256"
            },
            {
              "internalType": "uint256",
              "name": "claimedRewards",
              "type": "uint256"
            }
          ],
          "internalType": "struct Stake.HoldingInfo",
          "name": "",
          "type": "tuple"
        }
      ],
      "stateMutability": "view",
      "type": "function"
    },
    {
      "inputs": [
        {
          "internalType": "address",
          "name": "user",
          "type": "address"
        }
      ],
      "name": "getNonce",
      "outputs": [
        {
          "internalType": "uint256",
          "name": "nonce",
          "type": "uint256"
        }
      ],
      "stateMutability": "view",
      "type": "function"
    },
    {
      "inputs": [
        {
          "internalType": "uint32",
          "name": "projectId",
          "type": "uint32"
        }
      ],
      "name": "getProject",
      "outputs": [
        {
          "components": [
            {
              "internalType": "uint32",
              "name": "id",
              "type": "uint32"
            },
            {
              "internalType": "string",
              "name": "title",
              "type": "string"
            },
            {
              "internalType": "address",
              "name": "creator",
              "type": "address"
            },
            {
              "internalType": "uint16",
              "name": "typeId",
              "type": "uint16"
            },
            {
              "internalType": "uint256",
              "name": "price",
              "type": "uint256"
            },
            {
              "internalType": "bool",
              "name": "authorizedOnly",
              "type": "bool"
            },
            {
              "internalType": "bytes1",
              "name": "status",
              "type": "bytes1"
            },
            {
              "internalType": "uint16",
              "name": "term",
              "type": "uint16"
            },
            {
              "internalType": "uint128",
              "name": "supplyLimit",
              "type": "uint128"
            },
            {
              "internalType": "uint256",
              "name": "apy",
              "type": "uint256"
            },
            {
              "internalType": "uint256",
              "name": "stakedApy",
              "type": "uint256"
            }
          ],
          "internalType": "struct ProjectInfo",
          "name": "",
          "type": "tuple"
        }
      ],
      "stateMutability": "view",
      "type": "function"
    },
    {
      "inputs": [
        {
          "internalType": "address",
          "name": "_owner",
          "type": "address"
        },
        {
          "internalType": "address",
          "name": "_operator",
          "type": "address"
        }
      ],
      "name": "isApprovedForAll",
      "outputs": [
        {
          "internalType": "bool",
          "name": "isOperator",
          "type": "bool"
        }
      ],
      "stateMutability": "view",
      "type": "function"
    },
    {
      "inputs": [
        {
          "internalType": "uint32",
          "name": "projectId",
          "type": "uint32"
        },
        {
          "internalType": "uint32",
          "name": "qty",
          "type": "uint32"
        },
        {
          "internalType": "address",
          "name": "to",
          "type": "address"
        }
      ],
      "name": "mint",
      "outputs": [
        {
          "internalType": "bool",
          "name": "",
          "type": "bool"
        }
      ],
      "stateMutability": "payable",
      "type": "function"
    },
    {
      "inputs": [],
      "name": "name",
      "outputs": [
        {
          "internalType": "string",
          "name": "",
          "type": "string"
        }
      ],
      "stateMutability": "view",
      "type": "function"
    },
    {
      "inputs": [],
      "name": "owner",
      "outputs": [
        {
          "internalType": "address",
          "name": "",
          "type": "address"
        }
      ],
      "stateMutability": "view",
      "type": "function"
    },
    {
      "inputs": [
        {
          "internalType": "bool",
          "name": "_paused",
          "type": "bool"
        }
      ],
      "name": "pause",
      "outputs": [],
      "stateMutability": "nonpayable",
      "type": "function"
    },
    {
      "inputs": [],
      "name": "paused",
      "outputs": [
        {
          "internalType": "bool",
          "name": "",
          "type": "bool"
        }
      ],
      "stateMutability": "view",
      "type": "function"
    },
    {
      "inputs": [],
      "name": "projectIndex",
      "outputs": [
        {
          "internalType": "uint32",
          "name": "",
          "type": "uint32"
        }
      ],
      "stateMutability": "view",
      "type": "function"
    },
    {
      "inputs": [],
      "name": "renounceOwnership",
      "outputs": [],
      "stateMutability": "nonpayable",
      "type": "function"
    },
    {
      "inputs": [
        {
          "internalType": "address",
          "name": "from",
          "type": "address"
        },
        {
          "internalType": "address",
          "name": "to",
          "type": "address"
        },
        {
          "internalType": "uint256[]",
          "name": "ids",
          "type": "uint256[]"
        },
        {
          "internalType": "uint256[]",
          "name": "amounts",
          "type": "uint256[]"
        },
        {
          "internalType": "bytes",
          "name": "data",
          "type": "bytes"
        }
      ],
      "name": "safeBatchTransferFrom",
      "outputs": [],
      "stateMutability": "nonpayable",
      "type": "function"
    },
    {
      "inputs": [
        {
          "internalType": "address",
          "name": "from",
          "type": "address"
        },
        {
          "internalType": "address",
          "name": "to",
          "type": "address"
        },
        {
          "internalType": "uint256",
          "name": "id",
          "type": "uint256"
        },
        {
          "internalType": "uint256",
          "name": "amount",
          "type": "uint256"
        },
        {
          "internalType": "bytes",
          "name": "data",
          "type": "bytes"
        }
      ],
      "name": "safeTransferFrom",
      "outputs": [],
      "stateMutability": "nonpayable",
      "type": "function"
    },
    {
      "inputs": [
        {
          "internalType": "address",
          "name": "operator",
          "type": "address"
        },
        {
          "internalType": "bool",
          "name": "approved",
          "type": "bool"
        }
      ],
      "name": "setApprovalForAll",
      "outputs": [],
      "stateMutability": "nonpayable",
      "type": "function"
    },
    {
      "inputs": [
        {
          "internalType": "uint256",
          "name": "_tokenId",
          "type": "uint256"
        },
        {
          "internalType": "string",
          "name": "_newURI",
          "type": "string"
        }
      ],
      "name": "setCustomURI",
      "outputs": [],
      "stateMutability": "nonpayable",
      "type": "function"
    },
    {
      "inputs": [
        {
          "internalType": "uint32",
          "name": "projectId",
          "type": "uint32"
        },
        {
          "internalType": "bytes1",
          "name": "status",
          "type": "bytes1"
        }
      ],
      "name": "setProjectStatus",
      "outputs": [],
      "stateMutability": "nonpayable",
      "type": "function"
    },
    {
      "inputs": [
        {
          "internalType": "string",
          "name": "_newURI",
          "type": "string"
        }
      ],
      "name": "setURI",
      "outputs": [],
      "stateMutability": "nonpayable",
      "type": "function"
    },
    {
      "inputs": [
        {
          "internalType": "uint32",
          "name": "projectId",
          "type": "uint32"
        },
        {
          "internalType": "uint32",
          "name": "qty",
          "type": "uint32"
        }
      ],
      "name": "stake",
      "outputs": [
        {
          "internalType": "bool",
          "name": "",
          "type": "bool"
        }
      ],
      "stateMutability": "nonpayable",
      "type": "function"
    },
    {
      "inputs": [
        {
          "internalType": "address",
          "name": "_staker",
          "type": "address"
        },
        {
          "internalType": "uint32",
          "name": "projectId",
          "type": "uint32"
        }
      ],
      "name": "stakeInfo",
      "outputs": [
        {
          "components": [
            {
              "internalType": "uint32",
              "name": "qty",
              "type": "uint32"
            },
            {
              "internalType": "uint32",
              "name": "term",
              "type": "uint32"
            },
            {
              "internalType": "uint64",
              "name": "startTime",
              "type": "uint64"
            },
            {
              "internalType": "uint256",
              "name": "accumRewards",
              "type": "uint256"
            },
            {
              "internalType": "uint256",
              "name": "claimedRewards",
              "type": "uint256"
            }
          ],
          "internalType": "struct Stake.StakeInfo",
          "name": "",
          "type": "tuple"
        }
      ],
      "stateMutability": "view",
      "type": "function"
    },
    {
      "inputs": [
        {
          "internalType": "uint32",
          "name": "projectId",
          "type": "uint32"
        }
      ],
      "name": "supplyFor",
      "outputs": [
        {
          "internalType": "uint128",
          "name": "",
          "type": "uint128"
        }
      ],
      "stateMutability": "view",
      "type": "function"
    },
    {
      "inputs": [
        {
          "internalType": "bytes4",
          "name": "interfaceId",
          "type": "bytes4"
        }
      ],
      "name": "supportsInterface",
      "outputs": [
        {
          "internalType": "bool",
          "name": "",
          "type": "bool"
        }
      ],
      "stateMutability": "view",
      "type": "function"
    },
    {
      "inputs": [],
      "name": "symbol",
      "outputs": [
        {
          "internalType": "string",
          "name": "",
          "type": "string"
        }
      ],
      "stateMutability": "view",
      "type": "function"
    },
    {
      "inputs": [
        {
          "internalType": "uint256",
          "name": "amount",
          "type": "uint256"
        }
      ],
      "name": "topup",
      "outputs": [],
      "stateMutability": "payable",
      "type": "function"
    },
    {
      "inputs": [
        {
          "internalType": "address",
          "name": "newOwner",
          "type": "address"
        }
      ],
      "name": "transferOwnership",
      "outputs": [],
      "stateMutability": "nonpayable",
      "type": "function"
    },
    {
      "inputs": [
        {
          "internalType": "uint32",
          "name": "projectId",
          "type": "uint32"
        },
        {
          "internalType": "uint32",
          "name": "qty",
          "type": "uint32"
        }
      ],
      "name": "unstake",
      "outputs": [
        {
          "internalType": "bool",
          "name": "",
          "type": "bool"
        }
      ],
      "stateMutability": "nonpayable",
      "type": "function"
    },
    {
      "inputs": [
        {
          "internalType": "uint256",
          "name": "_projectId",
          "type": "uint256"
        }
      ],
      "name": "uri",
      "outputs": [
        {
          "internalType": "string",
          "name": "",
          "type": "string"
        }
      ],
      "stateMutability": "view",
      "type": "function"
    },
    {
      "inputs": [
        {
          "internalType": "uint256",
          "name": "amount",
          "type": "uint256"
        },
        {
          "internalType": "address payable",
          "name": "to",
          "type": "address"
        }
      ],
      "name": "withdrawTo",
      "outputs": [],
      "stateMutability": "payable",
      "type": "function"
    }
  ],
  "bytecode": "60806040526003805460ff19169055600e805460ff60a01b191690553480156200002857600080fd5b5060405162006857380380620068578339810160408190526200004b9162000741565b8160405180604001604052806009815260200168213630b1b5a937b7b360b91b81525060405180604001604052806006815260200165212625a927a360d11b815250858481620000a181620001de60201b60201c565b50620000ad33620001f0565b6009620000bb8582620008c2565b50600a620000ca8482620008c2565b50600780546001600160a01b0319166001600160a01b03831617905560098054620001869190620000fb9062000834565b80601f0160208091040260200160405190810160405280929190818152602001828054620001299062000834565b80156200017a5780601f106200014e576101008083540402835291602001916200017a565b820191906000526020600020905b8154815290600101906020018083116200015c57829003601f168201915b50506200024292505050565b50506001600c555050600e80546001600160a01b0319166001600160a01b038316908117909155620001c89030600019620002a7602090811b6200313917901c565b50620001d4846200038d565b5050505062000a47565b6002620001ec8282620008c2565b5050565b600680546001600160a01b038381166001600160a01b0319831681179093556040519116919082907f8be0079c531659141344cd1fd0a4f28419497f9722a3daafe3b4186f6b6457e090600090a35050565b60035460ff16156200028c5760405162461bcd60e51b815260206004820152600e60248201526d185b1c9958591e481a5b9a5d195960921b60448201526064015b60405180910390fd5b6200029781620003d7565b506003805460ff19166001179055565b604051636eb1769f60e11b81523060048201526001600160a01b038381166024830152600091839186169063dd62ed3e90604401602060405180830381865afa158015620002f9573d6000803e3d6000fd5b505050506040513d601f19601f820116820180604052508101906200031f91906200098e565b6200032b9190620009a8565b604080516001600160a01b038616602482015260448082018490528251808303909101815260649091019091526020810180516001600160e01b0390811663095ea7b360e01b1790915291925062000387918691906200047916565b50505050565b600b80546001600160a01b0319166001600160a01b0383169081179091556040517f7ce7ec0b50378fb6c0186ffb5f48325f6593fcb4ca4386f21861af3129188f5c90600090a250565b6040518060800160405280604f815260200162006808604f9139805160209182012082519282019290922060408051808201825260018152603160f81b90840152805180840194909452838101919091527fc89efdaa54c0f20c7adf612882df0950f5a951637e0307cdcb4c672f298b8bc660608401523060808401524660a0808501919091528151808503909101815260c090930190528151910120600455565b6000620004d5826040518060400160405280602081526020017f5361666545524332303a206c6f772d6c6576656c2063616c6c206661696c6564815250856001600160a01b03166200055c60201b62003224179092919060201c565b805190915015620005575780806020019051810190620004f69190620009d0565b620005575760405162461bcd60e51b815260206004820152602a60248201527f5361666545524332303a204552433230206f7065726174696f6e20646964206e6044820152691bdd081cdd58d8d9595960b21b606482015260840162000283565b505050565b60606200056d848460008562000577565b90505b9392505050565b606082471015620005da5760405162461bcd60e51b815260206004820152602660248201527f416464726573733a20696e73756666696369656e742062616c616e636520666f6044820152651c8818d85b1b60d21b606482015260840162000283565b843b6200062a5760405162461bcd60e51b815260206004820152601d60248201527f416464726573733a2063616c6c20746f206e6f6e2d636f6e7472616374000000604482015260640162000283565b600080866001600160a01b03168587604051620006489190620009f4565b60006040518083038185875af1925050503d806000811462000687576040519150601f19603f3d011682016040523d82523d6000602084013e6200068c565b606091505b5090925090506200069f828286620006aa565b979650505050505050565b60608315620006bb57508162000570565b825115620006cc5782518084602001fd5b8160405162461bcd60e51b815260040162000283919062000a12565b80516001600160a01b03811681146200070057600080fd5b919050565b634e487b7160e01b600052604160045260246000fd5b60005b83811015620007385781810151838201526020016200071e565b50506000910152565b600080600080608085870312156200075857600080fd5b6200076385620006e8565b60208601519094506001600160401b03808211156200078157600080fd5b818701915087601f8301126200079657600080fd5b815181811115620007ab57620007ab62000705565b604051601f8201601f19908116603f01168101908382118183101715620007d657620007d662000705565b816040528281528a6020848701011115620007f057600080fd5b620008038360208301602088016200071b565b80975050505050506200081960408601620006e8565b91506200082960608601620006e8565b905092959194509250565b600181811c908216806200084957607f821691505b6020821081036200086a57634e487b7160e01b600052602260045260246000fd5b50919050565b601f8211156200055757600081815260208120601f850160051c81016020861015620008995750805b601f850160051c820191505b81811015620008ba57828155600101620008a5565b505050505050565b81516001600160401b03811115620008de57620008de62000705565b620008f681620008ef845462000834565b8462000870565b602080601f8311600181146200092e5760008415620009155750858301515b600019600386901b1c1916600185901b178555620008ba565b600085815260208120601f198616915b828110156200095f578886015182559484019460019091019084016200093e565b50858210156200097e5787850151600019600388901b60f8161c191681555b5050505050600190811b01905550565b600060208284031215620009a157600080fd5b5051919050565b80820180821115620009ca57634e487b7160e01b600052601160045260246000fd5b92915050565b600060208284031215620009e357600080fd5b815180151581146200057057600080fd5b6000825162000a088184602087016200071b565b9190910192915050565b602081526000825180602084015262000a338160408501602087016200071b565b601f01601f19169190910160400192915050565b615db18062000a576000396000f3fe6080604052600436106102505760003560e01c806351248b4e1161013957806395d89b41116100b6578063c86283c81161007a578063c86283c8146107b4578063d7526ffa146107c7578063e985e9c5146107e7578063f242432a14610807578063f2fde38b14610827578063f851a4401461084757600080fd5b806395d89b41146106af578063a22cb465146106c4578063a3aafe89146106e4578063aeaed1b714610738578063c7ba34f41461079457600080fd5b8063715018a6116100fd578063715018a6146105fb5780637e28eb44146106105780638206d49f146106305780638da5cb5b1461065d5780638f2839701461068f57600080fd5b806351248b4e1461056257806352d0d8ee146105755780635c975abb1461058857806363184726146105a95780636792a95b146105db57600080fd5b806320379ee5116101d25780633408e470116101965780633408e470146104af578063363056a9146104c25780633adf80b4146104e25780633ba60d161461050257806345305ab8146105155780634e1273f41461053557600080fd5b806320379ee5146104115780632a9c33ad146104265780632d0335ab146104465780632eb2c2d61461047c57806330db555f1461049c57600080fd5b80630c53c51c116102195780630c53c51c1461031c5780630e89341c1461032f5780630f7e59701461034f578063138ccd001461037c57806313f91252146103f157600080fd5b8062fdd58e1461025557806301ffc9a71461028857806302329a29146102b857806302fe5305146102da57806306fdde03146102fa575b600080fd5b34801561026157600080fd5b50610275610270366004614c10565b610867565b6040519081526020015b60405180910390f35b34801561029457600080fd5b506102a86102a3366004614c52565b610901565b604051901515815260200161027f565b3480156102c457600080fd5b506102d86102d3366004614c7d565b610951565b005b3480156102e657600080fd5b506102d86102f5366004614d4f565b610999565b34801561030657600080fd5b5061030f6109cf565b60405161027f9190614dd3565b61030f61032a366004614dfc565b610a5d565b34801561033b57600080fd5b5061030f61034a366004614e6f565b610c47565b34801561035b57600080fd5b5061030f604051806040016040528060018152602001603160f81b81525081565b34801561038857600080fd5b5061039c610397366004614e9c565b610dd7565b60405161027f9190600060a08201905063ffffffff808451168352806020850151166020840152506001600160401b036040840151166040830152606083015160608301526080830151608083015292915050565b3480156103fd57600080fd5b506102a861040c366004614f4a565b610ecf565b34801561041d57600080fd5b50600454610275565b34801561043257600080fd5b506102d8610441366004614faa565b61125a565b34801561045257600080fd5b50610275610461366004615056565b6001600160a01b031660009081526005602052604090205490565b34801561048857600080fd5b506102d8610497366004615107565b611524565b6102d86104aa366004614e6f565b6115bb565b3480156104bb57600080fd5b5046610275565b3480156104ce57600080fd5b506102a86104dd3660046151b4565b611603565b3480156104ee57600080fd5b506102d86104fd3660046151cf565b6118c0565b6102a8610510366004615215565b61193f565b34801561052157600080fd5b5061027561053036600461525c565b611988565b34801561054157600080fd5b506105556105503660046152a0565b6119e7565b60405161027f919061539d565b6102a8610570366004615215565b611b10565b6102a86105833660046153b0565b611fc8565b34801561059457600080fd5b50600e546102a890600160a01b900460ff1681565b3480156105b557600080fd5b506012546105c69063ffffffff1681565b60405163ffffffff909116815260200161027f565b3480156105e757600080fd5b506102a86105f636600461540c565b6124ae565b34801561060757600080fd5b506102d86127c9565b34801561061c57600080fd5b506102a861062b36600461540c565b6127ff565b34801561063c57600080fd5b5061065061064b3660046151b4565b612894565b60405161027f9190615428565b34801561066957600080fd5b506006546001600160a01b03165b6040516001600160a01b03909116815260200161027f565b34801561069b57600080fd5b506102d86106aa366004615056565b6128a5565b3480156106bb57600080fd5b5061030f6128d8565b3480156106d057600080fd5b506102d86106df36600461550e565b6128e5565b3480156106f057600080fd5b506107206106ff3660046151b4565b63ffffffff166000908152601360205260409020546001600160801b031690565b6040516001600160801b03909116815260200161027f565b34801561074457600080fd5b50610758610753366004614e9c565b6129bb565b60405161027f9190815181526020808301516001600160401b031690820152604080830151908201526060918201519181019190915260800190565b3480156107a057600080fd5b506102d86107af366004615547565b612a93565b6102d86107c2366004615580565b612b84565b3480156107d357600080fd5b506102a86107e236600461540c565b612ccd565b3480156107f357600080fd5b506102a86108023660046155a5565b612f5a565b34801561081357600080fd5b506102d86108223660046155d3565b61301a565b34801561083357600080fd5b506102d8610842366004615056565b6130a1565b34801561085357600080fd5b50600b54610677906001600160a01b031681565b60006001600160a01b0383166108d85760405162461bcd60e51b815260206004820152602b60248201527f455243313135353a2062616c616e636520717565727920666f7220746865207a60448201526a65726f206164647265737360a81b60648201526084015b60405180910390fd5b506000818152602081815260408083206001600160a01b03861684529091529020545b92915050565b60006001600160e01b03198216636cdb3d1360e11b148061093257506001600160e01b031982166303a24d0760e21b145b806108fb57506301ffc9a760e01b6001600160e01b03198316146108fb565b6006546001600160a01b0316331461097b5760405162461bcd60e51b81526004016108cf9061563b565b600e8054911515600160a01b0260ff60a01b19909216919091179055565b6006546001600160a01b031633146109c35760405162461bcd60e51b81526004016108cf9061563b565b6109cc81613233565b50565b600980546109dc90615670565b80601f0160208091040260200160405190810160405280929190818152602001828054610a0890615670565b8015610a555780601f10610a2a57610100808354040283529160200191610a55565b820191906000526020600020905b815481529060010190602001808311610a3857829003601f168201915b505050505081565b60408051606081810183526001600160a01b03881660008181526005602090815290859020548452830152918101869052610a9b8782878787613243565b610af15760405162461bcd60e51b815260206004820152602160248201527f5369676e657220616e64207369676e617475726520646f206e6f74206d6174636044820152600d60fb1b60648201526084016108cf565b6001600160a01b038716600090815260056020526040902054610b15906001613333565b6001600160a01b0388166000908152600560205260409081902091909155517f5845892132946850460bff5a0083f71031bc5bf9aadcd40f1de79423eac9b10b90610b6590899033908a906156a4565b60405180910390a1600080306001600160a01b0316888a604051602001610b8d9291906156d9565b60408051601f1981840301815290829052610ba79161570b565b6000604051808303816000865af19150503d8060008114610be4576040519150601f19603f3d011682016040523d82523d6000602084013e610be9565b606091505b509150915081610c3b5760405162461bcd60e51b815260206004820152601c60248201527f46756e6374696f6e2063616c6c206e6f74207375636365737366756c0000000060448201526064016108cf565b98975050505050505050565b63ffffffff8082166000818152600d60205260409020546060921614610c7f5760405162461bcd60e51b81526004016108cf90615727565b60008281526008602052604081208054610c9890615670565b80601f0160208091040260200160405190810160405280929190818152602001828054610cc490615670565b8015610d115780601f10610ce657610100808354040283529160200191610d11565b820191906000526020600020905b815481529060010190602001808311610cf457829003601f168201915b50505050509050600081511115610dc15760008381526008602052604090208054610d3b90615670565b80601f0160208091040260200160405190810160405280929190818152602001828054610d6790615670565b8015610db45780601f10610d8957610100808354040283529160200191610db4565b820191906000526020600020905b815481529060010190602001808311610d9757829003601f168201915b5050505050915050919050565b610dca8361333f565b9392505050565b50919050565b6040805160a0810182526000808252602082018190529181018290526060810182905260808101919091526001600160a01b0383166000908152600f6020908152604080832063ffffffff8681168552908352818420825160a08101845281548084168252600160201b810490931694810194909452600160401b9091046001600160401b0316918301919091526001810154606083015260020154608082015290610e82846133d3565b9050610eb28160800151836000015163ffffffff16610ea1919061575f565b836040015142846101400151611988565b82606001818151610ec39190615776565b90525090949350505050565b60006002600c5403610ef35760405162461bcd60e51b81526004016108cf90615789565b6002600c55610f03603c426157d6565b6001600160401b0316836001600160401b03161015610f345760405162461bcd60e51b81526004016108cf906157fc565b6001600160401b03831660009081526010602052604090205460ff1615610f6d5760405162461bcd60e51b81526004016108cf906157fc565b63ffffffff8086166000818152600d602052604090205490911614610fa45760405162461bcd60e51b81526004016108cf90615727565b336000818152600f6020908152604080832063ffffffff8a81168552908352818420825160a0810184528154808416808352600160201b820490941695820195909552600160401b9094046001600160401b0316928401929092526001820154606084015260029091015460808301529091036110515760405162461bcd60e51b815260206004820152600b60248201526a217374616b65722e71747960a81b60448201526064016108cf565b60405160e088901b6001600160e01b0319166020820152606083811b6001600160601b03191660248301526038820188905260c087901b6001600160c01b03191660588301526000916110bb91015b604051602081830303815290604052805190602001206135ae565b600b549091506110d5906001600160a01b03168287613602565b61110f5760405162461bcd60e51b815260206004820152600b60248201526a78207369676e617475726560a81b60448201526064016108cf565b6001600160401b0380871660009081526010602052604090819020805460ff191660011790554290911690830152608082018051889190611151908390615776565b9052506001600160a01b038084166000908152600f6020908152604080832063ffffffff808e168552908352928190208651815493880151928801516001600160401b0316600160401b0267ffffffffffffffff60401b19938616600160201b0267ffffffffffffffff19909516918616919091179390931791909116919091178155606085015160018201556080850151600290910155600e546111fc92169085908a9061369516565b8763ffffffff16836001600160a01b03167f9bf028f26713dbfd10f1790f08ee2c2df9a1d82c0f238230bb0b64af2aab4a9e8960405161123e91815260200190565b60405180910390a3600193505050506001600c55949350505050565b600b546001600160a01b03163314806112775750611277336136ca565b6112b35760405162461bcd60e51b815260206004820152600d60248201526c10b0b236b4b71010b7bbb732b960991b60448201526064016108cf565b84156112f357600086116112f35760405162461bcd60e51b8152602060048201526007602482015266070726963653d360cc1b60448201526064016108cf565b60125460009061130a9063ffffffff16600161581d565b905060006040518061016001604052808363ffffffff1681526020018a8152602001336001600160a01b031681526020018b61ffff1681526020018981526020018815158152602001600160f81b6001600160f81b03191681526020018661ffff168152602001876001600160801b0316815260200185815260200184815250905080600d60008463ffffffff1663ffffffff16815260200190815260200160002060008201518160000160006101000a81548163ffffffff021916908363ffffffff16021790555060208201518160010190816113e89190615887565b5060408281015160028301805460608601516001600160a01b039093166001600160b01b031990911617600160a01b61ffff938416021790556080840151600384015560a084015160048401805460c087015160e0880151610100808a015161ffff1990941695151561ff0019169590951760f89290921c9094021773ffffffffffffffffffffffffffffffffffff0000191662010000939094169290920273ffffffffffffffffffffffffffffffff00000000191692909217600160201b6001600160801b03909216919091021790556101208301516005830155610140909201516006909101556012805463ffffffff191663ffffffff85811691909117909155825191519116907f6f053dfbe49c7e82e9b2091b20e94c3bb32de62f97ed3dffe0213a33c0af15b390600090a250505050505050505050565b6001600160a01b03851633148061154057506115408533612f5a565b6115a75760405162461bcd60e51b815260206004820152603260248201527f455243313135353a207472616e736665722063616c6c6572206973206e6f74206044820152711bdddb995c881b9bdc88185c1c1c9bdd995960721b60648201526084016108cf565b6115b485858585856136f8565b5050505050565b6115d333600e546001600160a01b03169030846138e3565b604051349033907fe7ba5389a2696d7e54ff7f18c911057d086a1c641c23ffbaebdb0fe236b0e04e90600090a350565b60006002600c54036116275760405162461bcd60e51b81526004016108cf90615789565b6002600c55600e54600160a01b900460ff16156116565760405162461bcd60e51b81526004016108cf90615946565b336000611662846133d3565b60c08101519091506001600160f81b031916600160f81b146116965760405162461bcd60e51b81526004016108cf90615966565b6001600160a01b0382166000908152600f6020908152604080832063ffffffff888116855290835292819020815160a0810183528154808616808352600160201b820490961694820194909452600160401b9093046001600160401b03169183019190915260018101546060830181905260029091015460808301529091156118395760808301518251611744916117339163ffffffff1661575f565b836040015142866101400151611988565b61174e9082615776565b6001600160401b034216604084015260006060840152608083018051919250829161177a908390615776565b9052506001600160a01b0384166000818152600f6020908152604080832063ffffffff8b8116808652918452828520885181548a8701518b87015192851667ffffffffffffffff1992831617600160201b91909516029390931767ffffffffffffffff60401b1916600160401b6001600160401b0390921691820217825560608a015160018084019190915560808b01516002909301929092559686526011855283862092865291909352922090910180549091169091179055611846565b611843848461391b565b90505b80156118ae57600e54611863906001600160a01b03168583613695565b8563ffffffff16846001600160a01b03167f9bf028f26713dbfd10f1790f08ee2c2df9a1d82c0f238230bb0b64af2aab4a9e836040516118a591815260200190565b60405180910390a35b60019450505050506001600c55919050565b6006546001600160a01b031633146118ea5760405162461bcd60e51b81526004016108cf9061563b565b60008281526008602052604090206119028282615887565b50817f6bb7ff708619ba0610cba295a58592e0451dee2622938c8755667688daf3529b826040516119339190614dd3565b60405180910390a25050565b6000611949613a62565b6002600c540361196b5760405162461bcd60e51b81526004016108cf90615789565b6002600c5561197b848484613aa5565b6001600c55949350505050565b600080620151806119998686615987565b6119a391906157d6565b905060006119b1848861575f565b905061016d60646119c863ffffffff85168461575f565b6119d291906159a7565b6119dc91906159a7565b979650505050505050565b60608151835114611a4c5760405162461bcd60e51b815260206004820152602960248201527f455243313135353a206163636f756e747320616e6420696473206c656e677468604482015268040dad2e6dac2e8c6d60bb1b60648201526084016108cf565b600083516001600160401b03811115611a6757611a67614c9a565b604051908082528060200260200182016040528015611a90578160200160208202803683370190505b50905060005b8451811015611b0857611adb858281518110611ab457611ab46159bb565b6020026020010151858381518110611ace57611ace6159bb565b6020026020010151610867565b828281518110611aed57611aed6159bb565b6020908102919091010152611b01816159d1565b9050611a96565b509392505050565b60006002600c5403611b345760405162461bcd60e51b81526004016108cf90615789565b6002600c55600e54600160a01b900460ff1615611b635760405162461bcd60e51b81526004016108cf90615946565b63ffffffff8085166000908152600d602090815260408083208151610160810190925280549094168152600184018054939491939192840191611ba590615670565b80601f0160208091040260200160405190810160405280929190818152602001828054611bd190615670565b8015611c1e5780601f10611bf357610100808354040283529160200191611c1e565b820191906000526020600020905b815481529060010190602001808311611c0157829003601f168201915b505050918352505060028201546001600160a01b0381166020830152600160a01b900461ffff908116604083015260038301546060830152600483015460ff81161515608084015261010080820460f81b6001600160f81b03191660a085015262010000820490921660c0840152600160201b90046001600160801b031660e0830152600583015490820152600690910154610120909101529050611cc281613ebb565b60c08101516001600160f81b031916600160f81b14611cf35760405162461bcd60e51b81526004016108cf90615966565b600b5433906000906001600160a01b0316821480611d155750611d15826136ca565b90508260a0015115611d625780611d5d5760405162461bcd60e51b815260206004820152600c60248201526b1d5b985d5d1a1bdc9a5e995960a21b60448201526064016108cf565b611e0b565b8080611def57506080830151611d7e9063ffffffff881661575f565b600e546040516370a0823160e01b81526001600160a01b038581166004830152909116906370a0823190602401602060405180830381865afa158015611dc8573d6000803e3d6000fd5b505050506040513d601f19601f82011682018060405250810190611dec91906159ea565b10155b611e0b5760405162461bcd60e51b81526004016108cf90615a03565b63ffffffff87166000908152601360205260409020546101008401516001600160801b03918216911615611e97576101008401516001600160801b0316611e5863ffffffff891683615a26565b6001600160801b03161115611e975760405162461bcd60e51b81526020600482015260056024820152641b1a5b5a5d60da1b60448201526064016108cf565b63ffffffff88811660009081526013602052604081208054928a1692909190611eca9084906001600160801b0316615a26565b92506101000a8154816001600160801b0302191690836001600160801b031602179055508360a00151158015611efe575081155b15611f3257611f32833086608001518a63ffffffff16611f1e919061575f565b600e546001600160a01b03169291906138e3565b611f59868963ffffffff168963ffffffff1660405180602001604052806000815250613edf565b856001600160a01b03168763ffffffff168963ffffffff167fda1373dcde55aceb480442ee22608e2601f3639e5d1e81e6f9dcd8d231607899611f993390565b6040516001600160a01b03909116815260200160405180910390a460019450505050506001600c559392505050565b60006002600c5403611fec5760405162461bcd60e51b81526004016108cf90615789565b6002600c55611ffc603c426157d6565b6001600160401b0316836001600160401b0316101561202d5760405162461bcd60e51b81526004016108cf906157fc565b61203684613fef565b63ffffffff8087166000908152600d60209081526040808320815161016081019092528054909416815260018401805493949193919284019161207890615670565b80601f01602080910402602001604051908101604052809291908181526020018280546120a490615670565b80156120f15780601f106120c6576101008083540402835291602001916120f1565b820191906000526020600020905b8154815290600101906020018083116120d457829003601f168201915b505050918352505060028201546001600160a01b0381166020830152600160a01b900461ffff908116604083015260038301546060830152600483015460ff81161515608084015261010080820460f81b6001600160f81b03191660a085015262010000820490921660c0840152600160201b90046001600160801b031660e083015260058301549082015260069091015461012090910152905061219581613ebb565b63ffffffff87166000908152601360205260409020546101008201516001600160801b03918216911615612221576101008201516001600160801b03166121e263ffffffff891683615a26565b6001600160801b031611156122215760405162461bcd60e51b81526020600482015260056024820152641b1a5b5a5d60da1b60448201526064016108cf565b6000336040516001600160e01b031960e08c811b821660208401526001600160601b0319606085811b821660248601528c901b1660388401528b901b16604c8201526001600160c01b031960c089901b166050820152909150600090612289906058016110a0565b600b549091506122a3906001600160a01b03168288613602565b6122dd5760405162461bcd60e51b815260206004820152600b60248201526a78207369676e617475726560a81b60448201526064016108cf565b60006122f783600b546001600160a01b0391821691161490565b806123065750612306836136ca565b90508080612395575060808501516123249063ffffffff8c1661575f565b600e546040516370a0823160e01b81526001600160a01b038681166004830152909116906370a0823190602401602060405180830381865afa15801561236e573d6000803e3d6000fd5b505050506040513d601f19601f8201168201806040525081019061239291906159ea565b10155b6123b15760405162461bcd60e51b81526004016108cf90615a03565b63ffffffff8b811660009081526013602052604081208054928d16929091906123e49084906001600160801b0316615a26565b92506101000a8154816001600160801b0302191690836001600160801b03160217905550612423833087608001518d63ffffffff16611f1e919061575f565b61244a898c63ffffffff168c63ffffffff1660405180602001604052806000815250613edf565b6040516001600160a01b0384811682528a169063ffffffff808d1691908e16907fda1373dcde55aceb480442ee22608e2601f3639e5d1e81e6f9dcd8d2316078999060200160405180910390a46001955050505050506001600c5595945050505050565b600e54600090600160a01b900460ff16156124db5760405162461bcd60e51b81526004016108cf90615946565b60008263ffffffff16116125015760405162461bcd60e51b81526004016108cf90615a46565b33600061250d856133d3565b905061251881613ebb565b60c08101516001600160f81b031916600160f81b146125495760405162461bcd60e51b81526004016108cf90615966565b604051627eeac760e11b81526001600160a01b038316600482015263ffffffff8681166024830152851690309062fdd58e90604401602060405180830381865afa15801561259b573d6000803e3d6000fd5b505050506040513d601f19601f820116820180604052508101906125bf91906159ea565b10156125dd5760405162461bcd60e51b81526004016108cf90615a03565b6001600160a01b0382166000908152600f6020908152604080832063ffffffff8981168552908352818420825160a08101845281548084168252600160201b810490931694810194909452600160401b9091046001600160401b031691830191909152600181015460608301526002015460808201529061265e848461391b565b905080156126c857600e5461267d906001600160a01b03168583613695565b8663ffffffff16846001600160a01b03167f9bf028f26713dbfd10f1790f08ee2c2df9a1d82c0f238230bb0b64af2aab4a9e836040516126bf91815260200190565b60405180910390a35b815163ffffffff161561270457608083015182516126ef916117339163ffffffff1661575f565b826060018181516127009190615776565b9052505b8582600001818151612716919061581d565b63ffffffff9081169091526001600160401b0342811660408087019182526001600160a01b039098166000908152600f60209081528982208d86168352815298902086518154998801519251909316600160401b0267ffffffffffffffff60401b19928516600160201b0267ffffffffffffffff19909a16939094169290921797909717969096161785555050606081015160018085019190915560809091015160029093019290925550905092915050565b6006546001600160a01b031633146127f35760405162461bcd60e51b81526004016108cf9061563b565b6127fd6000614031565b565b60006002600c54036128235760405162461bcd60e51b81526004016108cf90615789565b6002600c5533600061283b8263ffffffff8716610867565b90508363ffffffff1681101561287b5760405162461bcd60e51b815260206004820152600560248201526438ba3c901f60d91b60448201526064016108cf565b612886858584613aa5565b6001600c5595945050505050565b61289c614b9e565b6108fb826133d3565b6006546001600160a01b031633146128cf5760405162461bcd60e51b81526004016108cf9061563b565b6109cc81614083565b600a80546109dc90615670565b6001600160a01b038216330361294f5760405162461bcd60e51b815260206004820152602960248201527f455243313135353a2073657474696e6720617070726f76616c20737461747573604482015268103337b91039b2b63360b91b60648201526084016108cf565b3360008181526001602090815260408083206001600160a01b03871680855290835292819020805460ff191686151590811790915590519081529192917f17307eab39ab6107e8899845ad3d59bd9653f200f220920489ca2b5937696c31910160405180910390a35050565b6129ef60405180608001604052806000815260200160006001600160401b0316815260200160008152602001600081525090565b6001600160a01b038316600090815260116020908152604080832063ffffffff86168452825280832081516080810183528154815260018201546001600160401b03169381019390935260028101549183019190915260030154606082015290612a58846133d3565b9050612a8281608001518360000151612a71919061575f565b836020015142846101200151611988565b82604001818151610ec39190615776565b600b546001600160a01b0316331480612ab05750612ab0336136ca565b612aec5760405162461bcd60e51b815260206004820152600d60248201526c10b0b236b4b71010b7bbb732b960991b60448201526064016108cf565b63ffffffff8083166000818152600d602052604090205490911614612b235760405162461bcd60e51b81526004016108cf90615727565b63ffffffff82166000818152600d6020526040808220600401805461ff00191661010060f887901c02179055516001600160f81b0319841692917f1e59e47af4d9b02977749192de0a0e8c70ae8ef5cf99cebb7e2f707571fd0ab791a35050565b6006546001600160a01b03163314612bae5760405162461bcd60e51b81526004016108cf9061563b565b612bb781613fef565b60008211612bf15760405162461bcd60e51b815260206004820152600760248201526608585b5bdd5b9d60ca1b60448201526064016108cf565b600e546040516370a0823160e01b815230600482015283916001600160a01b0316906370a0823190602401602060405180830381865afa158015612c39573d6000803e3d6000fd5b505050506040513d601f19601f82011682018060405250810190612c5d91906159ea565b1015612c7b5760405162461bcd60e51b81526004016108cf90615a03565b600e54612c93906001600160a01b03163083856138e3565b60405182906001600160a01b038316907f8777844761eb456b028cf7f87fc8dcb146ad8eeafbc6f80f2d006e5cd9e5a74590600090a35050565b600e54600090600160a01b900460ff1615612cfa5760405162461bcd60e51b81526004016108cf90615946565b60008263ffffffff1611612d205760405162461bcd60e51b81526004016108cf90615a46565b336000612d2c856133d3565b60c08101519091506001600160f81b031916600160f81b14612d605760405162461bcd60e51b81526004016108cf90615966565b6001600160a01b0382166000908152600f6020908152604080832063ffffffff8981168552908352818420825160a0810184528154808416808352600160201b820490941695820195909552600160401b9094046001600160401b031692840192909252600182015460608401526002909101546080830152909103612e165760405162461bcd60e51b815260206004820152600b60248201526a217374616b65722e71747960a81b60448201526064016108cf565b805163ffffffff80871691161015612e585760405162461bcd60e51b815260206004820152600560248201526438ba3c901f60d91b60448201526064016108cf565b60808201518151612e8391612e729163ffffffff1661575f565b826040015142856101400151611988565b81606001818151612e949190615776565b905250805185908290612ea8908390615a64565b63ffffffff9081169091526001600160401b0342811660408086019182526001600160a01b039097166000908152600f60209081528882208c86168352815297902085518154988701519251909316600160401b0267ffffffffffffffff60401b19928516600160201b0267ffffffffffffffff199099169390941692909217969096179590951617845550606081015160018085019190915560809091015160029093019290925550905092915050565b60075460405163c455279160e01b81526001600160a01b03848116600483015260009281169190841690829063c455279190602401602060405180830381865afa158015612fac573d6000803e3d6000fd5b505050506040513d601f19601f82011682018060405250810190612fd09190615a81565b6001600160a01b031603612fe85760019150506108fb565b6001600160a01b0380851660009081526001602090815260408083209387168352929052205460ff165b949350505050565b6001600160a01b03851633148061303657506130368533612f5a565b6130945760405162461bcd60e51b815260206004820152602960248201527f455243313135353a2063616c6c6572206973206e6f74206f776e6572206e6f7260448201526808185c1c1c9bdd995960ba1b60648201526084016108cf565b6115b485858585856140cd565b6006546001600160a01b031633146130cb5760405162461bcd60e51b81526004016108cf9061563b565b6001600160a01b0381166131305760405162461bcd60e51b815260206004820152602660248201527f4f776e61626c653a206e6577206f776e657220697320746865207a65726f206160448201526564647265737360d01b60648201526084016108cf565b6109cc81614031565b604051636eb1769f60e11b81523060048201526001600160a01b038381166024830152600091839186169063dd62ed3e90604401602060405180830381865afa15801561318a573d6000803e3d6000fd5b505050506040513d601f19601f820116820180604052508101906131ae91906159ea565b6131b89190615776565b6040516001600160a01b03851660248201526044810182905290915061321e90859063095ea7b360e01b906064015b60408051601f198184030181529190526020810180516001600160e01b03166001600160e01b0319909316929092179091526141ea565b50505050565b606061301284846000856142bc565b600261323f8282615887565b5050565b60006001600160a01b0386166132a95760405162461bcd60e51b815260206004820152602560248201527f4e61746976654d6574615472616e73616374696f6e3a20494e56414c49445f5360448201526424a3a722a960d91b60648201526084016108cf565b60016132bc6132b7876143d9565b614439565b6040805160008152602081018083529290925260ff851690820152606081018690526080810185905260a0016020604051602081039080840390855afa15801561330a573d6000803e3d6000fd5b505050602060405103516001600160a01b0316866001600160a01b031614905095945050505050565b6000610dca8284615776565b60606002805461334e90615670565b80601f016020809104026020016040519081016040528092919081815260200182805461337a90615670565b80156133c75780601f1061339c576101008083540402835291602001916133c7565b820191906000526020600020905b8154815290600101906020018083116133aa57829003601f168201915b50505050509050919050565b6133db614b9e565b60008263ffffffff161161341e5760405162461bcd60e51b815260206004820152600a602482015269085c1c9bda9958dd125960b21b60448201526064016108cf565b63ffffffff8083166000818152600d6020526040902054909116146134555760405162461bcd60e51b81526004016108cf90615727565b63ffffffff8083166000908152600d602090815260409182902082516101608101909352805490931682526001830180549293929184019161349690615670565b80601f01602080910402602001604051908101604052809291908181526020018280546134c290615670565b801561350f5780601f106134e45761010080835404028352916020019161350f565b820191906000526020600020905b8154815290600101906020018083116134f257829003601f168201915b505050918352505060028201546001600160a01b0381166020830152600160a01b900461ffff908116604083015260038301546060830152600483015460ff81161515608084015261010080820460f81b6001600160f81b03191660a085015262010000820490921660c0840152600160201b90046001600160801b031660e08301526005830154908201526006909101546101209091015292915050565b6040517f19457468657265756d205369676e6564204d6573736167653a0a3332000000006020820152603c8101829052600090605c015b604051602081830303815290604052805190602001209050919050565b6000836001600160a01b031660018484604001518560000151866020015160405160008152602001604052604051613656949392919093845260ff9290921660208401526040830152606082015260800190565b6020604051602081039080840390855afa158015613678573d6000803e3d6000fd5b505050602060405103516001600160a01b03161490509392505050565b6040516001600160a01b0383166024820152604481018290526136c590849063a9059cbb60e01b906064016131e7565b505050565b6000816001600160a01b03166136e86006546001600160a01b031690565b6001600160a01b03161492915050565b815183511461375a5760405162461bcd60e51b815260206004820152602860248201527f455243313135353a2069647320616e6420616d6f756e7473206c656e677468206044820152670dad2e6dac2e8c6d60c31b60648201526084016108cf565b6001600160a01b0384166137805760405162461bcd60e51b81526004016108cf90615a9e565b3361378f818787878787614469565b60005b84518110156138755760008582815181106137af576137af6159bb565b6020026020010151905060008583815181106137cd576137cd6159bb565b602090810291909101810151600084815280835260408082206001600160a01b038e16835290935291909120549091508181101561381d5760405162461bcd60e51b81526004016108cf90615ae3565b6000838152602081815260408083206001600160a01b038e8116855292528083208585039055908b1682528120805484929061385a908490615776565b925050819055505050508061386e906159d1565b9050613792565b50846001600160a01b0316866001600160a01b0316826001600160a01b03167f4a39dc06d4c0dbc64b70af90fd698a233a518aa5d07e595d983b8c0526c8f7fb87876040516138c5929190615b2d565b60405180910390a46138db81878787878761478b565b505050505050565b6040516001600160a01b038085166024830152831660448201526064810182905261321e9085906323b872dd60e01b906084016131e7565b6001600160a01b0382166000908152601160209081526040808320845163ffffffff16845282528083208151608081018352815480825260018301546001600160401b03169482019490945260028201549281019290925260030154606082015290820361398d5760009150506108fb565b6040810151608084015182516139b7916139a69161575f565b836020015142876101200151611988565b6139c19082615776565b6001600160401b03421660208401526000604084015260608301805191925082916139ed908390615776565b9052506001600160a01b03949094166000908152601160209081526040808320955163ffffffff16835294815290849020825181559082015160018201805467ffffffffffffffff19166001600160401b03909216919091179055928101516002840155606001516003909201919091555090565b600b546001600160a01b031633146127fd5760405162461bcd60e51b815260206004820152600660248201526510b0b236b4b760d11b60448201526064016108cf565b6000613ab082613fef565b60008463ffffffff1611613af35760405162461bcd60e51b815260206004820152600a602482015269085c1c9bda9958dd125960b21b60448201526064016108cf565b60008363ffffffff1611613b195760405162461bcd60e51b81526004016108cf90615a46565b63ffffffff8085166000908152600d602090815260408083208151610160810190925280549094168152600184018054939491939192840191613b5b90615670565b80601f0160208091040260200160405190810160405280929190818152602001828054613b8790615670565b8015613bd45780601f10613ba957610100808354040283529160200191613bd4565b820191906000526020600020905b815481529060010190602001808311613bb757829003601f168201915b505050918352505060028201546001600160a01b0381166020830152600160a01b900461ffff908116604083015260038301546060830152600483015460ff81161515608084015261010080820460f81b6001600160f81b03191660a085015262010000820490921660c0840152600160201b90046001600160801b031660e0830152600583015490820152600690910154610120909101529050613c7881613ebb565b63ffffffff8086166000908152601360205260409020546001600160801b0316908516811015613cda5760405162461bcd60e51b815260206004820152600d60248201526c65786365656420737570706c7960981b60448201526064016108cf565b6001600160a01b0384166000908152600f6020908152604080832063ffffffff8a8116855290835292819020815160a0810183528154808616808352600160201b820490961694820194909452600160401b9093046001600160401b031691830191909152600181015460608301526002015460808201529015613dbe57806000015163ffffffff168663ffffffff16613d7a878a63ffffffff16610867565b613d849190615b52565b1015613dbe5760405162461bcd60e51b81526020600482015260096024820152681a5b881cdd185ad95960ba1b60448201526064016108cf565b63ffffffff8781166000908152601360205260408120805492891692909190613df19084906001600160801b0316615b65565b92506101000a8154816001600160801b0302191690836001600160801b03160217905550613e2c858863ffffffff168863ffffffff166148e6565b8260a00151613e6a57600083608001518763ffffffff16613e4d919061575f565b600e54909150613e68906001600160a01b03163088846138e3565b505b846001600160a01b03168663ffffffff168863ffffffff167f51dc334a9a8f008638bdeb6c9a6f4aabf63ff2510e4be9998b7ecf63010ab8aa60405160405180910390a45060019695505050505050565b805163ffffffff166109cc5760405162461bcd60e51b81526004016108cf90615727565b6001600160a01b038416613f3f5760405162461bcd60e51b815260206004820152602160248201527f455243313135353a206d696e7420746f20746865207a65726f206164647265736044820152607360f81b60648201526084016108cf565b33613f5f81600087613f5088614a5f565b613f5988614a5f565b87614469565b6000848152602081815260408083206001600160a01b038916845290915281208054859290613f8f908490615776565b909155505060408051858152602081018590526001600160a01b0380881692600092918516917fc3d58168c5ae7397731d063d5bbf3d657854427343f4c083240f7aacaa2d0f62910160405180910390a46115b481600087878787614aaa565b6001600160a01b0381166109cc5760405162461bcd60e51b815260206004820152600960248201526878206164647265737360b81b60448201526064016108cf565b600680546001600160a01b038381166001600160a01b0319831681179093556040519116919082907f8be0079c531659141344cd1fd0a4f28419497f9722a3daafe3b4186f6b6457e090600090a35050565b600b80546001600160a01b0319166001600160a01b0383169081179091556040517f7ce7ec0b50378fb6c0186ffb5f48325f6593fcb4ca4386f21861af3129188f5c90600090a250565b6001600160a01b0384166140f35760405162461bcd60e51b81526004016108cf90615a9e565b33614103818787613f5088614a5f565b6000848152602081815260408083206001600160a01b038a168452909152902054838110156141445760405162461bcd60e51b81526004016108cf90615ae3565b6000858152602081815260408083206001600160a01b038b8116855292528083208785039055908816825281208054869290614181908490615776565b909155505060408051868152602081018690526001600160a01b03808916928a821692918616917fc3d58168c5ae7397731d063d5bbf3d657854427343f4c083240f7aacaa2d0f62910160405180910390a46141e1828888888888614aaa565b50505050505050565b600061423f826040518060400160405280602081526020017f5361666545524332303a206c6f772d6c6576656c2063616c6c206661696c6564815250856001600160a01b03166132249092919063ffffffff16565b8051909150156136c5578080602001905181019061425d9190615b85565b6136c55760405162461bcd60e51b815260206004820152602a60248201527f5361666545524332303a204552433230206f7065726174696f6e20646964206e6044820152691bdd081cdd58d8d9595960b21b60648201526084016108cf565b60608247101561431d5760405162461bcd60e51b815260206004820152602660248201527f416464726573733a20696e73756666696369656e742062616c616e636520666f6044820152651c8818d85b1b60d21b60648201526084016108cf565b843b61436b5760405162461bcd60e51b815260206004820152601d60248201527f416464726573733a2063616c6c20746f206e6f6e2d636f6e747261637400000060448201526064016108cf565b600080866001600160a01b03168587604051614387919061570b565b60006040518083038185875af1925050503d80600081146143c4576040519150601f19603f3d011682016040523d82523d6000602084013e6143c9565b606091505b50915091506119dc828286614b65565b6000604051806080016040528060438152602001615d3960439139805160209182012083518483015160408087015180519086012090516135e5950193845260208401929092526001600160a01b03166040830152606082015260800190565b600061444460045490565b60405161190160f01b60208201526022810191909152604281018390526062016135e5565b6001600160a01b03851615801561448757506001600160a01b038416155b6138db576144bf60405180608001604052806000815260200160006001600160401b0316815260200160008152602001600081525090565b60005b84518110156147815760008582815181106144df576144df6159bb565b6020026020010151905060008583815181106144fd576144fd6159bb565b602002602001015190506000614512836133d3565b6001600160a01b038b16600081815260116020908152604080832063ffffffff8916845282529182902082516080810184528154815260018201546001600160401b03169281019290925260028101549282019290925260039091015460608201529650909150429015614646578551156145d65782866000018181516145999190615b52565b905250608082015186516145c1916145b09161575f565b876020015142856101200151611988565b866040018181516145d29190615776565b9052505b5060208581018051426001600160401b0390811683526001600160a01b038e16600090815260118552604080822063ffffffff8a16835290955284902089518155925160018401805467ffffffffffffffff19169190921617905591870151600282015560608701516003909101555b6001600160a01b038a161561476a576001600160a01b038a16600090815260116020908152604080832063ffffffff881684528252918290208251608081018452815480825260018301546001600160401b031693820193909352600282015493810193909352600301546060830152909650156146e757608082015186516146d2916145b09161575f565b866040018181516146e39190615776565b9052505b82866000018181516146f99190615776565b9052506001600160401b0381811660208881019182526001600160a01b038d16600090815260118252604080822063ffffffff8a16835290925281902089518155915160018301805467ffffffffffffffff1916919094161790925590870151600282015560608701516003909101555b505050508080614779906159d1565b9150506144c2565b5050505050505050565b6001600160a01b0384163b156138db5760405163bc197c8160e01b81526001600160a01b0385169063bc197c81906147cf9089908990889088908890600401615ba2565b6020604051808303816000875af192505050801561480a575060408051601f3d908101601f1916820190925261480791810190615bf4565b60015b6148b657614816615c11565b806308c379a00361484f575061482a615c2d565b806148355750614851565b8060405162461bcd60e51b81526004016108cf9190614dd3565b505b60405162461bcd60e51b815260206004820152603460248201527f455243313135353a207472616e7366657220746f206e6f6e20455243313135356044820152732932b1b2b4bb32b91034b6b83632b6b2b73a32b960611b60648201526084016108cf565b6001600160e01b0319811663bc197c8160e01b146141e15760405162461bcd60e51b81526004016108cf90615cb6565b6001600160a01b0383166149485760405162461bcd60e51b815260206004820152602360248201527f455243313135353a206275726e2066726f6d20746865207a65726f206164647260448201526265737360e81b60648201526084016108cf565b336149778185600061495987614a5f565b61496287614a5f565b60405180602001604052806000815250614469565b6000838152602081815260408083206001600160a01b0388168452909152902054828110156149f45760405162461bcd60e51b8152602060048201526024808201527f455243313135353a206275726e20616d6f756e7420657863656564732062616c604482015263616e636560e01b60648201526084016108cf565b6000848152602081815260408083206001600160a01b03898116808652918452828520888703905582518981529384018890529092908616917fc3d58168c5ae7397731d063d5bbf3d657854427343f4c083240f7aacaa2d0f62910160405180910390a45050505050565b60408051600180825281830190925260609160009190602080830190803683370190505090508281600081518110614a9957614a996159bb565b602090810291909101015292915050565b6001600160a01b0384163b156138db5760405163f23a6e6160e01b81526001600160a01b0385169063f23a6e6190614aee9089908990889088908890600401615cfe565b6020604051808303816000875af1925050508015614b29575060408051601f3d908101601f19168201909252614b2691810190615bf4565b60015b614b3557614816615c11565b6001600160e01b0319811663f23a6e6160e01b146141e15760405162461bcd60e51b81526004016108cf90615cb6565b60608315614b74575081610dca565b825115614b845782518084602001fd5b8160405162461bcd60e51b81526004016108cf9190614dd3565b604080516101608101825260008082526060602083018190529282018190529181018290526080810182905260a0810182905260c0810182905260e081018290526101008101829052610120810182905261014081019190915290565b6001600160a01b03811681146109cc57600080fd5b60008060408385031215614c2357600080fd5b8235614c2e81614bfb565b946020939093013593505050565b6001600160e01b0319811681146109cc57600080fd5b600060208284031215614c6457600080fd5b8135610dca81614c3c565b80151581146109cc57600080fd5b600060208284031215614c8f57600080fd5b8135610dca81614c6f565b634e487b7160e01b600052604160045260246000fd5b601f8201601f191681016001600160401b0381118282101715614cd557614cd5614c9a565b6040525050565b600082601f830112614ced57600080fd5b81356001600160401b03811115614d0657614d06614c9a565b604051614d1d601f8301601f191660200182614cb0565b818152846020838601011115614d3257600080fd5b816020850160208301376000918101602001919091529392505050565b600060208284031215614d6157600080fd5b81356001600160401b03811115614d7757600080fd5b61301284828501614cdc565b60005b83811015614d9e578181015183820152602001614d86565b50506000910152565b60008151808452614dbf816020860160208601614d83565b601f01601f19169290920160200192915050565b602081526000610dca6020830184614da7565b803560ff81168114614df757600080fd5b919050565b600080600080600060a08688031215614e1457600080fd5b8535614e1f81614bfb565b945060208601356001600160401b03811115614e3a57600080fd5b614e4688828901614cdc565b9450506040860135925060608601359150614e6360808701614de6565b90509295509295909350565b600060208284031215614e8157600080fd5b5035919050565b803563ffffffff81168114614df757600080fd5b60008060408385031215614eaf57600080fd5b8235614eba81614bfb565b9150614ec860208401614e88565b90509250929050565b80356001600160401b0381168114614df757600080fd5b600060608284031215614efa57600080fd5b604051606081018181106001600160401b0382111715614f1c57614f1c614c9a565b80604052508091508235815260208301356020820152614f3e60408401614de6565b60408201525092915050565b60008060008060c08587031215614f6057600080fd5b614f6985614e88565b935060208501359250614f7e60408601614ed1565b9150614f8d8660608701614ee8565b905092959194509250565b803561ffff81168114614df757600080fd5b600080600080600080600080610100898b031215614fc757600080fd5b614fd089614f98565b975060208901356001600160401b03811115614feb57600080fd5b614ff78b828c01614cdc565b97505060408901359550606089013561500f81614c6f565b945060808901356001600160801b038116811461502b57600080fd5b935061503960a08a01614f98565b925060c0890135915060e089013590509295985092959890939650565b60006020828403121561506857600080fd5b8135610dca81614bfb565b60006001600160401b0382111561508c5761508c614c9a565b5060051b60200190565b600082601f8301126150a757600080fd5b813560206150b482615073565b6040516150c18282614cb0565b83815260059390931b85018201928281019150868411156150e157600080fd5b8286015b848110156150fc57803583529183019183016150e5565b509695505050505050565b600080600080600060a0868803121561511f57600080fd5b853561512a81614bfb565b9450602086013561513a81614bfb565b935060408601356001600160401b038082111561515657600080fd5b61516289838a01615096565b9450606088013591508082111561517857600080fd5b61518489838a01615096565b9350608088013591508082111561519a57600080fd5b506151a788828901614cdc565b9150509295509295909350565b6000602082840312156151c657600080fd5b610dca82614e88565b600080604083850312156151e257600080fd5b8235915060208301356001600160401b038111156151ff57600080fd5b61520b85828601614cdc565b9150509250929050565b60008060006060848603121561522a57600080fd5b61523384614e88565b925061524160208501614e88565b9150604084013561525181614bfb565b809150509250925092565b6000806000806080858703121561527257600080fd5b8435935061528260208601614ed1565b925061529060408601614ed1565b9396929550929360600135925050565b600080604083850312156152b357600080fd5b82356001600160401b03808211156152ca57600080fd5b818501915085601f8301126152de57600080fd5b813560206152eb82615073565b6040516152f88282614cb0565b83815260059390931b850182019282810191508984111561531857600080fd5b948201945b8386101561533f57853561533081614bfb565b8252948201949082019061531d565b9650508601359250508082111561535557600080fd5b5061520b85828601615096565b600081518084526020808501945080840160005b8381101561539257815187529582019590820190600101615376565b509495945050505050565b602081526000610dca6020830184615362565b600080600080600060e086880312156153c857600080fd5b6153d186614e88565b94506153df60208701614e88565b935060408601356153ef81614bfb565b92506153fd60608701614ed1565b9150614e638760808801614ee8565b6000806040838503121561541f57600080fd5b614eba83614e88565b6020815261543f60208201835163ffffffff169052565b6000602083015161016080604085015261545d610180850183614da7565b9150604085015161547960608601826001600160a01b03169052565b50606085015161ffff8116608086015250608085015160a085015260a08501516154a760c086018215159052565b5060c08501516001600160f81b0319811660e08601525060e08501516101006154d58187018361ffff169052565b86015190506101206154f1868201836001600160801b03169052565b860151610140868101919091529095015193019290925250919050565b6000806040838503121561552157600080fd5b823561552c81614bfb565b9150602083013561553c81614c6f565b809150509250929050565b6000806040838503121561555a57600080fd5b61556383614e88565b915060208301356001600160f81b03198116811461553c57600080fd5b6000806040838503121561559357600080fd5b82359150602083013561553c81614bfb565b600080604083850312156155b857600080fd5b82356155c381614bfb565b9150602083013561553c81614bfb565b600080600080600060a086880312156155eb57600080fd5b85356155f681614bfb565b9450602086013561560681614bfb565b9350604086013592506060860135915060808601356001600160401b0381111561562f57600080fd5b6151a788828901614cdc565b6020808252818101527f4f776e61626c653a2063616c6c6572206973206e6f7420746865206f776e6572604082015260600190565b600181811c9082168061568457607f821691505b602082108103610dd157634e487b7160e01b600052602260045260246000fd5b6001600160a01b038481168252831660208201526060604082018190526000906156d090830184614da7565b95945050505050565b600083516156eb818460208801614d83565b60609390931b6001600160601b0319169190920190815260140192915050565b6000825161571d818460208701614d83565b9190910192915050565b602080825260089082015267085c1c9bda9958dd60c21b604082015260600190565b634e487b7160e01b600052601160045260246000fd5b80820281158282048414176108fb576108fb615749565b808201808211156108fb576108fb615749565b6020808252601f908201527f5265656e7472616e637947756172643a207265656e7472616e742063616c6c00604082015260600190565b634e487b7160e01b600052601260045260246000fd5b60006001600160401b03808416806157f0576157f06157c0565b92169190910492915050565b60208082526007908201526678206e6f6e636560c81b604082015260600190565b63ffffffff81811683821601908082111561583a5761583a615749565b5092915050565b601f8211156136c557600081815260208120601f850160051c810160208610156158685750805b601f850160051c820191505b818110156138db57828155600101615874565b81516001600160401b038111156158a0576158a0614c9a565b6158b4816158ae8454615670565b84615841565b602080601f8311600181146158e957600084156158d15750858301515b600019600386901b1c1916600185901b1785556138db565b600085815260208120601f198616915b82811015615918578886015182559484019460019091019084016158f9565b50858210156159365787850151600019600388901b60f8161c191681555b5050505050600190811b01905550565b6020808252600690820152651c185d5cd95960d21b604082015260600190565b6020808252600790820152662161637469766560c81b604082015260600190565b6001600160401b0382811682821603908082111561583a5761583a615749565b6000826159b6576159b66157c0565b500490565b634e487b7160e01b600052603260045260246000fd5b6000600182016159e3576159e3615749565b5060010190565b6000602082840312156159fc57600080fd5b5051919050565b60208082526009908201526818985b185b98d9480f60ba1b604082015260600190565b6001600160801b0381811683821601908082111561583a5761583a615749565b6020808252600490820152632171747960e01b604082015260600190565b63ffffffff82811682821603908082111561583a5761583a615749565b600060208284031215615a9357600080fd5b8151610dca81614bfb565b60208082526025908201527f455243313135353a207472616e7366657220746f20746865207a65726f206164604082015264647265737360d81b606082015260800190565b6020808252602a908201527f455243313135353a20696e73756666696369656e742062616c616e636520666f60408201526939103a3930b739b332b960b11b606082015260800190565b604081526000615b406040830185615362565b82810360208401526156d08185615362565b818103818111156108fb576108fb615749565b6001600160801b0382811682821603908082111561583a5761583a615749565b600060208284031215615b9757600080fd5b8151610dca81614c6f565b6001600160a01b0386811682528516602082015260a060408201819052600090615bce90830186615362565b8281036060840152615be08186615362565b90508281036080840152610c3b8185614da7565b600060208284031215615c0657600080fd5b8151610dca81614c3c565b600060033d1115615c2a5760046000803e5060005160e01c5b90565b600060443d1015615c3b5790565b6040516003193d81016004833e81513d6001600160401b038160248401118184111715615c6a57505050505090565b8285019150815181811115615c825750505050505090565b843d8701016020828501011115615c9c5750505050505090565b615cab60208286010187614cb0565b509095945050505050565b60208082526028908201527f455243313135353a204552433131353552656365697665722072656a656374656040820152676420746f6b656e7360c01b606082015260800190565b6001600160a01b03868116825285166020820152604081018490526060810183905260a0608082018190526000906119dc90830184614da756fe4d6574615472616e73616374696f6e2875696e74323536206e6f6e63652c616464726573732066726f6d2c62797465732066756e6374696f6e5369676e617475726529a2646970667358221220556b623662eaf47f8c43842f9a017eced61655fb96a31785d11a123b5bf2f11f64736f6c63430008110033454950373132446f6d61696e28737472696e67206e616d652c737472696e672076657273696f6e2c6164647265737320766572696679696e67436f6e74726163742c627974657333322073616c7429",
  "bytecodeSha1": "da39a3ee5e6b4b0d3255bfef95601890afd80709",
  "compiler": {
    "evm_version": "istanbul",
    "optimizer": {
      "enabled": true,
      "runs": 200
    },
    "version": "0.8.17+commit.8df45f5f"
  },
  "contractName": "BlackRoof",
  "language": "Solidity",
  "natspec": {
    "kind": "dev",
    "methods": {
      "adminBurn(uint32,uint32,address)": {
        "details": "Burn NFT by admin and return the mint price to the NFT owner.      Caller of this function must be admin.      this will emit Burn event when success.",
        "params": {
          "projectId": "Project id.",
          "qty": "Quantity of NFTs to burn.",
          "to": "the owner of the NFT to be burned."
        }
      },
      "authorizedMint(uint32,uint32,address,uint64,(bytes32,bytes32,uint8))": {
        "details": "Permissioned version of mint, use signature for verification,      Anyone with valid signature can mint NFTs."
      },
      "balanceOf(address,uint256)": {
        "details": "See {IERC1155-balanceOf}. Requirements: - `account` cannot be the zero address."
      },
      "balanceOfBatch(address[],uint256[])": {
        "details": "See {IERC1155-balanceOfBatch}. Requirements: - `accounts` and `ids` must have the same length."
      },
      "burn(uint32,uint32)": {
        "details": "Burn NFT and claim back the mint price to the NFT owner.      this will emit Burn event when success.",
        "params": {
          "projectId": "Project id.",
          "qty": "Quantity of NFTs to burn."
        }
      },
      "calculateRewards(uint256,uint64,uint64,uint256)": {
        "details": "function to calculate rewards,      rewards is progressive to 12% per year.",
        "params": {
          "_amount": "amount of stable coin.",
          "_endTime": "time when staking ended.",
          "_startTime": "time when staking started."
        },
        "returns": {
          "rewards": "amount of rewards"
        }
      },
      "collectRewards(uint32)": {
        "details": "Function to collect fixed calculated rewards."
      },
      "collectRewardsBy(uint32,uint256,uint64,(bytes32,bytes32,uint8))": {
        "details": "Function to collect specific amount of rewards from project manually,      rewards is calculated off-chain and need authorization signature to proceed.      This procedure can work in paused state (for emergency purpose).",
        "params": {
          "amount": "the amount of rewards to collect.",
          "nonce": "the nonce of the signature.",
          "projectId": "the ID of project.",
          "sig": "the signature to authorize the transaction."
        }
      },
      "constructor": {
        "notice": "Constructor for the BlackRoof contract, which inherits from the ERC1155Tradable and Stake contracts. Set the contract's base URI and proxy address and set the admin address.",
        "params": {
          "_admin": "The contract's admin address.",
          "_baseUri": "The contract's base URI.",
          "_proxyAddress": "The address of the proxy contract.",
          "_stableCoin": "The address of the stablecoin for calculating rewards."
        }
      },
      "createProject(uint16,string,uint256,bool,uint128,uint16,uint256,uint256)": {
        "details": "Creates a new project. This can only be done by the contract admin or owner.",
        "params": {
          "apy": "APY of the project.",
          "authorizedOnly": "If true the project only mintable by admin.",
          "price": "Price to mint one NFT from this project (in wei). Cannot be zero if `authorizedOnly`=true.",
          "stakedApy": "APY for staked NFT.",
          "supplyLimit": "Supply limit of the project. Minting will fail if max limit.",
          "term": "Term of the project. 0: no term, 1: 1 month, 2: 3 months, 3: 6 months, 4: 1 year, 5: 2 years, 6: 3 years, 7: 4 years, 8: 5 years.",
          "title": "Title of the project.",
          "typeId": "project type."
        }
      },
      "getHoldingInfo(address,uint32)": {
        "details": "get holding information on project of user"
      },
      "getProject(uint32)": {
        "notice": "Get project data by ID."
      },
      "isApprovedForAll(address,address)": {
        "notice": "Override isApprovedForAll to whitelist user's OpenSea proxy accounts to enable gas-free listings."
      },
      "mint(uint32,uint32,address)": {
        "details": "Mint NFT for specific project. This payable function demands the exact amount of price,      except for the authorizedOnly project.",
        "params": {
          "projectId": "Project id.",
          "qty": "Quantity of NFTs to mint."
        }
      },
      "owner()": {
        "details": "Returns the address of the current owner."
      },
      "renounceOwnership()": {
        "details": "Leaves the contract without owner. It will not be possible to call `onlyOwner` functions anymore. Can only be called by the current owner. NOTE: Renouncing ownership will leave the contract without an owner, thereby removing any functionality that is only available to the owner."
      },
      "safeBatchTransferFrom(address,address,uint256[],uint256[],bytes)": {
        "details": "See {IERC1155-safeBatchTransferFrom}."
      },
      "safeTransferFrom(address,address,uint256,uint256,bytes)": {
        "details": "See {IERC1155-safeTransferFrom}."
      },
      "setApprovalForAll(address,bool)": {
        "details": "See {IERC1155-setApprovalForAll}."
      },
      "setCustomURI(uint256,string)": {
        "details": "Will update the base URI for the token",
        "params": {
          "_newURI": "New URI for the token.",
          "_tokenId": "The token to update. _msgSender() must be its creator."
        }
      },
      "setProjectStatus(uint32,bytes1)": {
        "notice": "This function is used to set the status of a project. The caller of this function must be either the owner or an admin of the contract. It takes in two parameters: the projectId and a bytes1 status. It first checks to make sure the project exists, before setting the status and emitting a ProjectStatusChanged event.",
        "params": {
          "projectId": "The ID of the project to set the status for.",
          "status": "A bytes1 indicating the new status."
        }
      },
      "setURI(string)": {
        "details": "Sets a new URI for all token types, by relying on the token type ID substitution mechanism https://eips.ethereum.org/EIPS/eip-1155#metadata[defined in the EIP].",
        "params": {
          "_newURI": "New URI for all tokens"
        }
      },
      "stakeInfo(address,uint32)": {
        "details": "get user stake info."
      },
      "supplyFor(uint32)": {
        "details": "check supply for specific item."
      },
      "supportsInterface(bytes4)": {
        "details": "See {IERC165-supportsInterface}."
      },
      "topup(uint256)": {
        "notice": "This function allows users to top up tokens to the contract. It takes in one parameter 'amount' (the amount of tokens to be topped up). It then transfers the tokens from the user to the contract. It emits BalanceDeposit event to notify the success of topping up.",
        "params": {
          "amount": "The amount of tokens to be topped up."
        }
      },
      "transferOwnership(address)": {
        "details": "Transfers ownership of the contract to a new account (`newOwner`). Can only be called by the current owner."
      },
      "uri(uint256)": {
        "notice": "Returns the URI of a given project. If the project has a custom URI (stored in the 'customUri' mapping), the custom URI is returned. Otherwise, the default uri defined in the super class is returned.",
        "params": {
          "_projectId": "The ID of the project."
        },
        "returns": {
          "_0": "{string} The URI of the project."
        }
      },
      "withdrawTo(uint256,address)": {
        "details": "Withdraw amount of deposit from this contract to `to` address.      Caller of this function must be owner.",
        "params": {
          "amount": "to withdraw.",
          "to": "address to withdraw to."
        }
      }
    },
    "version": 1
  },
  "opcodes": "PUSH1 0x80 PUSH1 0x40 MSTORE PUSH1 0x4 CALLDATASIZE LT PUSH2 0x250 JUMPI PUSH1 0x0 CALLDATALOAD PUSH1 0xE0 SHR DUP1 PUSH4 0x51248B4E GT PUSH2 0x139 JUMPI DUP1 PUSH4 0x95D89B41 GT PUSH2 0xB6 JUMPI DUP1 PUSH4 0xC86283C8 GT PUSH2 0x7A JUMPI DUP1 PUSH4 0xC86283C8 EQ PUSH2 0x7B4 JUMPI DUP1 PUSH4 0xD7526FFA EQ PUSH2 0x7C7 JUMPI DUP1 PUSH4 0xE985E9C5 EQ PUSH2 0x7E7 JUMPI DUP1 PUSH4 0xF242432A EQ PUSH2 0x807 JUMPI DUP1 PUSH4 0xF2FDE38B EQ PUSH2 0x827 JUMPI DUP1 PUSH4 0xF851A440 EQ PUSH2 0x847 JUMPI PUSH1 0x0 DUP1 REVERT JUMPDEST DUP1 PUSH4 0x95D89B41 EQ PUSH2 0x6AF JUMPI DUP1 PUSH4 0xA22CB465 EQ PUSH2 0x6C4 JUMPI DUP1 PUSH4 0xA3AAFE89 EQ PUSH2 0x6E4 JUMPI DUP1 PUSH4 0xAEAED1B7 EQ PUSH2 0x738 JUMPI DUP1 PUSH4 0xC7BA34F4 EQ PUSH2 0x794 JUMPI PUSH1 0x0 DUP1 REVERT JUMPDEST DUP1 PUSH4 0x715018A6 GT PUSH2 0xFD JUMPI DUP1 PUSH4 0x715018A6 EQ PUSH2 0x5FB JUMPI DUP1 PUSH4 0x7E28EB44 EQ PUSH2 0x610 JUMPI DUP1 PUSH4 0x8206D49F EQ PUSH2 0x630 JUMPI DUP1 PUSH4 0x8DA5CB5B EQ PUSH2 0x65D JUMPI DUP1 PUSH4 0x8F283970 EQ PUSH2 0x68F JUMPI PUSH1 0x0 DUP1 REVERT JUMPDEST DUP1 PUSH4 0x51248B4E EQ PUSH2 0x562 JUMPI DUP1 PUSH4 0x52D0D8EE EQ PUSH2 0x575 JUMPI DUP1 PUSH4 0x5C975ABB EQ PUSH2 0x588 JUMPI DUP1 PUSH4 0x63184726 EQ PUSH2 0x5A9 JUMPI DUP1 PUSH4 0x6792A95B EQ PUSH2 0x5DB JUMPI PUSH1 0x0 DUP1 REVERT JUMPDEST DUP1 PUSH4 0x20379EE5 GT PUSH2 0x1D2 JUMPI DUP1 PUSH4 0x3408E470 GT PUSH2 0x196 JUMPI DUP1 PUSH4 0x3408E470 EQ PUSH2 0x4AF JUMPI DUP1 PUSH4 0x363056A9 EQ PUSH2 0x4C2 JUMPI DUP1 PUSH4 0x3ADF80B4 EQ PUSH2 0x4E2 JUMPI DUP1 PUSH4 0x3BA60D16 EQ PUSH2 0x502 JUMPI DUP1 PUSH4 0x45305AB8 EQ PUSH2 0x515 JUMPI DUP1 PUSH4 0x4E1273F4 EQ PUSH2 0x535 JUMPI PUSH1 0x0 DUP1 REVERT JUMPDEST DUP1 PUSH4 0x20379EE5 EQ PUSH2 0x411 JUMPI DUP1 PUSH4 0x2A9C33AD EQ PUSH2 0x426 JUMPI DUP1 PUSH4 0x2D0335AB EQ PUSH2 0x446 JUMPI DUP1 PUSH4 0x2EB2C2D6 EQ PUSH2 0x47C JUMPI DUP1 PUSH4 0x30DB555F EQ PUSH2 0x49C JUMPI PUSH1 0x0 DUP1 REVERT JUMPDEST DUP1 PUSH4 0xC53C51C GT PUSH2 0x219 JUMPI DUP1 PUSH4 0xC53C51C EQ PUSH2 0x31C JUMPI DUP1 PUSH4 0xE89341C EQ PUSH2 0x32F JUMPI DUP1 PUSH4 0xF7E5970 EQ PUSH2 0x34F JUMPI DUP1 PUSH4 0x138CCD00 EQ PUSH2 0x37C JUMPI DUP1 PUSH4 0x13F91252 EQ PUSH2 0x3F1 JUMPI PUSH1 0x0 DUP1 REVERT JUMPDEST DUP1 PUSH3 0xFDD58E EQ PUSH2 0x255 JUMPI DUP1 PUSH4 0x1FFC9A7 EQ PUSH2 0x288 JUMPI DUP1 PUSH4 0x2329A29 EQ PUSH2 0x2B8 JUMPI DUP1 PUSH4 0x2FE5305 EQ PUSH2 0x2DA JUMPI DUP1 PUSH4 0x6FDDE03 EQ PUSH2 0x2FA JUMPI JUMPDEST PUSH1 0x0 DUP1 REVERT JUMPDEST CALLVALUE DUP1 ISZERO PUSH2 0x261 JUMPI PUSH1 0x0 DUP1 REVERT JUMPDEST POP PUSH2 0x275 PUSH2 0x270 CALLDATASIZE PUSH1 0x4 PUSH2 0x4C10 JUMP JUMPDEST PUSH2 0x867 JUMP JUMPDEST PUSH1 0x40 MLOAD SWAP1 DUP2 MSTORE PUSH1 0x20 ADD JUMPDEST PUSH1 0x40 MLOAD DUP1 SWAP2 SUB SWAP1 RETURN JUMPDEST CALLVALUE DUP1 ISZERO PUSH2 0x294 JUMPI PUSH1 0x0 DUP1 REVERT JUMPDEST POP PUSH2 0x2A8 PUSH2 0x2A3 CALLDATASIZE PUSH1 0x4 PUSH2 0x4C52 JUMP JUMPDEST PUSH2 0x901 JUMP JUMPDEST PUSH1 0x40 MLOAD SWAP1 ISZERO ISZERO DUP2 MSTORE PUSH1 0x20 ADD PUSH2 0x27F JUMP JUMPDEST CALLVALUE DUP1 ISZERO PUSH2 0x2C4 JUMPI PUSH1 0x0 DUP1 REVERT JUMPDEST POP PUSH2 0x2D8 PUSH2 0x2D3 CALLDATASIZE PUSH1 0x4 PUSH2 0x4C7D JUMP JUMPDEST PUSH2 0x951 JUMP JUMPDEST STOP JUMPDEST CALLVALUE DUP1 ISZERO PUSH2 0x2E6 JUMPI PUSH1 0x0 DUP1 REVERT JUMPDEST POP PUSH2 0x2D8 PUSH2 0x2F5 CALLDATASIZE PUSH1 0x4 PUSH2 0x4D4F JUMP JUMPDEST PUSH2 0x999 JUMP JUMPDEST CALLVALUE DUP1 ISZERO PUSH2 0x306 JUMPI PUSH1 0x0 DUP1 REVERT JUMPDEST POP PUSH2 0x30F PUSH2 0x9CF JUMP JUMPDEST PUSH1 0x40 MLOAD PUSH2 0x27F SWAP2 SWAP1 PUSH2 0x4DD3 JUMP JUMPDEST PUSH2 0x30F PUSH2 0x32A CALLDATASIZE PUSH1 0x4 PUSH2 0x4DFC JUMP JUMPDEST PUSH2 0xA5D JUMP JUMPDEST CALLVALUE DUP1 ISZERO PUSH2 0x33B JUMPI PUSH1 0x0 DUP1 REVERT JUMPDEST POP PUSH2 0x30F PUSH2 0x34A CALLDATASIZE PUSH1 0x4 PUSH2 0x4E6F JUMP JUMPDEST PUSH2 0xC47 JUMP JUMPDEST CALLVALUE DUP1 ISZERO PUSH2 0x35B JUMPI PUSH1 0x0 DUP1 REVERT JUMPDEST POP PUSH2 0x30F PUSH1 0x40 MLOAD DUP1 PUSH1 0x40 ADD PUSH1 0x40 MSTORE DUP1 PUSH1 0x1 DUP2 MSTORE PUSH1 0x20 ADD PUSH1 0x31 PUSH1 0xF8 SHL DUP2 MSTORE POP DUP2 JUMP JUMPDEST CALLVALUE DUP1 ISZERO PUSH2 0x388 JUMPI PUSH1 0x0 DUP1 REVERT JUMPDEST POP PUSH2 0x39C PUSH2 0x397 CALLDATASIZE PUSH1 0x4 PUSH2 0x4E9C JUMP JUMPDEST PUSH2 0xDD7 JUMP JUMPDEST PUSH1 0x40 MLOAD PUSH2 0x27F SWAP2 SWAP1 PUSH1 0x0 PUSH1 0xA0 DUP3 ADD SWAP1 POP PUSH4 0xFFFFFFFF DUP1 DUP5 MLOAD AND DUP4 MSTORE DUP1 PUSH1 0x20 DUP6 ADD MLOAD AND PUSH1 0x20 DUP5 ADD MSTORE POP PUSH1 0x1 PUSH1 0x1 PUSH1 0x40 SHL SUB PUSH1 0x40 DUP5 ADD MLOAD AND PUSH1 0x40 DUP4 ADD MSTORE PUSH1 0x60 DUP4 ADD MLOAD PUSH1 0x60 DUP4 ADD MSTORE PUSH1 0x80 DUP4 ADD MLOAD PUSH1 0x80 DUP4 ADD MSTORE SWAP3 SWAP2 POP POP JUMP JUMPDEST CALLVALUE DUP1 ISZERO PUSH2 0x3FD JUMPI PUSH1 0x0 DUP1 REVERT JUMPDEST POP PUSH2 0x2A8 PUSH2 0x40C CALLDATASIZE PUSH1 0x4 PUSH2 0x4F4A JUMP JUMPDEST PUSH2 0xECF JUMP JUMPDEST CALLVALUE DUP1 ISZERO PUSH2 0x41D JUMPI PUSH1 0x0 DUP1 REVERT JUMPDEST POP PUSH1 0x4 SLOAD PUSH2 0x275 JUMP JUMPDEST CALLVALUE DUP1 ISZERO PUSH2 0x432 JUMPI PUSH1 0x0 DUP1 REVERT JUMPDEST POP PUSH2 0x2D8 PUSH2 0x441 CALLDATASIZE PUSH1 0x4 PUSH2 0x4FAA JUMP JUMPDEST PUSH2 0x125A JUMP JUMPDEST CALLVALUE DUP1 ISZERO PUSH2 0x452 JUMPI PUSH1 0x0 DUP1 REVERT JUMPDEST POP PUSH2 0x275 PUSH2 0x461 CALLDATASIZE PUSH1 0x4 PUSH2 0x5056 JUMP JUMPDEST PUSH1 0x1 PUSH1 0x1 PUSH1 0xA0 SHL SUB AND PUSH1 0x0 SWAP1 DUP2 MSTORE PUSH1 0x5 PUSH1 0x20 MSTORE PUSH1 0x40 SWAP1 KECCAK256 SLOAD SWAP1 JUMP JUMPDEST CALLVALUE DUP1 ISZERO PUSH2 0x488 JUMPI PUSH1 0x0 DUP1 REVERT JUMPDEST POP PUSH2 0x2D8 PUSH2 0x497 CALLDATASIZE PUSH1 0x4 PUSH2 0x5107 JUMP JUMPDEST PUSH2 0x1524 JUMP JUMPDEST PUSH2 0x2D8 PUSH2 0x4AA CALLDATASIZE PUSH1 0x4 PUSH2 0x4E6F JUMP JUMPDEST PUSH2 0x15BB JUMP JUMPDEST CALLVALUE DUP1 ISZERO PUSH2 0x4BB JUMPI PUSH1 0x0 DUP1 REVERT JUMPDEST POP CHAINID PUSH2 0x275 JUMP JUMPDEST CALLVALUE DUP1 ISZERO PUSH2 0x4CE JUMPI PUSH1 0x0 DUP1 REVERT JUMPDEST POP PUSH2 0x2A8 PUSH2 0x4DD CALLDATASIZE PUSH1 0x4 PUSH2 0x51B4 JUMP JUMPDEST PUSH2 0x1603 JUMP JUMPDEST CALLVALUE DUP1 ISZERO PUSH2 0x4EE JUMPI PUSH1 0x0 DUP1 REVERT JUMPDEST POP PUSH2 0x2D8 PUSH2 0x4FD CALLDATASIZE PUSH1 0x4 PUSH2 0x51CF JUMP JUMPDEST PUSH2 0x18C0 JUMP JUMPDEST PUSH2 0x2A8 PUSH2 0x510 CALLDATASIZE PUSH1 0x4 PUSH2 0x5215 JUMP JUMPDEST PUSH2 0x193F JUMP JUMPDEST CALLVALUE DUP1 ISZERO PUSH2 0x521 JUMPI PUSH1 0x0 DUP1 REVERT JUMPDEST POP PUSH2 0x275 PUSH2 0x530 CALLDATASIZE PUSH1 0x4 PUSH2 0x525C JUMP JUMPDEST PUSH2 0x1988 JUMP JUMPDEST CALLVALUE DUP1 ISZERO PUSH2 0x541 JUMPI PUSH1 0x0 DUP1 REVERT JUMPDEST POP PUSH2 0x555 PUSH2 0x550 CALLDATASIZE PUSH1 0x4 PUSH2 0x52A0 JUMP JUMPDEST PUSH2 0x19E7 JUMP JUMPDEST PUSH1 0x40 MLOAD PUSH2 0x27F SWAP2 SWAP1 PUSH2 0x539D JUMP JUMPDEST PUSH2 0x2A8 PUSH2 0x570 CALLDATASIZE PUSH1 0x4 PUSH2 0x5215 JUMP JUMPDEST PUSH2 0x1B10 JUMP JUMPDEST PUSH2 0x2A8 PUSH2 0x583 CALLDATASIZE PUSH1 0x4 PUSH2 0x53B0 JUMP JUMPDEST PUSH2 0x1FC8 JUMP JUMPDEST CALLVALUE DUP1 ISZERO PUSH2 0x594 JUMPI PUSH1 0x0 DUP1 REVERT JUMPDEST POP PUSH1 0xE SLOAD PUSH2 0x2A8 SWAP1 PUSH1 0x1 PUSH1 0xA0 SHL SWAP1 DIV PUSH1 0xFF AND DUP2 JUMP JUMPDEST CALLVALUE DUP1 ISZERO PUSH2 0x5B5 JUMPI PUSH1 0x0 DUP1 REVERT JUMPDEST POP PUSH1 0x12 SLOAD PUSH2 0x5C6 SWAP1 PUSH4 0xFFFFFFFF AND DUP2 JUMP JUMPDEST PUSH1 0x40 MLOAD PUSH4 0xFFFFFFFF SWAP1 SWAP2 AND DUP2 MSTORE PUSH1 0x20 ADD PUSH2 0x27F JUMP JUMPDEST CALLVALUE DUP1 ISZERO PUSH2 0x5E7 JUMPI PUSH1 0x0 DUP1 REVERT JUMPDEST POP PUSH2 0x2A8 PUSH2 0x5F6 CALLDATASIZE PUSH1 0x4 PUSH2 0x540C JUMP JUMPDEST PUSH2 0x24AE JUMP JUMPDEST CALLVALUE DUP1 ISZERO PUSH2 0x607 JUMPI PUSH1 0x0 DUP1 REVERT JUMPDEST POP PUSH2 0x2D8 PUSH2 0x27C9 JUMP JUMPDEST CALLVALUE DUP1 ISZERO PUSH2 0x61C JUMPI PUSH1 0x0 DUP1 REVERT JUMPDEST POP PUSH2 0x2A8 PUSH2 0x62B CALLDATASIZE PUSH1 0x4 PUSH2 0x540C JUMP JUMPDEST PUSH2 0x27FF JUMP JUMPDEST CALLVALUE DUP1 ISZERO PUSH2 0x63C JUMPI PUSH1 0x0 DUP1 REVERT JUMPDEST POP PUSH2 0x650 PUSH2 0x64B CALLDATASIZE PUSH1 0x4 PUSH2 0x51B4 JUMP JUMPDEST PUSH2 0x2894 JUMP JUMPDEST PUSH1 0x40 MLOAD PUSH2 0x27F SWAP2 SWAP1 PUSH2 0x5428 JUMP JUMPDEST CALLVALUE DUP1 ISZERO PUSH2 0x669 JUMPI PUSH1 0x0 DUP1 REVERT JUMPDEST POP PUSH1 0x6 SLOAD PUSH1 0x1 PUSH1 0x1 PUSH1 0xA0 SHL SUB AND JUMPDEST PUSH1 0x40 MLOAD PUSH1 0x1 PUSH1 0x1 PUSH1 0xA0 SHL SUB SWAP1 SWAP2 AND DUP2 MSTORE PUSH1 0x20 ADD PUSH2 0x27F JUMP JUMPDEST CALLVALUE DUP1 ISZERO PUSH2 0x69B JUMPI PUSH1 0x0 DUP1 REVERT JUMPDEST POP PUSH2 0x2D8 PUSH2 0x6AA CALLDATASIZE PUSH1 0x4 PUSH2 0x5056 JUMP JUMPDEST PUSH2 0x28A5 JUMP JUMPDEST CALLVALUE DUP1 ISZERO PUSH2 0x6BB JUMPI PUSH1 0x0 DUP1 REVERT JUMPDEST POP PUSH2 0x30F PUSH2 0x28D8 JUMP JUMPDEST CALLVALUE DUP1 ISZERO PUSH2 0x6D0 JUMPI PUSH1 0x0 DUP1 REVERT JUMPDEST POP PUSH2 0x2D8 PUSH2 0x6DF CALLDATASIZE PUSH1 0x4 PUSH2 0x550E JUMP JUMPDEST PUSH2 0x28E5 JUMP JUMPDEST CALLVALUE DUP1 ISZERO PUSH2 0x6F0 JUMPI PUSH1 0x0 DUP1 REVERT JUMPDEST POP PUSH2 0x720 PUSH2 0x6FF CALLDATASIZE PUSH1 0x4 PUSH2 0x51B4 JUMP JUMPDEST PUSH4 0xFFFFFFFF AND PUSH1 0x0 SWAP1 DUP2 MSTORE PUSH1 0x13 PUSH1 0x20 MSTORE PUSH1 0x40 SWAP1 KECCAK256 SLOAD PUSH1 0x1 PUSH1 0x1 PUSH1 0x80 SHL SUB AND SWAP1 JUMP JUMPDEST PUSH1 0x40 MLOAD PUSH1 0x1 PUSH1 0x1 PUSH1 0x80 SHL SUB SWAP1 SWAP2 AND DUP2 MSTORE PUSH1 0x20 ADD PUSH2 0x27F JUMP JUMPDEST CALLVALUE DUP1 ISZERO PUSH2 0x744 JUMPI PUSH1 0x0 DUP1 REVERT JUMPDEST POP PUSH2 0x758 PUSH2 0x753 CALLDATASIZE PUSH1 0x4 PUSH2 0x4E9C JUMP JUMPDEST PUSH2 0x29BB JUMP JUMPDEST PUSH1 0x40 MLOAD PUSH2 0x27F SWAP2 SWAP1 DUP2 MLOAD DUP2 MSTORE PUSH1 0x20 DUP1 DUP4 ADD MLOAD PUSH1 0x1 PUSH1 0x1 PUSH1 0x40 SHL SUB AND SWAP1 DUP3 ADD MSTORE PUSH1 0x40 DUP1 DUP4 ADD MLOAD SWAP1 DUP3 ADD MSTORE PUSH1 0x60 SWAP2 DUP3 ADD MLOAD SWAP2 DUP2 ADD SWAP2 SWAP1 SWAP2 MSTORE PUSH1 0x80 ADD SWAP1 JUMP JUMPDEST CALLVALUE DUP1 ISZERO PUSH2 0x7A0 JUMPI PUSH1 0x0 DUP1 REVERT JUMPDEST POP PUSH2 0x2D8 PUSH2 0x7AF CALLDATASIZE PUSH1 0x4 PUSH2 0x5547 JUMP JUMPDEST PUSH2 0x2A93 JUMP JUMPDEST PUSH2 0x2D8 PUSH2 0x7C2 CALLDATASIZE PUSH1 0x4 PUSH2 0x5580 JUMP JUMPDEST PUSH2 0x2B84 JUMP JUMPDEST CALLVALUE DUP1 ISZERO PUSH2 0x7D3 JUMPI PUSH1 0x0 DUP1 REVERT JUMPDEST POP PUSH2 0x2A8 PUSH2 0x7E2 CALLDATASIZE PUSH1 0x4 PUSH2 0x540C JUMP JUMPDEST PUSH2 0x2CCD JUMP JUMPDEST CALLVALUE DUP1 ISZERO PUSH2 0x7F3 JUMPI PUSH1 0x0 DUP1 REVERT JUMPDEST POP PUSH2 0x2A8 PUSH2 0x802 CALLDATASIZE PUSH1 0x4 PUSH2 0x55A5 JUMP JUMPDEST PUSH2 0x2F5A JUMP JUMPDEST CALLVALUE DUP1 ISZERO PUSH2 0x813 JUMPI PUSH1 0x0 DUP1 REVERT JUMPDEST POP PUSH2 0x2D8 PUSH2 0x822 CALLDATASIZE PUSH1 0x4 PUSH2 0x55D3 JUMP JUMPDEST PUSH2 0x301A JUMP JUMPDEST CALLVALUE DUP1 ISZERO PUSH2 0x833 JUMPI PUSH1 0x0 DUP1 REVERT JUMPDEST POP PUSH2 0x2D8 PUSH2 0x842 CALLDATASIZE PUSH1 0x4 PUSH2 0x5056 JUMP JUMPDEST PUSH2 0x30A1 JUMP JUMPDEST CALLVALUE DUP1 ISZERO PUSH2 0x853 JUMPI PUSH1 0x0 DUP1 REVERT JUMPDEST POP PUSH1 0xB SLOAD PUSH2 0x677 SWAP1 PUSH1 0x1 PUSH1 0x1 PUSH1 0xA0 SHL SUB AND DUP2 JUMP JUMPDEST PUSH1 0x0 PUSH1 0x1 PUSH1 0x1 PUSH1 0xA0 SHL SUB DUP4 AND PUSH2 0x8D8 JUMPI PUSH1 0x40 MLOAD PUSH3 0x461BCD PUSH1 0xE5 SHL DUP2 MSTORE PUSH1 0x20 PUSH1 0x4 DUP3 ADD MSTORE PUSH1 0x2B PUSH1 0x24 DUP3 ADD MSTORE PUSH32 0x455243313135353A2062616C616E636520717565727920666F7220746865207A PUSH1 0x44 DUP3 ADD MSTORE PUSH11 0x65726F2061646472657373 PUSH1 0xA8 SHL PUSH1 0x64 DUP3 ADD MSTORE PUSH1 0x84 ADD JUMPDEST PUSH1 0x40 MLOAD DUP1 SWAP2 SUB SWAP1 REVERT JUMPDEST POP PUSH1 0x0 DUP2 DUP2 MSTORE PUSH1 0x20 DUP2 DUP2 MSTORE PUSH1 0x40 DUP1 DUP4 KECCAK256 PUSH1 0x1 PUSH1 0x1 PUSH1 0xA0 SHL SUB DUP7 AND DUP5 MSTORE SWAP1 SWAP2 MSTORE SWAP1 KECCAK256 SLOAD JUMPDEST SWAP3 SWAP2 POP POP JUMP JUMPDEST PUSH1 0x0 PUSH1 0x1 PUSH1 0x1 PUSH1 0xE0 SHL SUB NOT DUP3 AND PUSH4 0x6CDB3D13 PUSH1 0xE1 SHL EQ DUP1 PUSH2 0x932 JUMPI POP PUSH1 0x1 PUSH1 0x1 PUSH1 0xE0 SHL SUB NOT DUP3 AND PUSH4 0x3A24D07 PUSH1 0xE2 SHL EQ JUMPDEST DUP1 PUSH2 0x8FB JUMPI POP PUSH4 0x1FFC9A7 PUSH1 0xE0 SHL PUSH1 0x1 PUSH1 0x1 PUSH1 0xE0 SHL SUB NOT DUP4 AND EQ PUSH2 0x8FB JUMP JUMPDEST PUSH1 0x6 SLOAD PUSH1 0x1 PUSH1 0x1 PUSH1 0xA0 SHL SUB AND CALLER EQ PUSH2 0x97B JUMPI PUSH1 0x40 MLOAD PUSH3 0x461BCD PUSH1 0xE5 SHL DUP2 MSTORE PUSH1 0x4 ADD PUSH2 0x8CF SWAP1 PUSH2 0x563B JUMP JUMPDEST PUSH1 0xE DUP1 SLOAD SWAP2 ISZERO ISZERO PUSH1 0x1 PUSH1 0xA0 SHL MUL PUSH1 0xFF PUSH1 0xA0 SHL NOT SWAP1 SWAP3 AND SWAP2 SWAP1 SWAP2 OR SWAP1 SSTORE JUMP JUMPDEST PUSH1 0x6 SLOAD PUSH1 0x1 PUSH1 0x1 PUSH1 0xA0 SHL SUB AND CALLER EQ PUSH2 0x9C3 JUMPI PUSH1 0x40 MLOAD PUSH3 0x461BCD PUSH1 0xE5 SHL DUP2 MSTORE PUSH1 0x4 ADD PUSH2 0x8CF SWAP1 PUSH2 0x563B JUMP JUMPDEST PUSH2 0x9CC DUP2 PUSH2 0x3233 JUMP JUMPDEST POP JUMP JUMPDEST PUSH1 0x9 DUP1 SLOAD PUSH2 0x9DC SWAP1 PUSH2 0x5670 JUMP JUMPDEST DUP1 PUSH1 0x1F ADD PUSH1 0x20 DUP1 SWAP2 DIV MUL PUSH1 0x20 ADD PUSH1 0x40 MLOAD SWAP1 DUP2 ADD PUSH1 0x40 MSTORE DUP1 SWAP3 SWAP2 SWAP1 DUP2 DUP2 MSTORE PUSH1 0x20 ADD DUP3 DUP1 SLOAD PUSH2 0xA08 SWAP1 PUSH2 0x5670 JUMP JUMPDEST DUP1 ISZERO PUSH2 0xA55 JUMPI DUP1 PUSH1 0x1F LT PUSH2 0xA2A JUMPI PUSH2 0x100 DUP1 DUP4 SLOAD DIV MUL DUP4 MSTORE SWAP2 PUSH1 0x20 ADD SWAP2 PUSH2 0xA55 JUMP JUMPDEST DUP3 ADD SWAP2 SWAP1 PUSH1 0x0 MSTORE PUSH1 0x20 PUSH1 0x0 KECCAK256 SWAP1 JUMPDEST DUP2 SLOAD DUP2 MSTORE SWAP1 PUSH1 0x1 ADD SWAP1 PUSH1 0x20 ADD DUP1 DUP4 GT PUSH2 0xA38 JUMPI DUP3 SWAP1 SUB PUSH1 0x1F AND DUP3 ADD SWAP2 JUMPDEST POP POP POP POP POP DUP2 JUMP JUMPDEST PUSH1 0x40 DUP1 MLOAD PUSH1 0x60 DUP2 DUP2 ADD DUP4 MSTORE PUSH1 0x1 PUSH1 0x1 PUSH1 0xA0 SHL SUB DUP9 AND PUSH1 0x0 DUP2 DUP2 MSTORE PUSH1 0x5 PUSH1 0x20 SWAP1 DUP2 MSTORE SWAP1 DUP6 SWAP1 KECCAK256 SLOAD DUP5 MSTORE DUP4 ADD MSTORE SWAP2 DUP2 ADD DUP7 SWAP1 MSTORE PUSH2 0xA9B DUP8 DUP3 DUP8 DUP8 DUP8 PUSH2 0x3243 JUMP JUMPDEST PUSH2 0xAF1 JUMPI PUSH1 0x40 MLOAD PUSH3 0x461BCD PUSH1 0xE5 SHL DUP2 MSTORE PUSH1 0x20 PUSH1 0x4 DUP3 ADD MSTORE PUSH1 0x21 PUSH1 0x24 DUP3 ADD MSTORE PUSH32 0x5369676E657220616E64207369676E617475726520646F206E6F74206D617463 PUSH1 0x44 DUP3 ADD MSTORE PUSH1 0xD PUSH1 0xFB SHL PUSH1 0x64 DUP3 ADD MSTORE PUSH1 0x84 ADD PUSH2 0x8CF JUMP JUMPDEST PUSH1 0x1 PUSH1 0x1 PUSH1 0xA0 SHL SUB DUP8 AND PUSH1 0x0 SWAP1 DUP2 MSTORE PUSH1 0x5 PUSH1 0x20 MSTORE PUSH1 0x40 SWAP1 KECCAK256 SLOAD PUSH2 0xB15 SWAP1 PUSH1 0x1 PUSH2 0x3333 JUMP JUMPDEST PUSH1 0x1 PUSH1 0x1 PUSH1 0xA0 SHL SUB DUP9 AND PUSH1 0x0 SWAP1 DUP2 MSTORE PUSH1 0x5 PUSH1 0x20 MSTORE PUSH1 0x40 SWAP1 DUP2 SWAP1 KECCAK256 SWAP2 SWAP1 SWAP2 SSTORE MLOAD PUSH32 0x5845892132946850460BFF5A0083F71031BC5BF9AADCD40F1DE79423EAC9B10B SWAP1 PUSH2 0xB65 SWAP1 DUP10 SWAP1 CALLER SWAP1 DUP11 SWAP1 PUSH2 0x56A4 JUMP JUMPDEST PUSH1 0x40 MLOAD DUP1 SWAP2 SUB SWAP1 LOG1 PUSH1 0x0 DUP1 ADDRESS PUSH1 0x1 PUSH1 0x1 PUSH1 0xA0 SHL SUB AND DUP9 DUP11 PUSH1 0x40 MLOAD PUSH1 0x20 ADD PUSH2 0xB8D SWAP3 SWAP2 SWAP1 PUSH2 0x56D9 JUMP JUMPDEST PUSH1 0x40 DUP1 MLOAD PUSH1 0x1F NOT DUP2 DUP5 SUB ADD DUP2 MSTORE SWAP1 DUP3 SWAP1 MSTORE PUSH2 0xBA7 SWAP2 PUSH2 0x570B JUMP JUMPDEST PUSH1 0x0 PUSH1 0x40 MLOAD DUP1 DUP4 SUB DUP2 PUSH1 0x0 DUP7 GAS CALL SWAP2 POP POP RETURNDATASIZE DUP1 PUSH1 0x0 DUP2 EQ PUSH2 0xBE4 JUMPI PUSH1 0x40 MLOAD SWAP2 POP PUSH1 0x1F NOT PUSH1 0x3F RETURNDATASIZE ADD AND DUP3 ADD PUSH1 0x40 MSTORE RETURNDATASIZE DUP3 MSTORE RETURNDATASIZE PUSH1 0x0 PUSH1 0x20 DUP5 ADD RETURNDATACOPY PUSH2 0xBE9 JUMP JUMPDEST PUSH1 0x60 SWAP2 POP JUMPDEST POP SWAP2 POP SWAP2 POP DUP2 PUSH2 0xC3B JUMPI PUSH1 0x40 MLOAD PUSH3 0x461BCD PUSH1 0xE5 SHL DUP2 MSTORE PUSH1 0x20 PUSH1 0x4 DUP3 ADD MSTORE PUSH1 0x1C PUSH1 0x24 DUP3 ADD MSTORE PUSH32 0x46756E6374696F6E2063616C6C206E6F74207375636365737366756C00000000 PUSH1 0x44 DUP3 ADD MSTORE PUSH1 0x64 ADD PUSH2 0x8CF JUMP JUMPDEST SWAP9 SWAP8 POP POP POP POP POP POP POP POP JUMP JUMPDEST PUSH4 0xFFFFFFFF DUP1 DUP3 AND PUSH1 0x0 DUP2 DUP2 MSTORE PUSH1 0xD PUSH1 0x20 MSTORE PUSH1 0x40 SWAP1 KECCAK256 SLOAD PUSH1 0x60 SWAP3 AND EQ PUSH2 0xC7F JUMPI PUSH1 0x40 MLOAD PUSH3 0x461BCD PUSH1 0xE5 SHL DUP2 MSTORE PUSH1 0x4 ADD PUSH2 0x8CF SWAP1 PUSH2 0x5727 JUMP JUMPDEST PUSH1 0x0 DUP3 DUP2 MSTORE PUSH1 0x8 PUSH1 0x20 MSTORE PUSH1 0x40 DUP2 KECCAK256 DUP1 SLOAD PUSH2 0xC98 SWAP1 PUSH2 0x5670 JUMP JUMPDEST DUP1 PUSH1 0x1F ADD PUSH1 0x20 DUP1 SWAP2 DIV MUL PUSH1 0x20 ADD PUSH1 0x40 MLOAD SWAP1 DUP2 ADD PUSH1 0x40 MSTORE DUP1 SWAP3 SWAP2 SWAP1 DUP2 DUP2 MSTORE PUSH1 0x20 ADD DUP3 DUP1 SLOAD PUSH2 0xCC4 SWAP1 PUSH2 0x5670 JUMP JUMPDEST DUP1 ISZERO PUSH2 0xD11 JUMPI DUP1 PUSH1 0x1F LT PUSH2 0xCE6 JUMPI PUSH2 0x100 DUP1 DUP4 SLOAD DIV MUL DUP4 MSTORE SWAP2 PUSH1 0x20 ADD SWAP2 PUSH2 0xD11 JUMP JUMPDEST DUP3 ADD SWAP2 SWAP1 PUSH1 0x0 MSTORE PUSH1 0x20 PUSH1 0x0 KECCAK256 SWAP1 JUMPDEST DUP2 SLOAD DUP2 MSTORE SWAP1 PUSH1 0x1 ADD SWAP1 PUSH1 0x20 ADD DUP1 DUP4 GT PUSH2 0xCF4 JUMPI DUP3 SWAP1 SUB PUSH1 0x1F AND DUP3 ADD SWAP2 JUMPDEST POP POP POP POP POP SWAP1 POP PUSH1 0x0 DUP2 MLOAD GT ISZERO PUSH2 0xDC1 JUMPI PUSH1 0x0 DUP4 DUP2 MSTORE PUSH1 0x8 PUSH1 0x20 MSTORE PUSH1 0x40 SWAP1 KECCAK256 DUP1 SLOAD PUSH2 0xD3B SWAP1 PUSH2 0x5670 JUMP JUMPDEST DUP1 PUSH1 0x1F ADD PUSH1 0x20 DUP1 SWAP2 DIV MUL PUSH1 0x20 ADD PUSH1 0x40 MLOAD SWAP1 DUP2 ADD PUSH1 0x40 MSTORE DUP1 SWAP3 SWAP2 SWAP1 DUP2 DUP2 MSTORE PUSH1 0x20 ADD DUP3 DUP1 SLOAD PUSH2 0xD67 SWAP1 PUSH2 0x5670 JUMP JUMPDEST DUP1 ISZERO PUSH2 0xDB4 JUMPI DUP1 PUSH1 0x1F LT PUSH2 0xD89 JUMPI PUSH2 0x100 DUP1 DUP4 SLOAD DIV MUL DUP4 MSTORE SWAP2 PUSH1 0x20 ADD SWAP2 PUSH2 0xDB4 JUMP JUMPDEST DUP3 ADD SWAP2 SWAP1 PUSH1 0x0 MSTORE PUSH1 0x20 PUSH1 0x0 KECCAK256 SWAP1 JUMPDEST DUP2 SLOAD DUP2 MSTORE SWAP1 PUSH1 0x1 ADD SWAP1 PUSH1 0x20 ADD DUP1 DUP4 GT PUSH2 0xD97 JUMPI DUP3 SWAP1 SUB PUSH1 0x1F AND DUP3 ADD SWAP2 JUMPDEST POP POP POP POP POP SWAP2 POP POP SWAP2 SWAP1 POP JUMP JUMPDEST PUSH2 0xDCA DUP4 PUSH2 0x333F JUMP JUMPDEST SWAP4 SWAP3 POP POP POP JUMP JUMPDEST POP SWAP2 SWAP1 POP JUMP JUMPDEST PUSH1 0x40 DUP1 MLOAD PUSH1 0xA0 DUP2 ADD DUP3 MSTORE PUSH1 0x0 DUP1 DUP3 MSTORE PUSH1 0x20 DUP3 ADD DUP2 SWAP1 MSTORE SWAP2 DUP2 ADD DUP3 SWAP1 MSTORE PUSH1 0x60 DUP2 ADD DUP3 SWAP1 MSTORE PUSH1 0x80 DUP2 ADD SWAP2 SWAP1 SWAP2 MSTORE PUSH1 0x1 PUSH1 0x1 PUSH1 0xA0 SHL SUB DUP4 AND PUSH1 0x0 SWAP1 DUP2 MSTORE PUSH1 0xF PUSH1 0x20 SWAP1 DUP2 MSTORE PUSH1 0x40 DUP1 DUP4 KECCAK256 PUSH4 0xFFFFFFFF DUP7 DUP2 AND DUP6 MSTORE SWAP1 DUP4 MSTORE DUP2 DUP5 KECCAK256 DUP3 MLOAD PUSH1 0xA0 DUP2 ADD DUP5 MSTORE DUP2 SLOAD DUP1 DUP5 AND DUP3 MSTORE PUSH1 0x1 PUSH1 0x20 SHL DUP2 DIV SWAP1 SWAP4 AND SWAP5 DUP2 ADD SWAP5 SWAP1 SWAP5 MSTORE PUSH1 0x1 PUSH1 0x40 SHL SWAP1 SWAP2 DIV PUSH1 0x1 PUSH1 0x1 PUSH1 0x40 SHL SUB AND SWAP2 DUP4 ADD SWAP2 SWAP1 SWAP2 MSTORE PUSH1 0x1 DUP2 ADD SLOAD PUSH1 0x60 DUP4 ADD MSTORE PUSH1 0x2 ADD SLOAD PUSH1 0x80 DUP3 ADD MSTORE SWAP1 PUSH2 0xE82 DUP5 PUSH2 0x33D3 JUMP JUMPDEST SWAP1 POP PUSH2 0xEB2 DUP2 PUSH1 0x80 ADD MLOAD DUP4 PUSH1 0x0 ADD MLOAD PUSH4 0xFFFFFFFF AND PUSH2 0xEA1 SWAP2 SWAP1 PUSH2 0x575F JUMP JUMPDEST DUP4 PUSH1 0x40 ADD MLOAD TIMESTAMP DUP5 PUSH2 0x140 ADD MLOAD PUSH2 0x1988 JUMP JUMPDEST DUP3 PUSH1 0x60 ADD DUP2 DUP2 MLOAD PUSH2 0xEC3 SWAP2 SWAP1 PUSH2 0x5776 JUMP JUMPDEST SWAP1 MSTORE POP SWAP1 SWAP5 SWAP4 POP POP POP POP JUMP JUMPDEST PUSH1 0x0 PUSH1 0x2 PUSH1 0xC SLOAD SUB PUSH2 0xEF3 JUMPI PUSH1 0x40 MLOAD PUSH3 0x461BCD PUSH1 0xE5 SHL DUP2 MSTORE PUSH1 0x4 ADD PUSH2 0x8CF SWAP1 PUSH2 0x5789 JUMP JUMPDEST PUSH1 0x2 PUSH1 0xC SSTORE PUSH2 0xF03 PUSH1 0x3C TIMESTAMP PUSH2 0x57D6 JUMP JUMPDEST PUSH1 0x1 PUSH1 0x1 PUSH1 0x40 SHL SUB AND DUP4 PUSH1 0x1 PUSH1 0x1 PUSH1 0x40 SHL SUB AND LT ISZERO PUSH2 0xF34 JUMPI PUSH1 0x40 MLOAD PUSH3 0x461BCD PUSH1 0xE5 SHL DUP2 MSTORE PUSH1 0x4 ADD PUSH2 0x8CF SWAP1 PUSH2 0x57FC JUMP JUMPDEST PUSH1 0x1 PUSH1 0x1 PUSH1 0x40 SHL SUB DUP4 AND PUSH1 0x0 SWAP1 DUP2 MSTORE PUSH1 0x10 PUSH1 0x20 MSTORE PUSH1 0x40 SWAP1 KECCAK256 SLOAD PUSH1 0xFF AND ISZERO PUSH2 0xF6D JUMPI PUSH1 0x40 MLOAD PUSH3 0x461BCD PUSH1 0xE5 SHL DUP2 MSTORE PUSH1 0x4 ADD PUSH2 0x8CF SWAP1 PUSH2 0x57FC JUMP JUMPDEST PUSH4 0xFFFFFFFF DUP1 DUP7 AND PUSH1 0x0 DUP2 DUP2 MSTORE PUSH1 0xD PUSH1 0x20 MSTORE PUSH1 0x40 SWAP1 KECCAK256 SLOAD SWAP1 SWAP2 AND EQ PUSH2 0xFA4 JUMPI PUSH1 0x40 MLOAD PUSH3 0x461BCD PUSH1 0xE5 SHL DUP2 MSTORE PUSH1 0x4 ADD PUSH2 0x8CF SWAP1 PUSH2 0x5727 JUMP JUMPDEST CALLER PUSH1 0x0 DUP2 DUP2 MSTORE PUSH1 0xF PUSH1 0x20 SWAP1 DUP2 MSTORE PUSH1 0x40 DUP1 DUP4 KECCAK256 PUSH4 0xFFFFFFFF DUP11 DUP2 AND DUP6 MSTORE SWAP1 DUP4 MSTORE DUP2 DUP5 KECCAK256 DUP3 MLOAD PUSH1 0xA0 DUP2 ADD DUP5 MSTORE DUP2 SLOAD DUP1 DUP5 AND DUP1 DUP4 MSTORE PUSH1 0x1 PUSH1 0x20 SHL DUP3 DIV SWAP1 SWAP5 AND SWAP6 DUP3 ADD SWAP6 SWAP1 SWAP6 MSTORE PUSH1 0x1 PUSH1 0x40 SHL SWAP1 SWAP5 DIV PUSH1 0x1 PUSH1 0x1 PUSH1 0x40 SHL SUB AND SWAP3 DUP5 ADD SWAP3 SWAP1 SWAP3 MSTORE PUSH1 0x1 DUP3 ADD SLOAD PUSH1 0x60 DUP5 ADD MSTORE PUSH1 0x2 SWAP1 SWAP2 ADD SLOAD PUSH1 0x80 DUP4 ADD MSTORE SWAP1 SWAP2 SUB PUSH2 0x1051 JUMPI PUSH1 0x40 MLOAD PUSH3 0x461BCD PUSH1 0xE5 SHL DUP2 MSTORE PUSH1 0x20 PUSH1 0x4 DUP3 ADD MSTORE PUSH1 0xB PUSH1 0x24 DUP3 ADD MSTORE PUSH11 0x217374616B65722E717479 PUSH1 0xA8 SHL PUSH1 0x44 DUP3 ADD MSTORE PUSH1 0x64 ADD PUSH2 0x8CF JUMP JUMPDEST PUSH1 0x40 MLOAD PUSH1 0xE0 DUP9 SWAP1 SHL PUSH1 0x1 PUSH1 0x1 PUSH1 0xE0 SHL SUB NOT AND PUSH1 0x20 DUP3 ADD MSTORE PUSH1 0x60 DUP4 DUP2 SHL PUSH1 0x1 PUSH1 0x1 PUSH1 0x60 SHL SUB NOT AND PUSH1 0x24 DUP4 ADD MSTORE PUSH1 0x38 DUP3 ADD DUP9 SWAP1 MSTORE PUSH1 0xC0 DUP8 SWAP1 SHL PUSH1 0x1 PUSH1 0x1 PUSH1 0xC0 SHL SUB NOT AND PUSH1 0x58 DUP4 ADD MSTORE PUSH1 0x0 SWAP2 PUSH2 0x10BB SWAP2 ADD JUMPDEST PUSH1 0x40 MLOAD PUSH1 0x20 DUP2 DUP4 SUB SUB DUP2 MSTORE SWAP1 PUSH1 0x40 MSTORE DUP1 MLOAD SWAP1 PUSH1 0x20 ADD KECCAK256 PUSH2 0x35AE JUMP JUMPDEST PUSH1 0xB SLOAD SWAP1 SWAP2 POP PUSH2 0x10D5 SWAP1 PUSH1 0x1 PUSH1 0x1 PUSH1 0xA0 SHL SUB AND DUP3 DUP8 PUSH2 0x3602 JUMP JUMPDEST PUSH2 0x110F JUMPI PUSH1 0x40 MLOAD PUSH3 0x461BCD PUSH1 0xE5 SHL DUP2 MSTORE PUSH1 0x20 PUSH1 0x4 DUP3 ADD MSTORE PUSH1 0xB PUSH1 0x24 DUP3 ADD MSTORE PUSH11 0x78207369676E6174757265 PUSH1 0xA8 SHL PUSH1 0x44 DUP3 ADD MSTORE PUSH1 0x64 ADD PUSH2 0x8CF JUMP JUMPDEST PUSH1 0x1 PUSH1 0x1 PUSH1 0x40 SHL SUB DUP1 DUP8 AND PUSH1 0x0 SWAP1 DUP2 MSTORE PUSH1 0x10 PUSH1 0x20 MSTORE PUSH1 0x40 SWAP1 DUP2 SWAP1 KECCAK256 DUP1 SLOAD PUSH1 0xFF NOT AND PUSH1 0x1 OR SWAP1 SSTORE TIMESTAMP SWAP1 SWAP2 AND SWAP1 DUP4 ADD MSTORE PUSH1 0x80 DUP3 ADD DUP1 MLOAD DUP9 SWAP2 SWAP1 PUSH2 0x1151 SWAP1 DUP4 SWAP1 PUSH2 0x5776 JUMP JUMPDEST SWAP1 MSTORE POP PUSH1 0x1 PUSH1 0x1 PUSH1 0xA0 SHL SUB DUP1 DUP5 AND PUSH1 0x0 SWAP1 DUP2 MSTORE PUSH1 0xF PUSH1 0x20 SWAP1 DUP2 MSTORE PUSH1 0x40 DUP1 DUP4 KECCAK256 PUSH4 0xFFFFFFFF DUP1 DUP15 AND DUP6 MSTORE SWAP1 DUP4 MSTORE SWAP3 DUP2 SWAP1 KECCAK256 DUP7 MLOAD DUP2 SLOAD SWAP4 DUP9 ADD MLOAD SWAP3 DUP9 ADD MLOAD PUSH1 0x1 PUSH1 0x1 PUSH1 0x40 SHL SUB AND PUSH1 0x1 PUSH1 0x40 SHL MUL PUSH8 0xFFFFFFFFFFFFFFFF PUSH1 0x40 SHL NOT SWAP4 DUP7 AND PUSH1 0x1 PUSH1 0x20 SHL MUL PUSH8 0xFFFFFFFFFFFFFFFF NOT SWAP1 SWAP6 AND SWAP2 DUP7 AND SWAP2 SWAP1 SWAP2 OR SWAP4 SWAP1 SWAP4 OR SWAP2 SWAP1 SWAP2 AND SWAP2 SWAP1 SWAP2 OR DUP2 SSTORE PUSH1 0x60 DUP6 ADD MLOAD PUSH1 0x1 DUP3 ADD SSTORE PUSH1 0x80 DUP6 ADD MLOAD PUSH1 0x2 SWAP1 SWAP2 ADD SSTORE PUSH1 0xE SLOAD PUSH2 0x11FC SWAP3 AND SWAP1 DUP6 SWAP1 DUP11 SWAP1 PUSH2 0x3695 AND JUMP JUMPDEST DUP8 PUSH4 0xFFFFFFFF AND DUP4 PUSH1 0x1 PUSH1 0x1 PUSH1 0xA0 SHL SUB AND PUSH32 0x9BF028F26713DBFD10F1790F08EE2C2DF9A1D82C0F238230BB0B64AF2AAB4A9E DUP10 PUSH1 0x40 MLOAD PUSH2 0x123E SWAP2 DUP2 MSTORE PUSH1 0x20 ADD SWAP1 JUMP JUMPDEST PUSH1 0x40 MLOAD DUP1 SWAP2 SUB SWAP1 LOG3 PUSH1 0x1 SWAP4 POP POP POP POP PUSH1 0x1 PUSH1 0xC SSTORE SWAP5 SWAP4 POP POP POP POP JUMP JUMPDEST PUSH1 0xB SLOAD PUSH1 0x1 PUSH1 0x1 PUSH1 0xA0 SHL SUB AND CALLER EQ DUP1 PUSH2 0x1277 JUMPI POP PUSH2 0x1277 CALLER PUSH2 0x36CA JUMP JUMPDEST PUSH2 0x12B3 JUMPI PUSH1 0x40 MLOAD PUSH3 0x461BCD PUSH1 0xE5 SHL DUP2 MSTORE PUSH1 0x20 PUSH1 0x4 DUP3 ADD MSTORE PUSH1 0xD PUSH1 0x24 DUP3 ADD MSTORE PUSH13 0x10B0B236B4B71010B7BBB732B9 PUSH1 0x99 SHL PUSH1 0x44 DUP3 ADD MSTORE PUSH1 0x64 ADD PUSH2 0x8CF JUMP JUMPDEST DUP5 ISZERO PUSH2 0x12F3 JUMPI PUSH1 0x0 DUP7 GT PUSH2 0x12F3 JUMPI PUSH1 0x40 MLOAD PUSH3 0x461BCD PUSH1 0xE5 SHL DUP2 MSTORE PUSH1 0x20 PUSH1 0x4 DUP3 ADD MSTORE PUSH1 0x7 PUSH1 0x24 DUP3 ADD MSTORE PUSH7 0x70726963653D3 PUSH1 0xCC SHL PUSH1 0x44 DUP3 ADD MSTORE PUSH1 0x64 ADD PUSH2 0x8CF JUMP JUMPDEST PUSH1 0x12 SLOAD PUSH1 0x0 SWAP1 PUSH2 0x130A SWAP1 PUSH4 0xFFFFFFFF AND PUSH1 0x1 PUSH2 0x581D JUMP JUMPDEST SWAP1 POP PUSH1 0x0 PUSH1 0x40 MLOAD DUP1 PUSH2 0x160 ADD PUSH1 0x40 MSTORE DUP1 DUP4 PUSH4 0xFFFFFFFF AND DUP2 MSTORE PUSH1 0x20 ADD DUP11 DUP2 MSTORE PUSH1 0x20 ADD CALLER PUSH1 0x1 PUSH1 0x1 PUSH1 0xA0 SHL SUB AND DUP2 MSTORE PUSH1 0x20 ADD DUP12 PUSH2 0xFFFF AND DUP2 MSTORE PUSH1 0x20 ADD DUP10 DUP2 MSTORE PUSH1 0x20 ADD DUP9 ISZERO ISZERO DUP2 MSTORE PUSH1 0x20 ADD PUSH1 0x1 PUSH1 0xF8 SHL PUSH1 0x1 PUSH1 0x1 PUSH1 0xF8 SHL SUB NOT AND DUP2 MSTORE PUSH1 0x20 ADD DUP7 PUSH2 0xFFFF AND DUP2 MSTORE PUSH1 0x20 ADD DUP8 PUSH1 0x1 PUSH1 0x1 PUSH1 0x80 SHL SUB AND DUP2 MSTORE PUSH1 0x20 ADD DUP6 DUP2 MSTORE PUSH1 0x20 ADD DUP5 DUP2 MSTORE POP SWAP1 POP DUP1 PUSH1 0xD PUSH1 0x0 DUP5 PUSH4 0xFFFFFFFF AND PUSH4 0xFFFFFFFF AND DUP2 MSTORE PUSH1 0x20 ADD SWAP1 DUP2 MSTORE PUSH1 0x20 ADD PUSH1 0x0 KECCAK256 PUSH1 0x0 DUP3 ADD MLOAD DUP2 PUSH1 0x0 ADD PUSH1 0x0 PUSH2 0x100 EXP DUP2 SLOAD DUP2 PUSH4 0xFFFFFFFF MUL NOT AND SWAP1 DUP4 PUSH4 0xFFFFFFFF AND MUL OR SWAP1 SSTORE POP PUSH1 0x20 DUP3 ADD MLOAD DUP2 PUSH1 0x1 ADD SWAP1 DUP2 PUSH2 0x13E8 SWAP2 SWAP1 PUSH2 0x5887 JUMP JUMPDEST POP PUSH1 0x40 DUP3 DUP2 ADD MLOAD PUSH1 0x2 DUP4 ADD DUP1 SLOAD PUSH1 0x60 DUP7 ADD MLOAD PUSH1 0x1 PUSH1 0x1 PUSH1 0xA0 SHL SUB SWAP1 SWAP4 AND PUSH1 0x1 PUSH1 0x1 PUSH1 0xB0 SHL SUB NOT SWAP1 SWAP2 AND OR PUSH1 0x1 PUSH1 0xA0 SHL PUSH2 0xFFFF SWAP4 DUP5 AND MUL OR SWAP1 SSTORE PUSH1 0x80 DUP5 ADD MLOAD PUSH1 0x3 DUP5 ADD SSTORE PUSH1 0xA0 DUP5 ADD MLOAD PUSH1 0x4 DUP5 ADD DUP1 SLOAD PUSH1 0xC0 DUP8 ADD MLOAD PUSH1 0xE0 DUP9 ADD MLOAD PUSH2 0x100 DUP1 DUP11 ADD MLOAD PUSH2 0xFFFF NOT SWAP1 SWAP5 AND SWAP6 ISZERO ISZERO PUSH2 0xFF00 NOT AND SWAP6 SWAP1 SWAP6 OR PUSH1 0xF8 SWAP3 SWAP1 SWAP3 SHR SWAP1 SWAP5 MUL OR PUSH20 0xFFFFFFFFFFFFFFFFFFFFFFFFFFFFFFFFFFFF0000 NOT AND PUSH3 0x10000 SWAP4 SWAP1 SWAP5 AND SWAP3 SWAP1 SWAP3 MUL PUSH20 0xFFFFFFFFFFFFFFFFFFFFFFFFFFFFFFFF00000000 NOT AND SWAP3 SWAP1 SWAP3 OR PUSH1 0x1 PUSH1 0x20 SHL PUSH1 0x1 PUSH1 0x1 PUSH1 0x80 SHL SUB SWAP1 SWAP3 AND SWAP2 SWAP1 SWAP2 MUL OR SWAP1 SSTORE PUSH2 0x120 DUP4 ADD MLOAD PUSH1 0x5 DUP4 ADD SSTORE PUSH2 0x140 SWAP1 SWAP3 ADD MLOAD PUSH1 0x6 SWAP1 SWAP2 ADD SSTORE PUSH1 0x12 DUP1 SLOAD PUSH4 0xFFFFFFFF NOT AND PUSH4 0xFFFFFFFF DUP6 DUP2 AND SWAP2 SWAP1 SWAP2 OR SWAP1 SWAP2 SSTORE DUP3 MLOAD SWAP2 MLOAD SWAP2 AND SWAP1 PUSH32 0x6F053DFBE49C7E82E9B2091B20E94C3BB32DE62F97ED3DFFE0213A33C0AF15B3 SWAP1 PUSH1 0x0 SWAP1 LOG2 POP POP POP POP POP POP POP POP POP POP JUMP JUMPDEST PUSH1 0x1 PUSH1 0x1 PUSH1 0xA0 SHL SUB DUP6 AND CALLER EQ DUP1 PUSH2 0x1540 JUMPI POP PUSH2 0x1540 DUP6 CALLER PUSH2 0x2F5A JUMP JUMPDEST PUSH2 0x15A7 JUMPI PUSH1 0x40 MLOAD PUSH3 0x461BCD PUSH1 0xE5 SHL DUP2 MSTORE PUSH1 0x20 PUSH1 0x4 DUP3 ADD MSTORE PUSH1 0x32 PUSH1 0x24 DUP3 ADD MSTORE PUSH32 0x455243313135353A207472616E736665722063616C6C6572206973206E6F7420 PUSH1 0x44 DUP3 ADD MSTORE PUSH18 0x1BDDDB995C881B9BDC88185C1C1C9BDD9959 PUSH1 0x72 SHL PUSH1 0x64 DUP3 ADD MSTORE PUSH1 0x84 ADD PUSH2 0x8CF JUMP JUMPDEST PUSH2 0x15B4 DUP6 DUP6 DUP6 DUP6 DUP6 PUSH2 0x36F8 JUMP JUMPDEST POP POP POP POP POP JUMP JUMPDEST PUSH2 0x15D3 CALLER PUSH1 0xE SLOAD PUSH1 0x1 PUSH1 0x1 PUSH1 0xA0 SHL SUB AND SWAP1 ADDRESS DUP5 PUSH2 0x38E3 JUMP JUMPDEST PUSH1 0x40 MLOAD CALLVALUE SWAP1 CALLER SWAP1 PUSH32 0xE7BA5389A2696D7E54FF7F18C911057D086A1C641C23FFBAEBDB0FE236B0E04E SWAP1 PUSH1 0x0 SWAP1 LOG3 POP JUMP JUMPDEST PUSH1 0x0 PUSH1 0x2 PUSH1 0xC SLOAD SUB PUSH2 0x1627 JUMPI PUSH1 0x40 MLOAD PUSH3 0x461BCD PUSH1 0xE5 SHL DUP2 MSTORE PUSH1 0x4 ADD PUSH2 0x8CF SWAP1 PUSH2 0x5789 JUMP JUMPDEST PUSH1 0x2 PUSH1 0xC SSTORE PUSH1 0xE SLOAD PUSH1 0x1 PUSH1 0xA0 SHL SWAP1 DIV PUSH1 0xFF AND ISZERO PUSH2 0x1656 JUMPI PUSH1 0x40 MLOAD PUSH3 0x461BCD PUSH1 0xE5 SHL DUP2 MSTORE PUSH1 0x4 ADD PUSH2 0x8CF SWAP1 PUSH2 0x5946 JUMP JUMPDEST CALLER PUSH1 0x0 PUSH2 0x1662 DUP5 PUSH2 0x33D3 JUMP JUMPDEST PUSH1 0xC0 DUP2 ADD MLOAD SWAP1 SWAP2 POP PUSH1 0x1 PUSH1 0x1 PUSH1 0xF8 SHL SUB NOT AND PUSH1 0x1 PUSH1 0xF8 SHL EQ PUSH2 0x1696 JUMPI PUSH1 0x40 MLOAD PUSH3 0x461BCD PUSH1 0xE5 SHL DUP2 MSTORE PUSH1 0x4 ADD PUSH2 0x8CF SWAP1 PUSH2 0x5966 JUMP JUMPDEST PUSH1 0x1 PUSH1 0x1 PUSH1 0xA0 SHL SUB DUP3 AND PUSH1 0x0 SWAP1 DUP2 MSTORE PUSH1 0xF PUSH1 0x20 SWAP1 DUP2 MSTORE PUSH1 0x40 DUP1 DUP4 KECCAK256 PUSH4 0xFFFFFFFF DUP9 DUP2 AND DUP6 MSTORE SWAP1 DUP4 MSTORE SWAP3 DUP2 SWAP1 KECCAK256 DUP2 MLOAD PUSH1 0xA0 DUP2 ADD DUP4 MSTORE DUP2 SLOAD DUP1 DUP7 AND DUP1 DUP4 MSTORE PUSH1 0x1 PUSH1 0x20 SHL DUP3 DIV SWAP1 SWAP7 AND SWAP5 DUP3 ADD SWAP5 SWAP1 SWAP5 MSTORE PUSH1 0x1 PUSH1 0x40 SHL SWAP1 SWAP4 DIV PUSH1 0x1 PUSH1 0x1 PUSH1 0x40 SHL SUB AND SWAP2 DUP4 ADD SWAP2 SWAP1 SWAP2 MSTORE PUSH1 0x1 DUP2 ADD SLOAD PUSH1 0x60 DUP4 ADD DUP2 SWAP1 MSTORE PUSH1 0x2 SWAP1 SWAP2 ADD SLOAD PUSH1 0x80 DUP4 ADD MSTORE SWAP1 SWAP2 ISZERO PUSH2 0x1839 JUMPI PUSH1 0x80 DUP4 ADD MLOAD DUP3 MLOAD PUSH2 0x1744 SWAP2 PUSH2 0x1733 SWAP2 PUSH4 0xFFFFFFFF AND PUSH2 0x575F JUMP JUMPDEST DUP4 PUSH1 0x40 ADD MLOAD TIMESTAMP DUP7 PUSH2 0x140 ADD MLOAD PUSH2 0x1988 JUMP JUMPDEST PUSH2 0x174E SWAP1 DUP3 PUSH2 0x5776 JUMP JUMPDEST PUSH1 0x1 PUSH1 0x1 PUSH1 0x40 SHL SUB TIMESTAMP AND PUSH1 0x40 DUP5 ADD MSTORE PUSH1 0x0 PUSH1 0x60 DUP5 ADD MSTORE PUSH1 0x80 DUP4 ADD DUP1 MLOAD SWAP2 SWAP3 POP DUP3 SWAP2 PUSH2 0x177A SWAP1 DUP4 SWAP1 PUSH2 0x5776 JUMP JUMPDEST SWAP1 MSTORE POP PUSH1 0x1 PUSH1 0x1 PUSH1 0xA0 SHL SUB DUP5 AND PUSH1 0x0 DUP2 DUP2 MSTORE PUSH1 0xF PUSH1 0x20 SWAP1 DUP2 MSTORE PUSH1 0x40 DUP1 DUP4 KECCAK256 PUSH4 0xFFFFFFFF DUP12 DUP2 AND DUP1 DUP7 MSTORE SWAP2 DUP5 MSTORE DUP3 DUP6 KECCAK256 DUP9 MLOAD DUP2 SLOAD DUP11 DUP8 ADD MLOAD DUP12 DUP8 ADD MLOAD SWAP3 DUP6 AND PUSH8 0xFFFFFFFFFFFFFFFF NOT SWAP3 DUP4 AND OR PUSH1 0x1 PUSH1 0x20 SHL SWAP2 SWAP1 SWAP6 AND MUL SWAP4 SWAP1 SWAP4 OR PUSH8 0xFFFFFFFFFFFFFFFF PUSH1 0x40 SHL NOT AND PUSH1 0x1 PUSH1 0x40 SHL PUSH1 0x1 PUSH1 0x1 PUSH1 0x40 SHL SUB SWAP1 SWAP3 AND SWAP2 DUP3 MUL OR DUP3 SSTORE PUSH1 0x60 DUP11 ADD MLOAD PUSH1 0x1 DUP1 DUP5 ADD SWAP2 SWAP1 SWAP2 SSTORE PUSH1 0x80 DUP12 ADD MLOAD PUSH1 0x2 SWAP1 SWAP4 ADD SWAP3 SWAP1 SWAP3 SSTORE SWAP7 DUP7 MSTORE PUSH1 0x11 DUP6 MSTORE DUP4 DUP7 KECCAK256 SWAP3 DUP7 MSTORE SWAP2 SWAP1 SWAP4 MSTORE SWAP3 KECCAK256 SWAP1 SWAP2 ADD DUP1 SLOAD SWAP1 SWAP2 AND SWAP1 SWAP2 OR SWAP1 SSTORE PUSH2 0x1846 JUMP JUMPDEST PUSH2 0x1843 DUP5 DUP5 PUSH2 0x391B JUMP JUMPDEST SWAP1 POP JUMPDEST DUP1 ISZERO PUSH2 0x18AE JUMPI PUSH1 0xE SLOAD PUSH2 0x1863 SWAP1 PUSH1 0x1 PUSH1 0x1 PUSH1 0xA0 SHL SUB AND DUP6 DUP4 PUSH2 0x3695 JUMP JUMPDEST DUP6 PUSH4 0xFFFFFFFF AND DUP5 PUSH1 0x1 PUSH1 0x1 PUSH1 0xA0 SHL SUB AND PUSH32 0x9BF028F26713DBFD10F1790F08EE2C2DF9A1D82C0F238230BB0B64AF2AAB4A9E DUP4 PUSH1 0x40 MLOAD PUSH2 0x18A5 SWAP2 DUP2 MSTORE PUSH1 0x20 ADD SWAP1 JUMP JUMPDEST PUSH1 0x40 MLOAD DUP1 SWAP2 SUB SWAP1 LOG3 JUMPDEST PUSH1 0x1 SWAP5 POP POP POP POP POP PUSH1 0x1 PUSH1 0xC SSTORE SWAP2 SWAP1 POP JUMP JUMPDEST PUSH1 0x6 SLOAD PUSH1 0x1 PUSH1 0x1 PUSH1 0xA0 SHL SUB AND CALLER EQ PUSH2 0x18EA JUMPI PUSH1 0x40 MLOAD PUSH3 0x461BCD PUSH1 0xE5 SHL DUP2 MSTORE PUSH1 0x4 ADD PUSH2 0x8CF SWAP1 PUSH2 0x563B JUMP JUMPDEST PUSH1 0x0 DUP3 DUP2 MSTORE PUSH1 0x8 PUSH1 0x20 MSTORE PUSH1 0x40 SWAP1 KECCAK256 PUSH2 0x1902 DUP3 DUP3 PUSH2 0x5887 JUMP JUMPDEST POP DUP2 PUSH32 0x6BB7FF708619BA0610CBA295A58592E0451DEE2622938C8755667688DAF3529B DUP3 PUSH1 0x40 MLOAD PUSH2 0x1933 SWAP2 SWAP1 PUSH2 0x4DD3 JUMP JUMPDEST PUSH1 0x40 MLOAD DUP1 SWAP2 SUB SWAP1 LOG2 POP POP JUMP JUMPDEST PUSH1 0x0 PUSH2 0x1949 PUSH2 0x3A62 JUMP JUMPDEST PUSH1 0x2 PUSH1 0xC SLOAD SUB PUSH2 0x196B JUMPI PUSH1 0x40 MLOAD PUSH3 0x461BCD PUSH1 0xE5 SHL DUP2 MSTORE PUSH1 0x4 ADD PUSH2 0x8CF SWAP1 PUSH2 0x5789 JUMP JUMPDEST PUSH1 0x2 PUSH1 0xC SSTORE PUSH2 0x197B DUP5 DUP5 DUP5 PUSH2 0x3AA5 JUMP JUMPDEST PUSH1 0x1 PUSH1 0xC SSTORE SWAP5 SWAP4 POP POP POP POP JUMP JUMPDEST PUSH1 0x0 DUP1 PUSH3 0x15180 PUSH2 0x1999 DUP7 DUP7 PUSH2 0x5987 JUMP JUMPDEST PUSH2 0x19A3 SWAP2 SWAP1 PUSH2 0x57D6 JUMP JUMPDEST SWAP1 POP PUSH1 0x0 PUSH2 0x19B1 DUP5 DUP9 PUSH2 0x575F JUMP JUMPDEST SWAP1 POP PUSH2 0x16D PUSH1 0x64 PUSH2 0x19C8 PUSH4 0xFFFFFFFF DUP6 AND DUP5 PUSH2 0x575F JUMP JUMPDEST PUSH2 0x19D2 SWAP2 SWAP1 PUSH2 0x59A7 JUMP JUMPDEST PUSH2 0x19DC SWAP2 SWAP1 PUSH2 0x59A7 JUMP JUMPDEST SWAP8 SWAP7 POP POP POP POP POP POP POP JUMP JUMPDEST PUSH1 0x60 DUP2 MLOAD DUP4 MLOAD EQ PUSH2 0x1A4C JUMPI PUSH1 0x40 MLOAD PUSH3 0x461BCD PUSH1 0xE5 SHL DUP2 MSTORE PUSH1 0x20 PUSH1 0x4 DUP3 ADD MSTORE PUSH1 0x29 PUSH1 0x24 DUP3 ADD MSTORE PUSH32 0x455243313135353A206163636F756E747320616E6420696473206C656E677468 PUSH1 0x44 DUP3 ADD MSTORE PUSH9 0x40DAD2E6DAC2E8C6D PUSH1 0xBB SHL PUSH1 0x64 DUP3 ADD MSTORE PUSH1 0x84 ADD PUSH2 0x8CF JUMP JUMPDEST PUSH1 0x0 DUP4 MLOAD PUSH1 0x1 PUSH1 0x1 PUSH1 0x40 SHL SUB DUP2 GT ISZERO PUSH2 0x1A67 JUMPI PUSH2 0x1A67 PUSH2 0x4C9A JUMP JUMPDEST PUSH1 0x40 MLOAD SWAP1 DUP1 DUP3 MSTORE DUP1 PUSH1 0x20 MUL PUSH1 0x20 ADD DUP3 ADD PUSH1 0x40 MSTORE DUP1 ISZERO PUSH2 0x1A90 JUMPI DUP2 PUSH1 0x20 ADD PUSH1 0x20 DUP3 MUL DUP1 CALLDATASIZE DUP4 CALLDATACOPY ADD SWAP1 POP JUMPDEST POP SWAP1 POP PUSH1 0x0 JUMPDEST DUP5 MLOAD DUP2 LT ISZERO PUSH2 0x1B08 JUMPI PUSH2 0x1ADB DUP6 DUP3 DUP2 MLOAD DUP2 LT PUSH2 0x1AB4 JUMPI PUSH2 0x1AB4 PUSH2 0x59BB JUMP JUMPDEST PUSH1 0x20 MUL PUSH1 0x20 ADD ADD MLOAD DUP6 DUP4 DUP2 MLOAD DUP2 LT PUSH2 0x1ACE JUMPI PUSH2 0x1ACE PUSH2 0x59BB JUMP JUMPDEST PUSH1 0x20 MUL PUSH1 0x20 ADD ADD MLOAD PUSH2 0x867 JUMP JUMPDEST DUP3 DUP3 DUP2 MLOAD DUP2 LT PUSH2 0x1AED JUMPI PUSH2 0x1AED PUSH2 0x59BB JUMP JUMPDEST PUSH1 0x20 SWAP1 DUP2 MUL SWAP2 SWAP1 SWAP2 ADD ADD MSTORE PUSH2 0x1B01 DUP2 PUSH2 0x59D1 JUMP JUMPDEST SWAP1 POP PUSH2 0x1A96 JUMP JUMPDEST POP SWAP4 SWAP3 POP POP POP JUMP JUMPDEST PUSH1 0x0 PUSH1 0x2 PUSH1 0xC SLOAD SUB PUSH2 0x1B34 JUMPI PUSH1 0x40 MLOAD PUSH3 0x461BCD PUSH1 0xE5 SHL DUP2 MSTORE PUSH1 0x4 ADD PUSH2 0x8CF SWAP1 PUSH2 0x5789 JUMP JUMPDEST PUSH1 0x2 PUSH1 0xC SSTORE PUSH1 0xE SLOAD PUSH1 0x1 PUSH1 0xA0 SHL SWAP1 DIV PUSH1 0xFF AND ISZERO PUSH2 0x1B63 JUMPI PUSH1 0x40 MLOAD PUSH3 0x461BCD PUSH1 0xE5 SHL DUP2 MSTORE PUSH1 0x4 ADD PUSH2 0x8CF SWAP1 PUSH2 0x5946 JUMP JUMPDEST PUSH4 0xFFFFFFFF DUP1 DUP6 AND PUSH1 0x0 SWAP1 DUP2 MSTORE PUSH1 0xD PUSH1 0x20 SWAP1 DUP2 MSTORE PUSH1 0x40 DUP1 DUP4 KECCAK256 DUP2 MLOAD PUSH2 0x160 DUP2 ADD SWAP1 SWAP3 MSTORE DUP1 SLOAD SWAP1 SWAP5 AND DUP2 MSTORE PUSH1 0x1 DUP5 ADD DUP1 SLOAD SWAP4 SWAP5 SWAP2 SWAP4 SWAP2 SWAP3 DUP5 ADD SWAP2 PUSH2 0x1BA5 SWAP1 PUSH2 0x5670 JUMP JUMPDEST DUP1 PUSH1 0x1F ADD PUSH1 0x20 DUP1 SWAP2 DIV MUL PUSH1 0x20 ADD PUSH1 0x40 MLOAD SWAP1 DUP2 ADD PUSH1 0x40 MSTORE DUP1 SWAP3 SWAP2 SWAP1 DUP2 DUP2 MSTORE PUSH1 0x20 ADD DUP3 DUP1 SLOAD PUSH2 0x1BD1 SWAP1 PUSH2 0x5670 JUMP JUMPDEST DUP1 ISZERO PUSH2 0x1C1E JUMPI DUP1 PUSH1 0x1F LT PUSH2 0x1BF3 JUMPI PUSH2 0x100 DUP1 DUP4 SLOAD DIV MUL DUP4 MSTORE SWAP2 PUSH1 0x20 ADD SWAP2 PUSH2 0x1C1E JUMP JUMPDEST DUP3 ADD SWAP2 SWAP1 PUSH1 0x0 MSTORE PUSH1 0x20 PUSH1 0x0 KECCAK256 SWAP1 JUMPDEST DUP2 SLOAD DUP2 MSTORE SWAP1 PUSH1 0x1 ADD SWAP1 PUSH1 0x20 ADD DUP1 DUP4 GT PUSH2 0x1C01 JUMPI DUP3 SWAP1 SUB PUSH1 0x1F AND DUP3 ADD SWAP2 JUMPDEST POP POP POP SWAP2 DUP4 MSTORE POP POP PUSH1 0x2 DUP3 ADD SLOAD PUSH1 0x1 PUSH1 0x1 PUSH1 0xA0 SHL SUB DUP2 AND PUSH1 0x20 DUP4 ADD MSTORE PUSH1 0x1 PUSH1 0xA0 SHL SWAP1 DIV PUSH2 0xFFFF SWAP1 DUP2 AND PUSH1 0x40 DUP4 ADD MSTORE PUSH1 0x3 DUP4 ADD SLOAD PUSH1 0x60 DUP4 ADD MSTORE PUSH1 0x4 DUP4 ADD SLOAD PUSH1 0xFF DUP2 AND ISZERO ISZERO PUSH1 0x80 DUP5 ADD MSTORE PUSH2 0x100 DUP1 DUP3 DIV PUSH1 0xF8 SHL PUSH1 0x1 PUSH1 0x1 PUSH1 0xF8 SHL SUB NOT AND PUSH1 0xA0 DUP6 ADD MSTORE PUSH3 0x10000 DUP3 DIV SWAP1 SWAP3 AND PUSH1 0xC0 DUP5 ADD MSTORE PUSH1 0x1 PUSH1 0x20 SHL SWAP1 DIV PUSH1 0x1 PUSH1 0x1 PUSH1 0x80 SHL SUB AND PUSH1 0xE0 DUP4 ADD MSTORE PUSH1 0x5 DUP4 ADD SLOAD SWAP1 DUP3 ADD MSTORE PUSH1 0x6 SWAP1 SWAP2 ADD SLOAD PUSH2 0x120 SWAP1 SWAP2 ADD MSTORE SWAP1 POP PUSH2 0x1CC2 DUP2 PUSH2 0x3EBB JUMP JUMPDEST PUSH1 0xC0 DUP2 ADD MLOAD PUSH1 0x1 PUSH1 0x1 PUSH1 0xF8 SHL SUB NOT AND PUSH1 0x1 PUSH1 0xF8 SHL EQ PUSH2 0x1CF3 JUMPI PUSH1 0x40 MLOAD PUSH3 0x461BCD PUSH1 0xE5 SHL DUP2 MSTORE PUSH1 0x4 ADD PUSH2 0x8CF SWAP1 PUSH2 0x5966 JUMP JUMPDEST PUSH1 0xB SLOAD CALLER SWAP1 PUSH1 0x0 SWAP1 PUSH1 0x1 PUSH1 0x1 PUSH1 0xA0 SHL SUB AND DUP3 EQ DUP1 PUSH2 0x1D15 JUMPI POP PUSH2 0x1D15 DUP3 PUSH2 0x36CA JUMP JUMPDEST SWAP1 POP DUP3 PUSH1 0xA0 ADD MLOAD ISZERO PUSH2 0x1D62 JUMPI DUP1 PUSH2 0x1D5D JUMPI PUSH1 0x40 MLOAD PUSH3 0x461BCD PUSH1 0xE5 SHL DUP2 MSTORE PUSH1 0x20 PUSH1 0x4 DUP3 ADD MSTORE PUSH1 0xC PUSH1 0x24 DUP3 ADD MSTORE PUSH12 0x1D5B985D5D1A1BDC9A5E9959 PUSH1 0xA2 SHL PUSH1 0x44 DUP3 ADD MSTORE PUSH1 0x64 ADD PUSH2 0x8CF JUMP JUMPDEST PUSH2 0x1E0B JUMP JUMPDEST DUP1 DUP1 PUSH2 0x1DEF JUMPI POP PUSH1 0x80 DUP4 ADD MLOAD PUSH2 0x1D7E SWAP1 PUSH4 0xFFFFFFFF DUP9 AND PUSH2 0x575F JUMP JUMPDEST PUSH1 0xE SLOAD PUSH1 0x40 MLOAD PUSH4 0x70A08231 PUSH1 0xE0 SHL DUP2 MSTORE PUSH1 0x1 PUSH1 0x1 PUSH1 0xA0 SHL SUB DUP6 DUP2 AND PUSH1 0x4 DUP4 ADD MSTORE SWAP1 SWAP2 AND SWAP1 PUSH4 0x70A08231 SWAP1 PUSH1 0x24 ADD PUSH1 0x20 PUSH1 0x40 MLOAD DUP1 DUP4 SUB DUP2 DUP7 GAS STATICCALL ISZERO DUP1 ISZERO PUSH2 0x1DC8 JUMPI RETURNDATASIZE PUSH1 0x0 DUP1 RETURNDATACOPY RETURNDATASIZE PUSH1 0x0 REVERT JUMPDEST POP POP POP POP PUSH1 0x40 MLOAD RETURNDATASIZE PUSH1 0x1F NOT PUSH1 0x1F DUP3 ADD AND DUP3 ADD DUP1 PUSH1 0x40 MSTORE POP DUP2 ADD SWAP1 PUSH2 0x1DEC SWAP2 SWAP1 PUSH2 0x59EA JUMP JUMPDEST LT ISZERO JUMPDEST PUSH2 0x1E0B JUMPI PUSH1 0x40 MLOAD PUSH3 0x461BCD PUSH1 0xE5 SHL DUP2 MSTORE PUSH1 0x4 ADD PUSH2 0x8CF SWAP1 PUSH2 0x5A03 JUMP JUMPDEST PUSH4 0xFFFFFFFF DUP8 AND PUSH1 0x0 SWAP1 DUP2 MSTORE PUSH1 0x13 PUSH1 0x20 MSTORE PUSH1 0x40 SWAP1 KECCAK256 SLOAD PUSH2 0x100 DUP5 ADD MLOAD PUSH1 0x1 PUSH1 0x1 PUSH1 0x80 SHL SUB SWAP2 DUP3 AND SWAP2 AND ISZERO PUSH2 0x1E97 JUMPI PUSH2 0x100 DUP5 ADD MLOAD PUSH1 0x1 PUSH1 0x1 PUSH1 0x80 SHL SUB AND PUSH2 0x1E58 PUSH4 0xFFFFFFFF DUP10 AND DUP4 PUSH2 0x5A26 JUMP JUMPDEST PUSH1 0x1 PUSH1 0x1 PUSH1 0x80 SHL SUB AND GT ISZERO PUSH2 0x1E97 JUMPI PUSH1 0x40 MLOAD PUSH3 0x461BCD PUSH1 0xE5 SHL DUP2 MSTORE PUSH1 0x20 PUSH1 0x4 DUP3 ADD MSTORE PUSH1 0x5 PUSH1 0x24 DUP3 ADD MSTORE PUSH5 0x1B1A5B5A5D PUSH1 0xDA SHL PUSH1 0x44 DUP3 ADD MSTORE PUSH1 0x64 ADD PUSH2 0x8CF JUMP JUMPDEST PUSH4 0xFFFFFFFF DUP9 DUP2 AND PUSH1 0x0 SWAP1 DUP2 MSTORE PUSH1 0x13 PUSH1 0x20 MSTORE PUSH1 0x40 DUP2 KECCAK256 DUP1 SLOAD SWAP3 DUP11 AND SWAP3 SWAP1 SWAP2 SWAP1 PUSH2 0x1ECA SWAP1 DUP5 SWAP1 PUSH1 0x1 PUSH1 0x1 PUSH1 0x80 SHL SUB AND PUSH2 0x5A26 JUMP JUMPDEST SWAP3 POP PUSH2 0x100 EXP DUP2 SLOAD DUP2 PUSH1 0x1 PUSH1 0x1 PUSH1 0x80 SHL SUB MUL NOT AND SWAP1 DUP4 PUSH1 0x1 PUSH1 0x1 PUSH1 0x80 SHL SUB AND MUL OR SWAP1 SSTORE POP DUP4 PUSH1 0xA0 ADD MLOAD ISZERO DUP1 ISZERO PUSH2 0x1EFE JUMPI POP DUP2 ISZERO JUMPDEST ISZERO PUSH2 0x1F32 JUMPI PUSH2 0x1F32 DUP4 ADDRESS DUP7 PUSH1 0x80 ADD MLOAD DUP11 PUSH4 0xFFFFFFFF AND PUSH2 0x1F1E SWAP2 SWAP1 PUSH2 0x575F JUMP JUMPDEST PUSH1 0xE SLOAD PUSH1 0x1 PUSH1 0x1 PUSH1 0xA0 SHL SUB AND SWAP3 SWAP2 SWAP1 PUSH2 0x38E3 JUMP JUMPDEST PUSH2 0x1F59 DUP7 DUP10 PUSH4 0xFFFFFFFF AND DUP10 PUSH4 0xFFFFFFFF AND PUSH1 0x40 MLOAD DUP1 PUSH1 0x20 ADD PUSH1 0x40 MSTORE DUP1 PUSH1 0x0 DUP2 MSTORE POP PUSH2 0x3EDF JUMP JUMPDEST DUP6 PUSH1 0x1 PUSH1 0x1 PUSH1 0xA0 SHL SUB AND DUP8 PUSH4 0xFFFFFFFF AND DUP10 PUSH4 0xFFFFFFFF AND PUSH32 0xDA1373DCDE55ACEB480442EE22608E2601F3639E5D1E81E6F9DCD8D231607899 PUSH2 0x1F99 CALLER SWAP1 JUMP JUMPDEST PUSH1 0x40 MLOAD PUSH1 0x1 PUSH1 0x1 PUSH1 0xA0 SHL SUB SWAP1 SWAP2 AND DUP2 MSTORE PUSH1 0x20 ADD PUSH1 0x40 MLOAD DUP1 SWAP2 SUB SWAP1 LOG4 PUSH1 0x1 SWAP5 POP POP POP POP POP PUSH1 0x1 PUSH1 0xC SSTORE SWAP4 SWAP3 POP POP POP JUMP JUMPDEST PUSH1 0x0 PUSH1 0x2 PUSH1 0xC SLOAD SUB PUSH2 0x1FEC JUMPI PUSH1 0x40 MLOAD PUSH3 0x461BCD PUSH1 0xE5 SHL DUP2 MSTORE PUSH1 0x4 ADD PUSH2 0x8CF SWAP1 PUSH2 0x5789 JUMP JUMPDEST PUSH1 0x2 PUSH1 0xC SSTORE PUSH2 0x1FFC PUSH1 0x3C TIMESTAMP PUSH2 0x57D6 JUMP JUMPDEST PUSH1 0x1 PUSH1 0x1 PUSH1 0x40 SHL SUB AND DUP4 PUSH1 0x1 PUSH1 0x1 PUSH1 0x40 SHL SUB AND LT ISZERO PUSH2 0x202D JUMPI PUSH1 0x40 MLOAD PUSH3 0x461BCD PUSH1 0xE5 SHL DUP2 MSTORE PUSH1 0x4 ADD PUSH2 0x8CF SWAP1 PUSH2 0x57FC JUMP JUMPDEST PUSH2 0x2036 DUP5 PUSH2 0x3FEF JUMP JUMPDEST PUSH4 0xFFFFFFFF DUP1 DUP8 AND PUSH1 0x0 SWAP1 DUP2 MSTORE PUSH1 0xD PUSH1 0x20 SWAP1 DUP2 MSTORE PUSH1 0x40 DUP1 DUP4 KECCAK256 DUP2 MLOAD PUSH2 0x160 DUP2 ADD SWAP1 SWAP3 MSTORE DUP1 SLOAD SWAP1 SWAP5 AND DUP2 MSTORE PUSH1 0x1 DUP5 ADD DUP1 SLOAD SWAP4 SWAP5 SWAP2 SWAP4 SWAP2 SWAP3 DUP5 ADD SWAP2 PUSH2 0x2078 SWAP1 PUSH2 0x5670 JUMP JUMPDEST DUP1 PUSH1 0x1F ADD PUSH1 0x20 DUP1 SWAP2 DIV MUL PUSH1 0x20 ADD PUSH1 0x40 MLOAD SWAP1 DUP2 ADD PUSH1 0x40 MSTORE DUP1 SWAP3 SWAP2 SWAP1 DUP2 DUP2 MSTORE PUSH1 0x20 ADD DUP3 DUP1 SLOAD PUSH2 0x20A4 SWAP1 PUSH2 0x5670 JUMP JUMPDEST DUP1 ISZERO PUSH2 0x20F1 JUMPI DUP1 PUSH1 0x1F LT PUSH2 0x20C6 JUMPI PUSH2 0x100 DUP1 DUP4 SLOAD DIV MUL DUP4 MSTORE SWAP2 PUSH1 0x20 ADD SWAP2 PUSH2 0x20F1 JUMP JUMPDEST DUP3 ADD SWAP2 SWAP1 PUSH1 0x0 MSTORE PUSH1 0x20 PUSH1 0x0 KECCAK256 SWAP1 JUMPDEST DUP2 SLOAD DUP2 MSTORE SWAP1 PUSH1 0x1 ADD SWAP1 PUSH1 0x20 ADD DUP1 DUP4 GT PUSH2 0x20D4 JUMPI DUP3 SWAP1 SUB PUSH1 0x1F AND DUP3 ADD SWAP2 JUMPDEST POP POP POP SWAP2 DUP4 MSTORE POP POP PUSH1 0x2 DUP3 ADD SLOAD PUSH1 0x1 PUSH1 0x1 PUSH1 0xA0 SHL SUB DUP2 AND PUSH1 0x20 DUP4 ADD MSTORE PUSH1 0x1 PUSH1 0xA0 SHL SWAP1 DIV PUSH2 0xFFFF SWAP1 DUP2 AND PUSH1 0x40 DUP4 ADD MSTORE PUSH1 0x3 DUP4 ADD SLOAD PUSH1 0x60 DUP4 ADD MSTORE PUSH1 0x4 DUP4 ADD SLOAD PUSH1 0xFF DUP2 AND ISZERO ISZERO PUSH1 0x80 DUP5 ADD MSTORE PUSH2 0x100 DUP1 DUP3 DIV PUSH1 0xF8 SHL PUSH1 0x1 PUSH1 0x1 PUSH1 0xF8 SHL SUB NOT AND PUSH1 0xA0 DUP6 ADD MSTORE PUSH3 0x10000 DUP3 DIV SWAP1 SWAP3 AND PUSH1 0xC0 DUP5 ADD MSTORE PUSH1 0x1 PUSH1 0x20 SHL SWAP1 DIV PUSH1 0x1 PUSH1 0x1 PUSH1 0x80 SHL SUB AND PUSH1 0xE0 DUP4 ADD MSTORE PUSH1 0x5 DUP4 ADD SLOAD SWAP1 DUP3 ADD MSTORE PUSH1 0x6 SWAP1 SWAP2 ADD SLOAD PUSH2 0x120 SWAP1 SWAP2 ADD MSTORE SWAP1 POP PUSH2 0x2195 DUP2 PUSH2 0x3EBB JUMP JUMPDEST PUSH4 0xFFFFFFFF DUP8 AND PUSH1 0x0 SWAP1 DUP2 MSTORE PUSH1 0x13 PUSH1 0x20 MSTORE PUSH1 0x40 SWAP1 KECCAK256 SLOAD PUSH2 0x100 DUP3 ADD MLOAD PUSH1 0x1 PUSH1 0x1 PUSH1 0x80 SHL SUB SWAP2 DUP3 AND SWAP2 AND ISZERO PUSH2 0x2221 JUMPI PUSH2 0x100 DUP3 ADD MLOAD PUSH1 0x1 PUSH1 0x1 PUSH1 0x80 SHL SUB AND PUSH2 0x21E2 PUSH4 0xFFFFFFFF DUP10 AND DUP4 PUSH2 0x5A26 JUMP JUMPDEST PUSH1 0x1 PUSH1 0x1 PUSH1 0x80 SHL SUB AND GT ISZERO PUSH2 0x2221 JUMPI PUSH1 0x40 MLOAD PUSH3 0x461BCD PUSH1 0xE5 SHL DUP2 MSTORE PUSH1 0x20 PUSH1 0x4 DUP3 ADD MSTORE PUSH1 0x5 PUSH1 0x24 DUP3 ADD MSTORE PUSH5 0x1B1A5B5A5D PUSH1 0xDA SHL PUSH1 0x44 DUP3 ADD MSTORE PUSH1 0x64 ADD PUSH2 0x8CF JUMP JUMPDEST PUSH1 0x0 CALLER PUSH1 0x40 MLOAD PUSH1 0x1 PUSH1 0x1 PUSH1 0xE0 SHL SUB NOT PUSH1 0xE0 DUP13 DUP2 SHL DUP3 AND PUSH1 0x20 DUP5 ADD MSTORE PUSH1 0x1 PUSH1 0x1 PUSH1 0x60 SHL SUB NOT PUSH1 0x60 DUP6 DUP2 SHL DUP3 AND PUSH1 0x24 DUP7 ADD MSTORE DUP13 SWAP1 SHL AND PUSH1 0x38 DUP5 ADD MSTORE DUP12 SWAP1 SHL AND PUSH1 0x4C DUP3 ADD MSTORE PUSH1 0x1 PUSH1 0x1 PUSH1 0xC0 SHL SUB NOT PUSH1 0xC0 DUP10 SWAP1 SHL AND PUSH1 0x50 DUP3 ADD MSTORE SWAP1 SWAP2 POP PUSH1 0x0 SWAP1 PUSH2 0x2289 SWAP1 PUSH1 0x58 ADD PUSH2 0x10A0 JUMP JUMPDEST PUSH1 0xB SLOAD SWAP1 SWAP2 POP PUSH2 0x22A3 SWAP1 PUSH1 0x1 PUSH1 0x1 PUSH1 0xA0 SHL SUB AND DUP3 DUP9 PUSH2 0x3602 JUMP JUMPDEST PUSH2 0x22DD JUMPI PUSH1 0x40 MLOAD PUSH3 0x461BCD PUSH1 0xE5 SHL DUP2 MSTORE PUSH1 0x20 PUSH1 0x4 DUP3 ADD MSTORE PUSH1 0xB PUSH1 0x24 DUP3 ADD MSTORE PUSH11 0x78207369676E6174757265 PUSH1 0xA8 SHL PUSH1 0x44 DUP3 ADD MSTORE PUSH1 0x64 ADD PUSH2 0x8CF JUMP JUMPDEST PUSH1 0x0 PUSH2 0x22F7 DUP4 PUSH1 0xB SLOAD PUSH1 0x1 PUSH1 0x1 PUSH1 0xA0 SHL SUB SWAP2 DUP3 AND SWAP2 AND EQ SWAP1 JUMP JUMPDEST DUP1 PUSH2 0x2306 JUMPI POP PUSH2 0x2306 DUP4 PUSH2 0x36CA JUMP JUMPDEST SWAP1 POP DUP1 DUP1 PUSH2 0x2395 JUMPI POP PUSH1 0x80 DUP6 ADD MLOAD PUSH2 0x2324 SWAP1 PUSH4 0xFFFFFFFF DUP13 AND PUSH2 0x575F JUMP JUMPDEST PUSH1 0xE SLOAD PUSH1 0x40 MLOAD PUSH4 0x70A08231 PUSH1 0xE0 SHL DUP2 MSTORE PUSH1 0x1 PUSH1 0x1 PUSH1 0xA0 SHL SUB DUP7 DUP2 AND PUSH1 0x4 DUP4 ADD MSTORE SWAP1 SWAP2 AND SWAP1 PUSH4 0x70A08231 SWAP1 PUSH1 0x24 ADD PUSH1 0x20 PUSH1 0x40 MLOAD DUP1 DUP4 SUB DUP2 DUP7 GAS STATICCALL ISZERO DUP1 ISZERO PUSH2 0x236E JUMPI RETURNDATASIZE PUSH1 0x0 DUP1 RETURNDATACOPY RETURNDATASIZE PUSH1 0x0 REVERT JUMPDEST POP POP POP POP PUSH1 0x40 MLOAD RETURNDATASIZE PUSH1 0x1F NOT PUSH1 0x1F DUP3 ADD AND DUP3 ADD DUP1 PUSH1 0x40 MSTORE POP DUP2 ADD SWAP1 PUSH2 0x2392 SWAP2 SWAP1 PUSH2 0x59EA JUMP JUMPDEST LT ISZERO JUMPDEST PUSH2 0x23B1 JUMPI PUSH1 0x40 MLOAD PUSH3 0x461BCD PUSH1 0xE5 SHL DUP2 MSTORE PUSH1 0x4 ADD PUSH2 0x8CF SWAP1 PUSH2 0x5A03 JUMP JUMPDEST PUSH4 0xFFFFFFFF DUP12 DUP2 AND PUSH1 0x0 SWAP1 DUP2 MSTORE PUSH1 0x13 PUSH1 0x20 MSTORE PUSH1 0x40 DUP2 KECCAK256 DUP1 SLOAD SWAP3 DUP14 AND SWAP3 SWAP1 SWAP2 SWAP1 PUSH2 0x23E4 SWAP1 DUP5 SWAP1 PUSH1 0x1 PUSH1 0x1 PUSH1 0x80 SHL SUB AND PUSH2 0x5A26 JUMP JUMPDEST SWAP3 POP PUSH2 0x100 EXP DUP2 SLOAD DUP2 PUSH1 0x1 PUSH1 0x1 PUSH1 0x80 SHL SUB MUL NOT AND SWAP1 DUP4 PUSH1 0x1 PUSH1 0x1 PUSH1 0x80 SHL SUB AND MUL OR SWAP1 SSTORE POP PUSH2 0x2423 DUP4 ADDRESS DUP8 PUSH1 0x80 ADD MLOAD DUP14 PUSH4 0xFFFFFFFF AND PUSH2 0x1F1E SWAP2 SWAP1 PUSH2 0x575F JUMP JUMPDEST PUSH2 0x244A DUP10 DUP13 PUSH4 0xFFFFFFFF AND DUP13 PUSH4 0xFFFFFFFF AND PUSH1 0x40 MLOAD DUP1 PUSH1 0x20 ADD PUSH1 0x40 MSTORE DUP1 PUSH1 0x0 DUP2 MSTORE POP PUSH2 0x3EDF JUMP JUMPDEST PUSH1 0x40 MLOAD PUSH1 0x1 PUSH1 0x1 PUSH1 0xA0 SHL SUB DUP5 DUP2 AND DUP3 MSTORE DUP11 AND SWAP1 PUSH4 0xFFFFFFFF DUP1 DUP14 AND SWAP2 SWAP1 DUP15 AND SWAP1 PUSH32 0xDA1373DCDE55ACEB480442EE22608E2601F3639E5D1E81E6F9DCD8D231607899 SWAP1 PUSH1 0x20 ADD PUSH1 0x40 MLOAD DUP1 SWAP2 SUB SWAP1 LOG4 PUSH1 0x1 SWAP6 POP POP POP POP POP POP PUSH1 0x1 PUSH1 0xC SSTORE SWAP6 SWAP5 POP POP POP POP POP JUMP JUMPDEST PUSH1 0xE SLOAD PUSH1 0x0 SWAP1 PUSH1 0x1 PUSH1 0xA0 SHL SWAP1 DIV PUSH1 0xFF AND ISZERO PUSH2 0x24DB JUMPI PUSH1 0x40 MLOAD PUSH3 0x461BCD PUSH1 0xE5 SHL DUP2 MSTORE PUSH1 0x4 ADD PUSH2 0x8CF SWAP1 PUSH2 0x5946 JUMP JUMPDEST PUSH1 0x0 DUP3 PUSH4 0xFFFFFFFF AND GT PUSH2 0x2501 JUMPI PUSH1 0x40 MLOAD PUSH3 0x461BCD PUSH1 0xE5 SHL DUP2 MSTORE PUSH1 0x4 ADD PUSH2 0x8CF SWAP1 PUSH2 0x5A46 JUMP JUMPDEST CALLER PUSH1 0x0 PUSH2 0x250D DUP6 PUSH2 0x33D3 JUMP JUMPDEST SWAP1 POP PUSH2 0x2518 DUP2 PUSH2 0x3EBB JUMP JUMPDEST PUSH1 0xC0 DUP2 ADD MLOAD PUSH1 0x1 PUSH1 0x1 PUSH1 0xF8 SHL SUB NOT AND PUSH1 0x1 PUSH1 0xF8 SHL EQ PUSH2 0x2549 JUMPI PUSH1 0x40 MLOAD PUSH3 0x461BCD PUSH1 0xE5 SHL DUP2 MSTORE PUSH1 0x4 ADD PUSH2 0x8CF SWAP1 PUSH2 0x5966 JUMP JUMPDEST PUSH1 0x40 MLOAD PUSH3 0x7EEAC7 PUSH1 0xE1 SHL DUP2 MSTORE PUSH1 0x1 PUSH1 0x1 PUSH1 0xA0 SHL SUB DUP4 AND PUSH1 0x4 DUP3 ADD MSTORE PUSH4 0xFFFFFFFF DUP7 DUP2 AND PUSH1 0x24 DUP4 ADD MSTORE DUP6 AND SWAP1 ADDRESS SWAP1 PUSH3 0xFDD58E SWAP1 PUSH1 0x44 ADD PUSH1 0x20 PUSH1 0x40 MLOAD DUP1 DUP4 SUB DUP2 DUP7 GAS STATICCALL ISZERO DUP1 ISZERO PUSH2 0x259B JUMPI RETURNDATASIZE PUSH1 0x0 DUP1 RETURNDATACOPY RETURNDATASIZE PUSH1 0x0 REVERT JUMPDEST POP POP POP POP PUSH1 0x40 MLOAD RETURNDATASIZE PUSH1 0x1F NOT PUSH1 0x1F DUP3 ADD AND DUP3 ADD DUP1 PUSH1 0x40 MSTORE POP DUP2 ADD SWAP1 PUSH2 0x25BF SWAP2 SWAP1 PUSH2 0x59EA JUMP JUMPDEST LT ISZERO PUSH2 0x25DD JUMPI PUSH1 0x40 MLOAD PUSH3 0x461BCD PUSH1 0xE5 SHL DUP2 MSTORE PUSH1 0x4 ADD PUSH2 0x8CF SWAP1 PUSH2 0x5A03 JUMP JUMPDEST PUSH1 0x1 PUSH1 0x1 PUSH1 0xA0 SHL SUB DUP3 AND PUSH1 0x0 SWAP1 DUP2 MSTORE PUSH1 0xF PUSH1 0x20 SWAP1 DUP2 MSTORE PUSH1 0x40 DUP1 DUP4 KECCAK256 PUSH4 0xFFFFFFFF DUP10 DUP2 AND DUP6 MSTORE SWAP1 DUP4 MSTORE DUP2 DUP5 KECCAK256 DUP3 MLOAD PUSH1 0xA0 DUP2 ADD DUP5 MSTORE DUP2 SLOAD DUP1 DUP5 AND DUP3 MSTORE PUSH1 0x1 PUSH1 0x20 SHL DUP2 DIV SWAP1 SWAP4 AND SWAP5 DUP2 ADD SWAP5 SWAP1 SWAP5 MSTORE PUSH1 0x1 PUSH1 0x40 SHL SWAP1 SWAP2 DIV PUSH1 0x1 PUSH1 0x1 PUSH1 0x40 SHL SUB AND SWAP2 DUP4 ADD SWAP2 SWAP1 SWAP2 MSTORE PUSH1 0x1 DUP2 ADD SLOAD PUSH1 0x60 DUP4 ADD MSTORE PUSH1 0x2 ADD SLOAD PUSH1 0x80 DUP3 ADD MSTORE SWAP1 PUSH2 0x265E DUP5 DUP5 PUSH2 0x391B JUMP JUMPDEST SWAP1 POP DUP1 ISZERO PUSH2 0x26C8 JUMPI PUSH1 0xE SLOAD PUSH2 0x267D SWAP1 PUSH1 0x1 PUSH1 0x1 PUSH1 0xA0 SHL SUB AND DUP6 DUP4 PUSH2 0x3695 JUMP JUMPDEST DUP7 PUSH4 0xFFFFFFFF AND DUP5 PUSH1 0x1 PUSH1 0x1 PUSH1 0xA0 SHL SUB AND PUSH32 0x9BF028F26713DBFD10F1790F08EE2C2DF9A1D82C0F238230BB0B64AF2AAB4A9E DUP4 PUSH1 0x40 MLOAD PUSH2 0x26BF SWAP2 DUP2 MSTORE PUSH1 0x20 ADD SWAP1 JUMP JUMPDEST PUSH1 0x40 MLOAD DUP1 SWAP2 SUB SWAP1 LOG3 JUMPDEST DUP2 MLOAD PUSH4 0xFFFFFFFF AND ISZERO PUSH2 0x2704 JUMPI PUSH1 0x80 DUP4 ADD MLOAD DUP3 MLOAD PUSH2 0x26EF SWAP2 PUSH2 0x1733 SWAP2 PUSH4 0xFFFFFFFF AND PUSH2 0x575F JUMP JUMPDEST DUP3 PUSH1 0x60 ADD DUP2 DUP2 MLOAD PUSH2 0x2700 SWAP2 SWAP1 PUSH2 0x5776 JUMP JUMPDEST SWAP1 MSTORE POP JUMPDEST DUP6 DUP3 PUSH1 0x0 ADD DUP2 DUP2 MLOAD PUSH2 0x2716 SWAP2 SWAP1 PUSH2 0x581D JUMP JUMPDEST PUSH4 0xFFFFFFFF SWAP1 DUP2 AND SWAP1 SWAP2 MSTORE PUSH1 0x1 PUSH1 0x1 PUSH1 0x40 SHL SUB TIMESTAMP DUP2 AND PUSH1 0x40 DUP1 DUP8 ADD SWAP2 DUP3 MSTORE PUSH1 0x1 PUSH1 0x1 PUSH1 0xA0 SHL SUB SWAP1 SWAP9 AND PUSH1 0x0 SWAP1 DUP2 MSTORE PUSH1 0xF PUSH1 0x20 SWAP1 DUP2 MSTORE DUP10 DUP3 KECCAK256 DUP14 DUP7 AND DUP4 MSTORE DUP2 MSTORE SWAP9 SWAP1 KECCAK256 DUP7 MLOAD DUP2 SLOAD SWAP10 DUP9 ADD MLOAD SWAP3 MLOAD SWAP1 SWAP4 AND PUSH1 0x1 PUSH1 0x40 SHL MUL PUSH8 0xFFFFFFFFFFFFFFFF PUSH1 0x40 SHL NOT SWAP3 DUP6 AND PUSH1 0x1 PUSH1 0x20 SHL MUL PUSH8 0xFFFFFFFFFFFFFFFF NOT SWAP1 SWAP11 AND SWAP4 SWAP1 SWAP5 AND SWAP3 SWAP1 SWAP3 OR SWAP8 SWAP1 SWAP8 OR SWAP7 SWAP1 SWAP7 AND OR DUP6 SSTORE POP POP PUSH1 0x60 DUP2 ADD MLOAD PUSH1 0x1 DUP1 DUP6 ADD SWAP2 SWAP1 SWAP2 SSTORE PUSH1 0x80 SWAP1 SWAP2 ADD MLOAD PUSH1 0x2 SWAP1 SWAP4 ADD SWAP3 SWAP1 SWAP3 SSTORE POP SWAP1 POP SWAP3 SWAP2 POP POP JUMP JUMPDEST PUSH1 0x6 SLOAD PUSH1 0x1 PUSH1 0x1 PUSH1 0xA0 SHL SUB AND CALLER EQ PUSH2 0x27F3 JUMPI PUSH1 0x40 MLOAD PUSH3 0x461BCD PUSH1 0xE5 SHL DUP2 MSTORE PUSH1 0x4 ADD PUSH2 0x8CF SWAP1 PUSH2 0x563B JUMP JUMPDEST PUSH2 0x27FD PUSH1 0x0 PUSH2 0x4031 JUMP JUMPDEST JUMP JUMPDEST PUSH1 0x0 PUSH1 0x2 PUSH1 0xC SLOAD SUB PUSH2 0x2823 JUMPI PUSH1 0x40 MLOAD PUSH3 0x461BCD PUSH1 0xE5 SHL DUP2 MSTORE PUSH1 0x4 ADD PUSH2 0x8CF SWAP1 PUSH2 0x5789 JUMP JUMPDEST PUSH1 0x2 PUSH1 0xC SSTORE CALLER PUSH1 0x0 PUSH2 0x283B DUP3 PUSH4 0xFFFFFFFF DUP8 AND PUSH2 0x867 JUMP JUMPDEST SWAP1 POP DUP4 PUSH4 0xFFFFFFFF AND DUP2 LT ISZERO PUSH2 0x287B JUMPI PUSH1 0x40 MLOAD PUSH3 0x461BCD PUSH1 0xE5 SHL DUP2 MSTORE PUSH1 0x20 PUSH1 0x4 DUP3 ADD MSTORE PUSH1 0x5 PUSH1 0x24 DUP3 ADD MSTORE PUSH5 0x38BA3C901F PUSH1 0xD9 SHL PUSH1 0x44 DUP3 ADD MSTORE PUSH1 0x64 ADD PUSH2 0x8CF JUMP JUMPDEST PUSH2 0x2886 DUP6 DUP6 DUP5 PUSH2 0x3AA5 JUMP JUMPDEST PUSH1 0x1 PUSH1 0xC SSTORE SWAP6 SWAP5 POP POP POP POP POP JUMP JUMPDEST PUSH2 0x289C PUSH2 0x4B9E JUMP JUMPDEST PUSH2 0x8FB DUP3 PUSH2 0x33D3 JUMP JUMPDEST PUSH1 0x6 SLOAD PUSH1 0x1 PUSH1 0x1 PUSH1 0xA0 SHL SUB AND CALLER EQ PUSH2 0x28CF JUMPI PUSH1 0x40 MLOAD PUSH3 0x461BCD PUSH1 0xE5 SHL DUP2 MSTORE PUSH1 0x4 ADD PUSH2 0x8CF SWAP1 PUSH2 0x563B JUMP JUMPDEST PUSH2 0x9CC DUP2 PUSH2 0x4083 JUMP JUMPDEST PUSH1 0xA DUP1 SLOAD PUSH2 0x9DC SWAP1 PUSH2 0x5670 JUMP JUMPDEST PUSH1 0x1 PUSH1 0x1 PUSH1 0xA0 SHL SUB DUP3 AND CALLER SUB PUSH2 0x294F JUMPI PUSH1 0x40 MLOAD PUSH3 0x461BCD PUSH1 0xE5 SHL DUP2 MSTORE PUSH1 0x20 PUSH1 0x4 DUP3 ADD MSTORE PUSH1 0x29 PUSH1 0x24 DUP3 ADD MSTORE PUSH32 0x455243313135353A2073657474696E6720617070726F76616C20737461747573 PUSH1 0x44 DUP3 ADD MSTORE PUSH9 0x103337B91039B2B633 PUSH1 0xB9 SHL PUSH1 0x64 DUP3 ADD MSTORE PUSH1 0x84 ADD PUSH2 0x8CF JUMP JUMPDEST CALLER PUSH1 0x0 DUP2 DUP2 MSTORE PUSH1 0x1 PUSH1 0x20 SWAP1 DUP2 MSTORE PUSH1 0x40 DUP1 DUP4 KECCAK256 PUSH1 0x1 PUSH1 0x1 PUSH1 0xA0 SHL SUB DUP8 AND DUP1 DUP6 MSTORE SWAP1 DUP4 MSTORE SWAP3 DUP2 SWAP1 KECCAK256 DUP1 SLOAD PUSH1 0xFF NOT AND DUP7 ISZERO ISZERO SWAP1 DUP2 OR SWAP1 SWAP2 SSTORE SWAP1 MLOAD SWAP1 DUP2 MSTORE SWAP2 SWAP3 SWAP2 PUSH32 0x17307EAB39AB6107E8899845AD3D59BD9653F200F220920489CA2B5937696C31 SWAP2 ADD PUSH1 0x40 MLOAD DUP1 SWAP2 SUB SWAP1 LOG3 POP POP JUMP JUMPDEST PUSH2 0x29EF PUSH1 0x40 MLOAD DUP1 PUSH1 0x80 ADD PUSH1 0x40 MSTORE DUP1 PUSH1 0x0 DUP2 MSTORE PUSH1 0x20 ADD PUSH1 0x0 PUSH1 0x1 PUSH1 0x1 PUSH1 0x40 SHL SUB AND DUP2 MSTORE PUSH1 0x20 ADD PUSH1 0x0 DUP2 MSTORE PUSH1 0x20 ADD PUSH1 0x0 DUP2 MSTORE POP SWAP1 JUMP JUMPDEST PUSH1 0x1 PUSH1 0x1 PUSH1 0xA0 SHL SUB DUP4 AND PUSH1 0x0 SWAP1 DUP2 MSTORE PUSH1 0x11 PUSH1 0x20 SWAP1 DUP2 MSTORE PUSH1 0x40 DUP1 DUP4 KECCAK256 PUSH4 0xFFFFFFFF DUP7 AND DUP5 MSTORE DUP3 MSTORE DUP1 DUP4 KECCAK256 DUP2 MLOAD PUSH1 0x80 DUP2 ADD DUP4 MSTORE DUP2 SLOAD DUP2 MSTORE PUSH1 0x1 DUP3 ADD SLOAD PUSH1 0x1 PUSH1 0x1 PUSH1 0x40 SHL SUB AND SWAP4 DUP2 ADD SWAP4 SWAP1 SWAP4 MSTORE PUSH1 0x2 DUP2 ADD SLOAD SWAP2 DUP4 ADD SWAP2 SWAP1 SWAP2 MSTORE PUSH1 0x3 ADD SLOAD PUSH1 0x60 DUP3 ADD MSTORE SWAP1 PUSH2 0x2A58 DUP5 PUSH2 0x33D3 JUMP JUMPDEST SWAP1 POP PUSH2 0x2A82 DUP2 PUSH1 0x80 ADD MLOAD DUP4 PUSH1 0x0 ADD MLOAD PUSH2 0x2A71 SWAP2 SWAP1 PUSH2 0x575F JUMP JUMPDEST DUP4 PUSH1 0x20 ADD MLOAD TIMESTAMP DUP5 PUSH2 0x120 ADD MLOAD PUSH2 0x1988 JUMP JUMPDEST DUP3 PUSH1 0x40 ADD DUP2 DUP2 MLOAD PUSH2 0xEC3 SWAP2 SWAP1 PUSH2 0x5776 JUMP JUMPDEST PUSH1 0xB SLOAD PUSH1 0x1 PUSH1 0x1 PUSH1 0xA0 SHL SUB AND CALLER EQ DUP1 PUSH2 0x2AB0 JUMPI POP PUSH2 0x2AB0 CALLER PUSH2 0x36CA JUMP JUMPDEST PUSH2 0x2AEC JUMPI PUSH1 0x40 MLOAD PUSH3 0x461BCD PUSH1 0xE5 SHL DUP2 MSTORE PUSH1 0x20 PUSH1 0x4 DUP3 ADD MSTORE PUSH1 0xD PUSH1 0x24 DUP3 ADD MSTORE PUSH13 0x10B0B236B4B71010B7BBB732B9 PUSH1 0x99 SHL PUSH1 0x44 DUP3 ADD MSTORE PUSH1 0x64 ADD PUSH2 0x8CF JUMP JUMPDEST PUSH4 0xFFFFFFFF DUP1 DUP4 AND PUSH1 0x0 DUP2 DUP2 MSTORE PUSH1 0xD PUSH1 0x20 MSTORE PUSH1 0x40 SWAP1 KECCAK256 SLOAD SWAP1 SWAP2 AND EQ PUSH2 0x2B23 JUMPI PUSH1 0x40 MLOAD PUSH3 0x461BCD PUSH1 0xE5 SHL DUP2 MSTORE PUSH1 0x4 ADD PUSH2 0x8CF SWAP1 PUSH2 0x5727 JUMP JUMPDEST PUSH4 0xFFFFFFFF DUP3 AND PUSH1 0x0 DUP2 DUP2 MSTORE PUSH1 0xD PUSH1 0x20 MSTORE PUSH1 0x40 DUP1 DUP3 KECCAK256 PUSH1 0x4 ADD DUP1 SLOAD PUSH2 0xFF00 NOT AND PUSH2 0x100 PUSH1 0xF8 DUP8 SWAP1 SHR MUL OR SWAP1 SSTORE MLOAD PUSH1 0x1 PUSH1 0x1 PUSH1 0xF8 SHL SUB NOT DUP5 AND SWAP3 SWAP2 PUSH32 0x1E59E47AF4D9B02977749192DE0A0E8C70AE8EF5CF99CEBB7E2F707571FD0AB7 SWAP2 LOG3 POP POP JUMP JUMPDEST PUSH1 0x6 SLOAD PUSH1 0x1 PUSH1 0x1 PUSH1 0xA0 SHL SUB AND CALLER EQ PUSH2 0x2BAE JUMPI PUSH1 0x40 MLOAD PUSH3 0x461BCD PUSH1 0xE5 SHL DUP2 MSTORE PUSH1 0x4 ADD PUSH2 0x8CF SWAP1 PUSH2 0x563B JUMP JUMPDEST PUSH2 0x2BB7 DUP2 PUSH2 0x3FEF JUMP JUMPDEST PUSH1 0x0 DUP3 GT PUSH2 0x2BF1 JUMPI PUSH1 0x40 MLOAD PUSH3 0x461BCD PUSH1 0xE5 SHL DUP2 MSTORE PUSH1 0x20 PUSH1 0x4 DUP3 ADD MSTORE PUSH1 0x7 PUSH1 0x24 DUP3 ADD MSTORE PUSH7 0x8585B5BDD5B9D PUSH1 0xCA SHL PUSH1 0x44 DUP3 ADD MSTORE PUSH1 0x64 ADD PUSH2 0x8CF JUMP JUMPDEST PUSH1 0xE SLOAD PUSH1 0x40 MLOAD PUSH4 0x70A08231 PUSH1 0xE0 SHL DUP2 MSTORE ADDRESS PUSH1 0x4 DUP3 ADD MSTORE DUP4 SWAP2 PUSH1 0x1 PUSH1 0x1 PUSH1 0xA0 SHL SUB AND SWAP1 PUSH4 0x70A08231 SWAP1 PUSH1 0x24 ADD PUSH1 0x20 PUSH1 0x40 MLOAD DUP1 DUP4 SUB DUP2 DUP7 GAS STATICCALL ISZERO DUP1 ISZERO PUSH2 0x2C39 JUMPI RETURNDATASIZE PUSH1 0x0 DUP1 RETURNDATACOPY RETURNDATASIZE PUSH1 0x0 REVERT JUMPDEST POP POP POP POP PUSH1 0x40 MLOAD RETURNDATASIZE PUSH1 0x1F NOT PUSH1 0x1F DUP3 ADD AND DUP3 ADD DUP1 PUSH1 0x40 MSTORE POP DUP2 ADD SWAP1 PUSH2 0x2C5D SWAP2 SWAP1 PUSH2 0x59EA JUMP JUMPDEST LT ISZERO PUSH2 0x2C7B JUMPI PUSH1 0x40 MLOAD PUSH3 0x461BCD PUSH1 0xE5 SHL DUP2 MSTORE PUSH1 0x4 ADD PUSH2 0x8CF SWAP1 PUSH2 0x5A03 JUMP JUMPDEST PUSH1 0xE SLOAD PUSH2 0x2C93 SWAP1 PUSH1 0x1 PUSH1 0x1 PUSH1 0xA0 SHL SUB AND ADDRESS DUP4 DUP6 PUSH2 0x38E3 JUMP JUMPDEST PUSH1 0x40 MLOAD DUP3 SWAP1 PUSH1 0x1 PUSH1 0x1 PUSH1 0xA0 SHL SUB DUP4 AND SWAP1 PUSH32 0x8777844761EB456B028CF7F87FC8DCB146AD8EEAFBC6F80F2D006E5CD9E5A745 SWAP1 PUSH1 0x0 SWAP1 LOG3 POP POP JUMP JUMPDEST PUSH1 0xE SLOAD PUSH1 0x0 SWAP1 PUSH1 0x1 PUSH1 0xA0 SHL SWAP1 DIV PUSH1 0xFF AND ISZERO PUSH2 0x2CFA JUMPI PUSH1 0x40 MLOAD PUSH3 0x461BCD PUSH1 0xE5 SHL DUP2 MSTORE PUSH1 0x4 ADD PUSH2 0x8CF SWAP1 PUSH2 0x5946 JUMP JUMPDEST PUSH1 0x0 DUP3 PUSH4 0xFFFFFFFF AND GT PUSH2 0x2D20 JUMPI PUSH1 0x40 MLOAD PUSH3 0x461BCD PUSH1 0xE5 SHL DUP2 MSTORE PUSH1 0x4 ADD PUSH2 0x8CF SWAP1 PUSH2 0x5A46 JUMP JUMPDEST CALLER PUSH1 0x0 PUSH2 0x2D2C DUP6 PUSH2 0x33D3 JUMP JUMPDEST PUSH1 0xC0 DUP2 ADD MLOAD SWAP1 SWAP2 POP PUSH1 0x1 PUSH1 0x1 PUSH1 0xF8 SHL SUB NOT AND PUSH1 0x1 PUSH1 0xF8 SHL EQ PUSH2 0x2D60 JUMPI PUSH1 0x40 MLOAD PUSH3 0x461BCD PUSH1 0xE5 SHL DUP2 MSTORE PUSH1 0x4 ADD PUSH2 0x8CF SWAP1 PUSH2 0x5966 JUMP JUMPDEST PUSH1 0x1 PUSH1 0x1 PUSH1 0xA0 SHL SUB DUP3 AND PUSH1 0x0 SWAP1 DUP2 MSTORE PUSH1 0xF PUSH1 0x20 SWAP1 DUP2 MSTORE PUSH1 0x40 DUP1 DUP4 KECCAK256 PUSH4 0xFFFFFFFF DUP10 DUP2 AND DUP6 MSTORE SWAP1 DUP4 MSTORE DUP2 DUP5 KECCAK256 DUP3 MLOAD PUSH1 0xA0 DUP2 ADD DUP5 MSTORE DUP2 SLOAD DUP1 DUP5 AND DUP1 DUP4 MSTORE PUSH1 0x1 PUSH1 0x20 SHL DUP3 DIV SWAP1 SWAP5 AND SWAP6 DUP3 ADD SWAP6 SWAP1 SWAP6 MSTORE PUSH1 0x1 PUSH1 0x40 SHL SWAP1 SWAP5 DIV PUSH1 0x1 PUSH1 0x1 PUSH1 0x40 SHL SUB AND SWAP3 DUP5 ADD SWAP3 SWAP1 SWAP3 MSTORE PUSH1 0x1 DUP3 ADD SLOAD PUSH1 0x60 DUP5 ADD MSTORE PUSH1 0x2 SWAP1 SWAP2 ADD SLOAD PUSH1 0x80 DUP4 ADD MSTORE SWAP1 SWAP2 SUB PUSH2 0x2E16 JUMPI PUSH1 0x40 MLOAD PUSH3 0x461BCD PUSH1 0xE5 SHL DUP2 MSTORE PUSH1 0x20 PUSH1 0x4 DUP3 ADD MSTORE PUSH1 0xB PUSH1 0x24 DUP3 ADD MSTORE PUSH11 0x217374616B65722E717479 PUSH1 0xA8 SHL PUSH1 0x44 DUP3 ADD MSTORE PUSH1 0x64 ADD PUSH2 0x8CF JUMP JUMPDEST DUP1 MLOAD PUSH4 0xFFFFFFFF DUP1 DUP8 AND SWAP2 AND LT ISZERO PUSH2 0x2E58 JUMPI PUSH1 0x40 MLOAD PUSH3 0x461BCD PUSH1 0xE5 SHL DUP2 MSTORE PUSH1 0x20 PUSH1 0x4 DUP3 ADD MSTORE PUSH1 0x5 PUSH1 0x24 DUP3 ADD MSTORE PUSH5 0x38BA3C901F PUSH1 0xD9 SHL PUSH1 0x44 DUP3 ADD MSTORE PUSH1 0x64 ADD PUSH2 0x8CF JUMP JUMPDEST PUSH1 0x80 DUP3 ADD MLOAD DUP2 MLOAD PUSH2 0x2E83 SWAP2 PUSH2 0x2E72 SWAP2 PUSH4 0xFFFFFFFF AND PUSH2 0x575F JUMP JUMPDEST DUP3 PUSH1 0x40 ADD MLOAD TIMESTAMP DUP6 PUSH2 0x140 ADD MLOAD PUSH2 0x1988 JUMP JUMPDEST DUP2 PUSH1 0x60 ADD DUP2 DUP2 MLOAD PUSH2 0x2E94 SWAP2 SWAP1 PUSH2 0x5776 JUMP JUMPDEST SWAP1 MSTORE POP DUP1 MLOAD DUP6 SWAP1 DUP3 SWAP1 PUSH2 0x2EA8 SWAP1 DUP4 SWAP1 PUSH2 0x5A64 JUMP JUMPDEST PUSH4 0xFFFFFFFF SWAP1 DUP2 AND SWAP1 SWAP2 MSTORE PUSH1 0x1 PUSH1 0x1 PUSH1 0x40 SHL SUB TIMESTAMP DUP2 AND PUSH1 0x40 DUP1 DUP7 ADD SWAP2 DUP3 MSTORE PUSH1 0x1 PUSH1 0x1 PUSH1 0xA0 SHL SUB SWAP1 SWAP8 AND PUSH1 0x0 SWAP1 DUP2 MSTORE PUSH1 0xF PUSH1 0x20 SWAP1 DUP2 MSTORE DUP9 DUP3 KECCAK256 DUP13 DUP7 AND DUP4 MSTORE DUP2 MSTORE SWAP8 SWAP1 KECCAK256 DUP6 MLOAD DUP2 SLOAD SWAP9 DUP8 ADD MLOAD SWAP3 MLOAD SWAP1 SWAP4 AND PUSH1 0x1 PUSH1 0x40 SHL MUL PUSH8 0xFFFFFFFFFFFFFFFF PUSH1 0x40 SHL NOT SWAP3 DUP6 AND PUSH1 0x1 PUSH1 0x20 SHL MUL PUSH8 0xFFFFFFFFFFFFFFFF NOT SWAP1 SWAP10 AND SWAP4 SWAP1 SWAP5 AND SWAP3 SWAP1 SWAP3 OR SWAP7 SWAP1 SWAP7 OR SWAP6 SWAP1 SWAP6 AND OR DUP5 SSTORE POP PUSH1 0x60 DUP2 ADD MLOAD PUSH1 0x1 DUP1 DUP6 ADD SWAP2 SWAP1 SWAP2 SSTORE PUSH1 0x80 SWAP1 SWAP2 ADD MLOAD PUSH1 0x2 SWAP1 SWAP4 ADD SWAP3 SWAP1 SWAP3 SSTORE POP SWAP1 POP SWAP3 SWAP2 POP POP JUMP JUMPDEST PUSH1 0x7 SLOAD PUSH1 0x40 MLOAD PUSH4 0xC4552791 PUSH1 0xE0 SHL DUP2 MSTORE PUSH1 0x1 PUSH1 0x1 PUSH1 0xA0 SHL SUB DUP5 DUP2 AND PUSH1 0x4 DUP4 ADD MSTORE PUSH1 0x0 SWAP3 DUP2 AND SWAP2 SWAP1 DUP5 AND SWAP1 DUP3 SWAP1 PUSH4 0xC4552791 SWAP1 PUSH1 0x24 ADD PUSH1 0x20 PUSH1 0x40 MLOAD DUP1 DUP4 SUB DUP2 DUP7 GAS STATICCALL ISZERO DUP1 ISZERO PUSH2 0x2FAC JUMPI RETURNDATASIZE PUSH1 0x0 DUP1 RETURNDATACOPY RETURNDATASIZE PUSH1 0x0 REVERT JUMPDEST POP POP POP POP PUSH1 0x40 MLOAD RETURNDATASIZE PUSH1 0x1F NOT PUSH1 0x1F DUP3 ADD AND DUP3 ADD DUP1 PUSH1 0x40 MSTORE POP DUP2 ADD SWAP1 PUSH2 0x2FD0 SWAP2 SWAP1 PUSH2 0x5A81 JUMP JUMPDEST PUSH1 0x1 PUSH1 0x1 PUSH1 0xA0 SHL SUB AND SUB PUSH2 0x2FE8 JUMPI PUSH1 0x1 SWAP2 POP POP PUSH2 0x8FB JUMP JUMPDEST PUSH1 0x1 PUSH1 0x1 PUSH1 0xA0 SHL SUB DUP1 DUP6 AND PUSH1 0x0 SWAP1 DUP2 MSTORE PUSH1 0x1 PUSH1 0x20 SWAP1 DUP2 MSTORE PUSH1 0x40 DUP1 DUP4 KECCAK256 SWAP4 DUP8 AND DUP4 MSTORE SWAP3 SWAP1 MSTORE KECCAK256 SLOAD PUSH1 0xFF AND JUMPDEST SWAP5 SWAP4 POP POP POP POP JUMP JUMPDEST PUSH1 0x1 PUSH1 0x1 PUSH1 0xA0 SHL SUB DUP6 AND CALLER EQ DUP1 PUSH2 0x3036 JUMPI POP PUSH2 0x3036 DUP6 CALLER PUSH2 0x2F5A JUMP JUMPDEST PUSH2 0x3094 JUMPI PUSH1 0x40 MLOAD PUSH3 0x461BCD PUSH1 0xE5 SHL DUP2 MSTORE PUSH1 0x20 PUSH1 0x4 DUP3 ADD MSTORE PUSH1 0x29 PUSH1 0x24 DUP3 ADD MSTORE PUSH32 0x455243313135353A2063616C6C6572206973206E6F74206F776E6572206E6F72 PUSH1 0x44 DUP3 ADD MSTORE PUSH9 0x8185C1C1C9BDD9959 PUSH1 0xBA SHL PUSH1 0x64 DUP3 ADD MSTORE PUSH1 0x84 ADD PUSH2 0x8CF JUMP JUMPDEST PUSH2 0x15B4 DUP6 DUP6 DUP6 DUP6 DUP6 PUSH2 0x40CD JUMP JUMPDEST PUSH1 0x6 SLOAD PUSH1 0x1 PUSH1 0x1 PUSH1 0xA0 SHL SUB AND CALLER EQ PUSH2 0x30CB JUMPI PUSH1 0x40 MLOAD PUSH3 0x461BCD PUSH1 0xE5 SHL DUP2 MSTORE PUSH1 0x4 ADD PUSH2 0x8CF SWAP1 PUSH2 0x563B JUMP JUMPDEST PUSH1 0x1 PUSH1 0x1 PUSH1 0xA0 SHL SUB DUP2 AND PUSH2 0x3130 JUMPI PUSH1 0x40 MLOAD PUSH3 0x461BCD PUSH1 0xE5 SHL DUP2 MSTORE PUSH1 0x20 PUSH1 0x4 DUP3 ADD MSTORE PUSH1 0x26 PUSH1 0x24 DUP3 ADD MSTORE PUSH32 0x4F776E61626C653A206E6577206F776E657220697320746865207A65726F2061 PUSH1 0x44 DUP3 ADD MSTORE PUSH6 0x646472657373 PUSH1 0xD0 SHL PUSH1 0x64 DUP3 ADD MSTORE PUSH1 0x84 ADD PUSH2 0x8CF JUMP JUMPDEST PUSH2 0x9CC DUP2 PUSH2 0x4031 JUMP JUMPDEST PUSH1 0x40 MLOAD PUSH4 0x6EB1769F PUSH1 0xE1 SHL DUP2 MSTORE ADDRESS PUSH1 0x4 DUP3 ADD MSTORE PUSH1 0x1 PUSH1 0x1 PUSH1 0xA0 SHL SUB DUP4 DUP2 AND PUSH1 0x24 DUP4 ADD MSTORE PUSH1 0x0 SWAP2 DUP4 SWAP2 DUP7 AND SWAP1 PUSH4 0xDD62ED3E SWAP1 PUSH1 0x44 ADD PUSH1 0x20 PUSH1 0x40 MLOAD DUP1 DUP4 SUB DUP2 DUP7 GAS STATICCALL ISZERO DUP1 ISZERO PUSH2 0x318A JUMPI RETURNDATASIZE PUSH1 0x0 DUP1 RETURNDATACOPY RETURNDATASIZE PUSH1 0x0 REVERT JUMPDEST POP POP POP POP PUSH1 0x40 MLOAD RETURNDATASIZE PUSH1 0x1F NOT PUSH1 0x1F DUP3 ADD AND DUP3 ADD DUP1 PUSH1 0x40 MSTORE POP DUP2 ADD SWAP1 PUSH2 0x31AE SWAP2 SWAP1 PUSH2 0x59EA JUMP JUMPDEST PUSH2 0x31B8 SWAP2 SWAP1 PUSH2 0x5776 JUMP JUMPDEST PUSH1 0x40 MLOAD PUSH1 0x1 PUSH1 0x1 PUSH1 0xA0 SHL SUB DUP6 AND PUSH1 0x24 DUP3 ADD MSTORE PUSH1 0x44 DUP2 ADD DUP3 SWAP1 MSTORE SWAP1 SWAP2 POP PUSH2 0x321E SWAP1 DUP6 SWAP1 PUSH4 0x95EA7B3 PUSH1 0xE0 SHL SWAP1 PUSH1 0x64 ADD JUMPDEST PUSH1 0x40 DUP1 MLOAD PUSH1 0x1F NOT DUP2 DUP5 SUB ADD DUP2 MSTORE SWAP2 SWAP1 MSTORE PUSH1 0x20 DUP2 ADD DUP1 MLOAD PUSH1 0x1 PUSH1 0x1 PUSH1 0xE0 SHL SUB AND PUSH1 0x1 PUSH1 0x1 PUSH1 0xE0 SHL SUB NOT SWAP1 SWAP4 AND SWAP3 SWAP1 SWAP3 OR SWAP1 SWAP2 MSTORE PUSH2 0x41EA JUMP JUMPDEST POP POP POP POP JUMP JUMPDEST PUSH1 0x60 PUSH2 0x3012 DUP5 DUP5 PUSH1 0x0 DUP6 PUSH2 0x42BC JUMP JUMPDEST PUSH1 0x2 PUSH2 0x323F DUP3 DUP3 PUSH2 0x5887 JUMP JUMPDEST POP POP JUMP JUMPDEST PUSH1 0x0 PUSH1 0x1 PUSH1 0x1 PUSH1 0xA0 SHL SUB DUP7 AND PUSH2 0x32A9 JUMPI PUSH1 0x40 MLOAD PUSH3 0x461BCD PUSH1 0xE5 SHL DUP2 MSTORE PUSH1 0x20 PUSH1 0x4 DUP3 ADD MSTORE PUSH1 0x25 PUSH1 0x24 DUP3 ADD MSTORE PUSH32 0x4E61746976654D6574615472616E73616374696F6E3A20494E56414C49445F53 PUSH1 0x44 DUP3 ADD MSTORE PUSH5 0x24A3A722A9 PUSH1 0xD9 SHL PUSH1 0x64 DUP3 ADD MSTORE PUSH1 0x84 ADD PUSH2 0x8CF JUMP JUMPDEST PUSH1 0x1 PUSH2 0x32BC PUSH2 0x32B7 DUP8 PUSH2 0x43D9 JUMP JUMPDEST PUSH2 0x4439 JUMP JUMPDEST PUSH1 0x40 DUP1 MLOAD PUSH1 0x0 DUP2 MSTORE PUSH1 0x20 DUP2 ADD DUP1 DUP4 MSTORE SWAP3 SWAP1 SWAP3 MSTORE PUSH1 0xFF DUP6 AND SWAP1 DUP3 ADD MSTORE PUSH1 0x60 DUP2 ADD DUP7 SWAP1 MSTORE PUSH1 0x80 DUP2 ADD DUP6 SWAP1 MSTORE PUSH1 0xA0 ADD PUSH1 0x20 PUSH1 0x40 MLOAD PUSH1 0x20 DUP2 SUB SWAP1 DUP1 DUP5 SUB SWAP1 DUP6 GAS STATICCALL ISZERO DUP1 ISZERO PUSH2 0x330A JUMPI RETURNDATASIZE PUSH1 0x0 DUP1 RETURNDATACOPY RETURNDATASIZE PUSH1 0x0 REVERT JUMPDEST POP POP POP PUSH1 0x20 PUSH1 0x40 MLOAD SUB MLOAD PUSH1 0x1 PUSH1 0x1 PUSH1 0xA0 SHL SUB AND DUP7 PUSH1 0x1 PUSH1 0x1 PUSH1 0xA0 SHL SUB AND EQ SWAP1 POP SWAP6 SWAP5 POP POP POP POP POP JUMP JUMPDEST PUSH1 0x0 PUSH2 0xDCA DUP3 DUP5 PUSH2 0x5776 JUMP JUMPDEST PUSH1 0x60 PUSH1 0x2 DUP1 SLOAD PUSH2 0x334E SWAP1 PUSH2 0x5670 JUMP JUMPDEST DUP1 PUSH1 0x1F ADD PUSH1 0x20 DUP1 SWAP2 DIV MUL PUSH1 0x20 ADD PUSH1 0x40 MLOAD SWAP1 DUP2 ADD PUSH1 0x40 MSTORE DUP1 SWAP3 SWAP2 SWAP1 DUP2 DUP2 MSTORE PUSH1 0x20 ADD DUP3 DUP1 SLOAD PUSH2 0x337A SWAP1 PUSH2 0x5670 JUMP JUMPDEST DUP1 ISZERO PUSH2 0x33C7 JUMPI DUP1 PUSH1 0x1F LT PUSH2 0x339C JUMPI PUSH2 0x100 DUP1 DUP4 SLOAD DIV MUL DUP4 MSTORE SWAP2 PUSH1 0x20 ADD SWAP2 PUSH2 0x33C7 JUMP JUMPDEST DUP3 ADD SWAP2 SWAP1 PUSH1 0x0 MSTORE PUSH1 0x20 PUSH1 0x0 KECCAK256 SWAP1 JUMPDEST DUP2 SLOAD DUP2 MSTORE SWAP1 PUSH1 0x1 ADD SWAP1 PUSH1 0x20 ADD DUP1 DUP4 GT PUSH2 0x33AA JUMPI DUP3 SWAP1 SUB PUSH1 0x1F AND DUP3 ADD SWAP2 JUMPDEST POP POP POP POP POP SWAP1 POP SWAP2 SWAP1 POP JUMP JUMPDEST PUSH2 0x33DB PUSH2 0x4B9E JUMP JUMPDEST PUSH1 0x0 DUP3 PUSH4 0xFFFFFFFF AND GT PUSH2 0x341E JUMPI PUSH1 0x40 MLOAD PUSH3 0x461BCD PUSH1 0xE5 SHL DUP2 MSTORE PUSH1 0x20 PUSH1 0x4 DUP3 ADD MSTORE PUSH1 0xA PUSH1 0x24 DUP3 ADD MSTORE PUSH10 0x85C1C9BDA9958DD1259 PUSH1 0xB2 SHL PUSH1 0x44 DUP3 ADD MSTORE PUSH1 0x64 ADD PUSH2 0x8CF JUMP JUMPDEST PUSH4 0xFFFFFFFF DUP1 DUP4 AND PUSH1 0x0 DUP2 DUP2 MSTORE PUSH1 0xD PUSH1 0x20 MSTORE PUSH1 0x40 SWAP1 KECCAK256 SLOAD SWAP1 SWAP2 AND EQ PUSH2 0x3455 JUMPI PUSH1 0x40 MLOAD PUSH3 0x461BCD PUSH1 0xE5 SHL DUP2 MSTORE PUSH1 0x4 ADD PUSH2 0x8CF SWAP1 PUSH2 0x5727 JUMP JUMPDEST PUSH4 0xFFFFFFFF DUP1 DUP4 AND PUSH1 0x0 SWAP1 DUP2 MSTORE PUSH1 0xD PUSH1 0x20 SWAP1 DUP2 MSTORE PUSH1 0x40 SWAP2 DUP3 SWAP1 KECCAK256 DUP3 MLOAD PUSH2 0x160 DUP2 ADD SWAP1 SWAP4 MSTORE DUP1 SLOAD SWAP1 SWAP4 AND DUP3 MSTORE PUSH1 0x1 DUP4 ADD DUP1 SLOAD SWAP3 SWAP4 SWAP3 SWAP2 DUP5 ADD SWAP2 PUSH2 0x3496 SWAP1 PUSH2 0x5670 JUMP JUMPDEST DUP1 PUSH1 0x1F ADD PUSH1 0x20 DUP1 SWAP2 DIV MUL PUSH1 0x20 ADD PUSH1 0x40 MLOAD SWAP1 DUP2 ADD PUSH1 0x40 MSTORE DUP1 SWAP3 SWAP2 SWAP1 DUP2 DUP2 MSTORE PUSH1 0x20 ADD DUP3 DUP1 SLOAD PUSH2 0x34C2 SWAP1 PUSH2 0x5670 JUMP JUMPDEST DUP1 ISZERO PUSH2 0x350F JUMPI DUP1 PUSH1 0x1F LT PUSH2 0x34E4 JUMPI PUSH2 0x100 DUP1 DUP4 SLOAD DIV MUL DUP4 MSTORE SWAP2 PUSH1 0x20 ADD SWAP2 PUSH2 0x350F JUMP JUMPDEST DUP3 ADD SWAP2 SWAP1 PUSH1 0x0 MSTORE PUSH1 0x20 PUSH1 0x0 KECCAK256 SWAP1 JUMPDEST DUP2 SLOAD DUP2 MSTORE SWAP1 PUSH1 0x1 ADD SWAP1 PUSH1 0x20 ADD DUP1 DUP4 GT PUSH2 0x34F2 JUMPI DUP3 SWAP1 SUB PUSH1 0x1F AND DUP3 ADD SWAP2 JUMPDEST POP POP POP SWAP2 DUP4 MSTORE POP POP PUSH1 0x2 DUP3 ADD SLOAD PUSH1 0x1 PUSH1 0x1 PUSH1 0xA0 SHL SUB DUP2 AND PUSH1 0x20 DUP4 ADD MSTORE PUSH1 0x1 PUSH1 0xA0 SHL SWAP1 DIV PUSH2 0xFFFF SWAP1 DUP2 AND PUSH1 0x40 DUP4 ADD MSTORE PUSH1 0x3 DUP4 ADD SLOAD PUSH1 0x60 DUP4 ADD MSTORE PUSH1 0x4 DUP4 ADD SLOAD PUSH1 0xFF DUP2 AND ISZERO ISZERO PUSH1 0x80 DUP5 ADD MSTORE PUSH2 0x100 DUP1 DUP3 DIV PUSH1 0xF8 SHL PUSH1 0x1 PUSH1 0x1 PUSH1 0xF8 SHL SUB NOT AND PUSH1 0xA0 DUP6 ADD MSTORE PUSH3 0x10000 DUP3 DIV SWAP1 SWAP3 AND PUSH1 0xC0 DUP5 ADD MSTORE PUSH1 0x1 PUSH1 0x20 SHL SWAP1 DIV PUSH1 0x1 PUSH1 0x1 PUSH1 0x80 SHL SUB AND PUSH1 0xE0 DUP4 ADD MSTORE PUSH1 0x5 DUP4 ADD SLOAD SWAP1 DUP3 ADD MSTORE PUSH1 0x6 SWAP1 SWAP2 ADD SLOAD PUSH2 0x120 SWAP1 SWAP2 ADD MSTORE SWAP3 SWAP2 POP POP JUMP JUMPDEST PUSH1 0x40 MLOAD PUSH32 0x19457468657265756D205369676E6564204D6573736167653A0A333200000000 PUSH1 0x20 DUP3 ADD MSTORE PUSH1 0x3C DUP2 ADD DUP3 SWAP1 MSTORE PUSH1 0x0 SWAP1 PUSH1 0x5C ADD JUMPDEST PUSH1 0x40 MLOAD PUSH1 0x20 DUP2 DUP4 SUB SUB DUP2 MSTORE SWAP1 PUSH1 0x40 MSTORE DUP1 MLOAD SWAP1 PUSH1 0x20 ADD KECCAK256 SWAP1 POP SWAP2 SWAP1 POP JUMP JUMPDEST PUSH1 0x0 DUP4 PUSH1 0x1 PUSH1 0x1 PUSH1 0xA0 SHL SUB AND PUSH1 0x1 DUP5 DUP5 PUSH1 0x40 ADD MLOAD DUP6 PUSH1 0x0 ADD MLOAD DUP7 PUSH1 0x20 ADD MLOAD PUSH1 0x40 MLOAD PUSH1 0x0 DUP2 MSTORE PUSH1 0x20 ADD PUSH1 0x40 MSTORE PUSH1 0x40 MLOAD PUSH2 0x3656 SWAP5 SWAP4 SWAP3 SWAP2 SWAP1 SWAP4 DUP5 MSTORE PUSH1 0xFF SWAP3 SWAP1 SWAP3 AND PUSH1 0x20 DUP5 ADD MSTORE PUSH1 0x40 DUP4 ADD MSTORE PUSH1 0x60 DUP3 ADD MSTORE PUSH1 0x80 ADD SWAP1 JUMP JUMPDEST PUSH1 0x20 PUSH1 0x40 MLOAD PUSH1 0x20 DUP2 SUB SWAP1 DUP1 DUP5 SUB SWAP1 DUP6 GAS STATICCALL ISZERO DUP1 ISZERO PUSH2 0x3678 JUMPI RETURNDATASIZE PUSH1 0x0 DUP1 RETURNDATACOPY RETURNDATASIZE PUSH1 0x0 REVERT JUMPDEST POP POP POP PUSH1 0x20 PUSH1 0x40 MLOAD SUB MLOAD PUSH1 0x1 PUSH1 0x1 PUSH1 0xA0 SHL SUB AND EQ SWAP1 POP SWAP4 SWAP3 POP POP POP JUMP JUMPDEST PUSH1 0x40 MLOAD PUSH1 0x1 PUSH1 0x1 PUSH1 0xA0 SHL SUB DUP4 AND PUSH1 0x24 DUP3 ADD MSTORE PUSH1 0x44 DUP2 ADD DUP3 SWAP1 MSTORE PUSH2 0x36C5 SWAP1 DUP5 SWAP1 PUSH4 0xA9059CBB PUSH1 0xE0 SHL SWAP1 PUSH1 0x64 ADD PUSH2 0x31E7 JUMP JUMPDEST POP POP POP JUMP JUMPDEST PUSH1 0x0 DUP2 PUSH1 0x1 PUSH1 0x1 PUSH1 0xA0 SHL SUB AND PUSH2 0x36E8 PUSH1 0x6 SLOAD PUSH1 0x1 PUSH1 0x1 PUSH1 0xA0 SHL SUB AND SWAP1 JUMP JUMPDEST PUSH1 0x1 PUSH1 0x1 PUSH1 0xA0 SHL SUB AND EQ SWAP3 SWAP2 POP POP JUMP JUMPDEST DUP2 MLOAD DUP4 MLOAD EQ PUSH2 0x375A JUMPI PUSH1 0x40 MLOAD PUSH3 0x461BCD PUSH1 0xE5 SHL DUP2 MSTORE PUSH1 0x20 PUSH1 0x4 DUP3 ADD MSTORE PUSH1 0x28 PUSH1 0x24 DUP3 ADD MSTORE PUSH32 0x455243313135353A2069647320616E6420616D6F756E7473206C656E67746820 PUSH1 0x44 DUP3 ADD MSTORE PUSH8 0xDAD2E6DAC2E8C6D PUSH1 0xC3 SHL PUSH1 0x64 DUP3 ADD MSTORE PUSH1 0x84 ADD PUSH2 0x8CF JUMP JUMPDEST PUSH1 0x1 PUSH1 0x1 PUSH1 0xA0 SHL SUB DUP5 AND PUSH2 0x3780 JUMPI PUSH1 0x40 MLOAD PUSH3 0x461BCD PUSH1 0xE5 SHL DUP2 MSTORE PUSH1 0x4 ADD PUSH2 0x8CF SWAP1 PUSH2 0x5A9E JUMP JUMPDEST CALLER PUSH2 0x378F DUP2 DUP8 DUP8 DUP8 DUP8 DUP8 PUSH2 0x4469 JUMP JUMPDEST PUSH1 0x0 JUMPDEST DUP5 MLOAD DUP2 LT ISZERO PUSH2 0x3875 JUMPI PUSH1 0x0 DUP6 DUP3 DUP2 MLOAD DUP2 LT PUSH2 0x37AF JUMPI PUSH2 0x37AF PUSH2 0x59BB JUMP JUMPDEST PUSH1 0x20 MUL PUSH1 0x20 ADD ADD MLOAD SWAP1 POP PUSH1 0x0 DUP6 DUP4 DUP2 MLOAD DUP2 LT PUSH2 0x37CD JUMPI PUSH2 0x37CD PUSH2 0x59BB JUMP JUMPDEST PUSH1 0x20 SWAP1 DUP2 MUL SWAP2 SWAP1 SWAP2 ADD DUP2 ADD MLOAD PUSH1 0x0 DUP5 DUP2 MSTORE DUP1 DUP4 MSTORE PUSH1 0x40 DUP1 DUP3 KECCAK256 PUSH1 0x1 PUSH1 0x1 PUSH1 0xA0 SHL SUB DUP15 AND DUP4 MSTORE SWAP1 SWAP4 MSTORE SWAP2 SWAP1 SWAP2 KECCAK256 SLOAD SWAP1 SWAP2 POP DUP2 DUP2 LT ISZERO PUSH2 0x381D JUMPI PUSH1 0x40 MLOAD PUSH3 0x461BCD PUSH1 0xE5 SHL DUP2 MSTORE PUSH1 0x4 ADD PUSH2 0x8CF SWAP1 PUSH2 0x5AE3 JUMP JUMPDEST PUSH1 0x0 DUP4 DUP2 MSTORE PUSH1 0x20 DUP2 DUP2 MSTORE PUSH1 0x40 DUP1 DUP4 KECCAK256 PUSH1 0x1 PUSH1 0x1 PUSH1 0xA0 SHL SUB DUP15 DUP2 AND DUP6 MSTORE SWAP3 MSTORE DUP1 DUP4 KECCAK256 DUP6 DUP6 SUB SWAP1 SSTORE SWAP1 DUP12 AND DUP3 MSTORE DUP2 KECCAK256 DUP1 SLOAD DUP5 SWAP3 SWAP1 PUSH2 0x385A SWAP1 DUP5 SWAP1 PUSH2 0x5776 JUMP JUMPDEST SWAP3 POP POP DUP2 SWAP1 SSTORE POP POP POP POP DUP1 PUSH2 0x386E SWAP1 PUSH2 0x59D1 JUMP JUMPDEST SWAP1 POP PUSH2 0x3792 JUMP JUMPDEST POP DUP5 PUSH1 0x1 PUSH1 0x1 PUSH1 0xA0 SHL SUB AND DUP7 PUSH1 0x1 PUSH1 0x1 PUSH1 0xA0 SHL SUB AND DUP3 PUSH1 0x1 PUSH1 0x1 PUSH1 0xA0 SHL SUB AND PUSH32 0x4A39DC06D4C0DBC64B70AF90FD698A233A518AA5D07E595D983B8C0526C8F7FB DUP8 DUP8 PUSH1 0x40 MLOAD PUSH2 0x38C5 SWAP3 SWAP2 SWAP1 PUSH2 0x5B2D JUMP JUMPDEST PUSH1 0x40 MLOAD DUP1 SWAP2 SUB SWAP1 LOG4 PUSH2 0x38DB DUP2 DUP8 DUP8 DUP8 DUP8 DUP8 PUSH2 0x478B JUMP JUMPDEST POP POP POP POP POP POP JUMP JUMPDEST PUSH1 0x40 MLOAD PUSH1 0x1 PUSH1 0x1 PUSH1 0xA0 SHL SUB DUP1 DUP6 AND PUSH1 0x24 DUP4 ADD MSTORE DUP4 AND PUSH1 0x44 DUP3 ADD MSTORE PUSH1 0x64 DUP2 ADD DUP3 SWAP1 MSTORE PUSH2 0x321E SWAP1 DUP6 SWAP1 PUSH4 0x23B872DD PUSH1 0xE0 SHL SWAP1 PUSH1 0x84 ADD PUSH2 0x31E7 JUMP JUMPDEST PUSH1 0x1 PUSH1 0x1 PUSH1 0xA0 SHL SUB DUP3 AND PUSH1 0x0 SWAP1 DUP2 MSTORE PUSH1 0x11 PUSH1 0x20 SWAP1 DUP2 MSTORE PUSH1 0x40 DUP1 DUP4 KECCAK256 DUP5 MLOAD PUSH4 0xFFFFFFFF AND DUP5 MSTORE DUP3 MSTORE DUP1 DUP4 KECCAK256 DUP2 MLOAD PUSH1 0x80 DUP2 ADD DUP4 MSTORE DUP2 SLOAD DUP1 DUP3 MSTORE PUSH1 0x1 DUP4 ADD SLOAD PUSH1 0x1 PUSH1 0x1 PUSH1 0x40 SHL SUB AND SWAP5 DUP3 ADD SWAP5 SWAP1 SWAP5 MSTORE PUSH1 0x2 DUP3 ADD SLOAD SWAP3 DUP2 ADD SWAP3 SWAP1 SWAP3 MSTORE PUSH1 0x3 ADD SLOAD PUSH1 0x60 DUP3 ADD MSTORE SWAP1 DUP3 SUB PUSH2 0x398D JUMPI PUSH1 0x0 SWAP2 POP POP PUSH2 0x8FB JUMP JUMPDEST PUSH1 0x40 DUP2 ADD MLOAD PUSH1 0x80 DUP5 ADD MLOAD DUP3 MLOAD PUSH2 0x39B7 SWAP2 PUSH2 0x39A6 SWAP2 PUSH2 0x575F JUMP JUMPDEST DUP4 PUSH1 0x20 ADD MLOAD TIMESTAMP DUP8 PUSH2 0x120 ADD MLOAD PUSH2 0x1988 JUMP JUMPDEST PUSH2 0x39C1 SWAP1 DUP3 PUSH2 0x5776 JUMP JUMPDEST PUSH1 0x1 PUSH1 0x1 PUSH1 0x40 SHL SUB TIMESTAMP AND PUSH1 0x20 DUP5 ADD MSTORE PUSH1 0x0 PUSH1 0x40 DUP5 ADD MSTORE PUSH1 0x60 DUP4 ADD DUP1 MLOAD SWAP2 SWAP3 POP DUP3 SWAP2 PUSH2 0x39ED SWAP1 DUP4 SWAP1 PUSH2 0x5776 JUMP JUMPDEST SWAP1 MSTORE POP PUSH1 0x1 PUSH1 0x1 PUSH1 0xA0 SHL SUB SWAP5 SWAP1 SWAP5 AND PUSH1 0x0 SWAP1 DUP2 MSTORE PUSH1 0x11 PUSH1 0x20 SWAP1 DUP2 MSTORE PUSH1 0x40 DUP1 DUP4 KECCAK256 SWAP6 MLOAD PUSH4 0xFFFFFFFF AND DUP4 MSTORE SWAP5 DUP2 MSTORE SWAP1 DUP5 SWAP1 KECCAK256 DUP3 MLOAD DUP2 SSTORE SWAP1 DUP3 ADD MLOAD PUSH1 0x1 DUP3 ADD DUP1 SLOAD PUSH8 0xFFFFFFFFFFFFFFFF NOT AND PUSH1 0x1 PUSH1 0x1 PUSH1 0x40 SHL SUB SWAP1 SWAP3 AND SWAP2 SWAP1 SWAP2 OR SWAP1 SSTORE SWAP3 DUP2 ADD MLOAD PUSH1 0x2 DUP5 ADD SSTORE PUSH1 0x60 ADD MLOAD PUSH1 0x3 SWAP1 SWAP3 ADD SWAP2 SWAP1 SWAP2 SSTORE POP SWAP1 JUMP JUMPDEST PUSH1 0xB SLOAD PUSH1 0x1 PUSH1 0x1 PUSH1 0xA0 SHL SUB AND CALLER EQ PUSH2 0x27FD JUMPI PUSH1 0x40 MLOAD PUSH3 0x461BCD PUSH1 0xE5 SHL DUP2 MSTORE PUSH1 0x20 PUSH1 0x4 DUP3 ADD MSTORE PUSH1 0x6 PUSH1 0x24 DUP3 ADD MSTORE PUSH6 0x10B0B236B4B7 PUSH1 0xD1 SHL PUSH1 0x44 DUP3 ADD MSTORE PUSH1 0x64 ADD PUSH2 0x8CF JUMP JUMPDEST PUSH1 0x0 PUSH2 0x3AB0 DUP3 PUSH2 0x3FEF JUMP JUMPDEST PUSH1 0x0 DUP5 PUSH4 0xFFFFFFFF AND GT PUSH2 0x3AF3 JUMPI PUSH1 0x40 MLOAD PUSH3 0x461BCD PUSH1 0xE5 SHL DUP2 MSTORE PUSH1 0x20 PUSH1 0x4 DUP3 ADD MSTORE PUSH1 0xA PUSH1 0x24 DUP3 ADD MSTORE PUSH10 0x85C1C9BDA9958DD1259 PUSH1 0xB2 SHL PUSH1 0x44 DUP3 ADD MSTORE PUSH1 0x64 ADD PUSH2 0x8CF JUMP JUMPDEST PUSH1 0x0 DUP4 PUSH4 0xFFFFFFFF AND GT PUSH2 0x3B19 JUMPI PUSH1 0x40 MLOAD PUSH3 0x461BCD PUSH1 0xE5 SHL DUP2 MSTORE PUSH1 0x4 ADD PUSH2 0x8CF SWAP1 PUSH2 0x5A46 JUMP JUMPDEST PUSH4 0xFFFFFFFF DUP1 DUP6 AND PUSH1 0x0 SWAP1 DUP2 MSTORE PUSH1 0xD PUSH1 0x20 SWAP1 DUP2 MSTORE PUSH1 0x40 DUP1 DUP4 KECCAK256 DUP2 MLOAD PUSH2 0x160 DUP2 ADD SWAP1 SWAP3 MSTORE DUP1 SLOAD SWAP1 SWAP5 AND DUP2 MSTORE PUSH1 0x1 DUP5 ADD DUP1 SLOAD SWAP4 SWAP5 SWAP2 SWAP4 SWAP2 SWAP3 DUP5 ADD SWAP2 PUSH2 0x3B5B SWAP1 PUSH2 0x5670 JUMP JUMPDEST DUP1 PUSH1 0x1F ADD PUSH1 0x20 DUP1 SWAP2 DIV MUL PUSH1 0x20 ADD PUSH1 0x40 MLOAD SWAP1 DUP2 ADD PUSH1 0x40 MSTORE DUP1 SWAP3 SWAP2 SWAP1 DUP2 DUP2 MSTORE PUSH1 0x20 ADD DUP3 DUP1 SLOAD PUSH2 0x3B87 SWAP1 PUSH2 0x5670 JUMP JUMPDEST DUP1 ISZERO PUSH2 0x3BD4 JUMPI DUP1 PUSH1 0x1F LT PUSH2 0x3BA9 JUMPI PUSH2 0x100 DUP1 DUP4 SLOAD DIV MUL DUP4 MSTORE SWAP2 PUSH1 0x20 ADD SWAP2 PUSH2 0x3BD4 JUMP JUMPDEST DUP3 ADD SWAP2 SWAP1 PUSH1 0x0 MSTORE PUSH1 0x20 PUSH1 0x0 KECCAK256 SWAP1 JUMPDEST DUP2 SLOAD DUP2 MSTORE SWAP1 PUSH1 0x1 ADD SWAP1 PUSH1 0x20 ADD DUP1 DUP4 GT PUSH2 0x3BB7 JUMPI DUP3 SWAP1 SUB PUSH1 0x1F AND DUP3 ADD SWAP2 JUMPDEST POP POP POP SWAP2 DUP4 MSTORE POP POP PUSH1 0x2 DUP3 ADD SLOAD PUSH1 0x1 PUSH1 0x1 PUSH1 0xA0 SHL SUB DUP2 AND PUSH1 0x20 DUP4 ADD MSTORE PUSH1 0x1 PUSH1 0xA0 SHL SWAP1 DIV PUSH2 0xFFFF SWAP1 DUP2 AND PUSH1 0x40 DUP4 ADD MSTORE PUSH1 0x3 DUP4 ADD SLOAD PUSH1 0x60 DUP4 ADD MSTORE PUSH1 0x4 DUP4 ADD SLOAD PUSH1 0xFF DUP2 AND ISZERO ISZERO PUSH1 0x80 DUP5 ADD MSTORE PUSH2 0x100 DUP1 DUP3 DIV PUSH1 0xF8 SHL PUSH1 0x1 PUSH1 0x1 PUSH1 0xF8 SHL SUB NOT AND PUSH1 0xA0 DUP6 ADD MSTORE PUSH3 0x10000 DUP3 DIV SWAP1 SWAP3 AND PUSH1 0xC0 DUP5 ADD MSTORE PUSH1 0x1 PUSH1 0x20 SHL SWAP1 DIV PUSH1 0x1 PUSH1 0x1 PUSH1 0x80 SHL SUB AND PUSH1 0xE0 DUP4 ADD MSTORE PUSH1 0x5 DUP4 ADD SLOAD SWAP1 DUP3 ADD MSTORE PUSH1 0x6 SWAP1 SWAP2 ADD SLOAD PUSH2 0x120 SWAP1 SWAP2 ADD MSTORE SWAP1 POP PUSH2 0x3C78 DUP2 PUSH2 0x3EBB JUMP JUMPDEST PUSH4 0xFFFFFFFF DUP1 DUP7 AND PUSH1 0x0 SWAP1 DUP2 MSTORE PUSH1 0x13 PUSH1 0x20 MSTORE PUSH1 0x40 SWAP1 KECCAK256 SLOAD PUSH1 0x1 PUSH1 0x1 PUSH1 0x80 SHL SUB AND SWAP1 DUP6 AND DUP2 LT ISZERO PUSH2 0x3CDA JUMPI PUSH1 0x40 MLOAD PUSH3 0x461BCD PUSH1 0xE5 SHL DUP2 MSTORE PUSH1 0x20 PUSH1 0x4 DUP3 ADD MSTORE PUSH1 0xD PUSH1 0x24 DUP3 ADD MSTORE PUSH13 0x65786365656420737570706C79 PUSH1 0x98 SHL PUSH1 0x44 DUP3 ADD MSTORE PUSH1 0x64 ADD PUSH2 0x8CF JUMP JUMPDEST PUSH1 0x1 PUSH1 0x1 PUSH1 0xA0 SHL SUB DUP5 AND PUSH1 0x0 SWAP1 DUP2 MSTORE PUSH1 0xF PUSH1 0x20 SWAP1 DUP2 MSTORE PUSH1 0x40 DUP1 DUP4 KECCAK256 PUSH4 0xFFFFFFFF DUP11 DUP2 AND DUP6 MSTORE SWAP1 DUP4 MSTORE SWAP3 DUP2 SWAP1 KECCAK256 DUP2 MLOAD PUSH1 0xA0 DUP2 ADD DUP4 MSTORE DUP2 SLOAD DUP1 DUP7 AND DUP1 DUP4 MSTORE PUSH1 0x1 PUSH1 0x20 SHL DUP3 DIV SWAP1 SWAP7 AND SWAP5 DUP3 ADD SWAP5 SWAP1 SWAP5 MSTORE PUSH1 0x1 PUSH1 0x40 SHL SWAP1 SWAP4 DIV PUSH1 0x1 PUSH1 0x1 PUSH1 0x40 SHL SUB AND SWAP2 DUP4 ADD SWAP2 SWAP1 SWAP2 MSTORE PUSH1 0x1 DUP2 ADD SLOAD PUSH1 0x60 DUP4 ADD MSTORE PUSH1 0x2 ADD SLOAD PUSH1 0x80 DUP3 ADD MSTORE SWAP1 ISZERO PUSH2 0x3DBE JUMPI DUP1 PUSH1 0x0 ADD MLOAD PUSH4 0xFFFFFFFF AND DUP7 PUSH4 0xFFFFFFFF AND PUSH2 0x3D7A DUP8 DUP11 PUSH4 0xFFFFFFFF AND PUSH2 0x867 JUMP JUMPDEST PUSH2 0x3D84 SWAP2 SWAP1 PUSH2 0x5B52 JUMP JUMPDEST LT ISZERO PUSH2 0x3DBE JUMPI PUSH1 0x40 MLOAD PUSH3 0x461BCD PUSH1 0xE5 SHL DUP2 MSTORE PUSH1 0x20 PUSH1 0x4 DUP3 ADD MSTORE PUSH1 0x9 PUSH1 0x24 DUP3 ADD MSTORE PUSH9 0x1A5B881CDD185AD959 PUSH1 0xBA SHL PUSH1 0x44 DUP3 ADD MSTORE PUSH1 0x64 ADD PUSH2 0x8CF JUMP JUMPDEST PUSH4 0xFFFFFFFF DUP8 DUP2 AND PUSH1 0x0 SWAP1 DUP2 MSTORE PUSH1 0x13 PUSH1 0x20 MSTORE PUSH1 0x40 DUP2 KECCAK256 DUP1 SLOAD SWAP3 DUP10 AND SWAP3 SWAP1 SWAP2 SWAP1 PUSH2 0x3DF1 SWAP1 DUP5 SWAP1 PUSH1 0x1 PUSH1 0x1 PUSH1 0x80 SHL SUB AND PUSH2 0x5B65 JUMP JUMPDEST SWAP3 POP PUSH2 0x100 EXP DUP2 SLOAD DUP2 PUSH1 0x1 PUSH1 0x1 PUSH1 0x80 SHL SUB MUL NOT AND SWAP1 DUP4 PUSH1 0x1 PUSH1 0x1 PUSH1 0x80 SHL SUB AND MUL OR SWAP1 SSTORE POP PUSH2 0x3E2C DUP6 DUP9 PUSH4 0xFFFFFFFF AND DUP9 PUSH4 0xFFFFFFFF AND PUSH2 0x48E6 JUMP JUMPDEST DUP3 PUSH1 0xA0 ADD MLOAD PUSH2 0x3E6A JUMPI PUSH1 0x0 DUP4 PUSH1 0x80 ADD MLOAD DUP8 PUSH4 0xFFFFFFFF AND PUSH2 0x3E4D SWAP2 SWAP1 PUSH2 0x575F JUMP JUMPDEST PUSH1 0xE SLOAD SWAP1 SWAP2 POP PUSH2 0x3E68 SWAP1 PUSH1 0x1 PUSH1 0x1 PUSH1 0xA0 SHL SUB AND ADDRESS DUP9 DUP5 PUSH2 0x38E3 JUMP JUMPDEST POP JUMPDEST DUP5 PUSH1 0x1 PUSH1 0x1 PUSH1 0xA0 SHL SUB AND DUP7 PUSH4 0xFFFFFFFF AND DUP9 PUSH4 0xFFFFFFFF AND PUSH32 0x51DC334A9A8F008638BDEB6C9A6F4AABF63FF2510E4BE9998B7ECF63010AB8AA PUSH1 0x40 MLOAD PUSH1 0x40 MLOAD DUP1 SWAP2 SUB SWAP1 LOG4 POP PUSH1 0x1 SWAP7 SWAP6 POP POP POP POP POP POP JUMP JUMPDEST DUP1 MLOAD PUSH4 0xFFFFFFFF AND PUSH2 0x9CC JUMPI PUSH1 0x40 MLOAD PUSH3 0x461BCD PUSH1 0xE5 SHL DUP2 MSTORE PUSH1 0x4 ADD PUSH2 0x8CF SWAP1 PUSH2 0x5727 JUMP JUMPDEST PUSH1 0x1 PUSH1 0x1 PUSH1 0xA0 SHL SUB DUP5 AND PUSH2 0x3F3F JUMPI PUSH1 0x40 MLOAD PUSH3 0x461BCD PUSH1 0xE5 SHL DUP2 MSTORE PUSH1 0x20 PUSH1 0x4 DUP3 ADD MSTORE PUSH1 0x21 PUSH1 0x24 DUP3 ADD MSTORE PUSH32 0x455243313135353A206D696E7420746F20746865207A65726F20616464726573 PUSH1 0x44 DUP3 ADD MSTORE PUSH1 0x73 PUSH1 0xF8 SHL PUSH1 0x64 DUP3 ADD MSTORE PUSH1 0x84 ADD PUSH2 0x8CF JUMP JUMPDEST CALLER PUSH2 0x3F5F DUP2 PUSH1 0x0 DUP8 PUSH2 0x3F50 DUP9 PUSH2 0x4A5F JUMP JUMPDEST PUSH2 0x3F59 DUP9 PUSH2 0x4A5F JUMP JUMPDEST DUP8 PUSH2 0x4469 JUMP JUMPDEST PUSH1 0x0 DUP5 DUP2 MSTORE PUSH1 0x20 DUP2 DUP2 MSTORE PUSH1 0x40 DUP1 DUP4 KECCAK256 PUSH1 0x1 PUSH1 0x1 PUSH1 0xA0 SHL SUB DUP10 AND DUP5 MSTORE SWAP1 SWAP2 MSTORE DUP2 KECCAK256 DUP1 SLOAD DUP6 SWAP3 SWAP1 PUSH2 0x3F8F SWAP1 DUP5 SWAP1 PUSH2 0x5776 JUMP JUMPDEST SWAP1 SWAP2 SSTORE POP POP PUSH1 0x40 DUP1 MLOAD DUP6 DUP2 MSTORE PUSH1 0x20 DUP2 ADD DUP6 SWAP1 MSTORE PUSH1 0x1 PUSH1 0x1 PUSH1 0xA0 SHL SUB DUP1 DUP9 AND SWAP3 PUSH1 0x0 SWAP3 SWAP2 DUP6 AND SWAP2 PUSH32 0xC3D58168C5AE7397731D063D5BBF3D657854427343F4C083240F7AACAA2D0F62 SWAP2 ADD PUSH1 0x40 MLOAD DUP1 SWAP2 SUB SWAP1 LOG4 PUSH2 0x15B4 DUP2 PUSH1 0x0 DUP8 DUP8 DUP8 DUP8 PUSH2 0x4AAA JUMP JUMPDEST PUSH1 0x1 PUSH1 0x1 PUSH1 0xA0 SHL SUB DUP2 AND PUSH2 0x9CC JUMPI PUSH1 0x40 MLOAD PUSH3 0x461BCD PUSH1 0xE5 SHL DUP2 MSTORE PUSH1 0x20 PUSH1 0x4 DUP3 ADD MSTORE PUSH1 0x9 PUSH1 0x24 DUP3 ADD MSTORE PUSH9 0x782061646472657373 PUSH1 0xB8 SHL PUSH1 0x44 DUP3 ADD MSTORE PUSH1 0x64 ADD PUSH2 0x8CF JUMP JUMPDEST PUSH1 0x6 DUP1 SLOAD PUSH1 0x1 PUSH1 0x1 PUSH1 0xA0 SHL SUB DUP4 DUP2 AND PUSH1 0x1 PUSH1 0x1 PUSH1 0xA0 SHL SUB NOT DUP4 AND DUP2 OR SWAP1 SWAP4 SSTORE PUSH1 0x40 MLOAD SWAP2 AND SWAP2 SWAP1 DUP3 SWAP1 PUSH32 0x8BE0079C531659141344CD1FD0A4F28419497F9722A3DAAFE3B4186F6B6457E0 SWAP1 PUSH1 0x0 SWAP1 LOG3 POP POP JUMP JUMPDEST PUSH1 0xB DUP1 SLOAD PUSH1 0x1 PUSH1 0x1 PUSH1 0xA0 SHL SUB NOT AND PUSH1 0x1 PUSH1 0x1 PUSH1 0xA0 SHL SUB DUP4 AND SWAP1 DUP2 OR SWAP1 SWAP2 SSTORE PUSH1 0x40 MLOAD PUSH32 0x7CE7EC0B50378FB6C0186FFB5F48325F6593FCB4CA4386F21861AF3129188F5C SWAP1 PUSH1 0x0 SWAP1 LOG2 POP JUMP JUMPDEST PUSH1 0x1 PUSH1 0x1 PUSH1 0xA0 SHL SUB DUP5 AND PUSH2 0x40F3 JUMPI PUSH1 0x40 MLOAD PUSH3 0x461BCD PUSH1 0xE5 SHL DUP2 MSTORE PUSH1 0x4 ADD PUSH2 0x8CF SWAP1 PUSH2 0x5A9E JUMP JUMPDEST CALLER PUSH2 0x4103 DUP2 DUP8 DUP8 PUSH2 0x3F50 DUP9 PUSH2 0x4A5F JUMP JUMPDEST PUSH1 0x0 DUP5 DUP2 MSTORE PUSH1 0x20 DUP2 DUP2 MSTORE PUSH1 0x40 DUP1 DUP4 KECCAK256 PUSH1 0x1 PUSH1 0x1 PUSH1 0xA0 SHL SUB DUP11 AND DUP5 MSTORE SWAP1 SWAP2 MSTORE SWAP1 KECCAK256 SLOAD DUP4 DUP2 LT ISZERO PUSH2 0x4144 JUMPI PUSH1 0x40 MLOAD PUSH3 0x461BCD PUSH1 0xE5 SHL DUP2 MSTORE PUSH1 0x4 ADD PUSH2 0x8CF SWAP1 PUSH2 0x5AE3 JUMP JUMPDEST PUSH1 0x0 DUP6 DUP2 MSTORE PUSH1 0x20 DUP2 DUP2 MSTORE PUSH1 0x40 DUP1 DUP4 KECCAK256 PUSH1 0x1 PUSH1 0x1 PUSH1 0xA0 SHL SUB DUP12 DUP2 AND DUP6 MSTORE SWAP3 MSTORE DUP1 DUP4 KECCAK256 DUP8 DUP6 SUB SWAP1 SSTORE SWAP1 DUP9 AND DUP3 MSTORE DUP2 KECCAK256 DUP1 SLOAD DUP7 SWAP3 SWAP1 PUSH2 0x4181 SWAP1 DUP5 SWAP1 PUSH2 0x5776 JUMP JUMPDEST SWAP1 SWAP2 SSTORE POP POP PUSH1 0x40 DUP1 MLOAD DUP7 DUP2 MSTORE PUSH1 0x20 DUP2 ADD DUP7 SWAP1 MSTORE PUSH1 0x1 PUSH1 0x1 PUSH1 0xA0 SHL SUB DUP1 DUP10 AND SWAP3 DUP11 DUP3 AND SWAP3 SWAP2 DUP7 AND SWAP2 PUSH32 0xC3D58168C5AE7397731D063D5BBF3D657854427343F4C083240F7AACAA2D0F62 SWAP2 ADD PUSH1 0x40 MLOAD DUP1 SWAP2 SUB SWAP1 LOG4 PUSH2 0x41E1 DUP3 DUP9 DUP9 DUP9 DUP9 DUP9 PUSH2 0x4AAA JUMP JUMPDEST POP POP POP POP POP POP POP JUMP JUMPDEST PUSH1 0x0 PUSH2 0x423F DUP3 PUSH1 0x40 MLOAD DUP1 PUSH1 0x40 ADD PUSH1 0x40 MSTORE DUP1 PUSH1 0x20 DUP2 MSTORE PUSH1 0x20 ADD PUSH32 0x5361666545524332303A206C6F772D6C6576656C2063616C6C206661696C6564 DUP2 MSTORE POP DUP6 PUSH1 0x1 PUSH1 0x1 PUSH1 0xA0 SHL SUB AND PUSH2 0x3224 SWAP1 SWAP3 SWAP2 SWAP1 PUSH4 0xFFFFFFFF AND JUMP JUMPDEST DUP1 MLOAD SWAP1 SWAP2 POP ISZERO PUSH2 0x36C5 JUMPI DUP1 DUP1 PUSH1 0x20 ADD SWAP1 MLOAD DUP2 ADD SWAP1 PUSH2 0x425D SWAP2 SWAP1 PUSH2 0x5B85 JUMP JUMPDEST PUSH2 0x36C5 JUMPI PUSH1 0x40 MLOAD PUSH3 0x461BCD PUSH1 0xE5 SHL DUP2 MSTORE PUSH1 0x20 PUSH1 0x4 DUP3 ADD MSTORE PUSH1 0x2A PUSH1 0x24 DUP3 ADD MSTORE PUSH32 0x5361666545524332303A204552433230206F7065726174696F6E20646964206E PUSH1 0x44 DUP3 ADD MSTORE PUSH10 0x1BDD081CDD58D8D95959 PUSH1 0xB2 SHL PUSH1 0x64 DUP3 ADD MSTORE PUSH1 0x84 ADD PUSH2 0x8CF JUMP JUMPDEST PUSH1 0x60 DUP3 SELFBALANCE LT ISZERO PUSH2 0x431D JUMPI PUSH1 0x40 MLOAD PUSH3 0x461BCD PUSH1 0xE5 SHL DUP2 MSTORE PUSH1 0x20 PUSH1 0x4 DUP3 ADD MSTORE PUSH1 0x26 PUSH1 0x24 DUP3 ADD MSTORE PUSH32 0x416464726573733A20696E73756666696369656E742062616C616E636520666F PUSH1 0x44 DUP3 ADD MSTORE PUSH6 0x1C8818D85B1B PUSH1 0xD2 SHL PUSH1 0x64 DUP3 ADD MSTORE PUSH1 0x84 ADD PUSH2 0x8CF JUMP JUMPDEST DUP5 EXTCODESIZE PUSH2 0x436B JUMPI PUSH1 0x40 MLOAD PUSH3 0x461BCD PUSH1 0xE5 SHL DUP2 MSTORE PUSH1 0x20 PUSH1 0x4 DUP3 ADD MSTORE PUSH1 0x1D PUSH1 0x24 DUP3 ADD MSTORE PUSH32 0x416464726573733A2063616C6C20746F206E6F6E2D636F6E7472616374000000 PUSH1 0x44 DUP3 ADD MSTORE PUSH1 0x64 ADD PUSH2 0x8CF JUMP JUMPDEST PUSH1 0x0 DUP1 DUP7 PUSH1 0x1 PUSH1 0x1 PUSH1 0xA0 SHL SUB AND DUP6 DUP8 PUSH1 0x40 MLOAD PUSH2 0x4387 SWAP2 SWAP1 PUSH2 0x570B JUMP JUMPDEST PUSH1 0x0 PUSH1 0x40 MLOAD DUP1 DUP4 SUB DUP2 DUP6 DUP8 GAS CALL SWAP3 POP POP POP RETURNDATASIZE DUP1 PUSH1 0x0 DUP2 EQ PUSH2 0x43C4 JUMPI PUSH1 0x40 MLOAD SWAP2 POP PUSH1 0x1F NOT PUSH1 0x3F RETURNDATASIZE ADD AND DUP3 ADD PUSH1 0x40 MSTORE RETURNDATASIZE DUP3 MSTORE RETURNDATASIZE PUSH1 0x0 PUSH1 0x20 DUP5 ADD RETURNDATACOPY PUSH2 0x43C9 JUMP JUMPDEST PUSH1 0x60 SWAP2 POP JUMPDEST POP SWAP2 POP SWAP2 POP PUSH2 0x19DC DUP3 DUP3 DUP7 PUSH2 0x4B65 JUMP JUMPDEST PUSH1 0x0 PUSH1 0x40 MLOAD DUP1 PUSH1 0x80 ADD PUSH1 0x40 MSTORE DUP1 PUSH1 0x43 DUP2 MSTORE PUSH1 0x20 ADD PUSH2 0x5D39 PUSH1 0x43 SWAP2 CODECOPY DUP1 MLOAD PUSH1 0x20 SWAP2 DUP3 ADD KECCAK256 DUP4 MLOAD DUP5 DUP4 ADD MLOAD PUSH1 0x40 DUP1 DUP8 ADD MLOAD DUP1 MLOAD SWAP1 DUP7 ADD KECCAK256 SWAP1 MLOAD PUSH2 0x35E5 SWAP6 ADD SWAP4 DUP5 MSTORE PUSH1 0x20 DUP5 ADD SWAP3 SWAP1 SWAP3 MSTORE PUSH1 0x1 PUSH1 0x1 PUSH1 0xA0 SHL SUB AND PUSH1 0x40 DUP4 ADD MSTORE PUSH1 0x60 DUP3 ADD MSTORE PUSH1 0x80 ADD SWAP1 JUMP JUMPDEST PUSH1 0x0 PUSH2 0x4444 PUSH1 0x4 SLOAD SWAP1 JUMP JUMPDEST PUSH1 0x40 MLOAD PUSH2 0x1901 PUSH1 0xF0 SHL PUSH1 0x20 DUP3 ADD MSTORE PUSH1 0x22 DUP2 ADD SWAP2 SWAP1 SWAP2 MSTORE PUSH1 0x42 DUP2 ADD DUP4 SWAP1 MSTORE PUSH1 0x62 ADD PUSH2 0x35E5 JUMP JUMPDEST PUSH1 0x1 PUSH1 0x1 PUSH1 0xA0 SHL SUB DUP6 AND ISZERO DUP1 ISZERO PUSH2 0x4487 JUMPI POP PUSH1 0x1 PUSH1 0x1 PUSH1 0xA0 SHL SUB DUP5 AND ISZERO JUMPDEST PUSH2 0x38DB JUMPI PUSH2 0x44BF PUSH1 0x40 MLOAD DUP1 PUSH1 0x80 ADD PUSH1 0x40 MSTORE DUP1 PUSH1 0x0 DUP2 MSTORE PUSH1 0x20 ADD PUSH1 0x0 PUSH1 0x1 PUSH1 0x1 PUSH1 0x40 SHL SUB AND DUP2 MSTORE PUSH1 0x20 ADD PUSH1 0x0 DUP2 MSTORE PUSH1 0x20 ADD PUSH1 0x0 DUP2 MSTORE POP SWAP1 JUMP JUMPDEST PUSH1 0x0 JUMPDEST DUP5 MLOAD DUP2 LT ISZERO PUSH2 0x4781 JUMPI PUSH1 0x0 DUP6 DUP3 DUP2 MLOAD DUP2 LT PUSH2 0x44DF JUMPI PUSH2 0x44DF PUSH2 0x59BB JUMP JUMPDEST PUSH1 0x20 MUL PUSH1 0x20 ADD ADD MLOAD SWAP1 POP PUSH1 0x0 DUP6 DUP4 DUP2 MLOAD DUP2 LT PUSH2 0x44FD JUMPI PUSH2 0x44FD PUSH2 0x59BB JUMP JUMPDEST PUSH1 0x20 MUL PUSH1 0x20 ADD ADD MLOAD SWAP1 POP PUSH1 0x0 PUSH2 0x4512 DUP4 PUSH2 0x33D3 JUMP JUMPDEST PUSH1 0x1 PUSH1 0x1 PUSH1 0xA0 SHL SUB DUP12 AND PUSH1 0x0 DUP2 DUP2 MSTORE PUSH1 0x11 PUSH1 0x20 SWAP1 DUP2 MSTORE PUSH1 0x40 DUP1 DUP4 KECCAK256 PUSH4 0xFFFFFFFF DUP10 AND DUP5 MSTORE DUP3 MSTORE SWAP2 DUP3 SWAP1 KECCAK256 DUP3 MLOAD PUSH1 0x80 DUP2 ADD DUP5 MSTORE DUP2 SLOAD DUP2 MSTORE PUSH1 0x1 DUP3 ADD SLOAD PUSH1 0x1 PUSH1 0x1 PUSH1 0x40 SHL SUB AND SWAP3 DUP2 ADD SWAP3 SWAP1 SWAP3 MSTORE PUSH1 0x2 DUP2 ADD SLOAD SWAP3 DUP3 ADD SWAP3 SWAP1 SWAP3 MSTORE PUSH1 0x3 SWAP1 SWAP2 ADD SLOAD PUSH1 0x60 DUP3 ADD MSTORE SWAP7 POP SWAP1 SWAP2 POP TIMESTAMP SWAP1 ISZERO PUSH2 0x4646 JUMPI DUP6 MLOAD ISZERO PUSH2 0x45D6 JUMPI DUP3 DUP7 PUSH1 0x0 ADD DUP2 DUP2 MLOAD PUSH2 0x4599 SWAP2 SWAP1 PUSH2 0x5B52 JUMP JUMPDEST SWAP1 MSTORE POP PUSH1 0x80 DUP3 ADD MLOAD DUP7 MLOAD PUSH2 0x45C1 SWAP2 PUSH2 0x45B0 SWAP2 PUSH2 0x575F JUMP JUMPDEST DUP8 PUSH1 0x20 ADD MLOAD TIMESTAMP DUP6 PUSH2 0x120 ADD MLOAD PUSH2 0x1988 JUMP JUMPDEST DUP7 PUSH1 0x40 ADD DUP2 DUP2 MLOAD PUSH2 0x45D2 SWAP2 SWAP1 PUSH2 0x5776 JUMP JUMPDEST SWAP1 MSTORE POP JUMPDEST POP PUSH1 0x20 DUP6 DUP2 ADD DUP1 MLOAD TIMESTAMP PUSH1 0x1 PUSH1 0x1 PUSH1 0x40 SHL SUB SWAP1 DUP2 AND DUP4 MSTORE PUSH1 0x1 PUSH1 0x1 PUSH1 0xA0 SHL SUB DUP15 AND PUSH1 0x0 SWAP1 DUP2 MSTORE PUSH1 0x11 DUP6 MSTORE PUSH1 0x40 DUP1 DUP3 KECCAK256 PUSH4 0xFFFFFFFF DUP11 AND DUP4 MSTORE SWAP1 SWAP6 MSTORE DUP5 SWAP1 KECCAK256 DUP10 MLOAD DUP2 SSTORE SWAP3 MLOAD PUSH1 0x1 DUP5 ADD DUP1 SLOAD PUSH8 0xFFFFFFFFFFFFFFFF NOT AND SWAP2 SWAP1 SWAP3 AND OR SWAP1 SSTORE SWAP2 DUP8 ADD MLOAD PUSH1 0x2 DUP3 ADD SSTORE PUSH1 0x60 DUP8 ADD MLOAD PUSH1 0x3 SWAP1 SWAP2 ADD SSTORE JUMPDEST PUSH1 0x1 PUSH1 0x1 PUSH1 0xA0 SHL SUB DUP11 AND ISZERO PUSH2 0x476A JUMPI PUSH1 0x1 PUSH1 0x1 PUSH1 0xA0 SHL SUB DUP11 AND PUSH1 0x0 SWAP1 DUP2 MSTORE PUSH1 0x11 PUSH1 0x20 SWAP1 DUP2 MSTORE PUSH1 0x40 DUP1 DUP4 KECCAK256 PUSH4 0xFFFFFFFF DUP9 AND DUP5 MSTORE DUP3 MSTORE SWAP2 DUP3 SWAP1 KECCAK256 DUP3 MLOAD PUSH1 0x80 DUP2 ADD DUP5 MSTORE DUP2 SLOAD DUP1 DUP3 MSTORE PUSH1 0x1 DUP4 ADD SLOAD PUSH1 0x1 PUSH1 0x1 PUSH1 0x40 SHL SUB AND SWAP4 DUP3 ADD SWAP4 SWAP1 SWAP4 MSTORE PUSH1 0x2 DUP3 ADD SLOAD SWAP4 DUP2 ADD SWAP4 SWAP1 SWAP4 MSTORE PUSH1 0x3 ADD SLOAD PUSH1 0x60 DUP4 ADD MSTORE SWAP1 SWAP7 POP ISZERO PUSH2 0x46E7 JUMPI PUSH1 0x80 DUP3 ADD MLOAD DUP7 MLOAD PUSH2 0x46D2 SWAP2 PUSH2 0x45B0 SWAP2 PUSH2 0x575F JUMP JUMPDEST DUP7 PUSH1 0x40 ADD DUP2 DUP2 MLOAD PUSH2 0x46E3 SWAP2 SWAP1 PUSH2 0x5776 JUMP JUMPDEST SWAP1 MSTORE POP JUMPDEST DUP3 DUP7 PUSH1 0x0 ADD DUP2 DUP2 MLOAD PUSH2 0x46F9 SWAP2 SWAP1 PUSH2 0x5776 JUMP JUMPDEST SWAP1 MSTORE POP PUSH1 0x1 PUSH1 0x1 PUSH1 0x40 SHL SUB DUP2 DUP2 AND PUSH1 0x20 DUP9 DUP2 ADD SWAP2 DUP3 MSTORE PUSH1 0x1 PUSH1 0x1 PUSH1 0xA0 SHL SUB DUP14 AND PUSH1 0x0 SWAP1 DUP2 MSTORE PUSH1 0x11 DUP3 MSTORE PUSH1 0x40 DUP1 DUP3 KECCAK256 PUSH4 0xFFFFFFFF DUP11 AND DUP4 MSTORE SWAP1 SWAP3 MSTORE DUP2 SWAP1 KECCAK256 DUP10 MLOAD DUP2 SSTORE SWAP2 MLOAD PUSH1 0x1 DUP4 ADD DUP1 SLOAD PUSH8 0xFFFFFFFFFFFFFFFF NOT AND SWAP2 SWAP1 SWAP5 AND OR SWAP1 SWAP3 SSTORE SWAP1 DUP8 ADD MLOAD PUSH1 0x2 DUP3 ADD SSTORE PUSH1 0x60 DUP8 ADD MLOAD PUSH1 0x3 SWAP1 SWAP2 ADD SSTORE JUMPDEST POP POP POP POP DUP1 DUP1 PUSH2 0x4779 SWAP1 PUSH2 0x59D1 JUMP JUMPDEST SWAP2 POP POP PUSH2 0x44C2 JUMP JUMPDEST POP POP POP POP POP POP POP POP JUMP JUMPDEST PUSH1 0x1 PUSH1 0x1 PUSH1 0xA0 SHL SUB DUP5 AND EXTCODESIZE ISZERO PUSH2 0x38DB JUMPI PUSH1 0x40 MLOAD PUSH4 0xBC197C81 PUSH1 0xE0 SHL DUP2 MSTORE PUSH1 0x1 PUSH1 0x1 PUSH1 0xA0 SHL SUB DUP6 AND SWAP1 PUSH4 0xBC197C81 SWAP1 PUSH2 0x47CF SWAP1 DUP10 SWAP1 DUP10 SWAP1 DUP9 SWAP1 DUP9 SWAP1 DUP9 SWAP1 PUSH1 0x4 ADD PUSH2 0x5BA2 JUMP JUMPDEST PUSH1 0x20 PUSH1 0x40 MLOAD DUP1 DUP4 SUB DUP2 PUSH1 0x0 DUP8 GAS CALL SWAP3 POP POP POP DUP1 ISZERO PUSH2 0x480A JUMPI POP PUSH1 0x40 DUP1 MLOAD PUSH1 0x1F RETURNDATASIZE SWAP1 DUP2 ADD PUSH1 0x1F NOT AND DUP3 ADD SWAP1 SWAP3 MSTORE PUSH2 0x4807 SWAP2 DUP2 ADD SWAP1 PUSH2 0x5BF4 JUMP JUMPDEST PUSH1 0x1 JUMPDEST PUSH2 0x48B6 JUMPI PUSH2 0x4816 PUSH2 0x5C11 JUMP JUMPDEST DUP1 PUSH4 0x8C379A0 SUB PUSH2 0x484F JUMPI POP PUSH2 0x482A PUSH2 0x5C2D JUMP JUMPDEST DUP1 PUSH2 0x4835 JUMPI POP PUSH2 0x4851 JUMP JUMPDEST DUP1 PUSH1 0x40 MLOAD PUSH3 0x461BCD PUSH1 0xE5 SHL DUP2 MSTORE PUSH1 0x4 ADD PUSH2 0x8CF SWAP2 SWAP1 PUSH2 0x4DD3 JUMP JUMPDEST POP JUMPDEST PUSH1 0x40 MLOAD PUSH3 0x461BCD PUSH1 0xE5 SHL DUP2 MSTORE PUSH1 0x20 PUSH1 0x4 DUP3 ADD MSTORE PUSH1 0x34 PUSH1 0x24 DUP3 ADD MSTORE PUSH32 0x455243313135353A207472616E7366657220746F206E6F6E2045524331313535 PUSH1 0x44 DUP3 ADD MSTORE PUSH20 0x2932B1B2B4BB32B91034B6B83632B6B2B73A32B9 PUSH1 0x61 SHL PUSH1 0x64 DUP3 ADD MSTORE PUSH1 0x84 ADD PUSH2 0x8CF JUMP JUMPDEST PUSH1 0x1 PUSH1 0x1 PUSH1 0xE0 SHL SUB NOT DUP2 AND PUSH4 0xBC197C81 PUSH1 0xE0 SHL EQ PUSH2 0x41E1 JUMPI PUSH1 0x40 MLOAD PUSH3 0x461BCD PUSH1 0xE5 SHL DUP2 MSTORE PUSH1 0x4 ADD PUSH2 0x8CF SWAP1 PUSH2 0x5CB6 JUMP JUMPDEST PUSH1 0x1 PUSH1 0x1 PUSH1 0xA0 SHL SUB DUP4 AND PUSH2 0x4948 JUMPI PUSH1 0x40 MLOAD PUSH3 0x461BCD PUSH1 0xE5 SHL DUP2 MSTORE PUSH1 0x20 PUSH1 0x4 DUP3 ADD MSTORE PUSH1 0x23 PUSH1 0x24 DUP3 ADD MSTORE PUSH32 0x455243313135353A206275726E2066726F6D20746865207A65726F2061646472 PUSH1 0x44 DUP3 ADD MSTORE PUSH3 0x657373 PUSH1 0xE8 SHL PUSH1 0x64 DUP3 ADD MSTORE PUSH1 0x84 ADD PUSH2 0x8CF JUMP JUMPDEST CALLER PUSH2 0x4977 DUP2 DUP6 PUSH1 0x0 PUSH2 0x4959 DUP8 PUSH2 0x4A5F JUMP JUMPDEST PUSH2 0x4962 DUP8 PUSH2 0x4A5F JUMP JUMPDEST PUSH1 0x40 MLOAD DUP1 PUSH1 0x20 ADD PUSH1 0x40 MSTORE DUP1 PUSH1 0x0 DUP2 MSTORE POP PUSH2 0x4469 JUMP JUMPDEST PUSH1 0x0 DUP4 DUP2 MSTORE PUSH1 0x20 DUP2 DUP2 MSTORE PUSH1 0x40 DUP1 DUP4 KECCAK256 PUSH1 0x1 PUSH1 0x1 PUSH1 0xA0 SHL SUB DUP9 AND DUP5 MSTORE SWAP1 SWAP2 MSTORE SWAP1 KECCAK256 SLOAD DUP3 DUP2 LT ISZERO PUSH2 0x49F4 JUMPI PUSH1 0x40 MLOAD PUSH3 0x461BCD PUSH1 0xE5 SHL DUP2 MSTORE PUSH1 0x20 PUSH1 0x4 DUP3 ADD MSTORE PUSH1 0x24 DUP1 DUP3 ADD MSTORE PUSH32 0x455243313135353A206275726E20616D6F756E7420657863656564732062616C PUSH1 0x44 DUP3 ADD MSTORE PUSH4 0x616E6365 PUSH1 0xE0 SHL PUSH1 0x64 DUP3 ADD MSTORE PUSH1 0x84 ADD PUSH2 0x8CF JUMP JUMPDEST PUSH1 0x0 DUP5 DUP2 MSTORE PUSH1 0x20 DUP2 DUP2 MSTORE PUSH1 0x40 DUP1 DUP4 KECCAK256 PUSH1 0x1 PUSH1 0x1 PUSH1 0xA0 SHL SUB DUP10 DUP2 AND DUP1 DUP7 MSTORE SWAP2 DUP5 MSTORE DUP3 DUP6 KECCAK256 DUP9 DUP8 SUB SWAP1 SSTORE DUP3 MLOAD DUP10 DUP2 MSTORE SWAP4 DUP5 ADD DUP9 SWAP1 MSTORE SWAP1 SWAP3 SWAP1 DUP7 AND SWAP2 PUSH32 0xC3D58168C5AE7397731D063D5BBF3D657854427343F4C083240F7AACAA2D0F62 SWAP2 ADD PUSH1 0x40 MLOAD DUP1 SWAP2 SUB SWAP1 LOG4 POP POP POP POP POP JUMP JUMPDEST PUSH1 0x40 DUP1 MLOAD PUSH1 0x1 DUP1 DUP3 MSTORE DUP2 DUP4 ADD SWAP1 SWAP3 MSTORE PUSH1 0x60 SWAP2 PUSH1 0x0 SWAP2 SWAP1 PUSH1 0x20 DUP1 DUP4 ADD SWAP1 DUP1 CALLDATASIZE DUP4 CALLDATACOPY ADD SWAP1 POP POP SWAP1 POP DUP3 DUP2 PUSH1 0x0 DUP2 MLOAD DUP2 LT PUSH2 0x4A99 JUMPI PUSH2 0x4A99 PUSH2 0x59BB JUMP JUMPDEST PUSH1 0x20 SWAP1 DUP2 MUL SWAP2 SWAP1 SWAP2 ADD ADD MSTORE SWAP3 SWAP2 POP POP JUMP JUMPDEST PUSH1 0x1 PUSH1 0x1 PUSH1 0xA0 SHL SUB DUP5 AND EXTCODESIZE ISZERO PUSH2 0x38DB JUMPI PUSH1 0x40 MLOAD PUSH4 0xF23A6E61 PUSH1 0xE0 SHL DUP2 MSTORE PUSH1 0x1 PUSH1 0x1 PUSH1 0xA0 SHL SUB DUP6 AND SWAP1 PUSH4 0xF23A6E61 SWAP1 PUSH2 0x4AEE SWAP1 DUP10 SWAP1 DUP10 SWAP1 DUP9 SWAP1 DUP9 SWAP1 DUP9 SWAP1 PUSH1 0x4 ADD PUSH2 0x5CFE JUMP JUMPDEST PUSH1 0x20 PUSH1 0x40 MLOAD DUP1 DUP4 SUB DUP2 PUSH1 0x0 DUP8 GAS CALL SWAP3 POP POP POP DUP1 ISZERO PUSH2 0x4B29 JUMPI POP PUSH1 0x40 DUP1 MLOAD PUSH1 0x1F RETURNDATASIZE SWAP1 DUP2 ADD PUSH1 0x1F NOT AND DUP3 ADD SWAP1 SWAP3 MSTORE PUSH2 0x4B26 SWAP2 DUP2 ADD SWAP1 PUSH2 0x5BF4 JUMP JUMPDEST PUSH1 0x1 JUMPDEST PUSH2 0x4B35 JUMPI PUSH2 0x4816 PUSH2 0x5C11 JUMP JUMPDEST PUSH1 0x1 PUSH1 0x1 PUSH1 0xE0 SHL SUB NOT DUP2 AND PUSH4 0xF23A6E61 PUSH1 0xE0 SHL EQ PUSH2 0x41E1 JUMPI PUSH1 0x40 MLOAD PUSH3 0x461BCD PUSH1 0xE5 SHL DUP2 MSTORE PUSH1 0x4 ADD PUSH2 0x8CF SWAP1 PUSH2 0x5CB6 JUMP JUMPDEST PUSH1 0x60 DUP4 ISZERO PUSH2 0x4B74 JUMPI POP DUP2 PUSH2 0xDCA JUMP JUMPDEST DUP3 MLOAD ISZERO PUSH2 0x4B84 JUMPI DUP3 MLOAD DUP1 DUP5 PUSH1 0x20 ADD REVERT JUMPDEST DUP2 PUSH1 0x40 MLOAD PUSH3 0x461BCD PUSH1 0xE5 SHL DUP2 MSTORE PUSH1 0x4 ADD PUSH2 0x8CF SWAP2 SWAP1 PUSH2 0x4DD3 JUMP JUMPDEST PUSH1 0x40 DUP1 MLOAD PUSH2 0x160 DUP2 ADD DUP3 MSTORE PUSH1 0x0 DUP1 DUP3 MSTORE PUSH1 0x60 PUSH1 0x20 DUP4 ADD DUP2 SWAP1 MSTORE SWAP3 DUP3 ADD DUP2 SWAP1 MSTORE SWAP2 DUP2 ADD DUP3 SWAP1 MSTORE PUSH1 0x80 DUP2 ADD DUP3 SWAP1 MSTORE PUSH1 0xA0 DUP2 ADD DUP3 SWAP1 MSTORE PUSH1 0xC0 DUP2 ADD DUP3 SWAP1 MSTORE PUSH1 0xE0 DUP2 ADD DUP3 SWAP1 MSTORE PUSH2 0x100 DUP2 ADD DUP3 SWAP1 MSTORE PUSH2 0x120 DUP2 ADD DUP3 SWAP1 MSTORE PUSH2 0x140 DUP2 ADD SWAP2 SWAP1 SWAP2 MSTORE SWAP1 JUMP JUMPDEST PUSH1 0x1 PUSH1 0x1 PUSH1 0xA0 SHL SUB DUP2 AND DUP2 EQ PUSH2 0x9CC JUMPI PUSH1 0x0 DUP1 REVERT JUMPDEST PUSH1 0x0 DUP1 PUSH1 0x40 DUP4 DUP6 SUB SLT ISZERO PUSH2 0x4C23 JUMPI PUSH1 0x0 DUP1 REVERT JUMPDEST DUP3 CALLDATALOAD PUSH2 0x4C2E DUP2 PUSH2 0x4BFB JUMP JUMPDEST SWAP5 PUSH1 0x20 SWAP4 SWAP1 SWAP4 ADD CALLDATALOAD SWAP4 POP POP POP JUMP JUMPDEST PUSH1 0x1 PUSH1 0x1 PUSH1 0xE0 SHL SUB NOT DUP2 AND DUP2 EQ PUSH2 0x9CC JUMPI PUSH1 0x0 DUP1 REVERT JUMPDEST PUSH1 0x0 PUSH1 0x20 DUP3 DUP5 SUB SLT ISZERO PUSH2 0x4C64 JUMPI PUSH1 0x0 DUP1 REVERT JUMPDEST DUP2 CALLDATALOAD PUSH2 0xDCA DUP2 PUSH2 0x4C3C JUMP JUMPDEST DUP1 ISZERO ISZERO DUP2 EQ PUSH2 0x9CC JUMPI PUSH1 0x0 DUP1 REVERT JUMPDEST PUSH1 0x0 PUSH1 0x20 DUP3 DUP5 SUB SLT ISZERO PUSH2 0x4C8F JUMPI PUSH1 0x0 DUP1 REVERT JUMPDEST DUP2 CALLDATALOAD PUSH2 0xDCA DUP2 PUSH2 0x4C6F JUMP JUMPDEST PUSH4 0x4E487B71 PUSH1 0xE0 SHL PUSH1 0x0 MSTORE PUSH1 0x41 PUSH1 0x4 MSTORE PUSH1 0x24 PUSH1 0x0 REVERT JUMPDEST PUSH1 0x1F DUP3 ADD PUSH1 0x1F NOT AND DUP2 ADD PUSH1 0x1 PUSH1 0x1 PUSH1 0x40 SHL SUB DUP2 GT DUP3 DUP3 LT OR ISZERO PUSH2 0x4CD5 JUMPI PUSH2 0x4CD5 PUSH2 0x4C9A JUMP JUMPDEST PUSH1 0x40 MSTORE POP POP JUMP JUMPDEST PUSH1 0x0 DUP3 PUSH1 0x1F DUP4 ADD SLT PUSH2 0x4CED JUMPI PUSH1 0x0 DUP1 REVERT JUMPDEST DUP2 CALLDATALOAD PUSH1 0x1 PUSH1 0x1 PUSH1 0x40 SHL SUB DUP2 GT ISZERO PUSH2 0x4D06 JUMPI PUSH2 0x4D06 PUSH2 0x4C9A JUMP JUMPDEST PUSH1 0x40 MLOAD PUSH2 0x4D1D PUSH1 0x1F DUP4 ADD PUSH1 0x1F NOT AND PUSH1 0x20 ADD DUP3 PUSH2 0x4CB0 JUMP JUMPDEST DUP2 DUP2 MSTORE DUP5 PUSH1 0x20 DUP4 DUP7 ADD ADD GT ISZERO PUSH2 0x4D32 JUMPI PUSH1 0x0 DUP1 REVERT JUMPDEST DUP2 PUSH1 0x20 DUP6 ADD PUSH1 0x20 DUP4 ADD CALLDATACOPY PUSH1 0x0 SWAP2 DUP2 ADD PUSH1 0x20 ADD SWAP2 SWAP1 SWAP2 MSTORE SWAP4 SWAP3 POP POP POP JUMP JUMPDEST PUSH1 0x0 PUSH1 0x20 DUP3 DUP5 SUB SLT ISZERO PUSH2 0x4D61 JUMPI PUSH1 0x0 DUP1 REVERT JUMPDEST DUP2 CALLDATALOAD PUSH1 0x1 PUSH1 0x1 PUSH1 0x40 SHL SUB DUP2 GT ISZERO PUSH2 0x4D77 JUMPI PUSH1 0x0 DUP1 REVERT JUMPDEST PUSH2 0x3012 DUP5 DUP3 DUP6 ADD PUSH2 0x4CDC JUMP JUMPDEST PUSH1 0x0 JUMPDEST DUP4 DUP2 LT ISZERO PUSH2 0x4D9E JUMPI DUP2 DUP2 ADD MLOAD DUP4 DUP3 ADD MSTORE PUSH1 0x20 ADD PUSH2 0x4D86 JUMP JUMPDEST POP POP PUSH1 0x0 SWAP2 ADD MSTORE JUMP JUMPDEST PUSH1 0x0 DUP2 MLOAD DUP1 DUP5 MSTORE PUSH2 0x4DBF DUP2 PUSH1 0x20 DUP7 ADD PUSH1 0x20 DUP7 ADD PUSH2 0x4D83 JUMP JUMPDEST PUSH1 0x1F ADD PUSH1 0x1F NOT AND SWAP3 SWAP1 SWAP3 ADD PUSH1 0x20 ADD SWAP3 SWAP2 POP POP JUMP JUMPDEST PUSH1 0x20 DUP2 MSTORE PUSH1 0x0 PUSH2 0xDCA PUSH1 0x20 DUP4 ADD DUP5 PUSH2 0x4DA7 JUMP JUMPDEST DUP1 CALLDATALOAD PUSH1 0xFF DUP2 AND DUP2 EQ PUSH2 0x4DF7 JUMPI PUSH1 0x0 DUP1 REVERT JUMPDEST SWAP2 SWAP1 POP JUMP JUMPDEST PUSH1 0x0 DUP1 PUSH1 0x0 DUP1 PUSH1 0x0 PUSH1 0xA0 DUP7 DUP9 SUB SLT ISZERO PUSH2 0x4E14 JUMPI PUSH1 0x0 DUP1 REVERT JUMPDEST DUP6 CALLDATALOAD PUSH2 0x4E1F DUP2 PUSH2 0x4BFB JUMP JUMPDEST SWAP5 POP PUSH1 0x20 DUP7 ADD CALLDATALOAD PUSH1 0x1 PUSH1 0x1 PUSH1 0x40 SHL SUB DUP2 GT ISZERO PUSH2 0x4E3A JUMPI PUSH1 0x0 DUP1 REVERT JUMPDEST PUSH2 0x4E46 DUP9 DUP3 DUP10 ADD PUSH2 0x4CDC JUMP JUMPDEST SWAP5 POP POP PUSH1 0x40 DUP7 ADD CALLDATALOAD SWAP3 POP PUSH1 0x60 DUP7 ADD CALLDATALOAD SWAP2 POP PUSH2 0x4E63 PUSH1 0x80 DUP8 ADD PUSH2 0x4DE6 JUMP JUMPDEST SWAP1 POP SWAP3 SWAP6 POP SWAP3 SWAP6 SWAP1 SWAP4 POP JUMP JUMPDEST PUSH1 0x0 PUSH1 0x20 DUP3 DUP5 SUB SLT ISZERO PUSH2 0x4E81 JUMPI PUSH1 0x0 DUP1 REVERT JUMPDEST POP CALLDATALOAD SWAP2 SWAP1 POP JUMP JUMPDEST DUP1 CALLDATALOAD PUSH4 0xFFFFFFFF DUP2 AND DUP2 EQ PUSH2 0x4DF7 JUMPI PUSH1 0x0 DUP1 REVERT JUMPDEST PUSH1 0x0 DUP1 PUSH1 0x40 DUP4 DUP6 SUB SLT ISZERO PUSH2 0x4EAF JUMPI PUSH1 0x0 DUP1 REVERT JUMPDEST DUP3 CALLDATALOAD PUSH2 0x4EBA DUP2 PUSH2 0x4BFB JUMP JUMPDEST SWAP2 POP PUSH2 0x4EC8 PUSH1 0x20 DUP5 ADD PUSH2 0x4E88 JUMP JUMPDEST SWAP1 POP SWAP3 POP SWAP3 SWAP1 POP JUMP JUMPDEST DUP1 CALLDATALOAD PUSH1 0x1 PUSH1 0x1 PUSH1 0x40 SHL SUB DUP2 AND DUP2 EQ PUSH2 0x4DF7 JUMPI PUSH1 0x0 DUP1 REVERT JUMPDEST PUSH1 0x0 PUSH1 0x60 DUP3 DUP5 SUB SLT ISZERO PUSH2 0x4EFA JUMPI PUSH1 0x0 DUP1 REVERT JUMPDEST PUSH1 0x40 MLOAD PUSH1 0x60 DUP2 ADD DUP2 DUP2 LT PUSH1 0x1 PUSH1 0x1 PUSH1 0x40 SHL SUB DUP3 GT OR ISZERO PUSH2 0x4F1C JUMPI PUSH2 0x4F1C PUSH2 0x4C9A JUMP JUMPDEST DUP1 PUSH1 0x40 MSTORE POP DUP1 SWAP2 POP DUP3 CALLDATALOAD DUP2 MSTORE PUSH1 0x20 DUP4 ADD CALLDATALOAD PUSH1 0x20 DUP3 ADD MSTORE PUSH2 0x4F3E PUSH1 0x40 DUP5 ADD PUSH2 0x4DE6 JUMP JUMPDEST PUSH1 0x40 DUP3 ADD MSTORE POP SWAP3 SWAP2 POP POP JUMP JUMPDEST PUSH1 0x0 DUP1 PUSH1 0x0 DUP1 PUSH1 0xC0 DUP6 DUP8 SUB SLT ISZERO PUSH2 0x4F60 JUMPI PUSH1 0x0 DUP1 REVERT JUMPDEST PUSH2 0x4F69 DUP6 PUSH2 0x4E88 JUMP JUMPDEST SWAP4 POP PUSH1 0x20 DUP6 ADD CALLDATALOAD SWAP3 POP PUSH2 0x4F7E PUSH1 0x40 DUP7 ADD PUSH2 0x4ED1 JUMP JUMPDEST SWAP2 POP PUSH2 0x4F8D DUP7 PUSH1 0x60 DUP8 ADD PUSH2 0x4EE8 JUMP JUMPDEST SWAP1 POP SWAP3 SWAP6 SWAP2 SWAP5 POP SWAP3 POP JUMP JUMPDEST DUP1 CALLDATALOAD PUSH2 0xFFFF DUP2 AND DUP2 EQ PUSH2 0x4DF7 JUMPI PUSH1 0x0 DUP1 REVERT JUMPDEST PUSH1 0x0 DUP1 PUSH1 0x0 DUP1 PUSH1 0x0 DUP1 PUSH1 0x0 DUP1 PUSH2 0x100 DUP10 DUP12 SUB SLT ISZERO PUSH2 0x4FC7 JUMPI PUSH1 0x0 DUP1 REVERT JUMPDEST PUSH2 0x4FD0 DUP10 PUSH2 0x4F98 JUMP JUMPDEST SWAP8 POP PUSH1 0x20 DUP10 ADD CALLDATALOAD PUSH1 0x1 PUSH1 0x1 PUSH1 0x40 SHL SUB DUP2 GT ISZERO PUSH2 0x4FEB JUMPI PUSH1 0x0 DUP1 REVERT JUMPDEST PUSH2 0x4FF7 DUP12 DUP3 DUP13 ADD PUSH2 0x4CDC JUMP JUMPDEST SWAP8 POP POP PUSH1 0x40 DUP10 ADD CALLDATALOAD SWAP6 POP PUSH1 0x60 DUP10 ADD CALLDATALOAD PUSH2 0x500F DUP2 PUSH2 0x4C6F JUMP JUMPDEST SWAP5 POP PUSH1 0x80 DUP10 ADD CALLDATALOAD PUSH1 0x1 PUSH1 0x1 PUSH1 0x80 SHL SUB DUP2 AND DUP2 EQ PUSH2 0x502B JUMPI PUSH1 0x0 DUP1 REVERT JUMPDEST SWAP4 POP PUSH2 0x5039 PUSH1 0xA0 DUP11 ADD PUSH2 0x4F98 JUMP JUMPDEST SWAP3 POP PUSH1 0xC0 DUP10 ADD CALLDATALOAD SWAP2 POP PUSH1 0xE0 DUP10 ADD CALLDATALOAD SWAP1 POP SWAP3 SWAP6 SWAP9 POP SWAP3 SWAP6 SWAP9 SWAP1 SWAP4 SWAP7 POP JUMP JUMPDEST PUSH1 0x0 PUSH1 0x20 DUP3 DUP5 SUB SLT ISZERO PUSH2 0x5068 JUMPI PUSH1 0x0 DUP1 REVERT JUMPDEST DUP2 CALLDATALOAD PUSH2 0xDCA DUP2 PUSH2 0x4BFB JUMP JUMPDEST PUSH1 0x0 PUSH1 0x1 PUSH1 0x1 PUSH1 0x40 SHL SUB DUP3 GT ISZERO PUSH2 0x508C JUMPI PUSH2 0x508C PUSH2 0x4C9A JUMP JUMPDEST POP PUSH1 0x5 SHL PUSH1 0x20 ADD SWAP1 JUMP JUMPDEST PUSH1 0x0 DUP3 PUSH1 0x1F DUP4 ADD SLT PUSH2 0x50A7 JUMPI PUSH1 0x0 DUP1 REVERT JUMPDEST DUP2 CALLDATALOAD PUSH1 0x20 PUSH2 0x50B4 DUP3 PUSH2 0x5073 JUMP JUMPDEST PUSH1 0x40 MLOAD PUSH2 0x50C1 DUP3 DUP3 PUSH2 0x4CB0 JUMP JUMPDEST DUP4 DUP2 MSTORE PUSH1 0x5 SWAP4 SWAP1 SWAP4 SHL DUP6 ADD DUP3 ADD SWAP3 DUP3 DUP2 ADD SWAP2 POP DUP7 DUP5 GT ISZERO PUSH2 0x50E1 JUMPI PUSH1 0x0 DUP1 REVERT JUMPDEST DUP3 DUP7 ADD JUMPDEST DUP5 DUP2 LT ISZERO PUSH2 0x50FC JUMPI DUP1 CALLDATALOAD DUP4 MSTORE SWAP2 DUP4 ADD SWAP2 DUP4 ADD PUSH2 0x50E5 JUMP JUMPDEST POP SWAP7 SWAP6 POP POP POP POP POP POP JUMP JUMPDEST PUSH1 0x0 DUP1 PUSH1 0x0 DUP1 PUSH1 0x0 PUSH1 0xA0 DUP7 DUP9 SUB SLT ISZERO PUSH2 0x511F JUMPI PUSH1 0x0 DUP1 REVERT JUMPDEST DUP6 CALLDATALOAD PUSH2 0x512A DUP2 PUSH2 0x4BFB JUMP JUMPDEST SWAP5 POP PUSH1 0x20 DUP7 ADD CALLDATALOAD PUSH2 0x513A DUP2 PUSH2 0x4BFB JUMP JUMPDEST SWAP4 POP PUSH1 0x40 DUP7 ADD CALLDATALOAD PUSH1 0x1 PUSH1 0x1 PUSH1 0x40 SHL SUB DUP1 DUP3 GT ISZERO PUSH2 0x5156 JUMPI PUSH1 0x0 DUP1 REVERT JUMPDEST PUSH2 0x5162 DUP10 DUP4 DUP11 ADD PUSH2 0x5096 JUMP JUMPDEST SWAP5 POP PUSH1 0x60 DUP9 ADD CALLDATALOAD SWAP2 POP DUP1 DUP3 GT ISZERO PUSH2 0x5178 JUMPI PUSH1 0x0 DUP1 REVERT JUMPDEST PUSH2 0x5184 DUP10 DUP4 DUP11 ADD PUSH2 0x5096 JUMP JUMPDEST SWAP4 POP PUSH1 0x80 DUP9 ADD CALLDATALOAD SWAP2 POP DUP1 DUP3 GT ISZERO PUSH2 0x519A JUMPI PUSH1 0x0 DUP1 REVERT JUMPDEST POP PUSH2 0x51A7 DUP9 DUP3 DUP10 ADD PUSH2 0x4CDC JUMP JUMPDEST SWAP2 POP POP SWAP3 SWAP6 POP SWAP3 SWAP6 SWAP1 SWAP4 POP JUMP JUMPDEST PUSH1 0x0 PUSH1 0x20 DUP3 DUP5 SUB SLT ISZERO PUSH2 0x51C6 JUMPI PUSH1 0x0 DUP1 REVERT JUMPDEST PUSH2 0xDCA DUP3 PUSH2 0x4E88 JUMP JUMPDEST PUSH1 0x0 DUP1 PUSH1 0x40 DUP4 DUP6 SUB SLT ISZERO PUSH2 0x51E2 JUMPI PUSH1 0x0 DUP1 REVERT JUMPDEST DUP3 CALLDATALOAD SWAP2 POP PUSH1 0x20 DUP4 ADD CALLDATALOAD PUSH1 0x1 PUSH1 0x1 PUSH1 0x40 SHL SUB DUP2 GT ISZERO PUSH2 0x51FF JUMPI PUSH1 0x0 DUP1 REVERT JUMPDEST PUSH2 0x520B DUP6 DUP3 DUP7 ADD PUSH2 0x4CDC JUMP JUMPDEST SWAP2 POP POP SWAP3 POP SWAP3 SWAP1 POP JUMP JUMPDEST PUSH1 0x0 DUP1 PUSH1 0x0 PUSH1 0x60 DUP5 DUP7 SUB SLT ISZERO PUSH2 0x522A JUMPI PUSH1 0x0 DUP1 REVERT JUMPDEST PUSH2 0x5233 DUP5 PUSH2 0x4E88 JUMP JUMPDEST SWAP3 POP PUSH2 0x5241 PUSH1 0x20 DUP6 ADD PUSH2 0x4E88 JUMP JUMPDEST SWAP2 POP PUSH1 0x40 DUP5 ADD CALLDATALOAD PUSH2 0x5251 DUP2 PUSH2 0x4BFB JUMP JUMPDEST DUP1 SWAP2 POP POP SWAP3 POP SWAP3 POP SWAP3 JUMP JUMPDEST PUSH1 0x0 DUP1 PUSH1 0x0 DUP1 PUSH1 0x80 DUP6 DUP8 SUB SLT ISZERO PUSH2 0x5272 JUMPI PUSH1 0x0 DUP1 REVERT JUMPDEST DUP5 CALLDATALOAD SWAP4 POP PUSH2 0x5282 PUSH1 0x20 DUP7 ADD PUSH2 0x4ED1 JUMP JUMPDEST SWAP3 POP PUSH2 0x5290 PUSH1 0x40 DUP7 ADD PUSH2 0x4ED1 JUMP JUMPDEST SWAP4 SWAP7 SWAP3 SWAP6 POP SWAP3 SWAP4 PUSH1 0x60 ADD CALLDATALOAD SWAP3 POP POP JUMP JUMPDEST PUSH1 0x0 DUP1 PUSH1 0x40 DUP4 DUP6 SUB SLT ISZERO PUSH2 0x52B3 JUMPI PUSH1 0x0 DUP1 REVERT JUMPDEST DUP3 CALLDATALOAD PUSH1 0x1 PUSH1 0x1 PUSH1 0x40 SHL SUB DUP1 DUP3 GT ISZERO PUSH2 0x52CA JUMPI PUSH1 0x0 DUP1 REVERT JUMPDEST DUP2 DUP6 ADD SWAP2 POP DUP6 PUSH1 0x1F DUP4 ADD SLT PUSH2 0x52DE JUMPI PUSH1 0x0 DUP1 REVERT JUMPDEST DUP2 CALLDATALOAD PUSH1 0x20 PUSH2 0x52EB DUP3 PUSH2 0x5073 JUMP JUMPDEST PUSH1 0x40 MLOAD PUSH2 0x52F8 DUP3 DUP3 PUSH2 0x4CB0 JUMP JUMPDEST DUP4 DUP2 MSTORE PUSH1 0x5 SWAP4 SWAP1 SWAP4 SHL DUP6 ADD DUP3 ADD SWAP3 DUP3 DUP2 ADD SWAP2 POP DUP10 DUP5 GT ISZERO PUSH2 0x5318 JUMPI PUSH1 0x0 DUP1 REVERT JUMPDEST SWAP5 DUP3 ADD SWAP5 JUMPDEST DUP4 DUP7 LT ISZERO PUSH2 0x533F JUMPI DUP6 CALLDATALOAD PUSH2 0x5330 DUP2 PUSH2 0x4BFB JUMP JUMPDEST DUP3 MSTORE SWAP5 DUP3 ADD SWAP5 SWAP1 DUP3 ADD SWAP1 PUSH2 0x531D JUMP JUMPDEST SWAP7 POP POP DUP7 ADD CALLDATALOAD SWAP3 POP POP DUP1 DUP3 GT ISZERO PUSH2 0x5355 JUMPI PUSH1 0x0 DUP1 REVERT JUMPDEST POP PUSH2 0x520B DUP6 DUP3 DUP7 ADD PUSH2 0x5096 JUMP JUMPDEST PUSH1 0x0 DUP2 MLOAD DUP1 DUP5 MSTORE PUSH1 0x20 DUP1 DUP6 ADD SWAP5 POP DUP1 DUP5 ADD PUSH1 0x0 JUMPDEST DUP4 DUP2 LT ISZERO PUSH2 0x5392 JUMPI DUP2 MLOAD DUP8 MSTORE SWAP6 DUP3 ADD SWAP6 SWAP1 DUP3 ADD SWAP1 PUSH1 0x1 ADD PUSH2 0x5376 JUMP JUMPDEST POP SWAP5 SWAP6 SWAP5 POP POP POP POP POP JUMP JUMPDEST PUSH1 0x20 DUP2 MSTORE PUSH1 0x0 PUSH2 0xDCA PUSH1 0x20 DUP4 ADD DUP5 PUSH2 0x5362 JUMP JUMPDEST PUSH1 0x0 DUP1 PUSH1 0x0 DUP1 PUSH1 0x0 PUSH1 0xE0 DUP7 DUP9 SUB SLT ISZERO PUSH2 0x53C8 JUMPI PUSH1 0x0 DUP1 REVERT JUMPDEST PUSH2 0x53D1 DUP7 PUSH2 0x4E88 JUMP JUMPDEST SWAP5 POP PUSH2 0x53DF PUSH1 0x20 DUP8 ADD PUSH2 0x4E88 JUMP JUMPDEST SWAP4 POP PUSH1 0x40 DUP7 ADD CALLDATALOAD PUSH2 0x53EF DUP2 PUSH2 0x4BFB JUMP JUMPDEST SWAP3 POP PUSH2 0x53FD PUSH1 0x60 DUP8 ADD PUSH2 0x4ED1 JUMP JUMPDEST SWAP2 POP PUSH2 0x4E63 DUP8 PUSH1 0x80 DUP9 ADD PUSH2 0x4EE8 JUMP JUMPDEST PUSH1 0x0 DUP1 PUSH1 0x40 DUP4 DUP6 SUB SLT ISZERO PUSH2 0x541F JUMPI PUSH1 0x0 DUP1 REVERT JUMPDEST PUSH2 0x4EBA DUP4 PUSH2 0x4E88 JUMP JUMPDEST PUSH1 0x20 DUP2 MSTORE PUSH2 0x543F PUSH1 0x20 DUP3 ADD DUP4 MLOAD PUSH4 0xFFFFFFFF AND SWAP1 MSTORE JUMP JUMPDEST PUSH1 0x0 PUSH1 0x20 DUP4 ADD MLOAD PUSH2 0x160 DUP1 PUSH1 0x40 DUP6 ADD MSTORE PUSH2 0x545D PUSH2 0x180 DUP6 ADD DUP4 PUSH2 0x4DA7 JUMP JUMPDEST SWAP2 POP PUSH1 0x40 DUP6 ADD MLOAD PUSH2 0x5479 PUSH1 0x60 DUP7 ADD DUP3 PUSH1 0x1 PUSH1 0x1 PUSH1 0xA0 SHL SUB AND SWAP1 MSTORE JUMP JUMPDEST POP PUSH1 0x60 DUP6 ADD MLOAD PUSH2 0xFFFF DUP2 AND PUSH1 0x80 DUP7 ADD MSTORE POP PUSH1 0x80 DUP6 ADD MLOAD PUSH1 0xA0 DUP6 ADD MSTORE PUSH1 0xA0 DUP6 ADD MLOAD PUSH2 0x54A7 PUSH1 0xC0 DUP7 ADD DUP3 ISZERO ISZERO SWAP1 MSTORE JUMP JUMPDEST POP PUSH1 0xC0 DUP6 ADD MLOAD PUSH1 0x1 PUSH1 0x1 PUSH1 0xF8 SHL SUB NOT DUP2 AND PUSH1 0xE0 DUP7 ADD MSTORE POP PUSH1 0xE0 DUP6 ADD MLOAD PUSH2 0x100 PUSH2 0x54D5 DUP2 DUP8 ADD DUP4 PUSH2 0xFFFF AND SWAP1 MSTORE JUMP JUMPDEST DUP7 ADD MLOAD SWAP1 POP PUSH2 0x120 PUSH2 0x54F1 DUP7 DUP3 ADD DUP4 PUSH1 0x1 PUSH1 0x1 PUSH1 0x80 SHL SUB AND SWAP1 MSTORE JUMP JUMPDEST DUP7 ADD MLOAD PUSH2 0x140 DUP7 DUP2 ADD SWAP2 SWAP1 SWAP2 MSTORE SWAP1 SWAP6 ADD MLOAD SWAP4 ADD SWAP3 SWAP1 SWAP3 MSTORE POP SWAP2 SWAP1 POP JUMP JUMPDEST PUSH1 0x0 DUP1 PUSH1 0x40 DUP4 DUP6 SUB SLT ISZERO PUSH2 0x5521 JUMPI PUSH1 0x0 DUP1 REVERT JUMPDEST DUP3 CALLDATALOAD PUSH2 0x552C DUP2 PUSH2 0x4BFB JUMP JUMPDEST SWAP2 POP PUSH1 0x20 DUP4 ADD CALLDATALOAD PUSH2 0x553C DUP2 PUSH2 0x4C6F JUMP JUMPDEST DUP1 SWAP2 POP POP SWAP3 POP SWAP3 SWAP1 POP JUMP JUMPDEST PUSH1 0x0 DUP1 PUSH1 0x40 DUP4 DUP6 SUB SLT ISZERO PUSH2 0x555A JUMPI PUSH1 0x0 DUP1 REVERT JUMPDEST PUSH2 0x5563 DUP4 PUSH2 0x4E88 JUMP JUMPDEST SWAP2 POP PUSH1 0x20 DUP4 ADD CALLDATALOAD PUSH1 0x1 PUSH1 0x1 PUSH1 0xF8 SHL SUB NOT DUP2 AND DUP2 EQ PUSH2 0x553C JUMPI PUSH1 0x0 DUP1 REVERT JUMPDEST PUSH1 0x0 DUP1 PUSH1 0x40 DUP4 DUP6 SUB SLT ISZERO PUSH2 0x5593 JUMPI PUSH1 0x0 DUP1 REVERT JUMPDEST DUP3 CALLDATALOAD SWAP2 POP PUSH1 0x20 DUP4 ADD CALLDATALOAD PUSH2 0x553C DUP2 PUSH2 0x4BFB JUMP JUMPDEST PUSH1 0x0 DUP1 PUSH1 0x40 DUP4 DUP6 SUB SLT ISZERO PUSH2 0x55B8 JUMPI PUSH1 0x0 DUP1 REVERT JUMPDEST DUP3 CALLDATALOAD PUSH2 0x55C3 DUP2 PUSH2 0x4BFB JUMP JUMPDEST SWAP2 POP PUSH1 0x20 DUP4 ADD CALLDATALOAD PUSH2 0x553C DUP2 PUSH2 0x4BFB JUMP JUMPDEST PUSH1 0x0 DUP1 PUSH1 0x0 DUP1 PUSH1 0x0 PUSH1 0xA0 DUP7 DUP9 SUB SLT ISZERO PUSH2 0x55EB JUMPI PUSH1 0x0 DUP1 REVERT JUMPDEST DUP6 CALLDATALOAD PUSH2 0x55F6 DUP2 PUSH2 0x4BFB JUMP JUMPDEST SWAP5 POP PUSH1 0x20 DUP7 ADD CALLDATALOAD PUSH2 0x5606 DUP2 PUSH2 0x4BFB JUMP JUMPDEST SWAP4 POP PUSH1 0x40 DUP7 ADD CALLDATALOAD SWAP3 POP PUSH1 0x60 DUP7 ADD CALLDATALOAD SWAP2 POP PUSH1 0x80 DUP7 ADD CALLDATALOAD PUSH1 0x1 PUSH1 0x1 PUSH1 0x40 SHL SUB DUP2 GT ISZERO PUSH2 0x562F JUMPI PUSH1 0x0 DUP1 REVERT JUMPDEST PUSH2 0x51A7 DUP9 DUP3 DUP10 ADD PUSH2 0x4CDC JUMP JUMPDEST PUSH1 0x20 DUP1 DUP3 MSTORE DUP2 DUP2 ADD MSTORE PUSH32 0x4F776E61626C653A2063616C6C6572206973206E6F7420746865206F776E6572 PUSH1 0x40 DUP3 ADD MSTORE PUSH1 0x60 ADD SWAP1 JUMP JUMPDEST PUSH1 0x1 DUP2 DUP2 SHR SWAP1 DUP3 AND DUP1 PUSH2 0x5684 JUMPI PUSH1 0x7F DUP3 AND SWAP2 POP JUMPDEST PUSH1 0x20 DUP3 LT DUP2 SUB PUSH2 0xDD1 JUMPI PUSH4 0x4E487B71 PUSH1 0xE0 SHL PUSH1 0x0 MSTORE PUSH1 0x22 PUSH1 0x4 MSTORE PUSH1 0x24 PUSH1 0x0 REVERT JUMPDEST PUSH1 0x1 PUSH1 0x1 PUSH1 0xA0 SHL SUB DUP5 DUP2 AND DUP3 MSTORE DUP4 AND PUSH1 0x20 DUP3 ADD MSTORE PUSH1 0x60 PUSH1 0x40 DUP3 ADD DUP2 SWAP1 MSTORE PUSH1 0x0 SWAP1 PUSH2 0x56D0 SWAP1 DUP4 ADD DUP5 PUSH2 0x4DA7 JUMP JUMPDEST SWAP6 SWAP5 POP POP POP POP POP JUMP JUMPDEST PUSH1 0x0 DUP4 MLOAD PUSH2 0x56EB DUP2 DUP5 PUSH1 0x20 DUP9 ADD PUSH2 0x4D83 JUMP JUMPDEST PUSH1 0x60 SWAP4 SWAP1 SWAP4 SHL PUSH1 0x1 PUSH1 0x1 PUSH1 0x60 SHL SUB NOT AND SWAP2 SWAP1 SWAP3 ADD SWAP1 DUP2 MSTORE PUSH1 0x14 ADD SWAP3 SWAP2 POP POP JUMP JUMPDEST PUSH1 0x0 DUP3 MLOAD PUSH2 0x571D DUP2 DUP5 PUSH1 0x20 DUP8 ADD PUSH2 0x4D83 JUMP JUMPDEST SWAP2 SWAP1 SWAP2 ADD SWAP3 SWAP2 POP POP JUMP JUMPDEST PUSH1 0x20 DUP1 DUP3 MSTORE PUSH1 0x8 SWAP1 DUP3 ADD MSTORE PUSH8 0x85C1C9BDA9958DD PUSH1 0xC2 SHL PUSH1 0x40 DUP3 ADD MSTORE PUSH1 0x60 ADD SWAP1 JUMP JUMPDEST PUSH4 0x4E487B71 PUSH1 0xE0 SHL PUSH1 0x0 MSTORE PUSH1 0x11 PUSH1 0x4 MSTORE PUSH1 0x24 PUSH1 0x0 REVERT JUMPDEST DUP1 DUP3 MUL DUP2 ISZERO DUP3 DUP3 DIV DUP5 EQ OR PUSH2 0x8FB JUMPI PUSH2 0x8FB PUSH2 0x5749 JUMP JUMPDEST DUP1 DUP3 ADD DUP1 DUP3 GT ISZERO PUSH2 0x8FB JUMPI PUSH2 0x8FB PUSH2 0x5749 JUMP JUMPDEST PUSH1 0x20 DUP1 DUP3 MSTORE PUSH1 0x1F SWAP1 DUP3 ADD MSTORE PUSH32 0x5265656E7472616E637947756172643A207265656E7472616E742063616C6C00 PUSH1 0x40 DUP3 ADD MSTORE PUSH1 0x60 ADD SWAP1 JUMP JUMPDEST PUSH4 0x4E487B71 PUSH1 0xE0 SHL PUSH1 0x0 MSTORE PUSH1 0x12 PUSH1 0x4 MSTORE PUSH1 0x24 PUSH1 0x0 REVERT JUMPDEST PUSH1 0x0 PUSH1 0x1 PUSH1 0x1 PUSH1 0x40 SHL SUB DUP1 DUP5 AND DUP1 PUSH2 0x57F0 JUMPI PUSH2 0x57F0 PUSH2 0x57C0 JUMP JUMPDEST SWAP3 AND SWAP2 SWAP1 SWAP2 DIV SWAP3 SWAP2 POP POP JUMP JUMPDEST PUSH1 0x20 DUP1 DUP3 MSTORE PUSH1 0x7 SWAP1 DUP3 ADD MSTORE PUSH7 0x78206E6F6E6365 PUSH1 0xC8 SHL PUSH1 0x40 DUP3 ADD MSTORE PUSH1 0x60 ADD SWAP1 JUMP JUMPDEST PUSH4 0xFFFFFFFF DUP2 DUP2 AND DUP4 DUP3 AND ADD SWAP1 DUP1 DUP3 GT ISZERO PUSH2 0x583A JUMPI PUSH2 0x583A PUSH2 0x5749 JUMP JUMPDEST POP SWAP3 SWAP2 POP POP JUMP JUMPDEST PUSH1 0x1F DUP3 GT ISZERO PUSH2 0x36C5 JUMPI PUSH1 0x0 DUP2 DUP2 MSTORE PUSH1 0x20 DUP2 KECCAK256 PUSH1 0x1F DUP6 ADD PUSH1 0x5 SHR DUP2 ADD PUSH1 0x20 DUP7 LT ISZERO PUSH2 0x5868 JUMPI POP DUP1 JUMPDEST PUSH1 0x1F DUP6 ADD PUSH1 0x5 SHR DUP3 ADD SWAP2 POP JUMPDEST DUP2 DUP2 LT ISZERO PUSH2 0x38DB JUMPI DUP3 DUP2 SSTORE PUSH1 0x1 ADD PUSH2 0x5874 JUMP JUMPDEST DUP2 MLOAD PUSH1 0x1 PUSH1 0x1 PUSH1 0x40 SHL SUB DUP2 GT ISZERO PUSH2 0x58A0 JUMPI PUSH2 0x58A0 PUSH2 0x4C9A JUMP JUMPDEST PUSH2 0x58B4 DUP2 PUSH2 0x58AE DUP5 SLOAD PUSH2 0x5670 JUMP JUMPDEST DUP5 PUSH2 0x5841 JUMP JUMPDEST PUSH1 0x20 DUP1 PUSH1 0x1F DUP4 GT PUSH1 0x1 DUP2 EQ PUSH2 0x58E9 JUMPI PUSH1 0x0 DUP5 ISZERO PUSH2 0x58D1 JUMPI POP DUP6 DUP4 ADD MLOAD JUMPDEST PUSH1 0x0 NOT PUSH1 0x3 DUP7 SWAP1 SHL SHR NOT AND PUSH1 0x1 DUP6 SWAP1 SHL OR DUP6 SSTORE PUSH2 0x38DB JUMP JUMPDEST PUSH1 0x0 DUP6 DUP2 MSTORE PUSH1 0x20 DUP2 KECCAK256 PUSH1 0x1F NOT DUP7 AND SWAP2 JUMPDEST DUP3 DUP2 LT ISZERO PUSH2 0x5918 JUMPI DUP9 DUP7 ADD MLOAD DUP3 SSTORE SWAP5 DUP5 ADD SWAP5 PUSH1 0x1 SWAP1 SWAP2 ADD SWAP1 DUP5 ADD PUSH2 0x58F9 JUMP JUMPDEST POP DUP6 DUP3 LT ISZERO PUSH2 0x5936 JUMPI DUP8 DUP6 ADD MLOAD PUSH1 0x0 NOT PUSH1 0x3 DUP9 SWAP1 SHL PUSH1 0xF8 AND SHR NOT AND DUP2 SSTORE JUMPDEST POP POP POP POP POP PUSH1 0x1 SWAP1 DUP2 SHL ADD SWAP1 SSTORE POP JUMP JUMPDEST PUSH1 0x20 DUP1 DUP3 MSTORE PUSH1 0x6 SWAP1 DUP3 ADD MSTORE PUSH6 0x1C185D5CD959 PUSH1 0xD2 SHL PUSH1 0x40 DUP3 ADD MSTORE PUSH1 0x60 ADD SWAP1 JUMP JUMPDEST PUSH1 0x20 DUP1 DUP3 MSTORE PUSH1 0x7 SWAP1 DUP3 ADD MSTORE PUSH7 0x21616374697665 PUSH1 0xC8 SHL PUSH1 0x40 DUP3 ADD MSTORE PUSH1 0x60 ADD SWAP1 JUMP JUMPDEST PUSH1 0x1 PUSH1 0x1 PUSH1 0x40 SHL SUB DUP3 DUP2 AND DUP3 DUP3 AND SUB SWAP1 DUP1 DUP3 GT ISZERO PUSH2 0x583A JUMPI PUSH2 0x583A PUSH2 0x5749 JUMP JUMPDEST PUSH1 0x0 DUP3 PUSH2 0x59B6 JUMPI PUSH2 0x59B6 PUSH2 0x57C0 JUMP JUMPDEST POP DIV SWAP1 JUMP JUMPDEST PUSH4 0x4E487B71 PUSH1 0xE0 SHL PUSH1 0x0 MSTORE PUSH1 0x32 PUSH1 0x4 MSTORE PUSH1 0x24 PUSH1 0x0 REVERT JUMPDEST PUSH1 0x0 PUSH1 0x1 DUP3 ADD PUSH2 0x59E3 JUMPI PUSH2 0x59E3 PUSH2 0x5749 JUMP JUMPDEST POP PUSH1 0x1 ADD SWAP1 JUMP JUMPDEST PUSH1 0x0 PUSH1 0x20 DUP3 DUP5 SUB SLT ISZERO PUSH2 0x59FC JUMPI PUSH1 0x0 DUP1 REVERT JUMPDEST POP MLOAD SWAP2 SWAP1 POP JUMP JUMPDEST PUSH1 0x20 DUP1 DUP3 MSTORE PUSH1 0x9 SWAP1 DUP3 ADD MSTORE PUSH9 0x18985B185B98D9480F PUSH1 0xBA SHL PUSH1 0x40 DUP3 ADD MSTORE PUSH1 0x60 ADD SWAP1 JUMP JUMPDEST PUSH1 0x1 PUSH1 0x1 PUSH1 0x80 SHL SUB DUP2 DUP2 AND DUP4 DUP3 AND ADD SWAP1 DUP1 DUP3 GT ISZERO PUSH2 0x583A JUMPI PUSH2 0x583A PUSH2 0x5749 JUMP JUMPDEST PUSH1 0x20 DUP1 DUP3 MSTORE PUSH1 0x4 SWAP1 DUP3 ADD MSTORE PUSH4 0x21717479 PUSH1 0xE0 SHL PUSH1 0x40 DUP3 ADD MSTORE PUSH1 0x60 ADD SWAP1 JUMP JUMPDEST PUSH4 0xFFFFFFFF DUP3 DUP2 AND DUP3 DUP3 AND SUB SWAP1 DUP1 DUP3 GT ISZERO PUSH2 0x583A JUMPI PUSH2 0x583A PUSH2 0x5749 JUMP JUMPDEST PUSH1 0x0 PUSH1 0x20 DUP3 DUP5 SUB SLT ISZERO PUSH2 0x5A93 JUMPI PUSH1 0x0 DUP1 REVERT JUMPDEST DUP2 MLOAD PUSH2 0xDCA DUP2 PUSH2 0x4BFB JUMP JUMPDEST PUSH1 0x20 DUP1 DUP3 MSTORE PUSH1 0x25 SWAP1 DUP3 ADD MSTORE PUSH32 0x455243313135353A207472616E7366657220746F20746865207A65726F206164 PUSH1 0x40 DUP3 ADD MSTORE PUSH5 0x6472657373 PUSH1 0xD8 SHL PUSH1 0x60 DUP3 ADD MSTORE PUSH1 0x80 ADD SWAP1 JUMP JUMPDEST PUSH1 0x20 DUP1 DUP3 MSTORE PUSH1 0x2A SWAP1 DUP3 ADD MSTORE PUSH32 0x455243313135353A20696E73756666696369656E742062616C616E636520666F PUSH1 0x40 DUP3 ADD MSTORE PUSH10 0x39103A3930B739B332B9 PUSH1 0xB1 SHL PUSH1 0x60 DUP3 ADD MSTORE PUSH1 0x80 ADD SWAP1 JUMP JUMPDEST PUSH1 0x40 DUP2 MSTORE PUSH1 0x0 PUSH2 0x5B40 PUSH1 0x40 DUP4 ADD DUP6 PUSH2 0x5362 JUMP JUMPDEST DUP3 DUP2 SUB PUSH1 0x20 DUP5 ADD MSTORE PUSH2 0x56D0 DUP2 DUP6 PUSH2 0x5362 JUMP JUMPDEST DUP2 DUP2 SUB DUP2 DUP2 GT ISZERO PUSH2 0x8FB JUMPI PUSH2 0x8FB PUSH2 0x5749 JUMP JUMPDEST PUSH1 0x1 PUSH1 0x1 PUSH1 0x80 SHL SUB DUP3 DUP2 AND DUP3 DUP3 AND SUB SWAP1 DUP1 DUP3 GT ISZERO PUSH2 0x583A JUMPI PUSH2 0x583A PUSH2 0x5749 JUMP JUMPDEST PUSH1 0x0 PUSH1 0x20 DUP3 DUP5 SUB SLT ISZERO PUSH2 0x5B97 JUMPI PUSH1 0x0 DUP1 REVERT JUMPDEST DUP2 MLOAD PUSH2 0xDCA DUP2 PUSH2 0x4C6F JUMP JUMPDEST PUSH1 0x1 PUSH1 0x1 PUSH1 0xA0 SHL SUB DUP7 DUP2 AND DUP3 MSTORE DUP6 AND PUSH1 0x20 DUP3 ADD MSTORE PUSH1 0xA0 PUSH1 0x40 DUP3 ADD DUP2 SWAP1 MSTORE PUSH1 0x0 SWAP1 PUSH2 0x5BCE SWAP1 DUP4 ADD DUP7 PUSH2 0x5362 JUMP JUMPDEST DUP3 DUP2 SUB PUSH1 0x60 DUP5 ADD MSTORE PUSH2 0x5BE0 DUP2 DUP7 PUSH2 0x5362 JUMP JUMPDEST SWAP1 POP DUP3 DUP2 SUB PUSH1 0x80 DUP5 ADD MSTORE PUSH2 0xC3B DUP2 DUP6 PUSH2 0x4DA7 JUMP JUMPDEST PUSH1 0x0 PUSH1 0x20 DUP3 DUP5 SUB SLT ISZERO PUSH2 0x5C06 JUMPI PUSH1 0x0 DUP1 REVERT JUMPDEST DUP2 MLOAD PUSH2 0xDCA DUP2 PUSH2 0x4C3C JUMP JUMPDEST PUSH1 0x0 PUSH1 0x3 RETURNDATASIZE GT ISZERO PUSH2 0x5C2A JUMPI PUSH1 0x4 PUSH1 0x0 DUP1 RETURNDATACOPY POP PUSH1 0x0 MLOAD PUSH1 0xE0 SHR JUMPDEST SWAP1 JUMP JUMPDEST PUSH1 0x0 PUSH1 0x44 RETURNDATASIZE LT ISZERO PUSH2 0x5C3B JUMPI SWAP1 JUMP JUMPDEST PUSH1 0x40 MLOAD PUSH1 0x3 NOT RETURNDATASIZE DUP2 ADD PUSH1 0x4 DUP4 RETURNDATACOPY DUP2 MLOAD RETURNDATASIZE PUSH1 0x1 PUSH1 0x1 PUSH1 0x40 SHL SUB DUP2 PUSH1 0x24 DUP5 ADD GT DUP2 DUP5 GT OR ISZERO PUSH2 0x5C6A JUMPI POP POP POP POP POP SWAP1 JUMP JUMPDEST DUP3 DUP6 ADD SWAP2 POP DUP2 MLOAD DUP2 DUP2 GT ISZERO PUSH2 0x5C82 JUMPI POP POP POP POP POP POP SWAP1 JUMP JUMPDEST DUP5 RETURNDATASIZE DUP8 ADD ADD PUSH1 0x20 DUP3 DUP6 ADD ADD GT ISZERO PUSH2 0x5C9C JUMPI POP POP POP POP POP POP SWAP1 JUMP JUMPDEST PUSH2 0x5CAB PUSH1 0x20 DUP3 DUP7 ADD ADD DUP8 PUSH2 0x4CB0 JUMP JUMPDEST POP SWAP1 SWAP6 SWAP5 POP POP POP POP POP JUMP JUMPDEST PUSH1 0x20 DUP1 DUP3 MSTORE PUSH1 0x28 SWAP1 DUP3 ADD MSTORE PUSH32 0x455243313135353A204552433131353552656365697665722072656A65637465 PUSH1 0x40 DUP3 ADD MSTORE PUSH8 0x6420746F6B656E73 PUSH1 0xC0 SHL PUSH1 0x60 DUP3 ADD MSTORE PUSH1 0x80 ADD SWAP1 JUMP JUMPDEST PUSH1 0x1 PUSH1 0x1 PUSH1 0xA0 SHL SUB DUP7 DUP2 AND DUP3 MSTORE DUP6 AND PUSH1 0x20 DUP3 ADD MSTORE PUSH1 0x40 DUP2 ADD DUP5 SWAP1 MSTORE PUSH1 0x60 DUP2 ADD DUP4 SWAP1 MSTORE PUSH1 0xA0 PUSH1 0x80 DUP3 ADD DUP2 SWAP1 MSTORE PUSH1 0x0 SWAP1 PUSH2 0x19DC SWAP1 DUP4 ADD DUP5 PUSH2 0x4DA7 JUMP INVALID 0x4D PUSH6 0x74615472616E PUSH20 0x616374696F6E2875696E74323536206E6F6E6365 0x2C PUSH2 0x6464 PUSH19 0x6573732066726F6D2C62797465732066756E63 PUSH21 0x696F6E5369676E617475726529A264697066735822 SLT KECCAK256 SSTORE PUSH12 0x623662EAF47F8C43842F9A01 PUSH31 0xCED61655FB96A31785D11A123B5BF2F11F64736F6C63430008110033000000 ",
  "sha1": "4881afd700fe6aa79015d2f879971b9607e3df3a",
  "source": "pragma solidity ^0.8.0;\n\n// SPDX-License-Identifier: MIT\n\n/**\n *\n * This code is part of BlackRoof project.\n *\n *\n */\n\nimport \"@openzeppelin/contracts/token/ERC20/utils/SafeERC20.sol\";\n\nimport \"./interfaces/ICoin.sol\";\nimport \"./HasAdmin.sol\";\nimport \"./SigVerifier.sol\";\nimport \"./Stake.sol\";\n\ncontract BlackRoof is Stake {\n    using SafeERC20 for ICoin;\n\n    uint32 public projectIndex;\n\n    mapping(uint32 => uint128) private _supplyFor;\n\n    event ProjectCreated(uint32 indexed id);\n    event ProjectStatusChanged(uint32 indexed projectId, bytes1 indexed status);\n    event Mint(\n        uint32 indexed projectId,\n        uint128 indexed qty,\n        address minter,\n        address indexed to\n    );\n    event Burn(\n        uint32 indexed projectId,\n        uint128 indexed qty,\n        address indexed burner\n    );\n    event BalanceDeposit(address indexed who, uint256 indexed amount);\n    event BalanceWithdraw(address indexed who, uint256 indexed amount);\n\n    /**\n     * Constructor for the BlackRoof contract, which inherits from the\n     * ERC1155Tradable and Stake contracts.\n     * Set the contract's base URI and proxy address and set the admin address.\n     *\n     * @param _admin The contract's admin address.\n     * @param _baseUri The contract's base URI.\n     * @param _stableCoin The address of the stablecoin for calculating rewards.\n     * @param _proxyAddress The address of the proxy contract.\n     */\n    constructor(\n        address _admin,\n        string memory _baseUri,\n        address _stableCoin,\n        address _proxyAddress\n    )\n        ERC1155Tradable(\"BlackRoof\", \"BLKROF\", _baseUri, _proxyAddress)\n        Stake(_stableCoin)\n    {\n        _setAdmin(_admin);\n    }\n\n    function changeAdmin(address newAdmin_) external onlyOwner {\n        _setAdmin(newAdmin_);\n    }\n\n    modifier onlyAdminOrOwner() {\n        require(_isAdmin(msg.sender) || _isOwner(msg.sender), \"!admin !owner\");\n        _;\n    }\n\n    /**\n     * This function checks if the parameter 'account' is the owner of the contract.\n     * @param account The address of the account to be checked.\n     * @return {bool} A boolean indicating whether the account is the owner or not.\n     */\n    function _isOwner(address account) internal view returns (bool) {\n        return owner() == account;\n    }\n\n    /**\n     * @dev Creates a new project. This can only be done by the contract admin or owner.\n     * @param typeId project type.\n     * @param title Title of the project.\n     * @param price Price to mint one NFT from this project (in wei). Cannot be zero if `authorizedOnly`=true.\n     * @param authorizedOnly If true the project only mintable by admin.\n     * @param supplyLimit Supply limit of the project. Minting will fail if max limit.\n     * @param term Term of the project. 0: no term, 1: 1 month, 2: 3 months, 3: 6 months, 4: 1 year, 5: 2 years, 6: 3 years, 7: 4 years, 8: 5 years.\n     * @param apy APY of the project.\n     * @param stakedApy APY for staked NFT.\n     */\n    function createProject(\n        uint16 typeId,\n        string memory title,\n        uint256 price,\n        bool authorizedOnly,\n        uint128 supplyLimit,\n        uint16 term,\n        uint256 apy,\n        uint256 stakedApy\n    ) external onlyAdminOrOwner {\n        if (authorizedOnly) {\n            require(price > 0, \"price=0\");\n        }\n        uint32 pid = projectIndex + 1;\n        ProjectInfo memory project = ProjectInfo({\n            id: pid,\n            title: title,\n            creator: msg.sender,\n            typeId: typeId,\n            price: price,\n            authorizedOnly: authorizedOnly,\n            status: ACTIVE,\n            supplyLimit: supplyLimit,\n            term: term,\n            apy: apy,\n            stakedApy: stakedApy\n        });\n        _projects[pid] = project;\n        projectIndex = pid;\n\n        emit ProjectCreated(project.id);\n    }\n\n    /**\n     * Get project data by ID.\n     */\n    function getProject(\n        uint32 projectId\n    ) external view returns (ProjectInfo memory) {\n        return _getProject(projectId);\n    }\n\n    /**\n     * This function is used to set the status of a project.\n     * The caller of this function must be either the owner or an admin of the\n     * contract.\n     * It takes in two parameters: the projectId and a bytes1 status.\n     * It first checks to make sure the project exists, before setting the status\n     * and emitting a ProjectStatusChanged event.\n     *\n     * @param projectId The ID of the project to set the status for.\n     * @param status A bytes1 indicating the new status.\n     */\n    function setProjectStatus(\n        uint32 projectId,\n        bytes1 status\n    ) external onlyAdminOrOwner {\n        require(_exists(projectId), \"!project\");\n        _projects[projectId].status = status;\n        emit ProjectStatusChanged(projectId, status);\n    }\n\n    /**\n     * @dev Mint NFT for specific project. This payable function demands the exact amount of price,\n     *      except for the authorizedOnly project.\n     * @param projectId Project id.\n     * @param qty Quantity of NFTs to mint.\n     */\n    function mint(\n        uint32 projectId,\n        uint32 qty,\n        address to\n    ) external payable nonReentrant returns (bool) {\n        require(!paused, \"paused\");\n        ProjectInfo memory project = _projects[projectId];\n        _checkProject(project);\n        require(project.status == ACTIVE, \"!active\");\n\n        address _sender = _msgSender();\n\n        bool isAuthority = _isAdmin(_sender) || _isOwner(_sender);\n\n        if (project.authorizedOnly) {\n            require(isAuthority, \"unauthorized\");\n        } else {\n            require(\n                isAuthority ||\n                    stableCoin.balanceOf(_sender) >= qty * project.price,\n                \"balance <\"\n            );\n        }\n\n        // check max supply limit if configured (positive value).\n        uint128 supply = _supplyFor[projectId];\n        if (project.supplyLimit > 0) {\n            require(supply + qty <= project.supplyLimit, \"limit\");\n        }\n\n        _supplyFor[projectId] += qty;\n\n        // deduct stable coin from minter\n        if (!project.authorizedOnly && !isAuthority) {\n            stableCoin.safeTransferFrom(\n                _sender,\n                address(this),\n                qty * project.price\n            );\n        }\n\n        _mint(to, projectId, qty, \"\");\n\n        emit Mint(projectId, qty, _msgSender(), to);\n\n        return true;\n    }\n\n    /**\n     * @dev Permissioned version of mint, use signature for verification,\n     *      Anyone with valid signature can mint NFTs.\n     */\n    function authorizedMint(\n        uint32 projectId,\n        uint32 qty,\n        address to,\n        uint64 nonce,\n        Sig memory sig\n    ) external payable nonReentrant returns (bool) {\n        require(nonce >= uint64(block.timestamp) / 60, \"x nonce\");\n        _checkAddress(to);\n\n        // require payment\n        ProjectInfo memory project = _projects[projectId];\n        _checkProject(project);\n\n        // check supply\n        uint128 supply = _supplyFor[projectId];\n        if (project.supplyLimit > 0) {\n            require(supply + qty <= project.supplyLimit, \"limit\");\n        }\n\n        address _sender = _msgSender();\n\n        bytes32 message = sigPrefixed(\n            keccak256(abi.encodePacked(projectId, _sender, to, qty, nonce))\n        );\n\n        require(_isSigner(admin, message, sig), \"x signature\");\n\n        bool isAuthority = _isAdmin(_sender) || _isOwner(_sender);\n\n        require(\n            isAuthority || stableCoin.balanceOf(_sender) >= qty * project.price,\n            \"balance <\"\n        );\n\n        _supplyFor[projectId] += qty;\n\n        // deduct stable coin from minter\n        stableCoin.safeTransferFrom(\n            _sender,\n            address(this),\n            qty * project.price\n        );\n\n        _mint(to, projectId, qty, \"\");\n\n        emit Mint(projectId, qty, _sender, to);\n\n        return true;\n    }\n\n    /**\n     * @dev check supply for specific item.\n     */\n    function supplyFor(uint32 projectId) external view returns (uint128) {\n        return _supplyFor[projectId];\n    }\n\n    /**\n     * Returns the URI of a given project.\n     * If the project has a custom URI (stored in the 'customUri' mapping),\n     * the custom URI is returned. Otherwise, the default uri defined in the super\n     * class is returned.\n     *\n     * @param _projectId The ID of the project.\n     * @return {string} The URI of the project.\n     */\n    function uri(\n        uint256 _projectId\n    ) public view override returns (string memory) {\n        require(_exists(uint32(_projectId)), \"!project\");\n        // We have to convert string to bytes to check for existence\n        bytes memory customUriBytes = bytes(customUri[_projectId]);\n        if (customUriBytes.length > 0) {\n            return customUri[_projectId];\n        } else {\n            return super.uri(_projectId);\n        }\n    }\n\n    function _checkAddress(address addr) private pure {\n        require(addr != address(0), \"x address\");\n    }\n\n    function _burnInternal(\n        uint32 projectId,\n        uint32 qty,\n        address to\n    ) private returns (bool) {\n        _checkAddress(to);\n        require(projectId > 0, \"!projectId\");\n        require(qty > 0, \"!qty\");\n\n        ProjectInfo memory project = _projects[projectId];\n        _checkProject(project);\n\n        // check max supply limit if configured (positive value).\n        uint128 supply = _supplyFor[projectId];\n        require(supply >= qty, \"exceed supply\");\n\n        // in staked\n        StakeInfo memory sti = stakers[to][projectId];\n        if (sti.qty > 0) {\n            require(balanceOf(to, projectId) - qty >= sti.qty, \"in staked\");\n        }\n\n        _supplyFor[projectId] -= qty;\n\n        _burn(to, projectId, qty);\n\n        if (project.authorizedOnly) {\n            // do nothing\n        } else {\n            uint256 amount = qty * project.price;\n            // payable(to).transfer(amount);\n            stableCoin.safeTransferFrom(address(this), to, amount);\n        }\n\n        emit Burn(projectId, qty, to);\n\n        return true;\n    }\n\n    /**\n     * @dev Burn NFT and claim back the mint price to the NFT owner.\n     *      this will emit Burn event when success.\n     * @param projectId Project id.\n     * @param qty Quantity of NFTs to burn.\n     */\n    function burn(\n        uint32 projectId,\n        uint32 qty\n    ) external nonReentrant returns (bool) {\n        address _sender = _msgSender();\n        uint256 _ownedQty = balanceOf(_sender, projectId);\n        require(_ownedQty >= qty, \"qty >\");\n        return _burnInternal(projectId, qty, _sender);\n    }\n\n    /**\n     * @dev Burn NFT by admin and return the mint price to the NFT owner.\n     *      Caller of this function must be admin.\n     *      this will emit Burn event when success.\n     * @param projectId Project id.\n     * @param qty Quantity of NFTs to burn.\n     * @param to the owner of the NFT to be burned.\n     */\n    function adminBurn(\n        uint32 projectId,\n        uint32 qty,\n        address to\n    ) external payable onlyAdmin nonReentrant returns (bool) {\n        return _burnInternal(projectId, qty, to);\n    }\n\n    /**\n     * @dev Withdraw amount of deposit from this contract to `to` address.\n     *      Caller of this function must be owner.\n     * @param amount to withdraw.\n     * @param to address to withdraw to.\n     */\n    function withdrawTo(\n        uint256 amount,\n        address payable to\n    ) external payable onlyOwner {\n        _checkAddress(to);\n        require(amount > 0, \"!amount\");\n\n        require(stableCoin.balanceOf(address(this)) >= amount, \"balance <\");\n\n        stableCoin.safeTransferFrom(address(this), to, amount);\n\n        emit BalanceWithdraw(to, amount);\n    }\n\n    /**\n     * This function allows users to top up tokens to the contract.\n     * It takes in one parameter 'amount' (the amount of tokens to be topped up).\n     * It then transfers the tokens from the user to the contract.\n     * It emits BalanceDeposit event to notify the success of topping up.\n     *\n     * @param amount The amount of tokens to be topped up.\n     */\n    function topup(uint256 amount) external payable {\n        stableCoin.safeTransferFrom(_msgSender(), address(this), amount);\n        emit BalanceDeposit(_msgSender(), msg.value);\n    }\n}\n",
  "sourcePath": "contracts/BlackRoof.sol",
  "type": "contract"
}