{
  "abi": [
    {
      "inputs": [
        {
          "internalType": "address",
          "name": "_stableCoin",
          "type": "address"
        },
        {
          "internalType": "address",
          "name": "_admin",
          "type": "address"
        }
      ],
      "stateMutability": "nonpayable",
      "type": "constructor"
    },
    {
      "anonymous": false,
      "inputs": [
        {
          "indexed": true,
          "internalType": "address",
          "name": "admin",
          "type": "address"
        }
      ],
      "name": "AdminChanged",
      "type": "event"
    },
    {
      "anonymous": false,
      "inputs": [
        {
          "indexed": true,
          "internalType": "address",
          "name": "who",
          "type": "address"
        },
        {
          "indexed": true,
          "internalType": "uint256",
          "name": "amount",
          "type": "uint256"
        }
      ],
      "name": "BalanceDeposit",
      "type": "event"
    },
    {
      "anonymous": false,
      "inputs": [
        {
          "indexed": true,
          "internalType": "address",
          "name": "who",
          "type": "address"
        },
        {
          "indexed": true,
          "internalType": "uint256",
          "name": "amount",
          "type": "uint256"
        }
      ],
      "name": "BalanceWithdraw",
      "type": "event"
    },
    {
      "anonymous": false,
      "inputs": [
        {
          "indexed": true,
          "internalType": "address",
          "name": "staker",
          "type": "address"
        },
        {
          "indexed": true,
          "internalType": "uint32",
          "name": "projectId",
          "type": "uint32"
        },
        {
          "indexed": false,
          "internalType": "uint256",
          "name": "amount",
          "type": "uint256"
        }
      ],
      "name": "CollectRewards",
      "type": "event"
    },
    {
      "anonymous": false,
      "inputs": [
        {
          "indexed": true,
          "internalType": "address",
          "name": "previousOwner",
          "type": "address"
        },
        {
          "indexed": true,
          "internalType": "address",
          "name": "newOwner",
          "type": "address"
        }
      ],
      "name": "OwnershipTransferred",
      "type": "event"
    },
    {
      "anonymous": false,
      "inputs": [
        {
          "indexed": true,
          "internalType": "address",
          "name": "staker",
          "type": "address"
        },
        {
          "indexed": false,
          "internalType": "uint256",
          "name": "amount",
          "type": "uint256"
        }
      ],
      "name": "StakeEvent",
      "type": "event"
    },
    {
      "inputs": [],
      "name": "admin",
      "outputs": [
        {
          "internalType": "address",
          "name": "",
          "type": "address"
        }
      ],
      "stateMutability": "view",
      "type": "function"
    },
    {
      "inputs": [
        {
          "internalType": "uint256",
          "name": "_amount",
          "type": "uint256"
        },
        {
          "internalType": "uint64",
          "name": "_startTime",
          "type": "uint64"
        },
        {
          "internalType": "uint64",
          "name": "_endTime",
          "type": "uint64"
        },
        {
          "internalType": "uint256",
          "name": "apy",
          "type": "uint256"
        }
      ],
      "name": "calculateRewards",
      "outputs": [
        {
          "internalType": "uint256",
          "name": "rewards",
          "type": "uint256"
        }
      ],
      "stateMutability": "pure",
      "type": "function"
    },
    {
      "inputs": [
        {
          "internalType": "address",
          "name": "newAdmin_",
          "type": "address"
        }
      ],
      "name": "changeAdmin",
      "outputs": [],
      "stateMutability": "nonpayable",
      "type": "function"
    },
    {
      "inputs": [
        {
          "internalType": "uint32",
          "name": "projectId",
          "type": "uint32"
        },
        {
          "internalType": "uint16",
          "name": "rewardType",
          "type": "uint16"
        }
      ],
      "name": "collectRewards",
      "outputs": [
        {
          "internalType": "bool",
          "name": "",
          "type": "bool"
        }
      ],
      "stateMutability": "nonpayable",
      "type": "function"
    },
    {
      "inputs": [
        {
          "internalType": "uint32",
          "name": "projectId",
          "type": "uint32"
        },
        {
          "internalType": "uint256",
          "name": "amount",
          "type": "uint256"
        },
        {
          "internalType": "uint64",
          "name": "nonce",
          "type": "uint64"
        },
        {
          "components": [
            {
              "internalType": "bytes32",
              "name": "r",
              "type": "bytes32"
            },
            {
              "internalType": "bytes32",
              "name": "s",
              "type": "bytes32"
            },
            {
              "internalType": "uint8",
              "name": "v",
              "type": "uint8"
            }
          ],
          "internalType": "struct Sig",
          "name": "sig",
          "type": "tuple"
        }
      ],
      "name": "collectRewardsBy",
      "outputs": [
        {
          "internalType": "bool",
          "name": "",
          "type": "bool"
        }
      ],
      "stateMutability": "nonpayable",
      "type": "function"
    },
    {
      "inputs": [
        {
          "internalType": "address",
          "name": "user",
          "type": "address"
        },
        {
          "internalType": "uint32",
          "name": "projectId",
          "type": "uint32"
        }
      ],
      "name": "getHoldingInfo",
      "outputs": [
        {
          "components": [
            {
              "internalType": "uint256",
              "name": "qty",
              "type": "uint256"
            },
            {
              "internalType": "uint64",
              "name": "startTime",
              "type": "uint64"
            },
            {
              "internalType": "uint256",
              "name": "accumRewards",
              "type": "uint256"
            },
            {
              "internalType": "uint256",
              "name": "claimedRewards",
              "type": "uint256"
            }
          ],
          "internalType": "struct HoldingInfo",
          "name": "",
          "type": "tuple"
        }
      ],
      "stateMutability": "view",
      "type": "function"
    },
    {
      "inputs": [
        {
          "internalType": "address",
          "name": "user",
          "type": "address"
        },
        {
          "internalType": "uint32",
          "name": "projectId",
          "type": "uint32"
        }
      ],
      "name": "getHoldingInfoRaw",
      "outputs": [
        {
          "components": [
            {
              "internalType": "uint256",
              "name": "qty",
              "type": "uint256"
            },
            {
              "internalType": "uint64",
              "name": "startTime",
              "type": "uint64"
            },
            {
              "internalType": "uint256",
              "name": "accumRewards",
              "type": "uint256"
            },
            {
              "internalType": "uint256",
              "name": "claimedRewards",
              "type": "uint256"
            }
          ],
          "internalType": "struct HoldingInfo",
          "name": "",
          "type": "tuple"
        }
      ],
      "stateMutability": "view",
      "type": "function"
    },
    {
      "inputs": [
        {
          "internalType": "address",
          "name": "_staker",
          "type": "address"
        },
        {
          "internalType": "uint32",
          "name": "projectId",
          "type": "uint32"
        }
      ],
      "name": "getStakingInfo",
      "outputs": [
        {
          "components": [
            {
              "internalType": "uint32",
              "name": "qty",
              "type": "uint32"
            },
            {
              "internalType": "uint32",
              "name": "term",
              "type": "uint32"
            },
            {
              "internalType": "uint64",
              "name": "startTime",
              "type": "uint64"
            },
            {
              "internalType": "uint256",
              "name": "accumRewards",
              "type": "uint256"
            },
            {
              "internalType": "uint256",
              "name": "claimedRewards",
              "type": "uint256"
            }
          ],
          "internalType": "struct StakeInfo",
          "name": "",
          "type": "tuple"
        }
      ],
      "stateMutability": "view",
      "type": "function"
    },
    {
      "inputs": [
        {
          "internalType": "address",
          "name": "user",
          "type": "address"
        },
        {
          "internalType": "uint32",
          "name": "projectId",
          "type": "uint32"
        }
      ],
      "name": "getStakingInfoRaw",
      "outputs": [
        {
          "components": [
            {
              "internalType": "uint32",
              "name": "qty",
              "type": "uint32"
            },
            {
              "internalType": "uint32",
              "name": "term",
              "type": "uint32"
            },
            {
              "internalType": "uint64",
              "name": "startTime",
              "type": "uint64"
            },
            {
              "internalType": "uint256",
              "name": "accumRewards",
              "type": "uint256"
            },
            {
              "internalType": "uint256",
              "name": "claimedRewards",
              "type": "uint256"
            }
          ],
          "internalType": "struct StakeInfo",
          "name": "",
          "type": "tuple"
        }
      ],
      "stateMutability": "view",
      "type": "function"
    },
    {
      "inputs": [
        {
          "internalType": "uint32",
          "name": "id",
          "type": "uint32"
        }
      ],
      "name": "isProjectEnd",
      "outputs": [
        {
          "internalType": "bool",
          "name": "",
          "type": "bool"
        }
      ],
      "stateMutability": "view",
      "type": "function"
    },
    {
      "inputs": [],
      "name": "owner",
      "outputs": [
        {
          "internalType": "address",
          "name": "",
          "type": "address"
        }
      ],
      "stateMutability": "view",
      "type": "function"
    },
    {
      "inputs": [
        {
          "internalType": "bool",
          "name": "_paused",
          "type": "bool"
        }
      ],
      "name": "pause",
      "outputs": [],
      "stateMutability": "nonpayable",
      "type": "function"
    },
    {
      "inputs": [],
      "name": "paused",
      "outputs": [
        {
          "internalType": "bool",
          "name": "",
          "type": "bool"
        }
      ],
      "stateMutability": "view",
      "type": "function"
    },
    {
      "inputs": [],
      "name": "renounceOwnership",
      "outputs": [],
      "stateMutability": "nonpayable",
      "type": "function"
    },
    {
      "inputs": [
        {
          "internalType": "address",
          "name": "user",
          "type": "address"
        },
        {
          "internalType": "uint32",
          "name": "projectId",
          "type": "uint32"
        },
        {
          "components": [
            {
              "internalType": "uint256",
              "name": "qty",
              "type": "uint256"
            },
            {
              "internalType": "uint64",
              "name": "startTime",
              "type": "uint64"
            },
            {
              "internalType": "uint256",
              "name": "accumRewards",
              "type": "uint256"
            },
            {
              "internalType": "uint256",
              "name": "claimedRewards",
              "type": "uint256"
            }
          ],
          "internalType": "struct HoldingInfo",
          "name": "holding",
          "type": "tuple"
        }
      ],
      "name": "setHoldingInfoData",
      "outputs": [],
      "stateMutability": "nonpayable",
      "type": "function"
    },
    {
      "inputs": [
        {
          "internalType": "address",
          "name": "_projectMan",
          "type": "address"
        }
      ],
      "name": "setProjectMan",
      "outputs": [],
      "stateMutability": "nonpayable",
      "type": "function"
    },
    {
      "inputs": [
        {
          "internalType": "uint32",
          "name": "projectId",
          "type": "uint32"
        },
        {
          "internalType": "uint32",
          "name": "qty",
          "type": "uint32"
        }
      ],
      "name": "stake",
      "outputs": [
        {
          "internalType": "bool",
          "name": "",
          "type": "bool"
        }
      ],
      "stateMutability": "nonpayable",
      "type": "function"
    },
    {
      "inputs": [
        {
          "internalType": "address",
          "name": "newOwner",
          "type": "address"
        }
      ],
      "name": "transferOwnership",
      "outputs": [],
      "stateMutability": "nonpayable",
      "type": "function"
    },
    {
      "inputs": [
        {
          "internalType": "uint32",
          "name": "projectId",
          "type": "uint32"
        },
        {
          "internalType": "uint32",
          "name": "qty",
          "type": "uint32"
        }
      ],
      "name": "unstake",
      "outputs": [
        {
          "internalType": "bool",
          "name": "",
          "type": "bool"
        }
      ],
      "stateMutability": "nonpayable",
      "type": "function"
    },
    {
      "inputs": [
        {
          "internalType": "uint256",
          "name": "amount",
          "type": "uint256"
        },
        {
          "internalType": "address",
          "name": "to",
          "type": "address"
        }
      ],
      "name": "withdrawTo",
      "outputs": [],
      "stateMutability": "nonpayable",
      "type": "function"
    }
  ],
  "bytecode": "60806040526004805460ff60a01b191690553480156200001e57600080fd5b50604051620033e0380380620033e08339810160408190526200004191620004b8565b60016000556200005133620000a6565b600480546001600160a01b0319166001600160a01b0384161790556200007781620000f8565b6004546200009e906001600160a01b03163060001962000142602090811b62001e6317901c565b5050620005cf565b600180546001600160a01b038381166001600160a01b0319831681179093556040519116919082907f8be0079c531659141344cd1fd0a4f28419497f9722a3daafe3b4186f6b6457e090600090a35050565b600280546001600160a01b0319166001600160a01b0383169081179091556040517f7ce7ec0b50378fb6c0186ffb5f48325f6593fcb4ca4386f21861af3129188f5c90600090a250565b604051636eb1769f60e11b81523060048201526001600160a01b038381166024830152600091839186169063dd62ed3e90604401602060405180830381865afa15801562000194573d6000803e3d6000fd5b505050506040513d601f19601f82011682018060405250810190620001ba9190620004f0565b620001c691906200050a565b604080516001600160a01b038616602482015260448082018490528251808303909101815260649091019091526020810180516001600160e01b0390811663095ea7b360e01b1790915291925062000222918691906200022816565b50505050565b600062000284826040518060400160405280602081526020017f5361666545524332303a206c6f772d6c6576656c2063616c6c206661696c6564815250856001600160a01b03166200030f60201b62001f4e179092919060201c565b8051909150156200030a5780806020019051810190620002a5919062000532565b6200030a5760405162461bcd60e51b815260206004820152602a60248201527f5361666545524332303a204552433230206f7065726174696f6e20646964206e6044820152691bdd081cdd58d8d9595960b21b60648201526084015b60405180910390fd5b505050565b60606200032084846000856200032a565b90505b9392505050565b6060824710156200038d5760405162461bcd60e51b815260206004820152602660248201527f416464726573733a20696e73756666696369656e742062616c616e636520666f6044820152651c8818d85b1b60d21b606482015260840162000301565b843b620003dd5760405162461bcd60e51b815260206004820152601d60248201527f416464726573733a2063616c6c20746f206e6f6e2d636f6e7472616374000000604482015260640162000301565b600080866001600160a01b03168587604051620003fb91906200057c565b60006040518083038185875af1925050503d80600081146200043a576040519150601f19603f3d011682016040523d82523d6000602084013e6200043f565b606091505b509092509050620004528282866200045d565b979650505050505050565b606083156200046e57508162000323565b8251156200047f5782518084602001fd5b8160405162461bcd60e51b81526004016200030191906200059a565b80516001600160a01b0381168114620004b357600080fd5b919050565b60008060408385031215620004cc57600080fd5b620004d7836200049b565b9150620004e7602084016200049b565b90509250929050565b6000602082840312156200050357600080fd5b5051919050565b808201808211156200052c57634e487b7160e01b600052601160045260246000fd5b92915050565b6000602082840312156200054557600080fd5b815180151581146200032357600080fd5b60005b838110156200057357818101518382015260200162000559565b50506000910152565b600082516200059081846020870162000556565b9190910192915050565b6020815260008251806020840152620005bb81604085016020870162000556565b601f01601f19169190910160400192915050565b612e0180620005df6000396000f3fe608060405234801561001057600080fd5b506004361061012c5760003560e01c80639dea67e3116100ad578063d7526ffa11610071578063d7526ffa14610310578063ddb93b1a14610323578063f2fde38b146103da578063f851a440146103ed578063fd93238a1461040057600080fd5b80639dea67e3146102b1578063aeaed1b7146102c4578063b4bbf4af146102d7578063c86283c8146102ea578063ccfcd622146102fd57600080fd5b80636792a95b116100f45780636792a95b1461020f578063715018a6146102225780638da5cb5b1461022a5780638f2839701461024f578063947e89c81461026257600080fd5b806302329a291461013157806308bc92d21461014657806313f91252146101b757806345305ab8146101da5780635c975abb146101fb575b600080fd5b61014461013f366004612615565b610413565b005b610159610154366004612659565b61048e565b6040516101ae9190600060a08201905063ffffffff808451168352806020850151166020840152506001600160401b036040840151166040830152606083015160608301526080830151608083015292915050565b60405180910390f35b6101ca6101c53660046126e6565b6105c2565b60405190151581526020016101ae565b6101ed6101e836600461278e565b610b26565b6040519081526020016101ae565b6004546101ca90600160a01b900460ff1681565b6101ca61021d3660046127d6565b610b86565b610144611060565b6001546001600160a01b03165b6040516001600160a01b0390911681526020016101ae565b61014461025d3660046127f4565b611096565b610275610270366004612659565b6110cc565b6040516101ae9190815181526020808301516001600160401b031690820152604080830151908201526060918201519181019190915260800190565b6101446102bf3660046127f4565b611169565b6102756102d2366004612659565b61121f565b6101ca6102e5366004612811565b611330565b6101446102f836600461282e565b61134e565b61014461030b366004612853565b6114b8565b6101ca61031e3660046127d6565b611570565b610159610331366004612659565b6040805160a081018252600080825260208201819052918101829052606081018290526080810191909152506001600160a01b0391909116600090815260056020908152604080832063ffffffff9485168452825291829020825160a08101845281548086168252600160201b810490951692810192909252600160401b9093046001600160401b03169181019190915260018201546060820152600290910154608082015290565b6101446103e83660046127f4565b611952565b600254610237906001600160a01b031681565b6101ca61040e366004612905565b6119ea565b6001546001600160a01b031633148061043657506003546001600160a01b031633145b6104705760405162461bcd60e51b815260206004820152600660248201526510b7bbb732b960d11b60448201526064015b60405180910390fd5b60048054911515600160a01b0260ff60a01b19909216919091179055565b6040805160a0810182526000808252602082018190529181018290526060810182905260808101919091526001600160a01b038316600090815260056020908152604080832063ffffffff8681168552908352818420825160a08101845281548084168252600160201b810490931694810194909452600160401b9091046001600160401b031691830191909152600181015460608301526002015460808201529061053984611f65565b9050600061054c42836101800151612040565b9050806001600160401b031683604001516001600160401b03161115610577578293505050506105bc565b608082015183516105a2916105919163ffffffff16612949565b846040015183856101400151610b26565b836060018181516105b39190612960565b90525091925050505b92915050565b60006002600054036106165760405162461bcd60e51b815260206004820152601f60248201527f5265656e7472616e637947756172643a207265656e7472616e742063616c6c006044820152606401610467565b6002600055610626603c42612989565b6001600160401b0316836001600160401b031610156106715760405162461bcd60e51b815260206004820152600760248201526678206e6f6e636560c81b6044820152606401610467565b6001600160401b03831660009081526006602052604090205460ff16156106c45760405162461bcd60e51b815260206004820152600760248201526678206e6f6e636560c81b6044820152606401610467565b60006106cf86611f65565b805190915063ffffffff166000036107145760405162461bcd60e51b8152602060048201526008602482015267085c1c9bda9958dd60c21b6044820152606401610467565b33600081815260056020908152604080832063ffffffff8b81168552908352818420825160a0810184528154808416808352600160201b820490941695820195909552600160401b9094046001600160401b0316928401929092526001820154606084015260029091015460808301529091036107c15760405162461bcd60e51b815260206004820152600b60248201526a217374616b65722e71747960a81b6044820152606401610467565b60405160e089901b6001600160e01b0319166020820152606083811b6bffffffffffffffffffffffff191660248301526038820189905260c088901b6001600160c01b031916605883015260009161087d9101604051602081830303815290604052805190602001206040517f19457468657265756d205369676e6564204d6573736167653a0a3332000000006020820152603c8101829052600090605c01604051602081830303815290604052805190602001209050919050565b600254909150610897906001600160a01b03168288612069565b6108d15760405162461bcd60e51b815260206004820152600b60248201526a78207369676e617475726560a81b6044820152606401610467565b6001600160401b0387166000908152600660205260408120805460ff19166001179055606083015161018086015190919061090d904290612040565b905061093d8660800151856000015163ffffffff1661092c9190612949565b856040015183896101400151610b26565b6109479083612960565b9150818a11156109845760405162461bcd60e51b81526020600482015260086024820152671e08185b5bdd5b9d60c21b6044820152606401610467565b6001600160401b034216604085015261099d8a836129af565b60608501526080840180518b91906109b6908390612960565b915081815250508360056000876001600160a01b03166001600160a01b0316815260200190815260200160002060008d63ffffffff1663ffffffff16815260200190815260200160002060008201518160000160006101000a81548163ffffffff021916908363ffffffff16021790555060208201518160000160046101000a81548163ffffffff021916908363ffffffff16021790555060408201518160000160086101000a8154816001600160401b0302191690836001600160401b031602179055506060820151816001015560808201518160020155905050610ac5858b600460009054906101000a90046001600160a01b03166001600160a01b03166120fc9092919063ffffffff16565b8a63ffffffff16856001600160a01b03167f9bf028f26713dbfd10f1790f08ee2c2df9a1d82c0f238230bb0b64af2aab4a9e8c604051610b0791815260200190565b60405180910390a3600196505050505050506001600055949350505050565b60008062015180610b3786866129c2565b610b419190612989565b90506000610b4f8488612949565b905061016d610b6463ffffffff841683612949565b610b6e91906129e9565b9250610b7b6064846129e9565b979650505050505050565b600454600090600160a01b900460ff1615610bb35760405162461bcd60e51b8152600401610467906129fd565b60008263ffffffff1611610bf25760405162461bcd60e51b8152600401610467906020808252600490820152632171747960e01b604082015260600190565b336000610bfe85611f65565b9050610c0981612131565b60c08101516001600160f81b031916600160f81b14610c3a5760405162461bcd60e51b815260040161046790612a1d565b428161016001516001600160401b03161115610c815760405162461bcd60e51b8152602060048201526006602482015265085cdd185c9d60d21b6044820152606401610467565b428161018001516001600160401b031611610cc75760405162461bcd60e51b815260206004820152600660248201526508595b99195960d21b6044820152606401610467565b600354604051627eeac760e11b81526001600160a01b03848116600483015263ffffffff8881166024840152871692169062fdd58e90604401602060405180830381865afa158015610d1d573d6000803e3d6000fd5b505050506040513d601f19601f82011682018060405250810190610d419190612a3e565b1015610d7b5760405162461bcd60e51b815260206004820152600960248201526818985b185b98d9480f60ba1b6044820152606401610467565b6001600160a01b038216600081815260056020908152604080832063ffffffff808b168552908352818420825160a08101845281548084168252600160201b81048416828701526001600160401b03600160401b909104811682860152600180840154606080850191909152600294850154608080860191909152998952600788528689208b5190961689529487528588208651998a01875280548a5290810154909116958801959095529084015492860192909252600390920154918401919091529190610e4b858584612170565b90508015610eb557600454610e6a906001600160a01b031686836120fc565b8763ffffffff16856001600160a01b03167f9bf028f26713dbfd10f1790f08ee2c2df9a1d82c0f238230bb0b64af2aab4a9e83604051610eac91815260200190565b60405180910390a35b6000610ec642866101800151612040565b845190915063ffffffff1615801590610ef45750806001600160401b031684604001516001600160401b0316105b15610f395760808501518451610f2491610f139163ffffffff16612949565b856040015183886101400151610b26565b84606001818151610f359190612960565b9052505b8784600001818151610f4b9190612a57565b63ffffffff9081169091526001600160401b03421660408701528451908a1691508490610f799083906129af565b90525050506001600160a01b0393909316600081815260056020908152604080832063ffffffff9a8b1684528252808320855181548785015188850151928e1667ffffffffffffffff1992831617600160201b918f16919091021767ffffffffffffffff60401b1916600160401b6001600160401b0393841602178355606080890151600180860191909155608090990151600294850155968652600785528386209851909c1685529683529281902087518155918701518286018054909b1696169590951790985592840151928701929092559101516003909401939093555090919050565b6001546001600160a01b0316331461108a5760405162461bcd60e51b815260040161046790612a74565b6110946000612291565b565b6001546001600160a01b031633146110c05760405162461bcd60e51b815260040161046790612a74565b6110c9816122e3565b50565b61110060405180608001604052806000815260200160006001600160401b0316815260200160008152602001600081525090565b506001600160a01b038216600090815260076020908152604080832063ffffffff8516845282529182902082516080810184528154815260018201546001600160401b031692810192909252600281015492820192909252600390910154606082015292915050565b6003546001600160a01b0316156111ab5760405162461bcd60e51b81526020600482015260066024820152651c1b481cd95d60d21b6044820152606401610467565b6001546001600160a01b031632146111ee5760405162461bcd60e51b815260206004820152600660248201526510b7bbb732b960d11b6044820152606401610467565b600380546001600160a01b0319166001600160a01b03838116919091179091556004546110c9911682600019611e63565b61125360405180608001604052806000815260200160006001600160401b0316815260200160008152602001600081525090565b6001600160a01b038316600090815260076020908152604080832063ffffffff86168452825280832081516080810183528154815260018201546001600160401b031693810193909352600281015491830191909152600301546060820152906112bc84611f65565b905060006112cf42836101800151612040565b9050806001600160401b031683602001516001600160401b031611156112fa578293505050506105bc565b6080820151835161131f9161130e91612949565b846020015183856101200151610b26565b836040018181516105b39190612960565b60008061133c83611f65565b90506113478161232d565b9392505050565b6001546001600160a01b031633146113785760405162461bcd60e51b815260040161046790612a74565b6113818161236d565b600082116113bb5760405162461bcd60e51b815260206004820152600760248201526608585b5bdd5b9d60ca1b6044820152606401610467565b600480546040516370a0823160e01b8152309281019290925283916001600160a01b03909116906370a0823190602401602060405180830381865afa158015611408573d6000803e3d6000fd5b505050506040513d601f19601f8201168201806040525081019061142c9190612a3e565b10156114665760405162461bcd60e51b815260206004820152600960248201526818985b185b98d9480f60ba1b6044820152606401610467565b60045461147e906001600160a01b03163083856123ac565b60405182906001600160a01b038316907f8777844761eb456b028cf7f87fc8dcb146ad8eeafbc6f80f2d006e5cd9e5a74590600090a35050565b6003546001600160a01b031633146115005760405162461bcd60e51b815260206004820152600b60248201526a10b83937b532b1ba26b0b760a91b6044820152606401610467565b6001600160a01b03909216600090815260076020908152604080832063ffffffff90941683529281529082902083518155908301516001820180546001600160401b0390921667ffffffffffffffff19909216919091179055908201516002820155606090910151600390910155565b600454600090600160a01b900460ff161561159d5760405162461bcd60e51b8152600401610467906129fd565b60008263ffffffff16116115dc5760405162461bcd60e51b8152600401610467906020808252600490820152632171747960e01b604082015260600190565b3360006115e885611f65565b60c08101519091506001600160f81b031916600160f81b1461161c5760405162461bcd60e51b815260040161046790612a1d565b6001600160a01b038216600090815260056020908152604080832063ffffffff8981168552908352818420825160a0810184528154808416808352600160201b820490941695820195909552600160401b9094046001600160401b0316928401929092526001820154606084015260029091015460808301529091036116d25760405162461bcd60e51b815260206004820152600b60248201526a217374616b65722e71747960a81b6044820152606401610467565b805163ffffffff808716911610156117145760405162461bcd60e51b815260206004820152600560248201526438ba3c901f60d91b6044820152606401610467565b61171d8261232d565b6117525760405162461bcd60e51b81526004016104679060208082526004908201526308595b9960e21b604082015260600190565b600061176342846101800151612040565b9050806001600160401b031682604001516001600160401b031610156117c357608083015182516117ae9161179d9163ffffffff16612949565b836040015183866101400151610b26565b826060018181516117bf9190612960565b9052505b85826000018181516117d59190612aa9565b63ffffffff9081169091526001600160401b0342811660408087019182526001600160a01b0389166000818152600560209081528382208f8816835281528382208a518154838d015197518916600160401b0267ffffffffffffffff60401b19988b16600160201b0267ffffffffffffffff19909216928b169290921717969096169590951785556060808b01516001808801919091556080808d0151600298890155948452600783528584208d518a16855283529285902085519485018652805480865293810154909716918401919091529385015492820192909252600390930154918301919091529092509088169082906118d4908390612960565b9052506001600160a01b03949094166000908152600760209081526040808320955163ffffffff1683529481529084902085518155908501516001808301805467ffffffffffffffff19166001600160401b039093169290921790915593850151600282015560609094015160039094019390935550949350505050565b6001546001600160a01b0316331461197c5760405162461bcd60e51b815260040161046790612a74565b6001600160a01b0381166119e15760405162461bcd60e51b815260206004820152602660248201527f4f776e61626c653a206e6577206f776e657220697320746865207a65726f206160448201526564647265737360d01b6064820152608401610467565b6110c981612291565b6000600260005403611a3e5760405162461bcd60e51b815260206004820152601f60248201527f5265656e7472616e637947756172643a207265656e7472616e742063616c6c006044820152606401610467565b6002600055600454600160a01b900460ff1615611a6d5760405162461bcd60e51b8152600401610467906129fd565b60018216151580611a8057506002821615155b611ab45760405162461bcd60e51b8152602060048201526005602482015264217479706560d81b6044820152606401610467565b336000611ac085611f65565b60c08101519091506001600160f81b031916600160f81b14611af45760405162461bcd60e51b815260040161046790612a1d565b428161016001516001600160401b03161115611b3b5760405162461bcd60e51b8152602060048201526006602482015265085cdd185c9d60d21b6044820152606401610467565b6001600160a01b038216600090815260056020908152604080832063ffffffff8981168552908352818420825160a08101845281548084168252600160201b810490931694810194909452600160401b9091046001600160401b03169183019190915260018082015460608401526002909101546080830152909190861615611c30576001600160a01b0384166000908152600760209081526040808320865163ffffffff16845282529182902082516080810184528154815260018201546001600160401b0316928101929092526002810154928201929092526003909101546060820152611c2c858583612170565b9150505b6002861615611ddb57815163ffffffff16611c775760405162461bcd60e51b8152602060048201526007602482015266085cdd185ad95960ca1b6044820152606401610467565b6000611c8842856101800151612040565b9050806001600160401b031683604001516001600160401b03161115611cb657600095505050505050611e58565b606083015160808501518451611ce691611cd59163ffffffff16612949565b856040015184886101400151610b26565b6001600160401b0342166040860152600060608601526080850180519192508291611d12908390612960565b9052506001600160a01b038616600081815260056020908152604080832063ffffffff8e81168086529184528285208a5181548c8701518d87015192851667ffffffffffffffff1992831617600160201b91909516029390931767ffffffffffffffff60401b1916600160401b6001600160401b0390921691820217825560608c015160018084019190915560808d01516002909301929092559686526007855283862092865291909352922090910180549091169091179055611dd68184612960565b925050505b8015611e4f57600454611df8906001600160a01b031685836120fc565b8663ffffffff16846001600160a01b03167f9bf028f26713dbfd10f1790f08ee2c2df9a1d82c0f238230bb0b64af2aab4a9e83604051611e3a91815260200190565b60405180910390a36001945050505050611e58565b60009450505050505b600160005592915050565b604051636eb1769f60e11b81523060048201526001600160a01b038381166024830152600091839186169063dd62ed3e90604401602060405180830381865afa158015611eb4573d6000803e3d6000fd5b505050506040513d601f19601f82011682018060405250810190611ed89190612a3e565b611ee29190612960565b6040516001600160a01b038516602482015260448101829052909150611f4890859063095ea7b360e01b906064015b60408051601f198184030181529190526020810180516001600160e01b03166001600160e01b0319909316929092179091526123e4565b50505050565b6060611f5d84846000856124b6565b949350505050565b604080516101a081018252600080825260606020830181905282840182905282018190526080820181905260a0820181905260c0820181905260e0820181905261010082018190526101208201819052610140820181905261016082018190526101808201526003549151638206d49f60e01b815263ffffffff8416600482015290916001600160a01b031690638206d49f90602401600060405180830381865afa158015612018573d6000803e3d6000fd5b505050506040513d6000823e601f3d908101601f191682016040526105bc9190810190612be5565b6000816001600160401b0316836001600160401b031611156120625781611347565b5090919050565b6000836001600160a01b0316600184846040015185600001518660200151604051600081526020016040526040516120bd949392919093845260ff9290921660208401526040830152606082015260800190565b6020604051602081039080840390855afa1580156120df573d6000803e3d6000fd5b505050602060405103516001600160a01b03161490509392505050565b6040516001600160a01b03831660248201526044810182905261212c90849063a9059cbb60e01b90606401611f11565b505050565b805163ffffffff166110c95760405162461bcd60e51b8152602060048201526008602482015267085c1c9bda9958dd60c21b6044820152606401610467565b8051600090810361218357506000611347565b600061219442856101800151612040565b9050806001600160401b031683602001516001600160401b031611156121be576000915050611347565b6040830151608085015184516121e8916121d791612949565b856020015184886101200151610b26565b6121f29082612960565b6001600160401b034216602086015260006040860152606085018051919250829161221e908390612960565b9052506001600160a01b03959095166000908152600760209081526040808320965163ffffffff16835295815290859020845181559084015160018201805467ffffffffffffffff19166001600160401b0390921691909117905593830151600285015550506060015160039091015590565b600180546001600160a01b038381166001600160a01b0319831681179093556040519116919082907f8be0079c531659141344cd1fd0a4f28419497f9722a3daafe3b4186f6b6457e090600090a35050565b600280546001600160a01b0319166001600160a01b0383169081179091556040517f7ce7ec0b50378fb6c0186ffb5f48325f6593fcb4ca4386f21861af3129188f5c90600090a250565b60008160e0015161ffff16620151806123469190612d18565b62ffffff1682610160015161235b9190612d3f565b6001600160401b031642101592915050565b6001600160a01b0381166110c95760405162461bcd60e51b81526020600482015260066024820152653c1030b2323960d11b6044820152606401610467565b6040516001600160a01b0380851660248301528316604482015260648101829052611f489085906323b872dd60e01b90608401611f11565b6000612439826040518060400160405280602081526020017f5361666545524332303a206c6f772d6c6576656c2063616c6c206661696c6564815250856001600160a01b0316611f4e9092919063ffffffff16565b80519091501561212c57808060200190518101906124579190612d5f565b61212c5760405162461bcd60e51b815260206004820152602a60248201527f5361666545524332303a204552433230206f7065726174696f6e20646964206e6044820152691bdd081cdd58d8d9595960b21b6064820152608401610467565b6060824710156125175760405162461bcd60e51b815260206004820152602660248201527f416464726573733a20696e73756666696369656e742062616c616e636520666f6044820152651c8818d85b1b60d21b6064820152608401610467565b843b6125655760405162461bcd60e51b815260206004820152601d60248201527f416464726573733a2063616c6c20746f206e6f6e2d636f6e74726163740000006044820152606401610467565b600080866001600160a01b031685876040516125819190612d7c565b60006040518083038185875af1925050503d80600081146125be576040519150601f19603f3d011682016040523d82523d6000602084013e6125c3565b606091505b5091509150610b7b828286606083156125dd575081611347565b8251156125ed5782518084602001fd5b8160405162461bcd60e51b81526004016104679190612d98565b80151581146110c957600080fd5b60006020828403121561262757600080fd5b813561134781612607565b6001600160a01b03811681146110c957600080fd5b63ffffffff811681146110c957600080fd5b6000806040838503121561266c57600080fd5b823561267781612632565b9150602083013561268781612647565b809150509250929050565b6001600160401b03811681146110c957600080fd5b634e487b7160e01b600052604160045260246000fd5b6040516101a081016001600160401b03811182821017156126e0576126e06126a7565b60405290565b60008060008084860360c08112156126fd57600080fd5b853561270881612647565b945060208601359350604086013561271f81612692565b92506060605f198201121561273357600080fd5b50604051606081018181106001600160401b0382111715612756576127566126a7565b604052606086013581526080860135602082015260a086013560ff8116811461277e57600080fd5b6040820152939692955090935050565b600080600080608085870312156127a457600080fd5b8435935060208501356127b681612692565b925060408501356127c681612692565b9396929550929360600135925050565b600080604083850312156127e957600080fd5b823561267781612647565b60006020828403121561280657600080fd5b813561134781612632565b60006020828403121561282357600080fd5b813561134781612647565b6000806040838503121561284157600080fd5b82359150602083013561268781612632565b600080600083850360c081121561286957600080fd5b843561287481612632565b9350602085013561288481612647565b92506080603f198201121561289857600080fd5b50604051608081018181106001600160401b03821117156128bb576128bb6126a7565b6040908152850135815260608501356128d381612692565b60208201526080850135604082015260a0909401356060850152509093909250565b61ffff811681146110c957600080fd5b6000806040838503121561291857600080fd5b823561292381612647565b91506020830135612687816128f5565b634e487b7160e01b600052601160045260246000fd5b80820281158282048414176105bc576105bc612933565b808201808211156105bc576105bc612933565b634e487b7160e01b600052601260045260246000fd5b60006001600160401b03808416806129a3576129a3612973565b92169190910492915050565b818103818111156105bc576105bc612933565b6001600160401b038281168282160390808211156129e2576129e2612933565b5092915050565b6000826129f8576129f8612973565b500490565b6020808252600690820152651c185d5cd95960d21b604082015260600190565b6020808252600790820152662161637469766560c81b604082015260600190565b600060208284031215612a5057600080fd5b5051919050565b63ffffffff8181168382160190808211156129e2576129e2612933565b6020808252818101527f4f776e61626c653a2063616c6c6572206973206e6f7420746865206f776e6572604082015260600190565b63ffffffff8281168282160390808211156129e2576129e2612933565b8051612ad181612647565b919050565b60005b83811015612af1578181015183820152602001612ad9565b50506000910152565b600082601f830112612b0b57600080fd5b81516001600160401b0380821115612b2557612b256126a7565b604051601f8301601f19908116603f01168101908282118183101715612b4d57612b4d6126a7565b81604052838152866020858801011115612b6657600080fd5b612b77846020830160208901612ad6565b9695505050505050565b8051612ad181612632565b8051612ad1816128f5565b8051612ad181612607565b80516001600160f81b031981168114612ad157600080fd5b80516fffffffffffffffffffffffffffffffff81168114612ad157600080fd5b8051612ad181612692565b600060208284031215612bf757600080fd5b81516001600160401b0380821115612c0e57600080fd5b908301906101a08286031215612c2357600080fd5b612c2b6126bd565b612c3483612ac6565b8152602083015182811115612c4857600080fd5b612c5487828601612afa565b602083015250612c6660408401612b81565b6040820152612c7760608401612b8c565b606082015260808301516080820152612c9260a08401612b97565b60a0820152612ca360c08401612ba2565b60c0820152612cb460e08401612b8c565b60e08201526101009150612cc9828401612bba565b918101919091526101208281015190820152610140808301519082015261016090612cf5828401612bda565b828201526101809150612d09828401612bda565b91810191909152949350505050565b62ffffff818116838216028082169190828114612d3757612d37612933565b505092915050565b6001600160401b038181168382160190808211156129e2576129e2612933565b600060208284031215612d7157600080fd5b815161134781612607565b60008251612d8e818460208701612ad6565b9190910192915050565b6020815260008251806020840152612db7816040850160208701612ad6565b601f01601f1916919091016040019291505056fea2646970667358221220b3d53ff72eb0b17c2e880b1308e4e8001ea52cc8fdbbfb3dd314330ebb09309a64736f6c63430008110033",
  "bytecodeSha1": "da514e531ff7f99e0d117ddfa712f5f490d720d3",
  "compiler": {
    "evm_version": "istanbul",
    "optimizer": {
      "enabled": true,
      "runs": 200
    },
    "version": "0.8.17+commit.8df45f5f"
  },
  "contractName": "Staker",
  "language": "Solidity",
  "natspec": {
    "kind": "dev",
    "methods": {
      "calculateRewards(uint256,uint64,uint64,uint256)": {
        "details": "function to calculate rewards,      rewards is progressive to 12% per year.",
        "params": {
          "_amount": "amount of stable coin.",
          "_endTime": "time when staking ended.",
          "_startTime": "time when staking started."
        },
        "returns": {
          "rewards": "amount of rewards"
        }
      },
      "collectRewards(uint32,uint16)": {
        "notice": "This function allows the user to collect rewards from staking and holding tokens in a given project. It takes in two parameters: 'projectId' and 'rewardType'. It first checks to make sure staking is not paused and that a valid type of reward is specified. Afterward, it checks that the project status is active and then collects rewards. If the reward type indicates staking rewards, it calculates the rewards earned, updates the stake information and starts a new stake period. Afterwards, it transfers the collected rewards to the user and emits the CollectRewards event.",
        "params": {
          "projectId": "The ID of the project to collect rewards from.",
          "rewardType": "{uint16} The type of reward to collect. Can be                   REWARD_TYPE_HOLDING, REWARD_TYPE_STAKING or both."
        },
        "returns": {
          "_0": "{bool} Boolean indicating success."
        }
      },
      "collectRewardsBy(uint32,uint256,uint64,(bytes32,bytes32,uint8))": {
        "details": "Function to collect specific amount of rewards from project manually,      rewards is calculated off-chain and need authorization signature to proceed.      This procedure can work in paused state (for emergency purpose).",
        "params": {
          "amount": "the amount of rewards to collect.",
          "nonce": "the nonce of the signature.",
          "projectId": "the ID of project.",
          "sig": "the signature to authorize the transaction."
        }
      },
      "getHoldingInfo(address,uint32)": {
        "details": "get holding information on project of user"
      },
      "getStakingInfo(address,uint32)": {
        "details": "get user stake info."
      },
      "owner()": {
        "details": "Returns the address of the current owner."
      },
      "pause(bool)": {
        "notice": "This function is used to pause or unpause contract. Only the owner of the contract or the project manager contract can call this function.",
        "params": {
          "_paused": "A boolean indicating whether should be paused or not."
        }
      },
      "renounceOwnership()": {
        "details": "Leaves the contract without owner. It will not be possible to call `onlyOwner` functions anymore. Can only be called by the current owner. NOTE: Renouncing ownership will leave the contract without an owner, thereby removing any functionality that is only available to the owner."
      },
      "transferOwnership(address)": {
        "details": "Transfers ownership of the contract to a new account (`newOwner`). Can only be called by the current owner."
      },
      "withdrawTo(uint256,address)": {
        "details": "Withdraw amount of deposit from this contract to `to` address.      Caller of this function must be owner.",
        "params": {
          "amount": "to withdraw.",
          "to": "address to withdraw to."
        }
      }
    },
    "version": 1
  },
  "opcodes": "PUSH1 0x80 PUSH1 0x40 MSTORE CALLVALUE DUP1 ISZERO PUSH2 0x10 JUMPI PUSH1 0x0 DUP1 REVERT JUMPDEST POP PUSH1 0x4 CALLDATASIZE LT PUSH2 0x12C JUMPI PUSH1 0x0 CALLDATALOAD PUSH1 0xE0 SHR DUP1 PUSH4 0x9DEA67E3 GT PUSH2 0xAD JUMPI DUP1 PUSH4 0xD7526FFA GT PUSH2 0x71 JUMPI DUP1 PUSH4 0xD7526FFA EQ PUSH2 0x310 JUMPI DUP1 PUSH4 0xDDB93B1A EQ PUSH2 0x323 JUMPI DUP1 PUSH4 0xF2FDE38B EQ PUSH2 0x3DA JUMPI DUP1 PUSH4 0xF851A440 EQ PUSH2 0x3ED JUMPI DUP1 PUSH4 0xFD93238A EQ PUSH2 0x400 JUMPI PUSH1 0x0 DUP1 REVERT JUMPDEST DUP1 PUSH4 0x9DEA67E3 EQ PUSH2 0x2B1 JUMPI DUP1 PUSH4 0xAEAED1B7 EQ PUSH2 0x2C4 JUMPI DUP1 PUSH4 0xB4BBF4AF EQ PUSH2 0x2D7 JUMPI DUP1 PUSH4 0xC86283C8 EQ PUSH2 0x2EA JUMPI DUP1 PUSH4 0xCCFCD622 EQ PUSH2 0x2FD JUMPI PUSH1 0x0 DUP1 REVERT JUMPDEST DUP1 PUSH4 0x6792A95B GT PUSH2 0xF4 JUMPI DUP1 PUSH4 0x6792A95B EQ PUSH2 0x20F JUMPI DUP1 PUSH4 0x715018A6 EQ PUSH2 0x222 JUMPI DUP1 PUSH4 0x8DA5CB5B EQ PUSH2 0x22A JUMPI DUP1 PUSH4 0x8F283970 EQ PUSH2 0x24F JUMPI DUP1 PUSH4 0x947E89C8 EQ PUSH2 0x262 JUMPI PUSH1 0x0 DUP1 REVERT JUMPDEST DUP1 PUSH4 0x2329A29 EQ PUSH2 0x131 JUMPI DUP1 PUSH4 0x8BC92D2 EQ PUSH2 0x146 JUMPI DUP1 PUSH4 0x13F91252 EQ PUSH2 0x1B7 JUMPI DUP1 PUSH4 0x45305AB8 EQ PUSH2 0x1DA JUMPI DUP1 PUSH4 0x5C975ABB EQ PUSH2 0x1FB JUMPI JUMPDEST PUSH1 0x0 DUP1 REVERT JUMPDEST PUSH2 0x144 PUSH2 0x13F CALLDATASIZE PUSH1 0x4 PUSH2 0x2615 JUMP JUMPDEST PUSH2 0x413 JUMP JUMPDEST STOP JUMPDEST PUSH2 0x159 PUSH2 0x154 CALLDATASIZE PUSH1 0x4 PUSH2 0x2659 JUMP JUMPDEST PUSH2 0x48E JUMP JUMPDEST PUSH1 0x40 MLOAD PUSH2 0x1AE SWAP2 SWAP1 PUSH1 0x0 PUSH1 0xA0 DUP3 ADD SWAP1 POP PUSH4 0xFFFFFFFF DUP1 DUP5 MLOAD AND DUP4 MSTORE DUP1 PUSH1 0x20 DUP6 ADD MLOAD AND PUSH1 0x20 DUP5 ADD MSTORE POP PUSH1 0x1 PUSH1 0x1 PUSH1 0x40 SHL SUB PUSH1 0x40 DUP5 ADD MLOAD AND PUSH1 0x40 DUP4 ADD MSTORE PUSH1 0x60 DUP4 ADD MLOAD PUSH1 0x60 DUP4 ADD MSTORE PUSH1 0x80 DUP4 ADD MLOAD PUSH1 0x80 DUP4 ADD MSTORE SWAP3 SWAP2 POP POP JUMP JUMPDEST PUSH1 0x40 MLOAD DUP1 SWAP2 SUB SWAP1 RETURN JUMPDEST PUSH2 0x1CA PUSH2 0x1C5 CALLDATASIZE PUSH1 0x4 PUSH2 0x26E6 JUMP JUMPDEST PUSH2 0x5C2 JUMP JUMPDEST PUSH1 0x40 MLOAD SWAP1 ISZERO ISZERO DUP2 MSTORE PUSH1 0x20 ADD PUSH2 0x1AE JUMP JUMPDEST PUSH2 0x1ED PUSH2 0x1E8 CALLDATASIZE PUSH1 0x4 PUSH2 0x278E JUMP JUMPDEST PUSH2 0xB26 JUMP JUMPDEST PUSH1 0x40 MLOAD SWAP1 DUP2 MSTORE PUSH1 0x20 ADD PUSH2 0x1AE JUMP JUMPDEST PUSH1 0x4 SLOAD PUSH2 0x1CA SWAP1 PUSH1 0x1 PUSH1 0xA0 SHL SWAP1 DIV PUSH1 0xFF AND DUP2 JUMP JUMPDEST PUSH2 0x1CA PUSH2 0x21D CALLDATASIZE PUSH1 0x4 PUSH2 0x27D6 JUMP JUMPDEST PUSH2 0xB86 JUMP JUMPDEST PUSH2 0x144 PUSH2 0x1060 JUMP JUMPDEST PUSH1 0x1 SLOAD PUSH1 0x1 PUSH1 0x1 PUSH1 0xA0 SHL SUB AND JUMPDEST PUSH1 0x40 MLOAD PUSH1 0x1 PUSH1 0x1 PUSH1 0xA0 SHL SUB SWAP1 SWAP2 AND DUP2 MSTORE PUSH1 0x20 ADD PUSH2 0x1AE JUMP JUMPDEST PUSH2 0x144 PUSH2 0x25D CALLDATASIZE PUSH1 0x4 PUSH2 0x27F4 JUMP JUMPDEST PUSH2 0x1096 JUMP JUMPDEST PUSH2 0x275 PUSH2 0x270 CALLDATASIZE PUSH1 0x4 PUSH2 0x2659 JUMP JUMPDEST PUSH2 0x10CC JUMP JUMPDEST PUSH1 0x40 MLOAD PUSH2 0x1AE SWAP2 SWAP1 DUP2 MLOAD DUP2 MSTORE PUSH1 0x20 DUP1 DUP4 ADD MLOAD PUSH1 0x1 PUSH1 0x1 PUSH1 0x40 SHL SUB AND SWAP1 DUP3 ADD MSTORE PUSH1 0x40 DUP1 DUP4 ADD MLOAD SWAP1 DUP3 ADD MSTORE PUSH1 0x60 SWAP2 DUP3 ADD MLOAD SWAP2 DUP2 ADD SWAP2 SWAP1 SWAP2 MSTORE PUSH1 0x80 ADD SWAP1 JUMP JUMPDEST PUSH2 0x144 PUSH2 0x2BF CALLDATASIZE PUSH1 0x4 PUSH2 0x27F4 JUMP JUMPDEST PUSH2 0x1169 JUMP JUMPDEST PUSH2 0x275 PUSH2 0x2D2 CALLDATASIZE PUSH1 0x4 PUSH2 0x2659 JUMP JUMPDEST PUSH2 0x121F JUMP JUMPDEST PUSH2 0x1CA PUSH2 0x2E5 CALLDATASIZE PUSH1 0x4 PUSH2 0x2811 JUMP JUMPDEST PUSH2 0x1330 JUMP JUMPDEST PUSH2 0x144 PUSH2 0x2F8 CALLDATASIZE PUSH1 0x4 PUSH2 0x282E JUMP JUMPDEST PUSH2 0x134E JUMP JUMPDEST PUSH2 0x144 PUSH2 0x30B CALLDATASIZE PUSH1 0x4 PUSH2 0x2853 JUMP JUMPDEST PUSH2 0x14B8 JUMP JUMPDEST PUSH2 0x1CA PUSH2 0x31E CALLDATASIZE PUSH1 0x4 PUSH2 0x27D6 JUMP JUMPDEST PUSH2 0x1570 JUMP JUMPDEST PUSH2 0x159 PUSH2 0x331 CALLDATASIZE PUSH1 0x4 PUSH2 0x2659 JUMP JUMPDEST PUSH1 0x40 DUP1 MLOAD PUSH1 0xA0 DUP2 ADD DUP3 MSTORE PUSH1 0x0 DUP1 DUP3 MSTORE PUSH1 0x20 DUP3 ADD DUP2 SWAP1 MSTORE SWAP2 DUP2 ADD DUP3 SWAP1 MSTORE PUSH1 0x60 DUP2 ADD DUP3 SWAP1 MSTORE PUSH1 0x80 DUP2 ADD SWAP2 SWAP1 SWAP2 MSTORE POP PUSH1 0x1 PUSH1 0x1 PUSH1 0xA0 SHL SUB SWAP2 SWAP1 SWAP2 AND PUSH1 0x0 SWAP1 DUP2 MSTORE PUSH1 0x5 PUSH1 0x20 SWAP1 DUP2 MSTORE PUSH1 0x40 DUP1 DUP4 KECCAK256 PUSH4 0xFFFFFFFF SWAP5 DUP6 AND DUP5 MSTORE DUP3 MSTORE SWAP2 DUP3 SWAP1 KECCAK256 DUP3 MLOAD PUSH1 0xA0 DUP2 ADD DUP5 MSTORE DUP2 SLOAD DUP1 DUP7 AND DUP3 MSTORE PUSH1 0x1 PUSH1 0x20 SHL DUP2 DIV SWAP1 SWAP6 AND SWAP3 DUP2 ADD SWAP3 SWAP1 SWAP3 MSTORE PUSH1 0x1 PUSH1 0x40 SHL SWAP1 SWAP4 DIV PUSH1 0x1 PUSH1 0x1 PUSH1 0x40 SHL SUB AND SWAP2 DUP2 ADD SWAP2 SWAP1 SWAP2 MSTORE PUSH1 0x1 DUP3 ADD SLOAD PUSH1 0x60 DUP3 ADD MSTORE PUSH1 0x2 SWAP1 SWAP2 ADD SLOAD PUSH1 0x80 DUP3 ADD MSTORE SWAP1 JUMP JUMPDEST PUSH2 0x144 PUSH2 0x3E8 CALLDATASIZE PUSH1 0x4 PUSH2 0x27F4 JUMP JUMPDEST PUSH2 0x1952 JUMP JUMPDEST PUSH1 0x2 SLOAD PUSH2 0x237 SWAP1 PUSH1 0x1 PUSH1 0x1 PUSH1 0xA0 SHL SUB AND DUP2 JUMP JUMPDEST PUSH2 0x1CA PUSH2 0x40E CALLDATASIZE PUSH1 0x4 PUSH2 0x2905 JUMP JUMPDEST PUSH2 0x19EA JUMP JUMPDEST PUSH1 0x1 SLOAD PUSH1 0x1 PUSH1 0x1 PUSH1 0xA0 SHL SUB AND CALLER EQ DUP1 PUSH2 0x436 JUMPI POP PUSH1 0x3 SLOAD PUSH1 0x1 PUSH1 0x1 PUSH1 0xA0 SHL SUB AND CALLER EQ JUMPDEST PUSH2 0x470 JUMPI PUSH1 0x40 MLOAD PUSH3 0x461BCD PUSH1 0xE5 SHL DUP2 MSTORE PUSH1 0x20 PUSH1 0x4 DUP3 ADD MSTORE PUSH1 0x6 PUSH1 0x24 DUP3 ADD MSTORE PUSH6 0x10B7BBB732B9 PUSH1 0xD1 SHL PUSH1 0x44 DUP3 ADD MSTORE PUSH1 0x64 ADD JUMPDEST PUSH1 0x40 MLOAD DUP1 SWAP2 SUB SWAP1 REVERT JUMPDEST PUSH1 0x4 DUP1 SLOAD SWAP2 ISZERO ISZERO PUSH1 0x1 PUSH1 0xA0 SHL MUL PUSH1 0xFF PUSH1 0xA0 SHL NOT SWAP1 SWAP3 AND SWAP2 SWAP1 SWAP2 OR SWAP1 SSTORE JUMP JUMPDEST PUSH1 0x40 DUP1 MLOAD PUSH1 0xA0 DUP2 ADD DUP3 MSTORE PUSH1 0x0 DUP1 DUP3 MSTORE PUSH1 0x20 DUP3 ADD DUP2 SWAP1 MSTORE SWAP2 DUP2 ADD DUP3 SWAP1 MSTORE PUSH1 0x60 DUP2 ADD DUP3 SWAP1 MSTORE PUSH1 0x80 DUP2 ADD SWAP2 SWAP1 SWAP2 MSTORE PUSH1 0x1 PUSH1 0x1 PUSH1 0xA0 SHL SUB DUP4 AND PUSH1 0x0 SWAP1 DUP2 MSTORE PUSH1 0x5 PUSH1 0x20 SWAP1 DUP2 MSTORE PUSH1 0x40 DUP1 DUP4 KECCAK256 PUSH4 0xFFFFFFFF DUP7 DUP2 AND DUP6 MSTORE SWAP1 DUP4 MSTORE DUP2 DUP5 KECCAK256 DUP3 MLOAD PUSH1 0xA0 DUP2 ADD DUP5 MSTORE DUP2 SLOAD DUP1 DUP5 AND DUP3 MSTORE PUSH1 0x1 PUSH1 0x20 SHL DUP2 DIV SWAP1 SWAP4 AND SWAP5 DUP2 ADD SWAP5 SWAP1 SWAP5 MSTORE PUSH1 0x1 PUSH1 0x40 SHL SWAP1 SWAP2 DIV PUSH1 0x1 PUSH1 0x1 PUSH1 0x40 SHL SUB AND SWAP2 DUP4 ADD SWAP2 SWAP1 SWAP2 MSTORE PUSH1 0x1 DUP2 ADD SLOAD PUSH1 0x60 DUP4 ADD MSTORE PUSH1 0x2 ADD SLOAD PUSH1 0x80 DUP3 ADD MSTORE SWAP1 PUSH2 0x539 DUP5 PUSH2 0x1F65 JUMP JUMPDEST SWAP1 POP PUSH1 0x0 PUSH2 0x54C TIMESTAMP DUP4 PUSH2 0x180 ADD MLOAD PUSH2 0x2040 JUMP JUMPDEST SWAP1 POP DUP1 PUSH1 0x1 PUSH1 0x1 PUSH1 0x40 SHL SUB AND DUP4 PUSH1 0x40 ADD MLOAD PUSH1 0x1 PUSH1 0x1 PUSH1 0x40 SHL SUB AND GT ISZERO PUSH2 0x577 JUMPI DUP3 SWAP4 POP POP POP POP PUSH2 0x5BC JUMP JUMPDEST PUSH1 0x80 DUP3 ADD MLOAD DUP4 MLOAD PUSH2 0x5A2 SWAP2 PUSH2 0x591 SWAP2 PUSH4 0xFFFFFFFF AND PUSH2 0x2949 JUMP JUMPDEST DUP5 PUSH1 0x40 ADD MLOAD DUP4 DUP6 PUSH2 0x140 ADD MLOAD PUSH2 0xB26 JUMP JUMPDEST DUP4 PUSH1 0x60 ADD DUP2 DUP2 MLOAD PUSH2 0x5B3 SWAP2 SWAP1 PUSH2 0x2960 JUMP JUMPDEST SWAP1 MSTORE POP SWAP2 SWAP3 POP POP POP JUMPDEST SWAP3 SWAP2 POP POP JUMP JUMPDEST PUSH1 0x0 PUSH1 0x2 PUSH1 0x0 SLOAD SUB PUSH2 0x616 JUMPI PUSH1 0x40 MLOAD PUSH3 0x461BCD PUSH1 0xE5 SHL DUP2 MSTORE PUSH1 0x20 PUSH1 0x4 DUP3 ADD MSTORE PUSH1 0x1F PUSH1 0x24 DUP3 ADD MSTORE PUSH32 0x5265656E7472616E637947756172643A207265656E7472616E742063616C6C00 PUSH1 0x44 DUP3 ADD MSTORE PUSH1 0x64 ADD PUSH2 0x467 JUMP JUMPDEST PUSH1 0x2 PUSH1 0x0 SSTORE PUSH2 0x626 PUSH1 0x3C TIMESTAMP PUSH2 0x2989 JUMP JUMPDEST PUSH1 0x1 PUSH1 0x1 PUSH1 0x40 SHL SUB AND DUP4 PUSH1 0x1 PUSH1 0x1 PUSH1 0x40 SHL SUB AND LT ISZERO PUSH2 0x671 JUMPI PUSH1 0x40 MLOAD PUSH3 0x461BCD PUSH1 0xE5 SHL DUP2 MSTORE PUSH1 0x20 PUSH1 0x4 DUP3 ADD MSTORE PUSH1 0x7 PUSH1 0x24 DUP3 ADD MSTORE PUSH7 0x78206E6F6E6365 PUSH1 0xC8 SHL PUSH1 0x44 DUP3 ADD MSTORE PUSH1 0x64 ADD PUSH2 0x467 JUMP JUMPDEST PUSH1 0x1 PUSH1 0x1 PUSH1 0x40 SHL SUB DUP4 AND PUSH1 0x0 SWAP1 DUP2 MSTORE PUSH1 0x6 PUSH1 0x20 MSTORE PUSH1 0x40 SWAP1 KECCAK256 SLOAD PUSH1 0xFF AND ISZERO PUSH2 0x6C4 JUMPI PUSH1 0x40 MLOAD PUSH3 0x461BCD PUSH1 0xE5 SHL DUP2 MSTORE PUSH1 0x20 PUSH1 0x4 DUP3 ADD MSTORE PUSH1 0x7 PUSH1 0x24 DUP3 ADD MSTORE PUSH7 0x78206E6F6E6365 PUSH1 0xC8 SHL PUSH1 0x44 DUP3 ADD MSTORE PUSH1 0x64 ADD PUSH2 0x467 JUMP JUMPDEST PUSH1 0x0 PUSH2 0x6CF DUP7 PUSH2 0x1F65 JUMP JUMPDEST DUP1 MLOAD SWAP1 SWAP2 POP PUSH4 0xFFFFFFFF AND PUSH1 0x0 SUB PUSH2 0x714 JUMPI PUSH1 0x40 MLOAD PUSH3 0x461BCD PUSH1 0xE5 SHL DUP2 MSTORE PUSH1 0x20 PUSH1 0x4 DUP3 ADD MSTORE PUSH1 0x8 PUSH1 0x24 DUP3 ADD MSTORE PUSH8 0x85C1C9BDA9958DD PUSH1 0xC2 SHL PUSH1 0x44 DUP3 ADD MSTORE PUSH1 0x64 ADD PUSH2 0x467 JUMP JUMPDEST CALLER PUSH1 0x0 DUP2 DUP2 MSTORE PUSH1 0x5 PUSH1 0x20 SWAP1 DUP2 MSTORE PUSH1 0x40 DUP1 DUP4 KECCAK256 PUSH4 0xFFFFFFFF DUP12 DUP2 AND DUP6 MSTORE SWAP1 DUP4 MSTORE DUP2 DUP5 KECCAK256 DUP3 MLOAD PUSH1 0xA0 DUP2 ADD DUP5 MSTORE DUP2 SLOAD DUP1 DUP5 AND DUP1 DUP4 MSTORE PUSH1 0x1 PUSH1 0x20 SHL DUP3 DIV SWAP1 SWAP5 AND SWAP6 DUP3 ADD SWAP6 SWAP1 SWAP6 MSTORE PUSH1 0x1 PUSH1 0x40 SHL SWAP1 SWAP5 DIV PUSH1 0x1 PUSH1 0x1 PUSH1 0x40 SHL SUB AND SWAP3 DUP5 ADD SWAP3 SWAP1 SWAP3 MSTORE PUSH1 0x1 DUP3 ADD SLOAD PUSH1 0x60 DUP5 ADD MSTORE PUSH1 0x2 SWAP1 SWAP2 ADD SLOAD PUSH1 0x80 DUP4 ADD MSTORE SWAP1 SWAP2 SUB PUSH2 0x7C1 JUMPI PUSH1 0x40 MLOAD PUSH3 0x461BCD PUSH1 0xE5 SHL DUP2 MSTORE PUSH1 0x20 PUSH1 0x4 DUP3 ADD MSTORE PUSH1 0xB PUSH1 0x24 DUP3 ADD MSTORE PUSH11 0x217374616B65722E717479 PUSH1 0xA8 SHL PUSH1 0x44 DUP3 ADD MSTORE PUSH1 0x64 ADD PUSH2 0x467 JUMP JUMPDEST PUSH1 0x40 MLOAD PUSH1 0xE0 DUP10 SWAP1 SHL PUSH1 0x1 PUSH1 0x1 PUSH1 0xE0 SHL SUB NOT AND PUSH1 0x20 DUP3 ADD MSTORE PUSH1 0x60 DUP4 DUP2 SHL PUSH12 0xFFFFFFFFFFFFFFFFFFFFFFFF NOT AND PUSH1 0x24 DUP4 ADD MSTORE PUSH1 0x38 DUP3 ADD DUP10 SWAP1 MSTORE PUSH1 0xC0 DUP9 SWAP1 SHL PUSH1 0x1 PUSH1 0x1 PUSH1 0xC0 SHL SUB NOT AND PUSH1 0x58 DUP4 ADD MSTORE PUSH1 0x0 SWAP2 PUSH2 0x87D SWAP2 ADD PUSH1 0x40 MLOAD PUSH1 0x20 DUP2 DUP4 SUB SUB DUP2 MSTORE SWAP1 PUSH1 0x40 MSTORE DUP1 MLOAD SWAP1 PUSH1 0x20 ADD KECCAK256 PUSH1 0x40 MLOAD PUSH32 0x19457468657265756D205369676E6564204D6573736167653A0A333200000000 PUSH1 0x20 DUP3 ADD MSTORE PUSH1 0x3C DUP2 ADD DUP3 SWAP1 MSTORE PUSH1 0x0 SWAP1 PUSH1 0x5C ADD PUSH1 0x40 MLOAD PUSH1 0x20 DUP2 DUP4 SUB SUB DUP2 MSTORE SWAP1 PUSH1 0x40 MSTORE DUP1 MLOAD SWAP1 PUSH1 0x20 ADD KECCAK256 SWAP1 POP SWAP2 SWAP1 POP JUMP JUMPDEST PUSH1 0x2 SLOAD SWAP1 SWAP2 POP PUSH2 0x897 SWAP1 PUSH1 0x1 PUSH1 0x1 PUSH1 0xA0 SHL SUB AND DUP3 DUP9 PUSH2 0x2069 JUMP JUMPDEST PUSH2 0x8D1 JUMPI PUSH1 0x40 MLOAD PUSH3 0x461BCD PUSH1 0xE5 SHL DUP2 MSTORE PUSH1 0x20 PUSH1 0x4 DUP3 ADD MSTORE PUSH1 0xB PUSH1 0x24 DUP3 ADD MSTORE PUSH11 0x78207369676E6174757265 PUSH1 0xA8 SHL PUSH1 0x44 DUP3 ADD MSTORE PUSH1 0x64 ADD PUSH2 0x467 JUMP JUMPDEST PUSH1 0x1 PUSH1 0x1 PUSH1 0x40 SHL SUB DUP8 AND PUSH1 0x0 SWAP1 DUP2 MSTORE PUSH1 0x6 PUSH1 0x20 MSTORE PUSH1 0x40 DUP2 KECCAK256 DUP1 SLOAD PUSH1 0xFF NOT AND PUSH1 0x1 OR SWAP1 SSTORE PUSH1 0x60 DUP4 ADD MLOAD PUSH2 0x180 DUP7 ADD MLOAD SWAP1 SWAP2 SWAP1 PUSH2 0x90D SWAP1 TIMESTAMP SWAP1 PUSH2 0x2040 JUMP JUMPDEST SWAP1 POP PUSH2 0x93D DUP7 PUSH1 0x80 ADD MLOAD DUP6 PUSH1 0x0 ADD MLOAD PUSH4 0xFFFFFFFF AND PUSH2 0x92C SWAP2 SWAP1 PUSH2 0x2949 JUMP JUMPDEST DUP6 PUSH1 0x40 ADD MLOAD DUP4 DUP10 PUSH2 0x140 ADD MLOAD PUSH2 0xB26 JUMP JUMPDEST PUSH2 0x947 SWAP1 DUP4 PUSH2 0x2960 JUMP JUMPDEST SWAP2 POP DUP2 DUP11 GT ISZERO PUSH2 0x984 JUMPI PUSH1 0x40 MLOAD PUSH3 0x461BCD PUSH1 0xE5 SHL DUP2 MSTORE PUSH1 0x20 PUSH1 0x4 DUP3 ADD MSTORE PUSH1 0x8 PUSH1 0x24 DUP3 ADD MSTORE PUSH8 0x1E08185B5BDD5B9D PUSH1 0xC2 SHL PUSH1 0x44 DUP3 ADD MSTORE PUSH1 0x64 ADD PUSH2 0x467 JUMP JUMPDEST PUSH1 0x1 PUSH1 0x1 PUSH1 0x40 SHL SUB TIMESTAMP AND PUSH1 0x40 DUP6 ADD MSTORE PUSH2 0x99D DUP11 DUP4 PUSH2 0x29AF JUMP JUMPDEST PUSH1 0x60 DUP6 ADD MSTORE PUSH1 0x80 DUP5 ADD DUP1 MLOAD DUP12 SWAP2 SWAP1 PUSH2 0x9B6 SWAP1 DUP4 SWAP1 PUSH2 0x2960 JUMP JUMPDEST SWAP2 POP DUP2 DUP2 MSTORE POP POP DUP4 PUSH1 0x5 PUSH1 0x0 DUP8 PUSH1 0x1 PUSH1 0x1 PUSH1 0xA0 SHL SUB AND PUSH1 0x1 PUSH1 0x1 PUSH1 0xA0 SHL SUB AND DUP2 MSTORE PUSH1 0x20 ADD SWAP1 DUP2 MSTORE PUSH1 0x20 ADD PUSH1 0x0 KECCAK256 PUSH1 0x0 DUP14 PUSH4 0xFFFFFFFF AND PUSH4 0xFFFFFFFF AND DUP2 MSTORE PUSH1 0x20 ADD SWAP1 DUP2 MSTORE PUSH1 0x20 ADD PUSH1 0x0 KECCAK256 PUSH1 0x0 DUP3 ADD MLOAD DUP2 PUSH1 0x0 ADD PUSH1 0x0 PUSH2 0x100 EXP DUP2 SLOAD DUP2 PUSH4 0xFFFFFFFF MUL NOT AND SWAP1 DUP4 PUSH4 0xFFFFFFFF AND MUL OR SWAP1 SSTORE POP PUSH1 0x20 DUP3 ADD MLOAD DUP2 PUSH1 0x0 ADD PUSH1 0x4 PUSH2 0x100 EXP DUP2 SLOAD DUP2 PUSH4 0xFFFFFFFF MUL NOT AND SWAP1 DUP4 PUSH4 0xFFFFFFFF AND MUL OR SWAP1 SSTORE POP PUSH1 0x40 DUP3 ADD MLOAD DUP2 PUSH1 0x0 ADD PUSH1 0x8 PUSH2 0x100 EXP DUP2 SLOAD DUP2 PUSH1 0x1 PUSH1 0x1 PUSH1 0x40 SHL SUB MUL NOT AND SWAP1 DUP4 PUSH1 0x1 PUSH1 0x1 PUSH1 0x40 SHL SUB AND MUL OR SWAP1 SSTORE POP PUSH1 0x60 DUP3 ADD MLOAD DUP2 PUSH1 0x1 ADD SSTORE PUSH1 0x80 DUP3 ADD MLOAD DUP2 PUSH1 0x2 ADD SSTORE SWAP1 POP POP PUSH2 0xAC5 DUP6 DUP12 PUSH1 0x4 PUSH1 0x0 SWAP1 SLOAD SWAP1 PUSH2 0x100 EXP SWAP1 DIV PUSH1 0x1 PUSH1 0x1 PUSH1 0xA0 SHL SUB AND PUSH1 0x1 PUSH1 0x1 PUSH1 0xA0 SHL SUB AND PUSH2 0x20FC SWAP1 SWAP3 SWAP2 SWAP1 PUSH4 0xFFFFFFFF AND JUMP JUMPDEST DUP11 PUSH4 0xFFFFFFFF AND DUP6 PUSH1 0x1 PUSH1 0x1 PUSH1 0xA0 SHL SUB AND PUSH32 0x9BF028F26713DBFD10F1790F08EE2C2DF9A1D82C0F238230BB0B64AF2AAB4A9E DUP13 PUSH1 0x40 MLOAD PUSH2 0xB07 SWAP2 DUP2 MSTORE PUSH1 0x20 ADD SWAP1 JUMP JUMPDEST PUSH1 0x40 MLOAD DUP1 SWAP2 SUB SWAP1 LOG3 PUSH1 0x1 SWAP7 POP POP POP POP POP POP POP PUSH1 0x1 PUSH1 0x0 SSTORE SWAP5 SWAP4 POP POP POP POP JUMP JUMPDEST PUSH1 0x0 DUP1 PUSH3 0x15180 PUSH2 0xB37 DUP7 DUP7 PUSH2 0x29C2 JUMP JUMPDEST PUSH2 0xB41 SWAP2 SWAP1 PUSH2 0x2989 JUMP JUMPDEST SWAP1 POP PUSH1 0x0 PUSH2 0xB4F DUP5 DUP9 PUSH2 0x2949 JUMP JUMPDEST SWAP1 POP PUSH2 0x16D PUSH2 0xB64 PUSH4 0xFFFFFFFF DUP5 AND DUP4 PUSH2 0x2949 JUMP JUMPDEST PUSH2 0xB6E SWAP2 SWAP1 PUSH2 0x29E9 JUMP JUMPDEST SWAP3 POP PUSH2 0xB7B PUSH1 0x64 DUP5 PUSH2 0x29E9 JUMP JUMPDEST SWAP8 SWAP7 POP POP POP POP POP POP POP JUMP JUMPDEST PUSH1 0x4 SLOAD PUSH1 0x0 SWAP1 PUSH1 0x1 PUSH1 0xA0 SHL SWAP1 DIV PUSH1 0xFF AND ISZERO PUSH2 0xBB3 JUMPI PUSH1 0x40 MLOAD PUSH3 0x461BCD PUSH1 0xE5 SHL DUP2 MSTORE PUSH1 0x4 ADD PUSH2 0x467 SWAP1 PUSH2 0x29FD JUMP JUMPDEST PUSH1 0x0 DUP3 PUSH4 0xFFFFFFFF AND GT PUSH2 0xBF2 JUMPI PUSH1 0x40 MLOAD PUSH3 0x461BCD PUSH1 0xE5 SHL DUP2 MSTORE PUSH1 0x4 ADD PUSH2 0x467 SWAP1 PUSH1 0x20 DUP1 DUP3 MSTORE PUSH1 0x4 SWAP1 DUP3 ADD MSTORE PUSH4 0x21717479 PUSH1 0xE0 SHL PUSH1 0x40 DUP3 ADD MSTORE PUSH1 0x60 ADD SWAP1 JUMP JUMPDEST CALLER PUSH1 0x0 PUSH2 0xBFE DUP6 PUSH2 0x1F65 JUMP JUMPDEST SWAP1 POP PUSH2 0xC09 DUP2 PUSH2 0x2131 JUMP JUMPDEST PUSH1 0xC0 DUP2 ADD MLOAD PUSH1 0x1 PUSH1 0x1 PUSH1 0xF8 SHL SUB NOT AND PUSH1 0x1 PUSH1 0xF8 SHL EQ PUSH2 0xC3A JUMPI PUSH1 0x40 MLOAD PUSH3 0x461BCD PUSH1 0xE5 SHL DUP2 MSTORE PUSH1 0x4 ADD PUSH2 0x467 SWAP1 PUSH2 0x2A1D JUMP JUMPDEST TIMESTAMP DUP2 PUSH2 0x160 ADD MLOAD PUSH1 0x1 PUSH1 0x1 PUSH1 0x40 SHL SUB AND GT ISZERO PUSH2 0xC81 JUMPI PUSH1 0x40 MLOAD PUSH3 0x461BCD PUSH1 0xE5 SHL DUP2 MSTORE PUSH1 0x20 PUSH1 0x4 DUP3 ADD MSTORE PUSH1 0x6 PUSH1 0x24 DUP3 ADD MSTORE PUSH6 0x85CDD185C9D PUSH1 0xD2 SHL PUSH1 0x44 DUP3 ADD MSTORE PUSH1 0x64 ADD PUSH2 0x467 JUMP JUMPDEST TIMESTAMP DUP2 PUSH2 0x180 ADD MLOAD PUSH1 0x1 PUSH1 0x1 PUSH1 0x40 SHL SUB AND GT PUSH2 0xCC7 JUMPI PUSH1 0x40 MLOAD PUSH3 0x461BCD PUSH1 0xE5 SHL DUP2 MSTORE PUSH1 0x20 PUSH1 0x4 DUP3 ADD MSTORE PUSH1 0x6 PUSH1 0x24 DUP3 ADD MSTORE PUSH6 0x8595B991959 PUSH1 0xD2 SHL PUSH1 0x44 DUP3 ADD MSTORE PUSH1 0x64 ADD PUSH2 0x467 JUMP JUMPDEST PUSH1 0x3 SLOAD PUSH1 0x40 MLOAD PUSH3 0x7EEAC7 PUSH1 0xE1 SHL DUP2 MSTORE PUSH1 0x1 PUSH1 0x1 PUSH1 0xA0 SHL SUB DUP5 DUP2 AND PUSH1 0x4 DUP4 ADD MSTORE PUSH4 0xFFFFFFFF DUP9 DUP2 AND PUSH1 0x24 DUP5 ADD MSTORE DUP8 AND SWAP3 AND SWAP1 PUSH3 0xFDD58E SWAP1 PUSH1 0x44 ADD PUSH1 0x20 PUSH1 0x40 MLOAD DUP1 DUP4 SUB DUP2 DUP7 GAS STATICCALL ISZERO DUP1 ISZERO PUSH2 0xD1D JUMPI RETURNDATASIZE PUSH1 0x0 DUP1 RETURNDATACOPY RETURNDATASIZE PUSH1 0x0 REVERT JUMPDEST POP POP POP POP PUSH1 0x40 MLOAD RETURNDATASIZE PUSH1 0x1F NOT PUSH1 0x1F DUP3 ADD AND DUP3 ADD DUP1 PUSH1 0x40 MSTORE POP DUP2 ADD SWAP1 PUSH2 0xD41 SWAP2 SWAP1 PUSH2 0x2A3E JUMP JUMPDEST LT ISZERO PUSH2 0xD7B JUMPI PUSH1 0x40 MLOAD PUSH3 0x461BCD PUSH1 0xE5 SHL DUP2 MSTORE PUSH1 0x20 PUSH1 0x4 DUP3 ADD MSTORE PUSH1 0x9 PUSH1 0x24 DUP3 ADD MSTORE PUSH9 0x18985B185B98D9480F PUSH1 0xBA SHL PUSH1 0x44 DUP3 ADD MSTORE PUSH1 0x64 ADD PUSH2 0x467 JUMP JUMPDEST PUSH1 0x1 PUSH1 0x1 PUSH1 0xA0 SHL SUB DUP3 AND PUSH1 0x0 DUP2 DUP2 MSTORE PUSH1 0x5 PUSH1 0x20 SWAP1 DUP2 MSTORE PUSH1 0x40 DUP1 DUP4 KECCAK256 PUSH4 0xFFFFFFFF DUP1 DUP12 AND DUP6 MSTORE SWAP1 DUP4 MSTORE DUP2 DUP5 KECCAK256 DUP3 MLOAD PUSH1 0xA0 DUP2 ADD DUP5 MSTORE DUP2 SLOAD DUP1 DUP5 AND DUP3 MSTORE PUSH1 0x1 PUSH1 0x20 SHL DUP2 DIV DUP5 AND DUP3 DUP8 ADD MSTORE PUSH1 0x1 PUSH1 0x1 PUSH1 0x40 SHL SUB PUSH1 0x1 PUSH1 0x40 SHL SWAP1 SWAP2 DIV DUP2 AND DUP3 DUP7 ADD MSTORE PUSH1 0x1 DUP1 DUP5 ADD SLOAD PUSH1 0x60 DUP1 DUP6 ADD SWAP2 SWAP1 SWAP2 MSTORE PUSH1 0x2 SWAP5 DUP6 ADD SLOAD PUSH1 0x80 DUP1 DUP7 ADD SWAP2 SWAP1 SWAP2 MSTORE SWAP10 DUP10 MSTORE PUSH1 0x7 DUP9 MSTORE DUP7 DUP10 KECCAK256 DUP12 MLOAD SWAP1 SWAP7 AND DUP10 MSTORE SWAP5 DUP8 MSTORE DUP6 DUP9 KECCAK256 DUP7 MLOAD SWAP10 DUP11 ADD DUP8 MSTORE DUP1 SLOAD DUP11 MSTORE SWAP1 DUP2 ADD SLOAD SWAP1 SWAP2 AND SWAP6 DUP9 ADD SWAP6 SWAP1 SWAP6 MSTORE SWAP1 DUP5 ADD SLOAD SWAP3 DUP7 ADD SWAP3 SWAP1 SWAP3 MSTORE PUSH1 0x3 SWAP1 SWAP3 ADD SLOAD SWAP2 DUP5 ADD SWAP2 SWAP1 SWAP2 MSTORE SWAP2 SWAP1 PUSH2 0xE4B DUP6 DUP6 DUP5 PUSH2 0x2170 JUMP JUMPDEST SWAP1 POP DUP1 ISZERO PUSH2 0xEB5 JUMPI PUSH1 0x4 SLOAD PUSH2 0xE6A SWAP1 PUSH1 0x1 PUSH1 0x1 PUSH1 0xA0 SHL SUB AND DUP7 DUP4 PUSH2 0x20FC JUMP JUMPDEST DUP8 PUSH4 0xFFFFFFFF AND DUP6 PUSH1 0x1 PUSH1 0x1 PUSH1 0xA0 SHL SUB AND PUSH32 0x9BF028F26713DBFD10F1790F08EE2C2DF9A1D82C0F238230BB0B64AF2AAB4A9E DUP4 PUSH1 0x40 MLOAD PUSH2 0xEAC SWAP2 DUP2 MSTORE PUSH1 0x20 ADD SWAP1 JUMP JUMPDEST PUSH1 0x40 MLOAD DUP1 SWAP2 SUB SWAP1 LOG3 JUMPDEST PUSH1 0x0 PUSH2 0xEC6 TIMESTAMP DUP7 PUSH2 0x180 ADD MLOAD PUSH2 0x2040 JUMP JUMPDEST DUP5 MLOAD SWAP1 SWAP2 POP PUSH4 0xFFFFFFFF AND ISZERO DUP1 ISZERO SWAP1 PUSH2 0xEF4 JUMPI POP DUP1 PUSH1 0x1 PUSH1 0x1 PUSH1 0x40 SHL SUB AND DUP5 PUSH1 0x40 ADD MLOAD PUSH1 0x1 PUSH1 0x1 PUSH1 0x40 SHL SUB AND LT JUMPDEST ISZERO PUSH2 0xF39 JUMPI PUSH1 0x80 DUP6 ADD MLOAD DUP5 MLOAD PUSH2 0xF24 SWAP2 PUSH2 0xF13 SWAP2 PUSH4 0xFFFFFFFF AND PUSH2 0x2949 JUMP JUMPDEST DUP6 PUSH1 0x40 ADD MLOAD DUP4 DUP9 PUSH2 0x140 ADD MLOAD PUSH2 0xB26 JUMP JUMPDEST DUP5 PUSH1 0x60 ADD DUP2 DUP2 MLOAD PUSH2 0xF35 SWAP2 SWAP1 PUSH2 0x2960 JUMP JUMPDEST SWAP1 MSTORE POP JUMPDEST DUP8 DUP5 PUSH1 0x0 ADD DUP2 DUP2 MLOAD PUSH2 0xF4B SWAP2 SWAP1 PUSH2 0x2A57 JUMP JUMPDEST PUSH4 0xFFFFFFFF SWAP1 DUP2 AND SWAP1 SWAP2 MSTORE PUSH1 0x1 PUSH1 0x1 PUSH1 0x40 SHL SUB TIMESTAMP AND PUSH1 0x40 DUP8 ADD MSTORE DUP5 MLOAD SWAP1 DUP11 AND SWAP2 POP DUP5 SWAP1 PUSH2 0xF79 SWAP1 DUP4 SWAP1 PUSH2 0x29AF JUMP JUMPDEST SWAP1 MSTORE POP POP POP PUSH1 0x1 PUSH1 0x1 PUSH1 0xA0 SHL SUB SWAP4 SWAP1 SWAP4 AND PUSH1 0x0 DUP2 DUP2 MSTORE PUSH1 0x5 PUSH1 0x20 SWAP1 DUP2 MSTORE PUSH1 0x40 DUP1 DUP4 KECCAK256 PUSH4 0xFFFFFFFF SWAP11 DUP12 AND DUP5 MSTORE DUP3 MSTORE DUP1 DUP4 KECCAK256 DUP6 MLOAD DUP2 SLOAD DUP8 DUP6 ADD MLOAD DUP9 DUP6 ADD MLOAD SWAP3 DUP15 AND PUSH8 0xFFFFFFFFFFFFFFFF NOT SWAP3 DUP4 AND OR PUSH1 0x1 PUSH1 0x20 SHL SWAP2 DUP16 AND SWAP2 SWAP1 SWAP2 MUL OR PUSH8 0xFFFFFFFFFFFFFFFF PUSH1 0x40 SHL NOT AND PUSH1 0x1 PUSH1 0x40 SHL PUSH1 0x1 PUSH1 0x1 PUSH1 0x40 SHL SUB SWAP4 DUP5 AND MUL OR DUP4 SSTORE PUSH1 0x60 DUP1 DUP10 ADD MLOAD PUSH1 0x1 DUP1 DUP7 ADD SWAP2 SWAP1 SWAP2 SSTORE PUSH1 0x80 SWAP1 SWAP10 ADD MLOAD PUSH1 0x2 SWAP5 DUP6 ADD SSTORE SWAP7 DUP7 MSTORE PUSH1 0x7 DUP6 MSTORE DUP4 DUP7 KECCAK256 SWAP9 MLOAD SWAP1 SWAP13 AND DUP6 MSTORE SWAP7 DUP4 MSTORE SWAP3 DUP2 SWAP1 KECCAK256 DUP8 MLOAD DUP2 SSTORE SWAP2 DUP8 ADD MLOAD DUP3 DUP7 ADD DUP1 SLOAD SWAP1 SWAP12 AND SWAP7 AND SWAP6 SWAP1 SWAP6 OR SWAP1 SWAP9 SSTORE SWAP3 DUP5 ADD MLOAD SWAP3 DUP8 ADD SWAP3 SWAP1 SWAP3 SSTORE SWAP2 ADD MLOAD PUSH1 0x3 SWAP1 SWAP5 ADD SWAP4 SWAP1 SWAP4 SSTORE POP SWAP1 SWAP2 SWAP1 POP JUMP JUMPDEST PUSH1 0x1 SLOAD PUSH1 0x1 PUSH1 0x1 PUSH1 0xA0 SHL SUB AND CALLER EQ PUSH2 0x108A JUMPI PUSH1 0x40 MLOAD PUSH3 0x461BCD PUSH1 0xE5 SHL DUP2 MSTORE PUSH1 0x4 ADD PUSH2 0x467 SWAP1 PUSH2 0x2A74 JUMP JUMPDEST PUSH2 0x1094 PUSH1 0x0 PUSH2 0x2291 JUMP JUMPDEST JUMP JUMPDEST PUSH1 0x1 SLOAD PUSH1 0x1 PUSH1 0x1 PUSH1 0xA0 SHL SUB AND CALLER EQ PUSH2 0x10C0 JUMPI PUSH1 0x40 MLOAD PUSH3 0x461BCD PUSH1 0xE5 SHL DUP2 MSTORE PUSH1 0x4 ADD PUSH2 0x467 SWAP1 PUSH2 0x2A74 JUMP JUMPDEST PUSH2 0x10C9 DUP2 PUSH2 0x22E3 JUMP JUMPDEST POP JUMP JUMPDEST PUSH2 0x1100 PUSH1 0x40 MLOAD DUP1 PUSH1 0x80 ADD PUSH1 0x40 MSTORE DUP1 PUSH1 0x0 DUP2 MSTORE PUSH1 0x20 ADD PUSH1 0x0 PUSH1 0x1 PUSH1 0x1 PUSH1 0x40 SHL SUB AND DUP2 MSTORE PUSH1 0x20 ADD PUSH1 0x0 DUP2 MSTORE PUSH1 0x20 ADD PUSH1 0x0 DUP2 MSTORE POP SWAP1 JUMP JUMPDEST POP PUSH1 0x1 PUSH1 0x1 PUSH1 0xA0 SHL SUB DUP3 AND PUSH1 0x0 SWAP1 DUP2 MSTORE PUSH1 0x7 PUSH1 0x20 SWAP1 DUP2 MSTORE PUSH1 0x40 DUP1 DUP4 KECCAK256 PUSH4 0xFFFFFFFF DUP6 AND DUP5 MSTORE DUP3 MSTORE SWAP2 DUP3 SWAP1 KECCAK256 DUP3 MLOAD PUSH1 0x80 DUP2 ADD DUP5 MSTORE DUP2 SLOAD DUP2 MSTORE PUSH1 0x1 DUP3 ADD SLOAD PUSH1 0x1 PUSH1 0x1 PUSH1 0x40 SHL SUB AND SWAP3 DUP2 ADD SWAP3 SWAP1 SWAP3 MSTORE PUSH1 0x2 DUP2 ADD SLOAD SWAP3 DUP3 ADD SWAP3 SWAP1 SWAP3 MSTORE PUSH1 0x3 SWAP1 SWAP2 ADD SLOAD PUSH1 0x60 DUP3 ADD MSTORE SWAP3 SWAP2 POP POP JUMP JUMPDEST PUSH1 0x3 SLOAD PUSH1 0x1 PUSH1 0x1 PUSH1 0xA0 SHL SUB AND ISZERO PUSH2 0x11AB JUMPI PUSH1 0x40 MLOAD PUSH3 0x461BCD PUSH1 0xE5 SHL DUP2 MSTORE PUSH1 0x20 PUSH1 0x4 DUP3 ADD MSTORE PUSH1 0x6 PUSH1 0x24 DUP3 ADD MSTORE PUSH6 0x1C1B481CD95D PUSH1 0xD2 SHL PUSH1 0x44 DUP3 ADD MSTORE PUSH1 0x64 ADD PUSH2 0x467 JUMP JUMPDEST PUSH1 0x1 SLOAD PUSH1 0x1 PUSH1 0x1 PUSH1 0xA0 SHL SUB AND ORIGIN EQ PUSH2 0x11EE JUMPI PUSH1 0x40 MLOAD PUSH3 0x461BCD PUSH1 0xE5 SHL DUP2 MSTORE PUSH1 0x20 PUSH1 0x4 DUP3 ADD MSTORE PUSH1 0x6 PUSH1 0x24 DUP3 ADD MSTORE PUSH6 0x10B7BBB732B9 PUSH1 0xD1 SHL PUSH1 0x44 DUP3 ADD MSTORE PUSH1 0x64 ADD PUSH2 0x467 JUMP JUMPDEST PUSH1 0x3 DUP1 SLOAD PUSH1 0x1 PUSH1 0x1 PUSH1 0xA0 SHL SUB NOT AND PUSH1 0x1 PUSH1 0x1 PUSH1 0xA0 SHL SUB DUP4 DUP2 AND SWAP2 SWAP1 SWAP2 OR SWAP1 SWAP2 SSTORE PUSH1 0x4 SLOAD PUSH2 0x10C9 SWAP2 AND DUP3 PUSH1 0x0 NOT PUSH2 0x1E63 JUMP JUMPDEST PUSH2 0x1253 PUSH1 0x40 MLOAD DUP1 PUSH1 0x80 ADD PUSH1 0x40 MSTORE DUP1 PUSH1 0x0 DUP2 MSTORE PUSH1 0x20 ADD PUSH1 0x0 PUSH1 0x1 PUSH1 0x1 PUSH1 0x40 SHL SUB AND DUP2 MSTORE PUSH1 0x20 ADD PUSH1 0x0 DUP2 MSTORE PUSH1 0x20 ADD PUSH1 0x0 DUP2 MSTORE POP SWAP1 JUMP JUMPDEST PUSH1 0x1 PUSH1 0x1 PUSH1 0xA0 SHL SUB DUP4 AND PUSH1 0x0 SWAP1 DUP2 MSTORE PUSH1 0x7 PUSH1 0x20 SWAP1 DUP2 MSTORE PUSH1 0x40 DUP1 DUP4 KECCAK256 PUSH4 0xFFFFFFFF DUP7 AND DUP5 MSTORE DUP3 MSTORE DUP1 DUP4 KECCAK256 DUP2 MLOAD PUSH1 0x80 DUP2 ADD DUP4 MSTORE DUP2 SLOAD DUP2 MSTORE PUSH1 0x1 DUP3 ADD SLOAD PUSH1 0x1 PUSH1 0x1 PUSH1 0x40 SHL SUB AND SWAP4 DUP2 ADD SWAP4 SWAP1 SWAP4 MSTORE PUSH1 0x2 DUP2 ADD SLOAD SWAP2 DUP4 ADD SWAP2 SWAP1 SWAP2 MSTORE PUSH1 0x3 ADD SLOAD PUSH1 0x60 DUP3 ADD MSTORE SWAP1 PUSH2 0x12BC DUP5 PUSH2 0x1F65 JUMP JUMPDEST SWAP1 POP PUSH1 0x0 PUSH2 0x12CF TIMESTAMP DUP4 PUSH2 0x180 ADD MLOAD PUSH2 0x2040 JUMP JUMPDEST SWAP1 POP DUP1 PUSH1 0x1 PUSH1 0x1 PUSH1 0x40 SHL SUB AND DUP4 PUSH1 0x20 ADD MLOAD PUSH1 0x1 PUSH1 0x1 PUSH1 0x40 SHL SUB AND GT ISZERO PUSH2 0x12FA JUMPI DUP3 SWAP4 POP POP POP POP PUSH2 0x5BC JUMP JUMPDEST PUSH1 0x80 DUP3 ADD MLOAD DUP4 MLOAD PUSH2 0x131F SWAP2 PUSH2 0x130E SWAP2 PUSH2 0x2949 JUMP JUMPDEST DUP5 PUSH1 0x20 ADD MLOAD DUP4 DUP6 PUSH2 0x120 ADD MLOAD PUSH2 0xB26 JUMP JUMPDEST DUP4 PUSH1 0x40 ADD DUP2 DUP2 MLOAD PUSH2 0x5B3 SWAP2 SWAP1 PUSH2 0x2960 JUMP JUMPDEST PUSH1 0x0 DUP1 PUSH2 0x133C DUP4 PUSH2 0x1F65 JUMP JUMPDEST SWAP1 POP PUSH2 0x1347 DUP2 PUSH2 0x232D JUMP JUMPDEST SWAP4 SWAP3 POP POP POP JUMP JUMPDEST PUSH1 0x1 SLOAD PUSH1 0x1 PUSH1 0x1 PUSH1 0xA0 SHL SUB AND CALLER EQ PUSH2 0x1378 JUMPI PUSH1 0x40 MLOAD PUSH3 0x461BCD PUSH1 0xE5 SHL DUP2 MSTORE PUSH1 0x4 ADD PUSH2 0x467 SWAP1 PUSH2 0x2A74 JUMP JUMPDEST PUSH2 0x1381 DUP2 PUSH2 0x236D JUMP JUMPDEST PUSH1 0x0 DUP3 GT PUSH2 0x13BB JUMPI PUSH1 0x40 MLOAD PUSH3 0x461BCD PUSH1 0xE5 SHL DUP2 MSTORE PUSH1 0x20 PUSH1 0x4 DUP3 ADD MSTORE PUSH1 0x7 PUSH1 0x24 DUP3 ADD MSTORE PUSH7 0x8585B5BDD5B9D PUSH1 0xCA SHL PUSH1 0x44 DUP3 ADD MSTORE PUSH1 0x64 ADD PUSH2 0x467 JUMP JUMPDEST PUSH1 0x4 DUP1 SLOAD PUSH1 0x40 MLOAD PUSH4 0x70A08231 PUSH1 0xE0 SHL DUP2 MSTORE ADDRESS SWAP3 DUP2 ADD SWAP3 SWAP1 SWAP3 MSTORE DUP4 SWAP2 PUSH1 0x1 PUSH1 0x1 PUSH1 0xA0 SHL SUB SWAP1 SWAP2 AND SWAP1 PUSH4 0x70A08231 SWAP1 PUSH1 0x24 ADD PUSH1 0x20 PUSH1 0x40 MLOAD DUP1 DUP4 SUB DUP2 DUP7 GAS STATICCALL ISZERO DUP1 ISZERO PUSH2 0x1408 JUMPI RETURNDATASIZE PUSH1 0x0 DUP1 RETURNDATACOPY RETURNDATASIZE PUSH1 0x0 REVERT JUMPDEST POP POP POP POP PUSH1 0x40 MLOAD RETURNDATASIZE PUSH1 0x1F NOT PUSH1 0x1F DUP3 ADD AND DUP3 ADD DUP1 PUSH1 0x40 MSTORE POP DUP2 ADD SWAP1 PUSH2 0x142C SWAP2 SWAP1 PUSH2 0x2A3E JUMP JUMPDEST LT ISZERO PUSH2 0x1466 JUMPI PUSH1 0x40 MLOAD PUSH3 0x461BCD PUSH1 0xE5 SHL DUP2 MSTORE PUSH1 0x20 PUSH1 0x4 DUP3 ADD MSTORE PUSH1 0x9 PUSH1 0x24 DUP3 ADD MSTORE PUSH9 0x18985B185B98D9480F PUSH1 0xBA SHL PUSH1 0x44 DUP3 ADD MSTORE PUSH1 0x64 ADD PUSH2 0x467 JUMP JUMPDEST PUSH1 0x4 SLOAD PUSH2 0x147E SWAP1 PUSH1 0x1 PUSH1 0x1 PUSH1 0xA0 SHL SUB AND ADDRESS DUP4 DUP6 PUSH2 0x23AC JUMP JUMPDEST PUSH1 0x40 MLOAD DUP3 SWAP1 PUSH1 0x1 PUSH1 0x1 PUSH1 0xA0 SHL SUB DUP4 AND SWAP1 PUSH32 0x8777844761EB456B028CF7F87FC8DCB146AD8EEAFBC6F80F2D006E5CD9E5A745 SWAP1 PUSH1 0x0 SWAP1 LOG3 POP POP JUMP JUMPDEST PUSH1 0x3 SLOAD PUSH1 0x1 PUSH1 0x1 PUSH1 0xA0 SHL SUB AND CALLER EQ PUSH2 0x1500 JUMPI PUSH1 0x40 MLOAD PUSH3 0x461BCD PUSH1 0xE5 SHL DUP2 MSTORE PUSH1 0x20 PUSH1 0x4 DUP3 ADD MSTORE PUSH1 0xB PUSH1 0x24 DUP3 ADD MSTORE PUSH11 0x10B83937B532B1BA26B0B7 PUSH1 0xA9 SHL PUSH1 0x44 DUP3 ADD MSTORE PUSH1 0x64 ADD PUSH2 0x467 JUMP JUMPDEST PUSH1 0x1 PUSH1 0x1 PUSH1 0xA0 SHL SUB SWAP1 SWAP3 AND PUSH1 0x0 SWAP1 DUP2 MSTORE PUSH1 0x7 PUSH1 0x20 SWAP1 DUP2 MSTORE PUSH1 0x40 DUP1 DUP4 KECCAK256 PUSH4 0xFFFFFFFF SWAP1 SWAP5 AND DUP4 MSTORE SWAP3 DUP2 MSTORE SWAP1 DUP3 SWAP1 KECCAK256 DUP4 MLOAD DUP2 SSTORE SWAP1 DUP4 ADD MLOAD PUSH1 0x1 DUP3 ADD DUP1 SLOAD PUSH1 0x1 PUSH1 0x1 PUSH1 0x40 SHL SUB SWAP1 SWAP3 AND PUSH8 0xFFFFFFFFFFFFFFFF NOT SWAP1 SWAP3 AND SWAP2 SWAP1 SWAP2 OR SWAP1 SSTORE SWAP1 DUP3 ADD MLOAD PUSH1 0x2 DUP3 ADD SSTORE PUSH1 0x60 SWAP1 SWAP2 ADD MLOAD PUSH1 0x3 SWAP1 SWAP2 ADD SSTORE JUMP JUMPDEST PUSH1 0x4 SLOAD PUSH1 0x0 SWAP1 PUSH1 0x1 PUSH1 0xA0 SHL SWAP1 DIV PUSH1 0xFF AND ISZERO PUSH2 0x159D JUMPI PUSH1 0x40 MLOAD PUSH3 0x461BCD PUSH1 0xE5 SHL DUP2 MSTORE PUSH1 0x4 ADD PUSH2 0x467 SWAP1 PUSH2 0x29FD JUMP JUMPDEST PUSH1 0x0 DUP3 PUSH4 0xFFFFFFFF AND GT PUSH2 0x15DC JUMPI PUSH1 0x40 MLOAD PUSH3 0x461BCD PUSH1 0xE5 SHL DUP2 MSTORE PUSH1 0x4 ADD PUSH2 0x467 SWAP1 PUSH1 0x20 DUP1 DUP3 MSTORE PUSH1 0x4 SWAP1 DUP3 ADD MSTORE PUSH4 0x21717479 PUSH1 0xE0 SHL PUSH1 0x40 DUP3 ADD MSTORE PUSH1 0x60 ADD SWAP1 JUMP JUMPDEST CALLER PUSH1 0x0 PUSH2 0x15E8 DUP6 PUSH2 0x1F65 JUMP JUMPDEST PUSH1 0xC0 DUP2 ADD MLOAD SWAP1 SWAP2 POP PUSH1 0x1 PUSH1 0x1 PUSH1 0xF8 SHL SUB NOT AND PUSH1 0x1 PUSH1 0xF8 SHL EQ PUSH2 0x161C JUMPI PUSH1 0x40 MLOAD PUSH3 0x461BCD PUSH1 0xE5 SHL DUP2 MSTORE PUSH1 0x4 ADD PUSH2 0x467 SWAP1 PUSH2 0x2A1D JUMP JUMPDEST PUSH1 0x1 PUSH1 0x1 PUSH1 0xA0 SHL SUB DUP3 AND PUSH1 0x0 SWAP1 DUP2 MSTORE PUSH1 0x5 PUSH1 0x20 SWAP1 DUP2 MSTORE PUSH1 0x40 DUP1 DUP4 KECCAK256 PUSH4 0xFFFFFFFF DUP10 DUP2 AND DUP6 MSTORE SWAP1 DUP4 MSTORE DUP2 DUP5 KECCAK256 DUP3 MLOAD PUSH1 0xA0 DUP2 ADD DUP5 MSTORE DUP2 SLOAD DUP1 DUP5 AND DUP1 DUP4 MSTORE PUSH1 0x1 PUSH1 0x20 SHL DUP3 DIV SWAP1 SWAP5 AND SWAP6 DUP3 ADD SWAP6 SWAP1 SWAP6 MSTORE PUSH1 0x1 PUSH1 0x40 SHL SWAP1 SWAP5 DIV PUSH1 0x1 PUSH1 0x1 PUSH1 0x40 SHL SUB AND SWAP3 DUP5 ADD SWAP3 SWAP1 SWAP3 MSTORE PUSH1 0x1 DUP3 ADD SLOAD PUSH1 0x60 DUP5 ADD MSTORE PUSH1 0x2 SWAP1 SWAP2 ADD SLOAD PUSH1 0x80 DUP4 ADD MSTORE SWAP1 SWAP2 SUB PUSH2 0x16D2 JUMPI PUSH1 0x40 MLOAD PUSH3 0x461BCD PUSH1 0xE5 SHL DUP2 MSTORE PUSH1 0x20 PUSH1 0x4 DUP3 ADD MSTORE PUSH1 0xB PUSH1 0x24 DUP3 ADD MSTORE PUSH11 0x217374616B65722E717479 PUSH1 0xA8 SHL PUSH1 0x44 DUP3 ADD MSTORE PUSH1 0x64 ADD PUSH2 0x467 JUMP JUMPDEST DUP1 MLOAD PUSH4 0xFFFFFFFF DUP1 DUP8 AND SWAP2 AND LT ISZERO PUSH2 0x1714 JUMPI PUSH1 0x40 MLOAD PUSH3 0x461BCD PUSH1 0xE5 SHL DUP2 MSTORE PUSH1 0x20 PUSH1 0x4 DUP3 ADD MSTORE PUSH1 0x5 PUSH1 0x24 DUP3 ADD MSTORE PUSH5 0x38BA3C901F PUSH1 0xD9 SHL PUSH1 0x44 DUP3 ADD MSTORE PUSH1 0x64 ADD PUSH2 0x467 JUMP JUMPDEST PUSH2 0x171D DUP3 PUSH2 0x232D JUMP JUMPDEST PUSH2 0x1752 JUMPI PUSH1 0x40 MLOAD PUSH3 0x461BCD PUSH1 0xE5 SHL DUP2 MSTORE PUSH1 0x4 ADD PUSH2 0x467 SWAP1 PUSH1 0x20 DUP1 DUP3 MSTORE PUSH1 0x4 SWAP1 DUP3 ADD MSTORE PUSH4 0x8595B99 PUSH1 0xE2 SHL PUSH1 0x40 DUP3 ADD MSTORE PUSH1 0x60 ADD SWAP1 JUMP JUMPDEST PUSH1 0x0 PUSH2 0x1763 TIMESTAMP DUP5 PUSH2 0x180 ADD MLOAD PUSH2 0x2040 JUMP JUMPDEST SWAP1 POP DUP1 PUSH1 0x1 PUSH1 0x1 PUSH1 0x40 SHL SUB AND DUP3 PUSH1 0x40 ADD MLOAD PUSH1 0x1 PUSH1 0x1 PUSH1 0x40 SHL SUB AND LT ISZERO PUSH2 0x17C3 JUMPI PUSH1 0x80 DUP4 ADD MLOAD DUP3 MLOAD PUSH2 0x17AE SWAP2 PUSH2 0x179D SWAP2 PUSH4 0xFFFFFFFF AND PUSH2 0x2949 JUMP JUMPDEST DUP4 PUSH1 0x40 ADD MLOAD DUP4 DUP7 PUSH2 0x140 ADD MLOAD PUSH2 0xB26 JUMP JUMPDEST DUP3 PUSH1 0x60 ADD DUP2 DUP2 MLOAD PUSH2 0x17BF SWAP2 SWAP1 PUSH2 0x2960 JUMP JUMPDEST SWAP1 MSTORE POP JUMPDEST DUP6 DUP3 PUSH1 0x0 ADD DUP2 DUP2 MLOAD PUSH2 0x17D5 SWAP2 SWAP1 PUSH2 0x2AA9 JUMP JUMPDEST PUSH4 0xFFFFFFFF SWAP1 DUP2 AND SWAP1 SWAP2 MSTORE PUSH1 0x1 PUSH1 0x1 PUSH1 0x40 SHL SUB TIMESTAMP DUP2 AND PUSH1 0x40 DUP1 DUP8 ADD SWAP2 DUP3 MSTORE PUSH1 0x1 PUSH1 0x1 PUSH1 0xA0 SHL SUB DUP10 AND PUSH1 0x0 DUP2 DUP2 MSTORE PUSH1 0x5 PUSH1 0x20 SWAP1 DUP2 MSTORE DUP4 DUP3 KECCAK256 DUP16 DUP9 AND DUP4 MSTORE DUP2 MSTORE DUP4 DUP3 KECCAK256 DUP11 MLOAD DUP2 SLOAD DUP4 DUP14 ADD MLOAD SWAP8 MLOAD DUP10 AND PUSH1 0x1 PUSH1 0x40 SHL MUL PUSH8 0xFFFFFFFFFFFFFFFF PUSH1 0x40 SHL NOT SWAP9 DUP12 AND PUSH1 0x1 PUSH1 0x20 SHL MUL PUSH8 0xFFFFFFFFFFFFFFFF NOT SWAP1 SWAP3 AND SWAP3 DUP12 AND SWAP3 SWAP1 SWAP3 OR OR SWAP7 SWAP1 SWAP7 AND SWAP6 SWAP1 SWAP6 OR DUP6 SSTORE PUSH1 0x60 DUP1 DUP12 ADD MLOAD PUSH1 0x1 DUP1 DUP9 ADD SWAP2 SWAP1 SWAP2 SSTORE PUSH1 0x80 DUP1 DUP14 ADD MLOAD PUSH1 0x2 SWAP9 DUP10 ADD SSTORE SWAP5 DUP5 MSTORE PUSH1 0x7 DUP4 MSTORE DUP6 DUP5 KECCAK256 DUP14 MLOAD DUP11 AND DUP6 MSTORE DUP4 MSTORE SWAP3 DUP6 SWAP1 KECCAK256 DUP6 MLOAD SWAP5 DUP6 ADD DUP7 MSTORE DUP1 SLOAD DUP1 DUP7 MSTORE SWAP4 DUP2 ADD SLOAD SWAP1 SWAP8 AND SWAP2 DUP5 ADD SWAP2 SWAP1 SWAP2 MSTORE SWAP4 DUP6 ADD SLOAD SWAP3 DUP3 ADD SWAP3 SWAP1 SWAP3 MSTORE PUSH1 0x3 SWAP1 SWAP4 ADD SLOAD SWAP2 DUP4 ADD SWAP2 SWAP1 SWAP2 MSTORE SWAP1 SWAP3 POP SWAP1 DUP9 AND SWAP1 DUP3 SWAP1 PUSH2 0x18D4 SWAP1 DUP4 SWAP1 PUSH2 0x2960 JUMP JUMPDEST SWAP1 MSTORE POP PUSH1 0x1 PUSH1 0x1 PUSH1 0xA0 SHL SUB SWAP5 SWAP1 SWAP5 AND PUSH1 0x0 SWAP1 DUP2 MSTORE PUSH1 0x7 PUSH1 0x20 SWAP1 DUP2 MSTORE PUSH1 0x40 DUP1 DUP4 KECCAK256 SWAP6 MLOAD PUSH4 0xFFFFFFFF AND DUP4 MSTORE SWAP5 DUP2 MSTORE SWAP1 DUP5 SWAP1 KECCAK256 DUP6 MLOAD DUP2 SSTORE SWAP1 DUP6 ADD MLOAD PUSH1 0x1 DUP1 DUP4 ADD DUP1 SLOAD PUSH8 0xFFFFFFFFFFFFFFFF NOT AND PUSH1 0x1 PUSH1 0x1 PUSH1 0x40 SHL SUB SWAP1 SWAP4 AND SWAP3 SWAP1 SWAP3 OR SWAP1 SWAP2 SSTORE SWAP4 DUP6 ADD MLOAD PUSH1 0x2 DUP3 ADD SSTORE PUSH1 0x60 SWAP1 SWAP5 ADD MLOAD PUSH1 0x3 SWAP1 SWAP5 ADD SWAP4 SWAP1 SWAP4 SSTORE POP SWAP5 SWAP4 POP POP POP POP JUMP JUMPDEST PUSH1 0x1 SLOAD PUSH1 0x1 PUSH1 0x1 PUSH1 0xA0 SHL SUB AND CALLER EQ PUSH2 0x197C JUMPI PUSH1 0x40 MLOAD PUSH3 0x461BCD PUSH1 0xE5 SHL DUP2 MSTORE PUSH1 0x4 ADD PUSH2 0x467 SWAP1 PUSH2 0x2A74 JUMP JUMPDEST PUSH1 0x1 PUSH1 0x1 PUSH1 0xA0 SHL SUB DUP2 AND PUSH2 0x19E1 JUMPI PUSH1 0x40 MLOAD PUSH3 0x461BCD PUSH1 0xE5 SHL DUP2 MSTORE PUSH1 0x20 PUSH1 0x4 DUP3 ADD MSTORE PUSH1 0x26 PUSH1 0x24 DUP3 ADD MSTORE PUSH32 0x4F776E61626C653A206E6577206F776E657220697320746865207A65726F2061 PUSH1 0x44 DUP3 ADD MSTORE PUSH6 0x646472657373 PUSH1 0xD0 SHL PUSH1 0x64 DUP3 ADD MSTORE PUSH1 0x84 ADD PUSH2 0x467 JUMP JUMPDEST PUSH2 0x10C9 DUP2 PUSH2 0x2291 JUMP JUMPDEST PUSH1 0x0 PUSH1 0x2 PUSH1 0x0 SLOAD SUB PUSH2 0x1A3E JUMPI PUSH1 0x40 MLOAD PUSH3 0x461BCD PUSH1 0xE5 SHL DUP2 MSTORE PUSH1 0x20 PUSH1 0x4 DUP3 ADD MSTORE PUSH1 0x1F PUSH1 0x24 DUP3 ADD MSTORE PUSH32 0x5265656E7472616E637947756172643A207265656E7472616E742063616C6C00 PUSH1 0x44 DUP3 ADD MSTORE PUSH1 0x64 ADD PUSH2 0x467 JUMP JUMPDEST PUSH1 0x2 PUSH1 0x0 SSTORE PUSH1 0x4 SLOAD PUSH1 0x1 PUSH1 0xA0 SHL SWAP1 DIV PUSH1 0xFF AND ISZERO PUSH2 0x1A6D JUMPI PUSH1 0x40 MLOAD PUSH3 0x461BCD PUSH1 0xE5 SHL DUP2 MSTORE PUSH1 0x4 ADD PUSH2 0x467 SWAP1 PUSH2 0x29FD JUMP JUMPDEST PUSH1 0x1 DUP3 AND ISZERO ISZERO DUP1 PUSH2 0x1A80 JUMPI POP PUSH1 0x2 DUP3 AND ISZERO ISZERO JUMPDEST PUSH2 0x1AB4 JUMPI PUSH1 0x40 MLOAD PUSH3 0x461BCD PUSH1 0xE5 SHL DUP2 MSTORE PUSH1 0x20 PUSH1 0x4 DUP3 ADD MSTORE PUSH1 0x5 PUSH1 0x24 DUP3 ADD MSTORE PUSH5 0x2174797065 PUSH1 0xD8 SHL PUSH1 0x44 DUP3 ADD MSTORE PUSH1 0x64 ADD PUSH2 0x467 JUMP JUMPDEST CALLER PUSH1 0x0 PUSH2 0x1AC0 DUP6 PUSH2 0x1F65 JUMP JUMPDEST PUSH1 0xC0 DUP2 ADD MLOAD SWAP1 SWAP2 POP PUSH1 0x1 PUSH1 0x1 PUSH1 0xF8 SHL SUB NOT AND PUSH1 0x1 PUSH1 0xF8 SHL EQ PUSH2 0x1AF4 JUMPI PUSH1 0x40 MLOAD PUSH3 0x461BCD PUSH1 0xE5 SHL DUP2 MSTORE PUSH1 0x4 ADD PUSH2 0x467 SWAP1 PUSH2 0x2A1D JUMP JUMPDEST TIMESTAMP DUP2 PUSH2 0x160 ADD MLOAD PUSH1 0x1 PUSH1 0x1 PUSH1 0x40 SHL SUB AND GT ISZERO PUSH2 0x1B3B JUMPI PUSH1 0x40 MLOAD PUSH3 0x461BCD PUSH1 0xE5 SHL DUP2 MSTORE PUSH1 0x20 PUSH1 0x4 DUP3 ADD MSTORE PUSH1 0x6 PUSH1 0x24 DUP3 ADD MSTORE PUSH6 0x85CDD185C9D PUSH1 0xD2 SHL PUSH1 0x44 DUP3 ADD MSTORE PUSH1 0x64 ADD PUSH2 0x467 JUMP JUMPDEST PUSH1 0x1 PUSH1 0x1 PUSH1 0xA0 SHL SUB DUP3 AND PUSH1 0x0 SWAP1 DUP2 MSTORE PUSH1 0x5 PUSH1 0x20 SWAP1 DUP2 MSTORE PUSH1 0x40 DUP1 DUP4 KECCAK256 PUSH4 0xFFFFFFFF DUP10 DUP2 AND DUP6 MSTORE SWAP1 DUP4 MSTORE DUP2 DUP5 KECCAK256 DUP3 MLOAD PUSH1 0xA0 DUP2 ADD DUP5 MSTORE DUP2 SLOAD DUP1 DUP5 AND DUP3 MSTORE PUSH1 0x1 PUSH1 0x20 SHL DUP2 DIV SWAP1 SWAP4 AND SWAP5 DUP2 ADD SWAP5 SWAP1 SWAP5 MSTORE PUSH1 0x1 PUSH1 0x40 SHL SWAP1 SWAP2 DIV PUSH1 0x1 PUSH1 0x1 PUSH1 0x40 SHL SUB AND SWAP2 DUP4 ADD SWAP2 SWAP1 SWAP2 MSTORE PUSH1 0x1 DUP1 DUP3 ADD SLOAD PUSH1 0x60 DUP5 ADD MSTORE PUSH1 0x2 SWAP1 SWAP2 ADD SLOAD PUSH1 0x80 DUP4 ADD MSTORE SWAP1 SWAP2 SWAP1 DUP7 AND ISZERO PUSH2 0x1C30 JUMPI PUSH1 0x1 PUSH1 0x1 PUSH1 0xA0 SHL SUB DUP5 AND PUSH1 0x0 SWAP1 DUP2 MSTORE PUSH1 0x7 PUSH1 0x20 SWAP1 DUP2 MSTORE PUSH1 0x40 DUP1 DUP4 KECCAK256 DUP7 MLOAD PUSH4 0xFFFFFFFF AND DUP5 MSTORE DUP3 MSTORE SWAP2 DUP3 SWAP1 KECCAK256 DUP3 MLOAD PUSH1 0x80 DUP2 ADD DUP5 MSTORE DUP2 SLOAD DUP2 MSTORE PUSH1 0x1 DUP3 ADD SLOAD PUSH1 0x1 PUSH1 0x1 PUSH1 0x40 SHL SUB AND SWAP3 DUP2 ADD SWAP3 SWAP1 SWAP3 MSTORE PUSH1 0x2 DUP2 ADD SLOAD SWAP3 DUP3 ADD SWAP3 SWAP1 SWAP3 MSTORE PUSH1 0x3 SWAP1 SWAP2 ADD SLOAD PUSH1 0x60 DUP3 ADD MSTORE PUSH2 0x1C2C DUP6 DUP6 DUP4 PUSH2 0x2170 JUMP JUMPDEST SWAP2 POP POP JUMPDEST PUSH1 0x2 DUP7 AND ISZERO PUSH2 0x1DDB JUMPI DUP2 MLOAD PUSH4 0xFFFFFFFF AND PUSH2 0x1C77 JUMPI PUSH1 0x40 MLOAD PUSH3 0x461BCD PUSH1 0xE5 SHL DUP2 MSTORE PUSH1 0x20 PUSH1 0x4 DUP3 ADD MSTORE PUSH1 0x7 PUSH1 0x24 DUP3 ADD MSTORE PUSH7 0x85CDD185AD959 PUSH1 0xCA SHL PUSH1 0x44 DUP3 ADD MSTORE PUSH1 0x64 ADD PUSH2 0x467 JUMP JUMPDEST PUSH1 0x0 PUSH2 0x1C88 TIMESTAMP DUP6 PUSH2 0x180 ADD MLOAD PUSH2 0x2040 JUMP JUMPDEST SWAP1 POP DUP1 PUSH1 0x1 PUSH1 0x1 PUSH1 0x40 SHL SUB AND DUP4 PUSH1 0x40 ADD MLOAD PUSH1 0x1 PUSH1 0x1 PUSH1 0x40 SHL SUB AND GT ISZERO PUSH2 0x1CB6 JUMPI PUSH1 0x0 SWAP6 POP POP POP POP POP POP PUSH2 0x1E58 JUMP JUMPDEST PUSH1 0x60 DUP4 ADD MLOAD PUSH1 0x80 DUP6 ADD MLOAD DUP5 MLOAD PUSH2 0x1CE6 SWAP2 PUSH2 0x1CD5 SWAP2 PUSH4 0xFFFFFFFF AND PUSH2 0x2949 JUMP JUMPDEST DUP6 PUSH1 0x40 ADD MLOAD DUP5 DUP9 PUSH2 0x140 ADD MLOAD PUSH2 0xB26 JUMP JUMPDEST PUSH1 0x1 PUSH1 0x1 PUSH1 0x40 SHL SUB TIMESTAMP AND PUSH1 0x40 DUP7 ADD MSTORE PUSH1 0x0 PUSH1 0x60 DUP7 ADD MSTORE PUSH1 0x80 DUP6 ADD DUP1 MLOAD SWAP2 SWAP3 POP DUP3 SWAP2 PUSH2 0x1D12 SWAP1 DUP4 SWAP1 PUSH2 0x2960 JUMP JUMPDEST SWAP1 MSTORE POP PUSH1 0x1 PUSH1 0x1 PUSH1 0xA0 SHL SUB DUP7 AND PUSH1 0x0 DUP2 DUP2 MSTORE PUSH1 0x5 PUSH1 0x20 SWAP1 DUP2 MSTORE PUSH1 0x40 DUP1 DUP4 KECCAK256 PUSH4 0xFFFFFFFF DUP15 DUP2 AND DUP1 DUP7 MSTORE SWAP2 DUP5 MSTORE DUP3 DUP6 KECCAK256 DUP11 MLOAD DUP2 SLOAD DUP13 DUP8 ADD MLOAD DUP14 DUP8 ADD MLOAD SWAP3 DUP6 AND PUSH8 0xFFFFFFFFFFFFFFFF NOT SWAP3 DUP4 AND OR PUSH1 0x1 PUSH1 0x20 SHL SWAP2 SWAP1 SWAP6 AND MUL SWAP4 SWAP1 SWAP4 OR PUSH8 0xFFFFFFFFFFFFFFFF PUSH1 0x40 SHL NOT AND PUSH1 0x1 PUSH1 0x40 SHL PUSH1 0x1 PUSH1 0x1 PUSH1 0x40 SHL SUB SWAP1 SWAP3 AND SWAP2 DUP3 MUL OR DUP3 SSTORE PUSH1 0x60 DUP13 ADD MLOAD PUSH1 0x1 DUP1 DUP5 ADD SWAP2 SWAP1 SWAP2 SSTORE PUSH1 0x80 DUP14 ADD MLOAD PUSH1 0x2 SWAP1 SWAP4 ADD SWAP3 SWAP1 SWAP3 SSTORE SWAP7 DUP7 MSTORE PUSH1 0x7 DUP6 MSTORE DUP4 DUP7 KECCAK256 SWAP3 DUP7 MSTORE SWAP2 SWAP1 SWAP4 MSTORE SWAP3 KECCAK256 SWAP1 SWAP2 ADD DUP1 SLOAD SWAP1 SWAP2 AND SWAP1 SWAP2 OR SWAP1 SSTORE PUSH2 0x1DD6 DUP2 DUP5 PUSH2 0x2960 JUMP JUMPDEST SWAP3 POP POP POP JUMPDEST DUP1 ISZERO PUSH2 0x1E4F JUMPI PUSH1 0x4 SLOAD PUSH2 0x1DF8 SWAP1 PUSH1 0x1 PUSH1 0x1 PUSH1 0xA0 SHL SUB AND DUP6 DUP4 PUSH2 0x20FC JUMP JUMPDEST DUP7 PUSH4 0xFFFFFFFF AND DUP5 PUSH1 0x1 PUSH1 0x1 PUSH1 0xA0 SHL SUB AND PUSH32 0x9BF028F26713DBFD10F1790F08EE2C2DF9A1D82C0F238230BB0B64AF2AAB4A9E DUP4 PUSH1 0x40 MLOAD PUSH2 0x1E3A SWAP2 DUP2 MSTORE PUSH1 0x20 ADD SWAP1 JUMP JUMPDEST PUSH1 0x40 MLOAD DUP1 SWAP2 SUB SWAP1 LOG3 PUSH1 0x1 SWAP5 POP POP POP POP POP PUSH2 0x1E58 JUMP JUMPDEST PUSH1 0x0 SWAP5 POP POP POP POP POP JUMPDEST PUSH1 0x1 PUSH1 0x0 SSTORE SWAP3 SWAP2 POP POP JUMP JUMPDEST PUSH1 0x40 MLOAD PUSH4 0x6EB1769F PUSH1 0xE1 SHL DUP2 MSTORE ADDRESS PUSH1 0x4 DUP3 ADD MSTORE PUSH1 0x1 PUSH1 0x1 PUSH1 0xA0 SHL SUB DUP4 DUP2 AND PUSH1 0x24 DUP4 ADD MSTORE PUSH1 0x0 SWAP2 DUP4 SWAP2 DUP7 AND SWAP1 PUSH4 0xDD62ED3E SWAP1 PUSH1 0x44 ADD PUSH1 0x20 PUSH1 0x40 MLOAD DUP1 DUP4 SUB DUP2 DUP7 GAS STATICCALL ISZERO DUP1 ISZERO PUSH2 0x1EB4 JUMPI RETURNDATASIZE PUSH1 0x0 DUP1 RETURNDATACOPY RETURNDATASIZE PUSH1 0x0 REVERT JUMPDEST POP POP POP POP PUSH1 0x40 MLOAD RETURNDATASIZE PUSH1 0x1F NOT PUSH1 0x1F DUP3 ADD AND DUP3 ADD DUP1 PUSH1 0x40 MSTORE POP DUP2 ADD SWAP1 PUSH2 0x1ED8 SWAP2 SWAP1 PUSH2 0x2A3E JUMP JUMPDEST PUSH2 0x1EE2 SWAP2 SWAP1 PUSH2 0x2960 JUMP JUMPDEST PUSH1 0x40 MLOAD PUSH1 0x1 PUSH1 0x1 PUSH1 0xA0 SHL SUB DUP6 AND PUSH1 0x24 DUP3 ADD MSTORE PUSH1 0x44 DUP2 ADD DUP3 SWAP1 MSTORE SWAP1 SWAP2 POP PUSH2 0x1F48 SWAP1 DUP6 SWAP1 PUSH4 0x95EA7B3 PUSH1 0xE0 SHL SWAP1 PUSH1 0x64 ADD JUMPDEST PUSH1 0x40 DUP1 MLOAD PUSH1 0x1F NOT DUP2 DUP5 SUB ADD DUP2 MSTORE SWAP2 SWAP1 MSTORE PUSH1 0x20 DUP2 ADD DUP1 MLOAD PUSH1 0x1 PUSH1 0x1 PUSH1 0xE0 SHL SUB AND PUSH1 0x1 PUSH1 0x1 PUSH1 0xE0 SHL SUB NOT SWAP1 SWAP4 AND SWAP3 SWAP1 SWAP3 OR SWAP1 SWAP2 MSTORE PUSH2 0x23E4 JUMP JUMPDEST POP POP POP POP JUMP JUMPDEST PUSH1 0x60 PUSH2 0x1F5D DUP5 DUP5 PUSH1 0x0 DUP6 PUSH2 0x24B6 JUMP JUMPDEST SWAP5 SWAP4 POP POP POP POP JUMP JUMPDEST PUSH1 0x40 DUP1 MLOAD PUSH2 0x1A0 DUP2 ADD DUP3 MSTORE PUSH1 0x0 DUP1 DUP3 MSTORE PUSH1 0x60 PUSH1 0x20 DUP4 ADD DUP2 SWAP1 MSTORE DUP3 DUP5 ADD DUP3 SWAP1 MSTORE DUP3 ADD DUP2 SWAP1 MSTORE PUSH1 0x80 DUP3 ADD DUP2 SWAP1 MSTORE PUSH1 0xA0 DUP3 ADD DUP2 SWAP1 MSTORE PUSH1 0xC0 DUP3 ADD DUP2 SWAP1 MSTORE PUSH1 0xE0 DUP3 ADD DUP2 SWAP1 MSTORE PUSH2 0x100 DUP3 ADD DUP2 SWAP1 MSTORE PUSH2 0x120 DUP3 ADD DUP2 SWAP1 MSTORE PUSH2 0x140 DUP3 ADD DUP2 SWAP1 MSTORE PUSH2 0x160 DUP3 ADD DUP2 SWAP1 MSTORE PUSH2 0x180 DUP3 ADD MSTORE PUSH1 0x3 SLOAD SWAP2 MLOAD PUSH4 0x8206D49F PUSH1 0xE0 SHL DUP2 MSTORE PUSH4 0xFFFFFFFF DUP5 AND PUSH1 0x4 DUP3 ADD MSTORE SWAP1 SWAP2 PUSH1 0x1 PUSH1 0x1 PUSH1 0xA0 SHL SUB AND SWAP1 PUSH4 0x8206D49F SWAP1 PUSH1 0x24 ADD PUSH1 0x0 PUSH1 0x40 MLOAD DUP1 DUP4 SUB DUP2 DUP7 GAS STATICCALL ISZERO DUP1 ISZERO PUSH2 0x2018 JUMPI RETURNDATASIZE PUSH1 0x0 DUP1 RETURNDATACOPY RETURNDATASIZE PUSH1 0x0 REVERT JUMPDEST POP POP POP POP PUSH1 0x40 MLOAD RETURNDATASIZE PUSH1 0x0 DUP3 RETURNDATACOPY PUSH1 0x1F RETURNDATASIZE SWAP1 DUP2 ADD PUSH1 0x1F NOT AND DUP3 ADD PUSH1 0x40 MSTORE PUSH2 0x5BC SWAP2 SWAP1 DUP2 ADD SWAP1 PUSH2 0x2BE5 JUMP JUMPDEST PUSH1 0x0 DUP2 PUSH1 0x1 PUSH1 0x1 PUSH1 0x40 SHL SUB AND DUP4 PUSH1 0x1 PUSH1 0x1 PUSH1 0x40 SHL SUB AND GT ISZERO PUSH2 0x2062 JUMPI DUP2 PUSH2 0x1347 JUMP JUMPDEST POP SWAP1 SWAP2 SWAP1 POP JUMP JUMPDEST PUSH1 0x0 DUP4 PUSH1 0x1 PUSH1 0x1 PUSH1 0xA0 SHL SUB AND PUSH1 0x1 DUP5 DUP5 PUSH1 0x40 ADD MLOAD DUP6 PUSH1 0x0 ADD MLOAD DUP7 PUSH1 0x20 ADD MLOAD PUSH1 0x40 MLOAD PUSH1 0x0 DUP2 MSTORE PUSH1 0x20 ADD PUSH1 0x40 MSTORE PUSH1 0x40 MLOAD PUSH2 0x20BD SWAP5 SWAP4 SWAP3 SWAP2 SWAP1 SWAP4 DUP5 MSTORE PUSH1 0xFF SWAP3 SWAP1 SWAP3 AND PUSH1 0x20 DUP5 ADD MSTORE PUSH1 0x40 DUP4 ADD MSTORE PUSH1 0x60 DUP3 ADD MSTORE PUSH1 0x80 ADD SWAP1 JUMP JUMPDEST PUSH1 0x20 PUSH1 0x40 MLOAD PUSH1 0x20 DUP2 SUB SWAP1 DUP1 DUP5 SUB SWAP1 DUP6 GAS STATICCALL ISZERO DUP1 ISZERO PUSH2 0x20DF JUMPI RETURNDATASIZE PUSH1 0x0 DUP1 RETURNDATACOPY RETURNDATASIZE PUSH1 0x0 REVERT JUMPDEST POP POP POP PUSH1 0x20 PUSH1 0x40 MLOAD SUB MLOAD PUSH1 0x1 PUSH1 0x1 PUSH1 0xA0 SHL SUB AND EQ SWAP1 POP SWAP4 SWAP3 POP POP POP JUMP JUMPDEST PUSH1 0x40 MLOAD PUSH1 0x1 PUSH1 0x1 PUSH1 0xA0 SHL SUB DUP4 AND PUSH1 0x24 DUP3 ADD MSTORE PUSH1 0x44 DUP2 ADD DUP3 SWAP1 MSTORE PUSH2 0x212C SWAP1 DUP5 SWAP1 PUSH4 0xA9059CBB PUSH1 0xE0 SHL SWAP1 PUSH1 0x64 ADD PUSH2 0x1F11 JUMP JUMPDEST POP POP POP JUMP JUMPDEST DUP1 MLOAD PUSH4 0xFFFFFFFF AND PUSH2 0x10C9 JUMPI PUSH1 0x40 MLOAD PUSH3 0x461BCD PUSH1 0xE5 SHL DUP2 MSTORE PUSH1 0x20 PUSH1 0x4 DUP3 ADD MSTORE PUSH1 0x8 PUSH1 0x24 DUP3 ADD MSTORE PUSH8 0x85C1C9BDA9958DD PUSH1 0xC2 SHL PUSH1 0x44 DUP3 ADD MSTORE PUSH1 0x64 ADD PUSH2 0x467 JUMP JUMPDEST DUP1 MLOAD PUSH1 0x0 SWAP1 DUP2 SUB PUSH2 0x2183 JUMPI POP PUSH1 0x0 PUSH2 0x1347 JUMP JUMPDEST PUSH1 0x0 PUSH2 0x2194 TIMESTAMP DUP6 PUSH2 0x180 ADD MLOAD PUSH2 0x2040 JUMP JUMPDEST SWAP1 POP DUP1 PUSH1 0x1 PUSH1 0x1 PUSH1 0x40 SHL SUB AND DUP4 PUSH1 0x20 ADD MLOAD PUSH1 0x1 PUSH1 0x1 PUSH1 0x40 SHL SUB AND GT ISZERO PUSH2 0x21BE JUMPI PUSH1 0x0 SWAP2 POP POP PUSH2 0x1347 JUMP JUMPDEST PUSH1 0x40 DUP4 ADD MLOAD PUSH1 0x80 DUP6 ADD MLOAD DUP5 MLOAD PUSH2 0x21E8 SWAP2 PUSH2 0x21D7 SWAP2 PUSH2 0x2949 JUMP JUMPDEST DUP6 PUSH1 0x20 ADD MLOAD DUP5 DUP9 PUSH2 0x120 ADD MLOAD PUSH2 0xB26 JUMP JUMPDEST PUSH2 0x21F2 SWAP1 DUP3 PUSH2 0x2960 JUMP JUMPDEST PUSH1 0x1 PUSH1 0x1 PUSH1 0x40 SHL SUB TIMESTAMP AND PUSH1 0x20 DUP7 ADD MSTORE PUSH1 0x0 PUSH1 0x40 DUP7 ADD MSTORE PUSH1 0x60 DUP6 ADD DUP1 MLOAD SWAP2 SWAP3 POP DUP3 SWAP2 PUSH2 0x221E SWAP1 DUP4 SWAP1 PUSH2 0x2960 JUMP JUMPDEST SWAP1 MSTORE POP PUSH1 0x1 PUSH1 0x1 PUSH1 0xA0 SHL SUB SWAP6 SWAP1 SWAP6 AND PUSH1 0x0 SWAP1 DUP2 MSTORE PUSH1 0x7 PUSH1 0x20 SWAP1 DUP2 MSTORE PUSH1 0x40 DUP1 DUP4 KECCAK256 SWAP7 MLOAD PUSH4 0xFFFFFFFF AND DUP4 MSTORE SWAP6 DUP2 MSTORE SWAP1 DUP6 SWAP1 KECCAK256 DUP5 MLOAD DUP2 SSTORE SWAP1 DUP5 ADD MLOAD PUSH1 0x1 DUP3 ADD DUP1 SLOAD PUSH8 0xFFFFFFFFFFFFFFFF NOT AND PUSH1 0x1 PUSH1 0x1 PUSH1 0x40 SHL SUB SWAP1 SWAP3 AND SWAP2 SWAP1 SWAP2 OR SWAP1 SSTORE SWAP4 DUP4 ADD MLOAD PUSH1 0x2 DUP6 ADD SSTORE POP POP PUSH1 0x60 ADD MLOAD PUSH1 0x3 SWAP1 SWAP2 ADD SSTORE SWAP1 JUMP JUMPDEST PUSH1 0x1 DUP1 SLOAD PUSH1 0x1 PUSH1 0x1 PUSH1 0xA0 SHL SUB DUP4 DUP2 AND PUSH1 0x1 PUSH1 0x1 PUSH1 0xA0 SHL SUB NOT DUP4 AND DUP2 OR SWAP1 SWAP4 SSTORE PUSH1 0x40 MLOAD SWAP2 AND SWAP2 SWAP1 DUP3 SWAP1 PUSH32 0x8BE0079C531659141344CD1FD0A4F28419497F9722A3DAAFE3B4186F6B6457E0 SWAP1 PUSH1 0x0 SWAP1 LOG3 POP POP JUMP JUMPDEST PUSH1 0x2 DUP1 SLOAD PUSH1 0x1 PUSH1 0x1 PUSH1 0xA0 SHL SUB NOT AND PUSH1 0x1 PUSH1 0x1 PUSH1 0xA0 SHL SUB DUP4 AND SWAP1 DUP2 OR SWAP1 SWAP2 SSTORE PUSH1 0x40 MLOAD PUSH32 0x7CE7EC0B50378FB6C0186FFB5F48325F6593FCB4CA4386F21861AF3129188F5C SWAP1 PUSH1 0x0 SWAP1 LOG2 POP JUMP JUMPDEST PUSH1 0x0 DUP2 PUSH1 0xE0 ADD MLOAD PUSH2 0xFFFF AND PUSH3 0x15180 PUSH2 0x2346 SWAP2 SWAP1 PUSH2 0x2D18 JUMP JUMPDEST PUSH3 0xFFFFFF AND DUP3 PUSH2 0x160 ADD MLOAD PUSH2 0x235B SWAP2 SWAP1 PUSH2 0x2D3F JUMP JUMPDEST PUSH1 0x1 PUSH1 0x1 PUSH1 0x40 SHL SUB AND TIMESTAMP LT ISZERO SWAP3 SWAP2 POP POP JUMP JUMPDEST PUSH1 0x1 PUSH1 0x1 PUSH1 0xA0 SHL SUB DUP2 AND PUSH2 0x10C9 JUMPI PUSH1 0x40 MLOAD PUSH3 0x461BCD PUSH1 0xE5 SHL DUP2 MSTORE PUSH1 0x20 PUSH1 0x4 DUP3 ADD MSTORE PUSH1 0x6 PUSH1 0x24 DUP3 ADD MSTORE PUSH6 0x3C1030B23239 PUSH1 0xD1 SHL PUSH1 0x44 DUP3 ADD MSTORE PUSH1 0x64 ADD PUSH2 0x467 JUMP JUMPDEST PUSH1 0x40 MLOAD PUSH1 0x1 PUSH1 0x1 PUSH1 0xA0 SHL SUB DUP1 DUP6 AND PUSH1 0x24 DUP4 ADD MSTORE DUP4 AND PUSH1 0x44 DUP3 ADD MSTORE PUSH1 0x64 DUP2 ADD DUP3 SWAP1 MSTORE PUSH2 0x1F48 SWAP1 DUP6 SWAP1 PUSH4 0x23B872DD PUSH1 0xE0 SHL SWAP1 PUSH1 0x84 ADD PUSH2 0x1F11 JUMP JUMPDEST PUSH1 0x0 PUSH2 0x2439 DUP3 PUSH1 0x40 MLOAD DUP1 PUSH1 0x40 ADD PUSH1 0x40 MSTORE DUP1 PUSH1 0x20 DUP2 MSTORE PUSH1 0x20 ADD PUSH32 0x5361666545524332303A206C6F772D6C6576656C2063616C6C206661696C6564 DUP2 MSTORE POP DUP6 PUSH1 0x1 PUSH1 0x1 PUSH1 0xA0 SHL SUB AND PUSH2 0x1F4E SWAP1 SWAP3 SWAP2 SWAP1 PUSH4 0xFFFFFFFF AND JUMP JUMPDEST DUP1 MLOAD SWAP1 SWAP2 POP ISZERO PUSH2 0x212C JUMPI DUP1 DUP1 PUSH1 0x20 ADD SWAP1 MLOAD DUP2 ADD SWAP1 PUSH2 0x2457 SWAP2 SWAP1 PUSH2 0x2D5F JUMP JUMPDEST PUSH2 0x212C JUMPI PUSH1 0x40 MLOAD PUSH3 0x461BCD PUSH1 0xE5 SHL DUP2 MSTORE PUSH1 0x20 PUSH1 0x4 DUP3 ADD MSTORE PUSH1 0x2A PUSH1 0x24 DUP3 ADD MSTORE PUSH32 0x5361666545524332303A204552433230206F7065726174696F6E20646964206E PUSH1 0x44 DUP3 ADD MSTORE PUSH10 0x1BDD081CDD58D8D95959 PUSH1 0xB2 SHL PUSH1 0x64 DUP3 ADD MSTORE PUSH1 0x84 ADD PUSH2 0x467 JUMP JUMPDEST PUSH1 0x60 DUP3 SELFBALANCE LT ISZERO PUSH2 0x2517 JUMPI PUSH1 0x40 MLOAD PUSH3 0x461BCD PUSH1 0xE5 SHL DUP2 MSTORE PUSH1 0x20 PUSH1 0x4 DUP3 ADD MSTORE PUSH1 0x26 PUSH1 0x24 DUP3 ADD MSTORE PUSH32 0x416464726573733A20696E73756666696369656E742062616C616E636520666F PUSH1 0x44 DUP3 ADD MSTORE PUSH6 0x1C8818D85B1B PUSH1 0xD2 SHL PUSH1 0x64 DUP3 ADD MSTORE PUSH1 0x84 ADD PUSH2 0x467 JUMP JUMPDEST DUP5 EXTCODESIZE PUSH2 0x2565 JUMPI PUSH1 0x40 MLOAD PUSH3 0x461BCD PUSH1 0xE5 SHL DUP2 MSTORE PUSH1 0x20 PUSH1 0x4 DUP3 ADD MSTORE PUSH1 0x1D PUSH1 0x24 DUP3 ADD MSTORE PUSH32 0x416464726573733A2063616C6C20746F206E6F6E2D636F6E7472616374000000 PUSH1 0x44 DUP3 ADD MSTORE PUSH1 0x64 ADD PUSH2 0x467 JUMP JUMPDEST PUSH1 0x0 DUP1 DUP7 PUSH1 0x1 PUSH1 0x1 PUSH1 0xA0 SHL SUB AND DUP6 DUP8 PUSH1 0x40 MLOAD PUSH2 0x2581 SWAP2 SWAP1 PUSH2 0x2D7C JUMP JUMPDEST PUSH1 0x0 PUSH1 0x40 MLOAD DUP1 DUP4 SUB DUP2 DUP6 DUP8 GAS CALL SWAP3 POP POP POP RETURNDATASIZE DUP1 PUSH1 0x0 DUP2 EQ PUSH2 0x25BE JUMPI PUSH1 0x40 MLOAD SWAP2 POP PUSH1 0x1F NOT PUSH1 0x3F RETURNDATASIZE ADD AND DUP3 ADD PUSH1 0x40 MSTORE RETURNDATASIZE DUP3 MSTORE RETURNDATASIZE PUSH1 0x0 PUSH1 0x20 DUP5 ADD RETURNDATACOPY PUSH2 0x25C3 JUMP JUMPDEST PUSH1 0x60 SWAP2 POP JUMPDEST POP SWAP2 POP SWAP2 POP PUSH2 0xB7B DUP3 DUP3 DUP7 PUSH1 0x60 DUP4 ISZERO PUSH2 0x25DD JUMPI POP DUP2 PUSH2 0x1347 JUMP JUMPDEST DUP3 MLOAD ISZERO PUSH2 0x25ED JUMPI DUP3 MLOAD DUP1 DUP5 PUSH1 0x20 ADD REVERT JUMPDEST DUP2 PUSH1 0x40 MLOAD PUSH3 0x461BCD PUSH1 0xE5 SHL DUP2 MSTORE PUSH1 0x4 ADD PUSH2 0x467 SWAP2 SWAP1 PUSH2 0x2D98 JUMP JUMPDEST DUP1 ISZERO ISZERO DUP2 EQ PUSH2 0x10C9 JUMPI PUSH1 0x0 DUP1 REVERT JUMPDEST PUSH1 0x0 PUSH1 0x20 DUP3 DUP5 SUB SLT ISZERO PUSH2 0x2627 JUMPI PUSH1 0x0 DUP1 REVERT JUMPDEST DUP2 CALLDATALOAD PUSH2 0x1347 DUP2 PUSH2 0x2607 JUMP JUMPDEST PUSH1 0x1 PUSH1 0x1 PUSH1 0xA0 SHL SUB DUP2 AND DUP2 EQ PUSH2 0x10C9 JUMPI PUSH1 0x0 DUP1 REVERT JUMPDEST PUSH4 0xFFFFFFFF DUP2 AND DUP2 EQ PUSH2 0x10C9 JUMPI PUSH1 0x0 DUP1 REVERT JUMPDEST PUSH1 0x0 DUP1 PUSH1 0x40 DUP4 DUP6 SUB SLT ISZERO PUSH2 0x266C JUMPI PUSH1 0x0 DUP1 REVERT JUMPDEST DUP3 CALLDATALOAD PUSH2 0x2677 DUP2 PUSH2 0x2632 JUMP JUMPDEST SWAP2 POP PUSH1 0x20 DUP4 ADD CALLDATALOAD PUSH2 0x2687 DUP2 PUSH2 0x2647 JUMP JUMPDEST DUP1 SWAP2 POP POP SWAP3 POP SWAP3 SWAP1 POP JUMP JUMPDEST PUSH1 0x1 PUSH1 0x1 PUSH1 0x40 SHL SUB DUP2 AND DUP2 EQ PUSH2 0x10C9 JUMPI PUSH1 0x0 DUP1 REVERT JUMPDEST PUSH4 0x4E487B71 PUSH1 0xE0 SHL PUSH1 0x0 MSTORE PUSH1 0x41 PUSH1 0x4 MSTORE PUSH1 0x24 PUSH1 0x0 REVERT JUMPDEST PUSH1 0x40 MLOAD PUSH2 0x1A0 DUP2 ADD PUSH1 0x1 PUSH1 0x1 PUSH1 0x40 SHL SUB DUP2 GT DUP3 DUP3 LT OR ISZERO PUSH2 0x26E0 JUMPI PUSH2 0x26E0 PUSH2 0x26A7 JUMP JUMPDEST PUSH1 0x40 MSTORE SWAP1 JUMP JUMPDEST PUSH1 0x0 DUP1 PUSH1 0x0 DUP1 DUP5 DUP7 SUB PUSH1 0xC0 DUP2 SLT ISZERO PUSH2 0x26FD JUMPI PUSH1 0x0 DUP1 REVERT JUMPDEST DUP6 CALLDATALOAD PUSH2 0x2708 DUP2 PUSH2 0x2647 JUMP JUMPDEST SWAP5 POP PUSH1 0x20 DUP7 ADD CALLDATALOAD SWAP4 POP PUSH1 0x40 DUP7 ADD CALLDATALOAD PUSH2 0x271F DUP2 PUSH2 0x2692 JUMP JUMPDEST SWAP3 POP PUSH1 0x60 PUSH1 0x5F NOT DUP3 ADD SLT ISZERO PUSH2 0x2733 JUMPI PUSH1 0x0 DUP1 REVERT JUMPDEST POP PUSH1 0x40 MLOAD PUSH1 0x60 DUP2 ADD DUP2 DUP2 LT PUSH1 0x1 PUSH1 0x1 PUSH1 0x40 SHL SUB DUP3 GT OR ISZERO PUSH2 0x2756 JUMPI PUSH2 0x2756 PUSH2 0x26A7 JUMP JUMPDEST PUSH1 0x40 MSTORE PUSH1 0x60 DUP7 ADD CALLDATALOAD DUP2 MSTORE PUSH1 0x80 DUP7 ADD CALLDATALOAD PUSH1 0x20 DUP3 ADD MSTORE PUSH1 0xA0 DUP7 ADD CALLDATALOAD PUSH1 0xFF DUP2 AND DUP2 EQ PUSH2 0x277E JUMPI PUSH1 0x0 DUP1 REVERT JUMPDEST PUSH1 0x40 DUP3 ADD MSTORE SWAP4 SWAP7 SWAP3 SWAP6 POP SWAP1 SWAP4 POP POP JUMP JUMPDEST PUSH1 0x0 DUP1 PUSH1 0x0 DUP1 PUSH1 0x80 DUP6 DUP8 SUB SLT ISZERO PUSH2 0x27A4 JUMPI PUSH1 0x0 DUP1 REVERT JUMPDEST DUP5 CALLDATALOAD SWAP4 POP PUSH1 0x20 DUP6 ADD CALLDATALOAD PUSH2 0x27B6 DUP2 PUSH2 0x2692 JUMP JUMPDEST SWAP3 POP PUSH1 0x40 DUP6 ADD CALLDATALOAD PUSH2 0x27C6 DUP2 PUSH2 0x2692 JUMP JUMPDEST SWAP4 SWAP7 SWAP3 SWAP6 POP SWAP3 SWAP4 PUSH1 0x60 ADD CALLDATALOAD SWAP3 POP POP JUMP JUMPDEST PUSH1 0x0 DUP1 PUSH1 0x40 DUP4 DUP6 SUB SLT ISZERO PUSH2 0x27E9 JUMPI PUSH1 0x0 DUP1 REVERT JUMPDEST DUP3 CALLDATALOAD PUSH2 0x2677 DUP2 PUSH2 0x2647 JUMP JUMPDEST PUSH1 0x0 PUSH1 0x20 DUP3 DUP5 SUB SLT ISZERO PUSH2 0x2806 JUMPI PUSH1 0x0 DUP1 REVERT JUMPDEST DUP2 CALLDATALOAD PUSH2 0x1347 DUP2 PUSH2 0x2632 JUMP JUMPDEST PUSH1 0x0 PUSH1 0x20 DUP3 DUP5 SUB SLT ISZERO PUSH2 0x2823 JUMPI PUSH1 0x0 DUP1 REVERT JUMPDEST DUP2 CALLDATALOAD PUSH2 0x1347 DUP2 PUSH2 0x2647 JUMP JUMPDEST PUSH1 0x0 DUP1 PUSH1 0x40 DUP4 DUP6 SUB SLT ISZERO PUSH2 0x2841 JUMPI PUSH1 0x0 DUP1 REVERT JUMPDEST DUP3 CALLDATALOAD SWAP2 POP PUSH1 0x20 DUP4 ADD CALLDATALOAD PUSH2 0x2687 DUP2 PUSH2 0x2632 JUMP JUMPDEST PUSH1 0x0 DUP1 PUSH1 0x0 DUP4 DUP6 SUB PUSH1 0xC0 DUP2 SLT ISZERO PUSH2 0x2869 JUMPI PUSH1 0x0 DUP1 REVERT JUMPDEST DUP5 CALLDATALOAD PUSH2 0x2874 DUP2 PUSH2 0x2632 JUMP JUMPDEST SWAP4 POP PUSH1 0x20 DUP6 ADD CALLDATALOAD PUSH2 0x2884 DUP2 PUSH2 0x2647 JUMP JUMPDEST SWAP3 POP PUSH1 0x80 PUSH1 0x3F NOT DUP3 ADD SLT ISZERO PUSH2 0x2898 JUMPI PUSH1 0x0 DUP1 REVERT JUMPDEST POP PUSH1 0x40 MLOAD PUSH1 0x80 DUP2 ADD DUP2 DUP2 LT PUSH1 0x1 PUSH1 0x1 PUSH1 0x40 SHL SUB DUP3 GT OR ISZERO PUSH2 0x28BB JUMPI PUSH2 0x28BB PUSH2 0x26A7 JUMP JUMPDEST PUSH1 0x40 SWAP1 DUP2 MSTORE DUP6 ADD CALLDATALOAD DUP2 MSTORE PUSH1 0x60 DUP6 ADD CALLDATALOAD PUSH2 0x28D3 DUP2 PUSH2 0x2692 JUMP JUMPDEST PUSH1 0x20 DUP3 ADD MSTORE PUSH1 0x80 DUP6 ADD CALLDATALOAD PUSH1 0x40 DUP3 ADD MSTORE PUSH1 0xA0 SWAP1 SWAP5 ADD CALLDATALOAD PUSH1 0x60 DUP6 ADD MSTORE POP SWAP1 SWAP4 SWAP1 SWAP3 POP JUMP JUMPDEST PUSH2 0xFFFF DUP2 AND DUP2 EQ PUSH2 0x10C9 JUMPI PUSH1 0x0 DUP1 REVERT JUMPDEST PUSH1 0x0 DUP1 PUSH1 0x40 DUP4 DUP6 SUB SLT ISZERO PUSH2 0x2918 JUMPI PUSH1 0x0 DUP1 REVERT JUMPDEST DUP3 CALLDATALOAD PUSH2 0x2923 DUP2 PUSH2 0x2647 JUMP JUMPDEST SWAP2 POP PUSH1 0x20 DUP4 ADD CALLDATALOAD PUSH2 0x2687 DUP2 PUSH2 0x28F5 JUMP JUMPDEST PUSH4 0x4E487B71 PUSH1 0xE0 SHL PUSH1 0x0 MSTORE PUSH1 0x11 PUSH1 0x4 MSTORE PUSH1 0x24 PUSH1 0x0 REVERT JUMPDEST DUP1 DUP3 MUL DUP2 ISZERO DUP3 DUP3 DIV DUP5 EQ OR PUSH2 0x5BC JUMPI PUSH2 0x5BC PUSH2 0x2933 JUMP JUMPDEST DUP1 DUP3 ADD DUP1 DUP3 GT ISZERO PUSH2 0x5BC JUMPI PUSH2 0x5BC PUSH2 0x2933 JUMP JUMPDEST PUSH4 0x4E487B71 PUSH1 0xE0 SHL PUSH1 0x0 MSTORE PUSH1 0x12 PUSH1 0x4 MSTORE PUSH1 0x24 PUSH1 0x0 REVERT JUMPDEST PUSH1 0x0 PUSH1 0x1 PUSH1 0x1 PUSH1 0x40 SHL SUB DUP1 DUP5 AND DUP1 PUSH2 0x29A3 JUMPI PUSH2 0x29A3 PUSH2 0x2973 JUMP JUMPDEST SWAP3 AND SWAP2 SWAP1 SWAP2 DIV SWAP3 SWAP2 POP POP JUMP JUMPDEST DUP2 DUP2 SUB DUP2 DUP2 GT ISZERO PUSH2 0x5BC JUMPI PUSH2 0x5BC PUSH2 0x2933 JUMP JUMPDEST PUSH1 0x1 PUSH1 0x1 PUSH1 0x40 SHL SUB DUP3 DUP2 AND DUP3 DUP3 AND SUB SWAP1 DUP1 DUP3 GT ISZERO PUSH2 0x29E2 JUMPI PUSH2 0x29E2 PUSH2 0x2933 JUMP JUMPDEST POP SWAP3 SWAP2 POP POP JUMP JUMPDEST PUSH1 0x0 DUP3 PUSH2 0x29F8 JUMPI PUSH2 0x29F8 PUSH2 0x2973 JUMP JUMPDEST POP DIV SWAP1 JUMP JUMPDEST PUSH1 0x20 DUP1 DUP3 MSTORE PUSH1 0x6 SWAP1 DUP3 ADD MSTORE PUSH6 0x1C185D5CD959 PUSH1 0xD2 SHL PUSH1 0x40 DUP3 ADD MSTORE PUSH1 0x60 ADD SWAP1 JUMP JUMPDEST PUSH1 0x20 DUP1 DUP3 MSTORE PUSH1 0x7 SWAP1 DUP3 ADD MSTORE PUSH7 0x21616374697665 PUSH1 0xC8 SHL PUSH1 0x40 DUP3 ADD MSTORE PUSH1 0x60 ADD SWAP1 JUMP JUMPDEST PUSH1 0x0 PUSH1 0x20 DUP3 DUP5 SUB SLT ISZERO PUSH2 0x2A50 JUMPI PUSH1 0x0 DUP1 REVERT JUMPDEST POP MLOAD SWAP2 SWAP1 POP JUMP JUMPDEST PUSH4 0xFFFFFFFF DUP2 DUP2 AND DUP4 DUP3 AND ADD SWAP1 DUP1 DUP3 GT ISZERO PUSH2 0x29E2 JUMPI PUSH2 0x29E2 PUSH2 0x2933 JUMP JUMPDEST PUSH1 0x20 DUP1 DUP3 MSTORE DUP2 DUP2 ADD MSTORE PUSH32 0x4F776E61626C653A2063616C6C6572206973206E6F7420746865206F776E6572 PUSH1 0x40 DUP3 ADD MSTORE PUSH1 0x60 ADD SWAP1 JUMP JUMPDEST PUSH4 0xFFFFFFFF DUP3 DUP2 AND DUP3 DUP3 AND SUB SWAP1 DUP1 DUP3 GT ISZERO PUSH2 0x29E2 JUMPI PUSH2 0x29E2 PUSH2 0x2933 JUMP JUMPDEST DUP1 MLOAD PUSH2 0x2AD1 DUP2 PUSH2 0x2647 JUMP JUMPDEST SWAP2 SWAP1 POP JUMP JUMPDEST PUSH1 0x0 JUMPDEST DUP4 DUP2 LT ISZERO PUSH2 0x2AF1 JUMPI DUP2 DUP2 ADD MLOAD DUP4 DUP3 ADD MSTORE PUSH1 0x20 ADD PUSH2 0x2AD9 JUMP JUMPDEST POP POP PUSH1 0x0 SWAP2 ADD MSTORE JUMP JUMPDEST PUSH1 0x0 DUP3 PUSH1 0x1F DUP4 ADD SLT PUSH2 0x2B0B JUMPI PUSH1 0x0 DUP1 REVERT JUMPDEST DUP2 MLOAD PUSH1 0x1 PUSH1 0x1 PUSH1 0x40 SHL SUB DUP1 DUP3 GT ISZERO PUSH2 0x2B25 JUMPI PUSH2 0x2B25 PUSH2 0x26A7 JUMP JUMPDEST PUSH1 0x40 MLOAD PUSH1 0x1F DUP4 ADD PUSH1 0x1F NOT SWAP1 DUP2 AND PUSH1 0x3F ADD AND DUP2 ADD SWAP1 DUP3 DUP3 GT DUP2 DUP4 LT OR ISZERO PUSH2 0x2B4D JUMPI PUSH2 0x2B4D PUSH2 0x26A7 JUMP JUMPDEST DUP2 PUSH1 0x40 MSTORE DUP4 DUP2 MSTORE DUP7 PUSH1 0x20 DUP6 DUP9 ADD ADD GT ISZERO PUSH2 0x2B66 JUMPI PUSH1 0x0 DUP1 REVERT JUMPDEST PUSH2 0x2B77 DUP5 PUSH1 0x20 DUP4 ADD PUSH1 0x20 DUP10 ADD PUSH2 0x2AD6 JUMP JUMPDEST SWAP7 SWAP6 POP POP POP POP POP POP JUMP JUMPDEST DUP1 MLOAD PUSH2 0x2AD1 DUP2 PUSH2 0x2632 JUMP JUMPDEST DUP1 MLOAD PUSH2 0x2AD1 DUP2 PUSH2 0x28F5 JUMP JUMPDEST DUP1 MLOAD PUSH2 0x2AD1 DUP2 PUSH2 0x2607 JUMP JUMPDEST DUP1 MLOAD PUSH1 0x1 PUSH1 0x1 PUSH1 0xF8 SHL SUB NOT DUP2 AND DUP2 EQ PUSH2 0x2AD1 JUMPI PUSH1 0x0 DUP1 REVERT JUMPDEST DUP1 MLOAD PUSH16 0xFFFFFFFFFFFFFFFFFFFFFFFFFFFFFFFF DUP2 AND DUP2 EQ PUSH2 0x2AD1 JUMPI PUSH1 0x0 DUP1 REVERT JUMPDEST DUP1 MLOAD PUSH2 0x2AD1 DUP2 PUSH2 0x2692 JUMP JUMPDEST PUSH1 0x0 PUSH1 0x20 DUP3 DUP5 SUB SLT ISZERO PUSH2 0x2BF7 JUMPI PUSH1 0x0 DUP1 REVERT JUMPDEST DUP2 MLOAD PUSH1 0x1 PUSH1 0x1 PUSH1 0x40 SHL SUB DUP1 DUP3 GT ISZERO PUSH2 0x2C0E JUMPI PUSH1 0x0 DUP1 REVERT JUMPDEST SWAP1 DUP4 ADD SWAP1 PUSH2 0x1A0 DUP3 DUP7 SUB SLT ISZERO PUSH2 0x2C23 JUMPI PUSH1 0x0 DUP1 REVERT JUMPDEST PUSH2 0x2C2B PUSH2 0x26BD JUMP JUMPDEST PUSH2 0x2C34 DUP4 PUSH2 0x2AC6 JUMP JUMPDEST DUP2 MSTORE PUSH1 0x20 DUP4 ADD MLOAD DUP3 DUP2 GT ISZERO PUSH2 0x2C48 JUMPI PUSH1 0x0 DUP1 REVERT JUMPDEST PUSH2 0x2C54 DUP8 DUP3 DUP7 ADD PUSH2 0x2AFA JUMP JUMPDEST PUSH1 0x20 DUP4 ADD MSTORE POP PUSH2 0x2C66 PUSH1 0x40 DUP5 ADD PUSH2 0x2B81 JUMP JUMPDEST PUSH1 0x40 DUP3 ADD MSTORE PUSH2 0x2C77 PUSH1 0x60 DUP5 ADD PUSH2 0x2B8C JUMP JUMPDEST PUSH1 0x60 DUP3 ADD MSTORE PUSH1 0x80 DUP4 ADD MLOAD PUSH1 0x80 DUP3 ADD MSTORE PUSH2 0x2C92 PUSH1 0xA0 DUP5 ADD PUSH2 0x2B97 JUMP JUMPDEST PUSH1 0xA0 DUP3 ADD MSTORE PUSH2 0x2CA3 PUSH1 0xC0 DUP5 ADD PUSH2 0x2BA2 JUMP JUMPDEST PUSH1 0xC0 DUP3 ADD MSTORE PUSH2 0x2CB4 PUSH1 0xE0 DUP5 ADD PUSH2 0x2B8C JUMP JUMPDEST PUSH1 0xE0 DUP3 ADD MSTORE PUSH2 0x100 SWAP2 POP PUSH2 0x2CC9 DUP3 DUP5 ADD PUSH2 0x2BBA JUMP JUMPDEST SWAP2 DUP2 ADD SWAP2 SWAP1 SWAP2 MSTORE PUSH2 0x120 DUP3 DUP2 ADD MLOAD SWAP1 DUP3 ADD MSTORE PUSH2 0x140 DUP1 DUP4 ADD MLOAD SWAP1 DUP3 ADD MSTORE PUSH2 0x160 SWAP1 PUSH2 0x2CF5 DUP3 DUP5 ADD PUSH2 0x2BDA JUMP JUMPDEST DUP3 DUP3 ADD MSTORE PUSH2 0x180 SWAP2 POP PUSH2 0x2D09 DUP3 DUP5 ADD PUSH2 0x2BDA JUMP JUMPDEST SWAP2 DUP2 ADD SWAP2 SWAP1 SWAP2 MSTORE SWAP5 SWAP4 POP POP POP POP JUMP JUMPDEST PUSH3 0xFFFFFF DUP2 DUP2 AND DUP4 DUP3 AND MUL DUP1 DUP3 AND SWAP2 SWAP1 DUP3 DUP2 EQ PUSH2 0x2D37 JUMPI PUSH2 0x2D37 PUSH2 0x2933 JUMP JUMPDEST POP POP SWAP3 SWAP2 POP POP JUMP JUMPDEST PUSH1 0x1 PUSH1 0x1 PUSH1 0x40 SHL SUB DUP2 DUP2 AND DUP4 DUP3 AND ADD SWAP1 DUP1 DUP3 GT ISZERO PUSH2 0x29E2 JUMPI PUSH2 0x29E2 PUSH2 0x2933 JUMP JUMPDEST PUSH1 0x0 PUSH1 0x20 DUP3 DUP5 SUB SLT ISZERO PUSH2 0x2D71 JUMPI PUSH1 0x0 DUP1 REVERT JUMPDEST DUP2 MLOAD PUSH2 0x1347 DUP2 PUSH2 0x2607 JUMP JUMPDEST PUSH1 0x0 DUP3 MLOAD PUSH2 0x2D8E DUP2 DUP5 PUSH1 0x20 DUP8 ADD PUSH2 0x2AD6 JUMP JUMPDEST SWAP2 SWAP1 SWAP2 ADD SWAP3 SWAP2 POP POP JUMP JUMPDEST PUSH1 0x20 DUP2 MSTORE PUSH1 0x0 DUP3 MLOAD DUP1 PUSH1 0x20 DUP5 ADD MSTORE PUSH2 0x2DB7 DUP2 PUSH1 0x40 DUP6 ADD PUSH1 0x20 DUP8 ADD PUSH2 0x2AD6 JUMP JUMPDEST PUSH1 0x1F ADD PUSH1 0x1F NOT AND SWAP2 SWAP1 SWAP2 ADD PUSH1 0x40 ADD SWAP3 SWAP2 POP POP JUMP INVALID LOG2 PUSH5 0x6970667358 0x22 SLT KECCAK256 0xB3 0xD5 EXTCODEHASH 0xF7 0x2E 0xB0 0xB1 PUSH29 0x2E880B1308E4E8001EA52CC8FDBBFB3DD314330EBB09309A64736F6C63 NUMBER STOP ADDMOD GT STOP CALLER ",
  "sha1": "06ee6a01a9a0ddc9cbd23eeb8c9169b43467ac9a",
  "source": "pragma solidity ^0.8.0;\n\n// SPDX-License-Identifier: MIT\n\n/**\n *\n * This code is part of HouseOfPanda project.\n *\n */\n\nimport \"@openzeppelin/contracts/token/ERC1155/ERC1155.sol\";\nimport \"@openzeppelin/contracts/token/ERC20/utils/SafeERC20.sol\";\nimport \"@openzeppelin/contracts/security/ReentrancyGuard.sol\";\nimport \"@openzeppelin/contracts/access/Ownable.sol\";\n\nimport \"./ERC1155Tradable.sol\";\nimport \"./interfaces/ICoin.sol\";\nimport \"./interfaces/IProjectMan.sol\";\nimport \"./types/ProjectInfo.sol\";\nimport \"./types/HoldingInfo.sol\";\nimport \"./types/StakeInfo.sol\";\nimport \"./SigVerifier.sol\";\nimport \"./HasAdmin.sol\";\n\nuint16 constant REWARD_TYPE_HOLDING = 1;\nuint16 constant REWARD_TYPE_STAKING = 2;\n\ninterface IStaker {\n    function setProjectMan(address _projectMan) external;\n\n    function getHoldingInfo(\n        address user,\n        uint32 projectId\n    ) external view returns (HoldingInfo memory);\n\n    function getHoldingInfoRaw(\n        address user,\n        uint32 projectId\n    ) external view returns (HoldingInfo memory);\n\n    function setHoldingInfoData(\n        address user,\n        uint32 projectId,\n        HoldingInfo memory holding\n    ) external;\n\n    function getStakingInfo(\n        address _staker,\n        uint32 projectId\n    ) external view returns (StakeInfo memory);\n\n    function getStakingInfoRaw(\n        address user,\n        uint32 projectId\n    ) external view returns (StakeInfo memory);\n\n    function calculateRewards(\n        uint256 _amount,\n        uint64 _startTime,\n        uint64 _endTime,\n        uint256 apy\n    ) external pure returns (uint256 rewards);\n\n    function collectRewards(uint32 projectId) external returns (bool);\n\n    function pause(bool _paused) external;\n\n    function owner() external view returns (address);\n}\n\ncontract Staker is ReentrancyGuard, Ownable, HasAdmin, SigVerifier {\n    using SafeERC20 for ICoin;\n\n    IProjectMan internal projectMan;\n    ICoin internal stableCoin;\n\n    bool public paused = false;\n\n    event StakeEvent(address indexed staker, uint256 amount);\n    event CollectRewards(\n        address indexed staker,\n        uint32 indexed projectId,\n        uint256 amount\n    );\n    event BalanceDeposit(address indexed who, uint256 indexed amount);\n    event BalanceWithdraw(address indexed who, uint256 indexed amount);\n\n    // user -> projectId -> StakeInfo\n    mapping(address => mapping(uint32 => StakeInfo)) internal stakers;\n    mapping(uint64 => uint8) internal usedNonce_;\n    mapping(address => mapping(uint32 => HoldingInfo)) internal holdings;\n\n    constructor(address _stableCoin, address _admin) {\n        stableCoin = ICoin(_stableCoin);\n        _setAdmin(_admin);\n\n        // approve owner\n        stableCoin.safeIncreaseAllowance(address(this), type(uint256).max);\n    }\n\n    modifier onlyProjectMan() {\n        require(msg.sender == address(projectMan), \"!projectMan\");\n        _;\n    }\n\n    function setProjectMan(address _projectMan) external {\n        require(projectMan == IProjectMan(address(0)), \"pm set\");\n        require(tx.origin == owner(), \"!owner\");\n        projectMan = IProjectMan(_projectMan);\n        stableCoin.safeIncreaseAllowance(_projectMan, type(uint256).max);\n    }\n\n    function _getProject(\n        uint32 projectId\n    ) internal view returns (ProjectInfo memory) {\n        return projectMan.getProject(projectId);\n    }\n\n    function changeAdmin(address newAdmin_) external onlyOwner {\n        _setAdmin(newAdmin_);\n    }\n\n    /**\n     * @dev function to calculate rewards,\n     *      rewards is progressive to 12% per year.\n     * @param _amount amount of stable coin.\n     * @param _startTime time when staking started.\n     * @param _endTime time when staking ended.\n     * @return rewards amount of rewards\n     */\n    function calculateRewards(\n        uint256 _amount,\n        uint64 _startTime,\n        uint64 _endTime,\n        uint256 apy\n    ) public pure returns (uint256 rewards) {\n        uint32 a_days = uint32((_endTime - _startTime) / 1 days);\n        uint256 a_amount = (_amount * apy);\n        rewards = (a_amount * a_days) / 365;\n        return rewards / 100;\n    }\n\n    function stake(uint32 projectId, uint32 qty) external returns (bool) {\n        require(!paused, \"paused\");\n        require(qty > 0, \"!qty\");\n\n        address _sender = msg.sender;\n\n        ProjectInfo memory project = _getProject(projectId);\n\n        _checkProject(project);\n        require(project.status == ACTIVE, \"!active\");\n        require(project.startTime <= block.timestamp, \"!start\");\n        require(project.endTime > block.timestamp, \"!ended\");\n\n        // check is user has enough NFT to stake\n        require(\n            IERC1155(address(projectMan)).balanceOf(_sender, projectId) >= qty,\n            \"balance <\"\n        );\n\n        // update stake info\n        StakeInfo memory staker = stakers[_sender][projectId];\n\n        HoldingInfo memory hld = holdings[_sender][project.id];\n\n        uint256 holdingRewards = _accumHoldingRewards(_sender, project, hld);\n\n        // claim remaining holding rewards first if any\n        if (holdingRewards > 0) {\n            stableCoin.safeTransfer(_sender, holdingRewards);\n            emit CollectRewards(_sender, projectId, holdingRewards);\n        }\n\n        uint64 endTime = min(uint64(block.timestamp), project.endTime);\n\n        // update accum if already staked before\n        if (staker.qty > 0 && staker.startTime < endTime) {\n            staker.accumRewards += calculateRewards(\n                staker.qty * project.price,\n                staker.startTime,\n                endTime,\n                project.stakedApy\n            );\n        }\n\n        staker.qty += qty;\n        staker.startTime = uint64(block.timestamp);\n\n        hld.qty -= qty;\n\n        stakers[_sender][projectId] = staker;\n        holdings[_sender][project.id] = hld;\n\n        return true;\n    }\n\n    function max(uint64 a, uint64 b) internal pure returns (uint64) {\n        return a >= b ? a : b;\n    }\n\n    function min(uint64 a, uint64 b) internal pure returns (uint64) {\n        return a <= b ? a : b;\n    }\n\n    /**\n     * @dev get user stake info.\n     */\n    function getStakingInfo(\n        address _staker,\n        uint32 projectId\n    ) external view returns (StakeInfo memory) {\n        StakeInfo memory _stakeInfo = stakers[_staker][projectId];\n        ProjectInfo memory project = _getProject(projectId);\n        uint64 endTime = min(uint64(block.timestamp), project.endTime);\n\n        if (_stakeInfo.startTime > endTime) {\n            return _stakeInfo;\n        }\n\n        _stakeInfo.accumRewards += calculateRewards(\n            _stakeInfo.qty * project.price,\n            _stakeInfo.startTime,\n            endTime,\n            project.stakedApy\n        );\n        return _stakeInfo;\n    }\n\n    function _projectEnd(\n        ProjectInfo memory project\n    ) internal view returns (bool) {\n        return block.timestamp >= project.startTime + ((1 days) * project.term);\n    }\n\n    function isProjectEnd(uint32 id) external view returns (bool) {\n        ProjectInfo memory project = _getProject(id);\n        return _projectEnd(project);\n    }\n\n    function unstake(uint32 projectId, uint32 qty) external returns (bool) {\n        require(!paused, \"paused\");\n        require(qty > 0, \"!qty\");\n\n        address _sender = msg.sender;\n\n        ProjectInfo memory project = _getProject(projectId);\n        require(project.status == ACTIVE, \"!active\");\n\n        StakeInfo memory _stakerInfo = stakers[_sender][projectId];\n\n        require(_stakerInfo.qty != 0, \"!staker.qty\");\n\n        // check is user has enough staked amount to unstake\n        require(_stakerInfo.qty >= qty, \"qty >\");\n\n        // unable to unstake until project end\n        require(_projectEnd(project), \"!end\");\n\n        uint64 endsTime = min(uint64(block.timestamp), project.endTime);\n\n        if (_stakerInfo.startTime < endsTime) {\n            // update accum rewards\n            _stakerInfo.accumRewards += calculateRewards(\n                _stakerInfo.qty * project.price,\n                _stakerInfo.startTime,\n                endsTime,\n                project.stakedApy\n            );\n        }\n\n        _stakerInfo.qty -= qty;\n        _stakerInfo.startTime = uint64(block.timestamp);\n\n        stakers[_sender][projectId] = _stakerInfo;\n\n        // update holding's qty\n        HoldingInfo memory hld = holdings[_sender][project.id];\n        hld.qty += qty;\n        holdings[_sender][project.id] = hld;\n\n        return true;\n    }\n\n    /**\n     * This function allows the user to collect rewards from staking and holding\n     * tokens in a given project.\n     * It takes in two parameters: 'projectId' and 'rewardType'. It first checks to\n     * make sure staking is not paused\n     * and that a valid type of reward is specified. Afterward, it checks that the\n     * project status is active and then\n     * collects rewards. If the reward type indicates staking rewards, it calculates\n     * the rewards earned,\n     * updates the stake information and starts a new stake period. Afterwards, it\n     * transfers the collected rewards\n     * to the user and emits the CollectRewards event.\n     *\n     * @param projectId The ID of the project to collect rewards from.\n     * @param rewardType {uint16} The type of reward to collect. Can be\n     *                   REWARD_TYPE_HOLDING, REWARD_TYPE_STAKING or both.\n     * @return {bool} Boolean indicating success.\n     */\n    function collectRewards(\n        uint32 projectId,\n        uint16 rewardType\n    ) external nonReentrant returns (bool) {\n        require(!paused, \"paused\");\n        require(\n            (rewardType & REWARD_TYPE_HOLDING) != 0 ||\n                (rewardType & REWARD_TYPE_STAKING) != 0,\n            \"!type\"\n        );\n\n        address _sender = msg.sender;\n\n        ProjectInfo memory project = _getProject(projectId);\n        require(project.status == ACTIVE, \"!active\");\n        require(project.startTime <= block.timestamp, \"!start\");\n\n        StakeInfo memory stk = stakers[_sender][projectId];\n\n        uint256 _collectedTotal = 0;\n\n        if ((rewardType & REWARD_TYPE_HOLDING) != 0) {\n            // collect holding rewards\n            HoldingInfo memory _holding = holdings[_sender][project.id];\n            _collectedTotal = _accumHoldingRewards(_sender, project, _holding);\n        }\n\n        if ((rewardType & REWARD_TYPE_STAKING) != 0) {\n            require(stk.qty > 0, \"!staked\");\n\n            // if staked, then claim for staked rewards\n            // update accum rewards\n            uint64 endTime = min(uint64(block.timestamp), project.endTime);\n\n            if (stk.startTime > endTime) {\n                return false;\n            }\n\n            uint256 _accumRewards = stk.accumRewards;\n            _accumRewards = calculateRewards(\n                stk.qty * project.price,\n                stk.startTime,\n                endTime,\n                project.stakedApy\n            );\n\n            stk.startTime = uint64(block.timestamp);\n            stk.accumRewards = 0;\n            stk.claimedRewards += _accumRewards;\n\n            stakers[_sender][projectId] = stk;\n\n            holdings[_sender][projectId].startTime = stk.startTime;\n\n            _collectedTotal += _accumRewards;\n        }\n\n        // transfer rewards to user\n        if (_collectedTotal > 0) {\n            stableCoin.safeTransfer(_sender, _collectedTotal);\n            emit CollectRewards(_sender, projectId, _collectedTotal);\n            return true;\n        }\n        // stableCoin.safeTransfer(_sender, _accumRewards);\n\n        return false;\n    }\n\n    /**\n     * This function calculates the total accumulated rewards for a given user and\n     * project.\n     * It takes in an '_sender' address and 'project' object.\n     * It then checks if the user has any tokens in holdings and calculates the\n     * rewards accordingly.\n     * Finally, it updates the holding information and returns the accumulated\n     * rewards.\n     *\n     * @param _sender The address of the user who's rewards will be calculated.\n     * @param project Project object containing project info.\n     * @return {uint256} The total accumulated rewards for the given user and\n     * project.\n     */\n    function _accumHoldingRewards(\n        address _sender,\n        ProjectInfo memory project,\n        HoldingInfo memory hld\n    ) private returns (uint256) {\n        if (hld.qty == 0) {\n            return 0;\n        }\n\n        uint64 endTime = min(uint64(block.timestamp), project.endTime);\n\n        if (hld.startTime > endTime) {\n            return 0;\n        }\n\n        uint256 _accumRewards = hld.accumRewards;\n\n        _accumRewards += calculateRewards(\n            hld.qty * project.price,\n            hld.startTime,\n            endTime,\n            project.apy\n        );\n        hld.startTime = uint64(block.timestamp);\n        hld.accumRewards = 0;\n        hld.claimedRewards += _accumRewards;\n\n        holdings[_sender][project.id] = hld;\n\n        return _accumRewards;\n    }\n\n    /**\n     * @dev Function to collect specific amount of rewards from project manually,\n     *      rewards is calculated off-chain and need authorization signature to proceed.\n     *      This procedure can work in paused state (for emergency purpose).\n     * @param projectId the ID of project.\n     * @param amount the amount of rewards to collect.\n     * @param nonce the nonce of the signature.\n     * @param sig the signature to authorize the transaction.\n     */\n    function collectRewardsBy(\n        uint32 projectId,\n        uint256 amount,\n        uint64 nonce,\n        Sig memory sig\n    ) external nonReentrant returns (bool) {\n        require(nonce >= uint64(block.timestamp) / 60, \"x nonce\");\n        require(usedNonce_[nonce] == 0, \"x nonce\");\n\n        ProjectInfo memory project = _getProject(projectId);\n\n        require(project.id != 0, \"!project\");\n\n        address _sender = msg.sender;\n\n        StakeInfo memory stk = stakers[_sender][projectId];\n\n        require(stk.qty != 0, \"!staker.qty\");\n\n        // check signature\n        bytes32 message = sigPrefixed(\n            keccak256(abi.encodePacked(projectId, _sender, amount, nonce))\n        );\n\n        require(_isSigner(admin, message, sig), \"x signature\");\n\n        usedNonce_[nonce] = 1;\n\n        uint256 _accumRewards = stk.accumRewards;\n\n        uint64 endTime = min(uint64(block.timestamp), project.endTime);\n\n        // if (stk.startTime > endTime) {\n        //     return false;\n        // }\n\n        _accumRewards += calculateRewards(\n            stk.qty * project.price,\n            stk.startTime,\n            endTime,\n            project.stakedApy\n        );\n\n        // amount must be less or equal to accumRewards\n        require(amount <= _accumRewards, \"x amount\");\n\n        stk.startTime = uint64(block.timestamp);\n        stk.accumRewards = _accumRewards - amount;\n        stk.claimedRewards += amount;\n\n        stakers[_sender][projectId] = stk;\n\n        // transfer rewards to staker\n        stableCoin.safeTransfer(_sender, amount);\n\n        emit CollectRewards(_sender, projectId, amount);\n\n        return true;\n    }\n\n    /**\n     * @dev check is project exists\n     */\n    function _checkProject(ProjectInfo memory project) internal pure {\n        require(project.id > 0, \"!project\");\n    }\n\n    /**\n     * @dev get holding information on project of user\n     */\n    function getHoldingInfo(\n        address user,\n        uint32 projectId\n    ) external view returns (HoldingInfo memory) {\n        HoldingInfo memory _holding = holdings[user][projectId];\n        ProjectInfo memory project = _getProject(projectId);\n        uint64 endTime = min(uint64(block.timestamp), project.endTime);\n\n        if (_holding.startTime > endTime) {\n            return _holding;\n        }\n\n        _holding.accumRewards += calculateRewards(\n            _holding.qty * project.price,\n            _holding.startTime,\n            endTime,\n            project.apy\n        );\n        return _holding;\n    }\n\n    function getHoldingInfoRaw(\n        address user,\n        uint32 projectId\n    ) external view returns (HoldingInfo memory) {\n        return holdings[user][projectId];\n    }\n\n    function setHoldingInfoData(\n        address user,\n        uint32 projectId,\n        HoldingInfo memory holding\n    ) external onlyProjectMan {\n        holdings[user][projectId] = holding;\n    }\n\n    function getStakingInfoRaw(\n        address user,\n        uint32 projectId\n    ) public view returns (StakeInfo memory) {\n        StakeInfo memory staker = stakers[user][projectId];\n        return staker;\n    }\n\n    function _checkAddress(address addr) private pure {\n        require(addr != address(0), \"x addr\");\n    }\n\n    /**\n     * @dev Withdraw amount of deposit from this contract to `to` address.\n     *      Caller of this function must be owner.\n     * @param amount to withdraw.\n     * @param to address to withdraw to.\n     */\n    function withdrawTo(uint256 amount, address to) external onlyOwner {\n        _checkAddress(to);\n        require(amount > 0, \"!amount\");\n\n        require(stableCoin.balanceOf(address(this)) >= amount, \"balance <\");\n\n        stableCoin.safeTransferFrom(address(this), to, amount);\n\n        emit BalanceWithdraw(to, amount);\n    }\n\n    /**\n     * This function is used to pause or unpause contract.\n     * Only the owner of the contract or the project manager contract can call this function.\n     *\n     * @param _paused A boolean indicating whether should be paused or not.\n     */\n    function pause(bool _paused) external {\n        require(\n            owner() == _msgSender() || address(projectMan) == _msgSender(),\n            \"!owner\"\n        );\n        paused = _paused;\n    }\n}\n",
  "sourcePath": "contracts/Staker.sol",
  "type": "contract"
}